:020000040801F1
:10200000C00A00209D34010877C7020877C702087C
:102010008DD9020877C7020877C7020877C7020878
:1020200077C7020877C7020877C7020877C7020890
:1020300077C70208D459030825C5020877C70208E4
:1020400077C7020877C7020877C7020877C7020870
:1020500077C7020877C7020877C7020877C7020860
:1020600077C70208892D01081FC6020877C7020832
:1020700077C7020877C7020877C7020877C7020840
:1020800077C7020877C7020877C7020877C7020830
:1020900077C70208713E010877C7020877C70208B0
:1020A00077C70208714001084D40010877C7020850
:1020B00077C7020811A002089DAA02088D450308EF
:1020C0008945030845A2020899450308914503087C
:1020D00075AA020895450308DDAA020849AB020863
:1020E00077C7020877C7020877C7020877C70208D0
:1020F00083D5020877C7020877C7020877C70208A6
:1021000077C7020877C7020877C7020877C70208AF
:1021100077C7020877C7020877C7020877C702089F
:1021200077C7020877C7020877C7020877C702088F
:1021300077C7020877C7020877C7020877C702087F
:1021400077C7020877C7020877C702081DDB0208B5
:10215000A988020877C702081F420308254203081E
:1021600077C7020877C7020877C7020877C702084F
:10217000013800D0FCE77047002370B5404C05469D
:102180008AB0E36318B1008823600BF045FD3D4839
:1021900021F073FD3C4E3D4B304633603C4B736049
:1021A0001EF0C2FE0021304611F0DAFE32A3D3E960
:1021B0000023A062C4E906231EF0C1FED4E9062371
:1021C00019431043C4E90601CDE900014FF0FF3384
:1021D0004FF0FF32A06A21F09DFD02224FF0FF3147
:1021E000A06A21F09CFD01200BF098FA4FF40073D7
:1021F00000222849A06A21F0E3FDB0F5007F38D124
:1022000000239422CDE9073309933C23CDE903321F
:1022100005939623A06A03A9069311F0BFFF35B377
:10222000287C0BF077FE0546F0B9A06A21F0A9FEE4
:102230000BF01EFE0BF054FA20B14FF48070002119
:1022400009F0C6FA0BF05CFA20B14FF400600021EF
:1022500009F0BEFA1EF036FF012011F0D5FE0E4A3D
:102260000E49A06A1EF05EFE28460AB070BDFF202F
:10227000D7E70725F8E700BF0DD50155200000007E
:10228000480F0020690345EC90220020A1D50108E9
:10229000A022002090200020CD0E03080D0F03087F
:1022A0000348044B834202D0034B03B118477047E5
:1022B000D80E0020D80E002000000000064B074971
:1022C000C91A891048BF0131491003D0044B0BB122
:1022D00001481847704700BFD80E0020D80E0020D4
:1022E0000000000010B5064C237843B9FFF7D8FF73
:1022F000044B13B10448AFF300800123237010BDD9
:10230000482A00200000000098B0030808B5054BDB
:102310001BB105490548AFF30080BDE80840FFF751
:10232000CDBF00BF00000000B811002098B0030826
:10233000A3F5803A704700BF174B002B08BF134B23
:102340009D46FFF7F5FF00218B460F461348144AC0
:10235000121A22F0F4F90E4B002B00D098470D4BC7
:10236000002B00D098470020002104000D000D48EC
:10237000002802D00C48AFF3008019F04FF820007D
:1023800029001AF0C3F818F0EDFD00BF00000800A6
:102390000000000000000000C00A0020D80E00204D
:1023A000582B00200000000000000000154B37B53E
:1023B00018681AF000FA08B1012820D18DF807003A
:1023C000012200211D200DF107030EF02FF8044615
:1023D00090B9032000F008FE70B10B4D0B4928683E
:1023E0001BF01CF91AF069F91AF068F99DF807203A
:1023F000074928681BF012F9204603B030BD0124BC
:10240000FAE700BFCC0A002088120020805403089D
:102410008554030830B585B00DF10B05012200216C
:102420001D20009503AB0DF0CFFF044668B92A4686
:1024300001211D200EF028F8044630B9044B9DF808
:102440000B20044918681BF0E9F8204605B030BDA0
:10245000881200209F54030808B5044B18681AF02E
:10246000B3F9BDE808401AF025B900BFCC0A002036
:1024700038B5154B1A782AB300221A70FFF796FF69
:10248000044618B9FFF7C6FF0446D8B1012000F092
:10249000ABFDB8B10D4D0E4928681BF0BFF81AF01E
:1024A0000CF91AF00BF923460A490B4A28681BF06D
:1024B000B5F8204600F0DEFD28680849BDE8384040
:1024C0001BF0ACB838BD00BF492A0020881200209C
:1024D000BB540308C3540308C05403088C550308B5
:1024E0007FB50368AC4A23F47F4323F0070393428C
:1024F00000F0A3810AD8A2F5102293422AD002F557
:10250000A022934200F0FA8004B070BDA34A934227
:1025100000F0068102F101729342F5D1B0F8053066
:102520001D2BF1D103890320DB0740F1F98100F075
:102530005BFD002800F0BD80994C9A4920681BF093
:102540006DF81AF0BAF81AF0B9F8974920681BF03C
:1025500065F8AEE0954E30460DF0C2FE054610B36C
:102560008F4C934920681BF059F8924920681BF062
:1025700055F81AF0A2F81AF0A1F88F4B8F4A009381
:102580008F49722320681BF049F88E492B468E4AEA
:1025900020681BF043F8284600F06CFD8B4920684A
:1025A0001BF03CF8FEE7022130780DF0D3FE044624
:1025B00010B37B4D7E4928681BF030F87D492868B0
:1025C0001BF02CF81AF079F81AF078F87A4B7B4A5D
:1025D00000937B49772328681BF020F8794923462C
:1025E000794A28681BF01AF8204600F043FD774925
:1025F00028681BF013F8FEE7A0220090034611465E
:1026000030780DF085FE054610B3654C68492068AA
:102610001BF004F8674920681BF000F81AF04DF829
:102620001AF04CF8644B654A009365498023206892
:102630001AF0F4FF63492B46634A20681AF0EEFF54
:10264000284600F017FD614920681AF0E7FFFEE711
:10265000022130780DF092FE054610B3504C5449DB
:1026600020681AF0DBFF534920681AF0D7FF1AF0F0
:1026700024F81AF023F8504B504A00935049852310
:1026800020681AF0CBFF4F492B464F4A20681AF0BA
:10269000C5FF284600F0EEFC4C4920681AF0BEFF4A
:1026A000FEE74B4B18681AF08BF8FFF77FFE0446E5
:1026B00028B9FFF7AFFE044600283FF425AF0120FC
:1026C00000F092FC00283FF41FAF354D41492868C7
:1026D0001AF0A4FF19F0F1FF19F0F0FF3949234671
:1026E000394A28681AF09AFF204600F0C3FC3A499C
:1026F000286804B0BDE870401AF090BF032000F0D5
:1027000073FC00283FF400AF254C264920681AF0DE
:1027100085FF19F0D2FF19F0D1FF30492068E8E7B2
:10272000032000F061FC60B11D4C1E4920681AF0C6
:1027300075FF19F0C2FF19F0C1FF294920681AF08E
:102740006DFF1A4C022120780DF004FE054600288A
:1027500048D0134C164920681AF060FF15492068CC
:102760001AF05CFF19F0A9FF19F0A8FF124B134AE9
:1027700000931349A32320681AF050FF11492B46F8
:10278000114A20681AF04AFF284600F073FC0F49EE
:1027900020681AF043FFFEE7A0000A00A00006012F
:1027A00088120020805403085F550308FE0C0020A7
:1027B0008B550308D85403088D550308DD540308CE
:1027C000E6540308C3540308C0540308F254030832
:1027D000CC0A0020BB5403088C550308035503089A
:1027E00017550308022120780DF0C8FD0546002882
:1027F0003FF48AAE524C534920681AF00FFF5249F9
:1028000020681AF00BFF19F058FF19F057FF4F4BD3
:102810004F4A00934F49A82320681AF0FFFE4E4903
:102820002B464E4A20681AF0F9FE284600F022FC9A
:102830004B4920681AF0F2FEFEE7B0F805001B28AD
:102840007FF462AE0DF10B0300930122002103AB74
:102850000DF0BAFD0446C8B99DF80B30002B32D1FB
:10286000404B186819F0F5FF032000F0BDFB00286D
:102870003FF44AAE324C3C4920681AF0CFFE19F0C2
:102880001CFF19F01BFF3949206819E0012000F0F6
:10289000ABFB00283FF438AE294D354928681AF0C3
:1028A000BDFE19F00AFF19F009FF2B4923462B4AF8
:1028B00028681AF0B3FE204600F0DCFB2D4928689A
:1028C0001AF0ACFE20E6012B14D1264B186819F043
:1028D000BDFF032000F088FB00283FF415AE184C24
:1028E000214920681AF09AFE19F0E7FE19F0E6FE79
:1028F0002149C9E7012000F077FB00283FF404AE2E
:102900000F4C1B4920681AF089FE19F0D6FE19F009
:10291000D5FE9DF80B20194920681AF07FFEF3E5DB
:1029200000F062FB00283FF4EFAD054C0E49206833
:102930001AF074FE19F0C1FE19F0C0FE1049EDE660
:10294000881200208B550308D85403088D550308BE
:10295000DD540308E6540308C3540308C0540308B5
:10296000F2540308D00A0020805403082B550308B2
:10297000BB5403088C550308355503083E5503081E
:1029800075550308034B1B68834202BF0122024BAB
:102990001A707047CC0A0020492A002030B503681D
:1029A0007C4A23F47F4323F00703934289B040F02D
:1029B000EE80082200211220774B0DF037FD0446EF
:1029C00010B3764D764928681AF028FE75492868B4
:1029D0001AF024FE19F071FE19F070FE724B734A62
:1029E000009373493D2328681AF018FE7149234665
:1029F000714A28681AF012FE204600F03BFB6F492E
:102A000028681AF00BFEFEE70146032214206C4BE7
:102A10000DF00CFD044610B3604D614928681AF0B2
:102A2000FDFD604928681AF0F9FD19F046FE19F01D
:102A300045FE5D4B5D4A00935D494B2328681AF0C3
:102A4000EDFD5C4923465C4A28681AF0E7FD204604
:102A500000F010FB594928681AF0E0FDFEE7014636
:102A600005221620574B0DF0E1FC054610B34B4CE8
:102A70004B4920681AF0D2FD4A4920681AF0CEFD71
:102A800019F01BFE19F01AFE474B484A00934849BB
:102A9000592320681AF0C2FD46492B46464A206851
:102AA0001AF0BCFD284600F0E5FA444920681AF007
:102AB000B5FDFEE70DF10F0104A80DF0FBFC044687
:102AC00010B3364D364928681AF0A8FD35492868F4
:102AD0001AF0A4FD19F0F1FD19F0F0FD324B334A64
:102AE00000933349642328681AF098FD314923463E
:102AF000314A28681AF092FD204600F0BBFA2F49AF
:102B000028681AF08BFDFEE7BDF8143001465BBA69
:102B1000ADF818309DF8133008228DF81A30FF23D5
:102B20008DF81B30FE238DF81C309DF812301820D4
:102B30008DF81D30BDF810305BBAADF81E3006AB15
:102B40000DF074FC054610B3144C154920681AF0BA
:102B500065FD144920681AF061FD19F0AEFD19F009
:102B6000ADFD114B114A00931149742320681AF0EE
:102B700055FD10492B46104A20681AF04FFD284693
:102B800000F078FA0D4920681AF048FDFEE709B018
:102B900030BD00BFA00001009C5503088812002032
:102BA0008B550308D8540308D7550308A5550308C7
:102BB000E6540308C3540308C0540308F25403083E
:102BC000CD550308D155030810B5274C01F06AFF15
:102BD00002F0C2F9236F23F0070343F003032367D6
:102BE00019F0BCFE214B00209B6ADB015EBF4FF455
:102BF00080321F4B9A62D4F8203123F0070343F050
:102C00000203C4F82031D4F8283123F0070343F03D
:102C10000203C4F82831D4F8403123F0030343F011
:102C20000203C4F84031D4F8603123F0030343F0C9
:102C30000203C4F86031D4F8403223F0030343F0B8
:102C40000203C4F84032D4F8003223F0070343F003
:102C50000203C4F80032D4F8083223F0070343F02B
:102C60000203C4F8083210BD008000500040005A32
:102C70000060005A30B5204D95B00DAC0FCD0FC49B
:102C800095E80700292384E807001C4A0024CDE9C1
:102C900002230523CDE904448DF811300623214693
:102CA0000E220DF126008DF81330069421F047FD19
:102CB0004FF48021124B0DAACDE9071309238DF89B
:102CC00024300A238DF825300E4B07A90A932023C0
:102CD0000B9301238DF831300B4B0C48009302AB62
:102CE00004F004FE054621464FF4E13019F034FDAE
:102CF000284615B030BD00BFC458030800C00550B9
:102D000024C005504A2A0020D0110020241200209F
:102D1000831E012B10B512D8012922D8114B042291
:102D20001B6C05210020C3F3401302F04FFB0E4B38
:102D30001B681868A8B1BDE81040436A18478B1E8D
:102D4000012B0CD801280CD8BDE810400022054BFF
:102D500005211B6C1046C3F3401302F037BB012959
:102D6000E5D910BD00C00350C00A002008B50449D1
:102D7000044805F0C5F8BDE80840FFF77BBF00BF79
:102D8000C40A00204812002001481AF0B5BD00BF57
:102D900024120020014B1A6A1868104724120020E0
:102DA000014819F003BD00BFE0580308014819F0BD
:102DB0004ABD00BFF8580308184B37B583422AD1E3
:102DC000174B1B783BB3C8B20DF0ECFA054610B3B5
:102DD000144C154920681AF021FC144920681AF097
:102DE0001DFC19F06AFC19F069FC114B114A0093A3
:102DF0001149852320681AF011FC10492B46104A0E
:102E000020681AF00BFC284600F034F90D492068C0
:102E10001AF004FCFEE703B030BD00BF50120020E2
:102E20006A2A0020881200208B550308D854030812
:102E30008259030810590308E6540308C3540308D1
:102E4000C0540308F254030830B500250368584AFB
:102E500023F47F4323F0070385B093420446029591
:102E6000ADF80C507ED002F5802293420ED0A2F134
:102E70008272934240F09A804E4B1B78002B00F0F8
:102E8000958005B0BDE830401AF095BEB0F8053029
:102E9000212B40F08B80FF2304A91A4611E903007F
:102EA00019F001FC012814BF41F2FC15414B05F05B
:102EB000FC0208BF1870212120790DF0CDFA0546DB
:102EC00010B33D4C3D4920681AF0A8FB3C492068EE
:102ED0001AF0A4FB19F0F1FB19F0F0FB394B3A4A58
:102EE00000933A49592320681AF098FB38492B4639
:102EF000384A20681AF092FB284600F0BBF83649A1
:102F000020681AF08BFBFEE7344900902379344A9D
:102F10000968344800F008F90546002846D0264CD8
:102F2000264920681AF07AFB254920681AF076FBBA
:102F300019F0C3FB19F0C2FB224B234A009323492B
:102F4000622320681AF06AFB21492B46214A206837
:102F50001AF064FB284600F08DF81F4920681AF02B
:102F60005DFBFEE7B0F80530B7EE047A07EE903A65
:102F7000F8EE677AB0F8073067EE877A013307EE2C
:102F8000103AB8EEC77A67EE877AB1EE047A67EE48
:102F9000877AFAFE677AFCEEE77A17EE903AB3F595
:102FA0007A7F38BF4FF47A730C4A136005B030BD96
:102FB000A00006026A2A0020881200208B55030810
:102FC000D85403089159030810590308E65403081C
:102FD000C3540308C0540308F2540308D40A002061
:102FE000B92D0108501200200B4B02461B7883B10B
:102FF0000A4B1B78834234BF00200120084B1B780A
:1030000033B1084B1B78134113F0010F08BF0020A8
:1030100070470120F2E700BF040D0020030D0020DF
:103020006B2A0020020D0020012208B5074B1A7000
:103030000022074B1A700422064B1A701F22064BFF
:103040001A7004F04FFA054B186008BD040D0020FB
:103050006B2A0020030D0020020D002088120020A2
:10306000024B034918681AF0D9BA00BF8812002031
:10307000B159030870B50C4C0C49064620681AF08B
:10308000CDFA04F02FFA0546206804F01FFA304606
:10309000FFF7E6FF284604F019FA20680449BDE866
:1030A00070401AF0BBBA00BF88120020B359030861
:1030B000B559030838B5054619F06CFC00230B4AD6
:1030C00014685CB1AC4206D1A96A6BB1996219F07F
:1030D00067FC012007E02346A46AF2E7002DF3D045
:1030E00019F05EFC204638BD1160F0E78C1200201C
:1030F00010B5044698B105F07DFB2046FFF7DAFFD6
:1031000010B194F82C300BB9002010BD19F042FC1E
:10311000044A1368013B136019F042FCF4E72220D3
:10312000F3E700BF901200202DE9F04385B005467B
:10313000914698460E469DF8307009B9002F5CD133
:103140002846FFF7D5FF0446002836D185F82C0025
:10315000686305F043FC864233D905F0DFFB214666
:10316000844640F2E7304FF47A720023E6FB0C010C
:1031700017F060FD4FF0FF32002317F05BFD2B4688
:10318000E88611462846CDE900441D4A1AF071FC34
:10319000044690B9C5E9089885F82D702E6319F09A
:1031A000F9FB184A136833B31A469B6A002BFBD10C
:1031B00095620023AB6219F0F3FB204605B0BDE831
:1031C000F08347B12B4631462846CDE900440C4AEE
:1031D00005F0C8FBDCE7304603A905F0A5FB044673
:1031E0000028EAD12B462846CDE90077044A039906
:1031F0001AF01BFCCCE71560DBE72124DDE700BFFC
:10320000093201088C12002091F82C3013B50C46BD
:1032100083B98B8ECA8E93420ED243B9CDE9003367
:1032200020460B46104A4FF0FF311AF0E2FBA38E06
:103230000133A38602B010BD52B191F82D307BB19D
:1032400001230093D1E908232046096BFFF76CFFA7
:103250000123064A84F82C30136801331360E9E730
:10326000084605F0C7FAF3E709320108901200207A
:103270002DE9F041144E336823B34FF00008134F8B
:1032800019F088FB05463C6824B92846BDE8F041A2
:1032900019F086BB94F82C3093B1336884F82C80F5
:1032A000013B336094F82D3013B92046FFF702FF3D
:1032B000284619F075FBD4E9083120469847DFE726
:1032C000A46AE1E7BDE8F081901200208C12002092
:1032D000034B1B68002B14BF04200120704700BF64
:1032E00090120020024B1868B0FA80F04009704735
:1032F00090120020202808B513DC032804DC0138D4
:10330000012806D90E200BE0094B0438C340DB0727
:10331000F8D5012304220921022002F057F80020E9
:1033200008BD4028EED1012304220821F4E700BFA4
:103330001100001007B5082019F06EFA02238DF86D
:103340000030054B6846019319F0CAF9082003B014
:103350005DF804EB19F06BBA006A18102DE9F04122
:10336000424D88B001AC0FCD0FC495E8070084E84A
:103370000700012401213A2001F052F93C4E0121BD
:10338000292001F04DF93B4B304601A903938DF8FC
:10339000124002F093FA234604220321022002F095
:1033A00015F8022122460846002302F00FF82346B2
:1033B00021460422022002F009F8042200212346BB
:1033C000022002F003F82C4D2C4B05F50058C5F8EF
:1033D00034374FF00213C5F8303703F58033C5F8A2
:1033E00038371C234FF44870C5F8203705F0E4FC4B
:1033F00005F580571420C8F8A04005F0DDFC232017
:10340000C7F8A04005F0D8FCB9213046C8F8A04064
:1034100019F054FB002303211A460220C7F8A040EC
:1034200001F0D4FF002302211A46084601F0CEFF26
:10343000234621460022022001F0C8FF0022234635
:103440001146022001F0C2FF304602F0B5F900211A
:103450002920C5F83417C5F83017C5F83817C5F84E
:10346000201701F0DDF808B0BDE8F081B859030875
:1034700000C0055000127A0000C003500200010095
:103480000348044A0449121A921019F075B900BF92
:10349000C4B40308C4B40308582B002008B500F0D6
:1034A0002FF8FFF7EDFF124B12498B4212D3002089
:1034B000114B12498B4218D3FEF73EFF186850F8A3
:1034C0002240586840F82240013298688242F5D381
:1034D0000C33EAE70022F8E71C6844F822000132C6
:1034E0005C68A242F8D30833E4E70022F8E700BFA3
:1034F000A0B00308ACB00308ACB00308ACB003083C
:103500004FF480414FF0FF30114B124A10B59A60D2
:10351000D3F8882042F47002C3F888200E4A9166DE
:103520000E4901F5005210660D4850660220C3F89E
:10353000D000BFF34F8FBFF36F8F01244FF44033A0
:103540000848C0F88041D36004600B6110BD00BF23
:1035500000ED00E0002001080090005000800044D1
:10356000F7FF370000E100E0014B1868704700BF2B
:10357000DC0A0020084B1B6F03F00703022B04D06A
:10358000032B05D0012B05D0FEE7044B18687047CC
:10359000034BFBE70348704700800050DC0A002023
:1035A000E40A0020002D310108B5FFF7E3FF054BC9
:1035B0001B6FC3F303330133B0FBF3F0024B18600E
:1035C00008BD00BF00800050D80A002000487047A6
:1035D00000B4C404014B1868704700BFE40A00201F
:1035E000054B1860054B1B6F03F00703032B01D13C
:1035F000FFF7DABF704700BFE40A002000800050E8
:1036000000487047002D31014FF0B4439868C0F373
:1036100004400C280AD8DFE800F00B090909090961
:10362000072119091B1D1F000F4870470020704714
:103630009B6803F04073B3F1807F11D0B3F1007F3A
:1036400010D00A4A002B08BF104670470848704740
:10365000084870470848704708487047084870474E
:103660000848704708487047405DC60000093D00A3
:10367000C0EA210180BA8C010048E801005A6202C8
:103680000024F40080841E0040420F00014B1868A3
:10369000704700BFE00A00204FF000639B6A10B53E
:1036A00003F17842B2F5903F11D21968094A91426C
:1036B0000DD1094C227812F0FD0F01D0002010BD71
:1036C000DB6998470028FAD101232370F6E74FF40D
:1036D0008170F4E707B0CD5E6C2A00204FF00053F4
:1036E000074A1A60BFF34F8F0649074BCA6802F4B6
:1036F000E0621343CB60BFF34F8F00BFFDE700BF15
:1037000002020FF000ED00E00400FA050346054A4E
:103710000549106803448B428CBF4FF0FF301360A3
:10372000704700BFE80A00200000042010B40A68B7
:1037300008461378022B10D014213023147913FB80
:10374000041307495B585179CB40DB4303F0010375
:1037500013705DF8044BFFF715B95DF8044B704723
:1037600030C00350F7B50468012105463A2000F047
:1037700057FF002301226179207901F027FE1422EE
:103780003023217913FB01231D4A99586379D940CD
:10379000C943A37901F00101022B217017D100F078
:1037A000BDFB184A2B466179207900F0E1FBFF2828
:1037B000024660790ED12A46124900F015FC012319
:1037C000024661792079CDE9003301F0A5FD0020A2
:1037D00003B0F0BD01262779002301460096384644
:1037E00001F05CFE2A460749607900F0FDFB0023EA
:1037F000617902462079009301963346E5E700BFE0
:1038000030C003502D37010802681378022B24D0F2
:1038100014213023107913FB001310495B585179A0
:10382000CB40917903F00103012912D1508843EA7A
:1038300040034FF6E07063F03F039BB2834202D136
:103840001170538070474FF6DF718B42F9D1002120
:10385000F6E711B983F001031370704730C00350CD
:1038600008B501213A2000F0DBFE012304220321E8
:10387000002001F0ABFD002019F0A9F80122354B22
:103880003549C3F844244FF40022A3F550335A6657
:10389000324BD3F8FC20D20146D4D1F8803023F04B
:1038A000030343F00203C1F880304FF4607000F06E
:1038B000D1FE2A4B00F5D520D3F8F02000F2FC40D1
:1038C00042F00102C3F8F020D3F8FC2042F08072ED
:1038D000C3F8FC20224AA3F55D431A60214B022263
:1038E000B0FBF3F0204B01381861C3F8F0204FF41F
:1038F0008072C3F804234FF060431C4A0020C3F8D1
:10390000B02F1B4AC3F8802ED3F8002E42F48072E9
:10391000C3F8002EFF2283F82020D3F8002E22F4D3
:103920008072C3F8002E08BDD3F8FC2022F080720C
:10393000C3F8FC20D1F8802022F0030242F00202FA
:10394000C1F88020D3F8FC2042F08072C3F8FC203C
:10395000ABE700BF00D003500080005000ED00E056
:10396000FF030040F8590D00000004E055CEACC53F
:10397000090001004FF06043D3F8802E30B5D20724
:1039800015D501240B4D8440D5F8FC2042F08072FF
:10399000C5F8FC20D3F8002E2243C3F8002E53F8BC
:1039A0002020002AF0D003F82010002030BD112084
:1039B000FCE700BF00ED00E010B50122437801787C
:1039C000847830209A40054B00FB01331CB903F585
:1039D00001531A6010BD03F58253FAE700C003508B
:1039E00010B5012243780178847830209A40054B45
:1039F00000FB01331CB903F582531A6010BD03F5B7
:103A00000153FAE700C003500122437801789A403D
:103A100030235943014B5A50704700BF40F00350C8
:103A2000102130230246007813FB001305495B5830
:103A30005178CB4003F0010093780BB980F001007E
:103A4000704700BF30C003502DE9F04F9A46564BE7
:103A500085B01B7806460F461546DDF83C909DF86C
:103A600044B0DDF85080002B00F09780072A00F268
:103A700096800E9B002B00F09280B9F1000F00F0B1
:103A80008E80129BB3F5006F00F38980012803D16B
:103A9000109B002B00F08380444B03EB05131B7B32
:103AA000002B7ED0424C10220021684620F047FEB9
:103AB00004EB45141022A7BB3946204620F03FFEF8
:103AC00043F210036380BBF1000F03D1E37843F0AE
:103AD0000303E370364A0E9B02EB451CCCE90193CD
:103AE000129B6901581E9DF84C30C0F30A0003F088
:103AF00003039B0643EA001E53582E48012E00EA9A
:103B000003004EEA0003CDF800A0535017D0B8F1DF
:103B1000000F2ED19CF8023068F304138CF80230A9
:103B200027E00021204620F00AFE4FF44473638012
:103B3000BBF1000FCED1E37843F03003C9E7132384
:103B40000CF1100ECCF80C309CE80F008EE80F0042
:103B50006FF00301DCF81C20109B61F39F02012F22
:103B6000CCF81C20CCF8143003D1CCF81890CCF849
:103B7000043000270D4A290102EB051342F80180A9
:103B8000159A28465A60694622469F605E7301F086
:103B900001FD384605B0BDE8F08F0748FAE7074851
:103BA000F8E70748F6E700BF6D2A002094130020CD
:103BB000941200200F80FFF3028000F0018000F0DB
:103BC000078000F038B5124B05461B78DBB1E0B139
:103BD00018F0E0FE0F4A00231146147B54B92B6005
:103BE00001251A0101EB03131D738C5018F0D8FE48
:103BF000204638BD0133082B02F11002EDD118F038
:103C0000CFFE0548F5E70548F3E70548F1E700BFB3
:103C10006D2A002094130020048000F0028000F040
:103C2000018000F038B518F0B5FE002305460B4AB8
:103C3000147B6CB90133082B02F11002F8D101F0AA
:103C40004BFC074B28461C7018F0AAFE204603E0E8
:103C5000284618F0A5FE034838BD00BF9413002085
:103C60006D2A0020058000F00D4B10B51B7804462E
:103C700093B1072812D818F08DFE0A4B03EB0413FA
:103C80001A7B2AB100241C7318F08AFE204610BD4E
:103C900018F086FE0448FAE70448F8E70448F6E717
:103CA0006D2A002094130020068000F0028000F0AE
:103CB000018000F0154B13B51868002301908DF8B2
:103CC000043018F067FE124B1C7824B118F068FE1F
:103CD000104802B010BD01221A7018F061FE0E4BA0
:103CE00001A81C731C7783F82C4083F83C4083F8B0
:103CF0004C4083F85C4083F86C4083F87C40082398
:103D00008DF8073001F014FC2046E2E7245A03083E
:103D10006D2A0020038000F0941300200A4A08B5A1
:103D200012785AB107280BD8084A02EB00131B7B04
:103D300043B1002101F0EEFB002008BD0448FCE780
:103D40000448FAE70448F8E76D2A0020941300209D
:103D5000028000F0018000F0078000F00A4A08B5F8
:103D600012785AB107280BD8084A02EB00131B7BC4
:103D700043B1012101F0CEFB002008BD0448FCE75F
:103D80000448FAE70448F8E76D2A0020941300205D
:103D9000028000F0018000F0078000F00A4A08B5B8
:103DA000127852B107280AD8084A02EB00131B7B8D
:103DB0003BB101F03BFC002008BD0548FCE705488D
:103DC000FAE70548F8E700BF6D2A002094130020A9
:103DD000028000F0018000F0078000F00D4B1B789E
:103DE00093B1072812D889B10B4B03EB00131B7B4F
:103DF00073B10A4B1A6D01238340134214BF012390
:103E0000002300200B707047054870470548704735
:103E1000054870476D2A00209413002000000450CC
:103E2000028000F0018000F0078000F00B4A10B51E
:103E300012780C4662B107280CD859B1084A02EB37
:103E400000131B7B43B101F003FC2070002010BD68
:103E50000448FCE70448FAE70448F8E76D2A002024
:103E600094130020028000F0018000F0078000F031
:103E7000184B2DE9F0411F6D5B6D1F4000D5FEE72B
:103E800001260025144CDFF85880374218D02368EB
:103E9000C8F85060A3B1A168284601316268A160EA
:103EA0009847637B012B0BD150B90C4B03EB4513A7
:103EB0001A7B60F341021A731A7F60F341021A778A
:103EC0000135082D4FEA460604F11004DDD1BDE8A6
:103ED000F08100BF000004509413002094120020D1
:103EE0000020045070B5044601250B4E04B970BD86
:103EF00094FAA4F0B0FA80F005FA00F306EB001291
:103F000024EA03045368002BF0D0117B11B19168AF
:103F10009847EBE79847E9E71414002008B5192003
:103F200001F046F828B14FF00072074BC3F880212A
:103F30001A601A2001F03CF828B14FF08062024B61
:103F4000C3F880211A6008BD00E100E038B50546DD
:103F50000C4618F01FFD0022044B03EB05135C60B8
:103F60001A73BDE8384018F01BBD00BF14140020C0
:103F7000F8B504460D4617461E4618F00BFD1CB951
:103F8000052D1AD0FF2421E0012C05D1012D21D0CF
:103F9000032DF7D1042410E0022C07D1052D1BD0EE
:103FA000072D1BD0002DEDD1062406E0032CE9D10E
:103FB000022D15D0052DE5D10A240A4904F110037C
:103FC00001EB03110123C1E901760B7318F0E8FC42
:103FD0002046F8BD0324F0E70724EEE70824ECE7C9
:103FE0000924EAE714140020F8B505460E461746E2
:103FF00018F0D0FC134B2C46D3F8242405F0FC0118
:1040000022FA05F3DB0712D500230133DBB2042BC0
:1040100004D1FF2418F0C4FC2046F8BDEC1804F0CD
:1040200003040C4422FA04FC1CF0010FEDD1FF2C18
:10403000F0D00122044B03EB0413C3E901671A73A8
:10404000E8E700BF00C0035014140020074BD3F86A
:104050002404D3F8202403F50053104000F0553019
:1040600020F05020C3F82004FFF73CBF00C00350ED
:10407000074BD3F82404D3F8202403F50053104051
:1040800000F0AA3020F0A020C3F82004FFF72ABFD8
:1040900000C00350024B1968024B18680FF072BB46
:1040A000EC0A00200C0B002070B594002246054657
:1040B0000E4621F0C1F9431C0AD058B922463146B8
:1040C000284620F012FB0028034808BF002070BDDE
:1040D0000248FCE70248FAE710E000F021E000F0B7
:1040E00024E000F010B5044621F0AAF9431C10D0DA
:1040F00088B901F027FB234620F0030020449842B2
:1041000001D1002010BD53F8042B0132F7D0034831
:10411000F8E70348F6E70348F4E700BF0EE000F0D5
:1041200021E000F024E000F008B518F02CFC014B71
:10413000186008BD041D0020014B186818F027BC4A
:10414000041D0020044BD3F88420D206FBD4D3F8FE
:104150008400C0F3811070470040005038B5104B08
:104160000546D3F880300C4603F00303022B0BD036
:10417000032B0DD0012B0FD1FFF7FCF90E2305B156
:10418000286004B1236038BDFFF73EFA0723F6E745
:10419000FFF7EAF90623F2E700231846EFE700BF2E
:1041A0000080005038B5184B0546D3F820010C4666
:1041B00000F00700062823D8DFE800F0040A0E16F6
:1041C000121A1E00012305B1286004B1236038BD16
:1041D000FFF7CAF90523F6E7FFF7FCF90323F2E737
:1041E000FFF712FA0723EEE7FFF70AFA0223EAE7DE
:1041F000FFF7BAF90623E6E7FFF7ECF90423E2E755
:1042000000231846DFE700BF0080005038B5174B89
:104210000546D3F828310C4603F00703013B052B74
:1042200020D8DFE803F003131B0F0B17FFF79CF9EF
:10423000052305B1286004B1236038BDFFF794F968
:104240000623F6E7FFF7E0F90723F2E7FFF7C2F9E5
:104250000323EEE7FFF7BEF90423EAE7FFF7D0F9FF
:104260000223E6E700231846E3E700BF0080005082
:1042700073B50D460021114B0191D3F880410646DC
:1042800004F00304022C13D0032C0CD0012C13D106
:1042900001A8FFF787FF10240EB1019B336005B121
:1042A0002C6002B070BDFFF7AFF907240190F3E76F
:1042B000FFF7A6F90190EFE70C46EDE7008000500C
:1042C000002337B50193164B0546D3F820320C4630
:1042D00003F00703042B21D8DFE803F0030B1116CA
:1042E0001B0001230DB1019A2A6004B1236003B0C1
:1042F00030BD002101A8FFF789FF1223F2E7FFF785
:1043000083F907230190EDE718F043FA0A2301909F
:10431000E8E7FFF7BBF909230190E3E70023E1E7B2
:104320000080005038B5104B0546D3F840310C469C
:1043300003F00303022B0BD0032B0DD0012B0FD165
:1043400018F027FA0A2305B1286004B1236038BDAC
:10435000FFF79CF90923F6E718F01EFA0C23F2E7A1
:1043600001230020EFE700BF00800050002337B595
:104370000193164B0546D3F860320C4603F0070351
:10438000013B032B1FD8DFE803F0020E19140021B4
:1043900001A8FFF707FF10230DB1019A2A6004B1AD
:1043A000236003B030BD002101A8FFF7BBFF11233C
:1043B000F2E7FFF729F907230190EDE7FFF720F96E
:1043C00002230190E8E70023E6E700BF00800050E9
:1043D000002337B50193164B0546D3F894320C46AB
:1043E00003F00703013B032B1FD8DFE803F0020EA5
:1043F0001914002101A8FFF7D5FE10230DB1019A71
:104400002A6004B1236003B030BD002101A8FFF78A
:1044100089FF1123F2E7FFF7F7F807230190EDE793
:10442000FFF7EEF802230190E8E70023E6E700BF7C
:104430000080005038B5144B0546D3F800020C46F6
:1044400000F0070004281BD8DFE800F003090D1175
:104450001500012305B1286004B1236038BD18F0B0
:1044600098F90A23F6E7FFF711F90923F2E718F0A4
:1044700093F90C23EEE7FFF797F80F23800AE9E79B
:1044800000231846E6E700BF0080005038B5144B03
:104490000546D3F808020C4600F0070004281BD894
:1044A000DFE800F003090D111500012305B12860B4
:1044B00004B1236038BD18F06CF90A23F6E7FFF762
:1044C000E5F80923F2E718F067F90C23EEE7FFF7A8
:1044D0006BF80F23800AE9E700231846E6E700BFE0
:1044E0000080005038B5104B0546D3F840320C46DA
:1044F00003F00303022B0BD0032B0DD0012B0FD1A4
:1045000018F047F90A2305B1286004B1236038BDCB
:10451000FFF7BCF80923F6E718F03EF90C23F2E7A1
:1045200001230020EFE700BF0080005038B5104B9A
:104530000546D3F860310C4603F00303022B0BD081
:10454000032B0DD0012B0FD118F023F90A2305B14D
:10455000286004B1236038BDFFF798F80923F6E717
:1045600018F01AF90C23F2E701230020EFE700BF4F
:1045700000800050B0F5207F1FD009D8B0F5007F33
:1045800015D003D868B1B0F5C07F0AD000200CE088
:10459000B0F5607FFAD10B4BD3F88000C0F3011067
:1045A00003E0084B186FC0F3033001307047054B30
:1045B000D3F89000C0F30460F7E7024B186FC0F324
:1045C0008020F2E70080005002464FF48030104B0C
:1045D00010B598660020FFF7CDFF504341F67132C9
:1045E0000C4BDC69DA635A6804F4803422F440121C
:1045F00059B90949884294BF0020012000050243AF
:104600005A600CB10022DA6310BD0449F2E700BF22
:104610000090005000000350005A6202002D31014A
:10462000430905D0012B0CD0022B084B18BF0023E7
:1046300000F01F0039B103F58053012282401A6057
:104640007047034BF4E703F50053F6E7688000502A
:10465000648000501FB5002180280446CDE9001178
:1046600000F0A58035D85E2846D85E2844D8DFE81B
:1046700000F0A24343434343434343434343434341
:1046800043434343434343434343434343434343FA
:104690004343A2AAA2AABABABABABAAAC44DDA7154
:1046A0004DAAAAAA4343434343434343AAAAAA7930
:1046B000E4AA43434343434343434343434343BA4B
:1046C000A2A2A2DF4D4DE9885EBF43434343439915
:1046D000A200B0F5B06F00F090802DD8B0F5207F2B
:1046E00071D00CD8B0F5C07F65D0B0F5007F65D033
:1046F000B0F5807F00F08680009804B010BDB0F562
:10470000607F6BD00DD8B0F5407FF5D1FEF74CFF40
:1047100002464FF42070FFF72DFFB2FBF0F2520873
:104720005AE0B0F5806F5ED0B0F5A06FE4D1002103
:104730006846FFF7C5FDDFE7B0F5106F78D016D8F3
:10474000B0F5E06F79D00AD8B0F5C06F6BD0B0F596
:10475000D06FD1D100216846FFF76CFECCE7B0F5F1
:10476000F06FC9D100216846FFF7E0FEC4E7B0F55D
:10477000406F3DD013D8B0F5206F63D0B0F5286FEF
:10478000BAD10021324B0391D3F8703203F0030306
:10479000012B02D103A8FFF7C5FD039B3CE0B0F558
:1047A000486FA9D100216846FFF712FEA4E7FEF783
:1047B000E1FE0090A0E7FEF7F7FEFAE7FEF7DAFE6B
:1047C0000246204604E0FEF7EFFE02464FF420705A
:1047D000FFF7D0FEB2FBF0F200928DE701A8FFF7E1
:1047E000BDFC019AEDE700216846FFF7DBFC83E79B
:1047F00000216846FFF70AFD7EE700216846FFF7C3
:1048000037FD79E74FF0E02302911B695B0705D57F
:10481000FEF7CAFE0290029B00936DE703A902A86F
:10482000FFF780FDF7E700216846FFF77BFD63E7B0
:1048300000216846FFF72AFE5EE700216846FFF781
:1048400051FE59E700216846FFF790FD54E700BF8D
:104850000080005008B58020FFF7FCFE034B984213
:104860009EBF4FF48032024B1A6708BD005A6202A5
:1048700000A000501FB503460020B3F5807F0190D3
:1048800000F0C18064D85D2B55D84C2B07D82D2B58
:1048900048D8232B2CD8019805B05DF804FB4D3B7C
:1048A000102BF8D801A252F823F000BFFD490108EF
:1048B000974801089748010897480108B34901083B
:1048C0009748010897480108814A0108D149010821
:1048D00077490108774A0108974801089748010875
:1048E0009748010897480108974801088B4A010832
:1048F000243B092BCFD801A252F823F0FD4901082F
:10490000FD490108FD490108FD490108FD4901086B
:1049100097480108F349010897480108934901089D
:10492000334A01083D2B7FD03E2BB4D1002001A992
:10493000FFF7D8FDAFE7802BADD1594B1B6F03F0CC
:104940000703013B032BA6D8DFE803F0514E858D0A
:10495000B3F5F06F68D021D8B3F5B06F49D00FD858
:10496000B3F5607F00F0838095D3B3F5806F45D0B9
:10497000B3F5A06F8FD1002001A9FFF7A1FC8AE752
:10498000B3F5D06F55D0B3F5E06FCFD0B3F5C06FAE
:1049900081D1002001A9FFF7C5FC7CE7B3F5206FAA
:1049A0006ED00BD8B3F5086F48D0B3F5106F7FF415
:1049B00072AF002001A9FFF769FD6CE7B3F5406F06
:1049C00059D0B3F5486F60D0B3F5286F7FF463AF6B
:1049D000334BD3F8703203F00303012B5AD0022B70
:1049E0000CBF1523002300E00523019353E70223A6
:1049F000FBE7002001A9FFF73BFC4CE7002001A9E1
:104A0000FFF7D0FB47E74FF0E02302901B695B07FD
:104A100005D5FEF7C9FD0D230393039BE5E703A925
:104A200002A8FFF77FFCF8E7002001A9FFF77EFD51
:104A300031E7002001A9FFF7FDFC2CE7184BD3F864
:104A4000003103F00303022B07D0032B09D0012B05
:104A50000BD1FEF7BFFD0323C7E7FEF717FE0923BF
:104A6000C3E717F094FE0823BFE70123BDE701A9C0
:104A7000FFF774FB0FE7002001A9FFF7C7FB0AE768
:104A8000002001A9FFF772FC05E7002001A9FFF74C
:104A90009FFC00E7002103A8FFF744FC1123A4E7D3
:104AA000008000504FF48012034B5A664FF480325E
:104AB000024B9A62704700BF009000500050005AAD
:104AC00008B5FFF7D7FE092811D00A38012802D906
:104AD0004FF6FF7008BD4FF48002064B5A6603F58F
:104AE000D8335B6ADB07F3D54FF4FA70F2E7024B79
:104AF0001888EFE700900050EC0C002038B5044611
:104B00008020FFF7B7FE032800F083804FF4801267
:104B1000524B4FF0A0615A6645F60E02504BC3F857
:104B20008020504A91624FF4803102F580529162A8
:104B30009A6DD203FCD4996D11F08041FBD1D4E978
:104B40000002120542EA0062E07B0243207B42EA57
:104B50000042607B42EA0032A07B42EA80121A6186
:104B60009869D4E90452120642EA856200F00040D6
:104B70000243A07EE57E0243207E42EA0042607E40
:104B800042EA00229A611A6AE06922F00F0242EAC0
:104B90008502354D00283DD11A6294F82420996A87
:104BA00094F82000D200294042EA40120A4394F8C7
:104BB000211042EA011242F480329A622B49284ABB
:104BC000936D31EA0303FBD14FF080712548816278
:104BD0001369A56823F4700343EA055313614FF08A
:104BE0000043836194F822300BB9214B996294F809
:104BF00023303BB94FF480321D4B9A62184A936DB3
:104C00005B00FCD494F825301BB1154B194AC3F84E
:104C1000802038BD024342F0080202281A6208D1FF
:104C200019614FF40852996113484FF47F4117F00E
:104C300073FE0B4994F822308A6A94F820001B0610
:104C40002A4043EA4013134394F8242043EAC20362
:104C500094F8232043EA02438B62D3E7009000508C
:104C60000040005A0050005AC7FFFEFE030001003A
:104C70000060005AF1A7FFFF3440005A70B5194C8C
:104C8000FF28A66A2BD8A36D4FF0807113F4803FE4
:104C900018BF4FF48032144B18BF9A629962134ABE
:104CA000A36992F9005023F47F03054423F47F4362
:104CB00043EA002385F3080543EA0543A36132462E
:104CC0000B4817F029FEA36DDB0301D4002070BD53
:104CD00032464FF48031064817F01EFEF6E72120D9
:104CE000F5E700BF0040005A0050005A050D0020B3
:104CF0002840005A014B93F900007047050D002031
:104D00004FF4803311481249826A8B62836D03F03D
:104D10000303032BFAD14FF080730E488B620B4BC9
:104D2000996D30EA0101FBD1012009490865996DAF
:104D30008907FCD4054B996D8807FCD5996D8907C7
:104D4000FCD50549054817F0E7BD00BF0040005AF3
:104D50000050005A03000100000001012840005AE1
:104D6000F0B5D0E901434FF400061A4A41780578BE
:104D700056664FF4D156022702F5B8325662164EE7
:104D80004F2977604FF0010728BF4F2106F5805665
:104D900077601669F603FCD441EA052151611B01D5
:104DA000417B43EA04230B43017B43EA41039360C5
:104DB000C37B817B1B0143EA4113417C0B43017C94
:104DC00043EA41035360837C13B16FF4D1535362C0
:104DD000F0BD00BF0090005000100250014B188041
:104DE000704700BFEC0C0020014B1880704700BFDB
:104DF000EA0C00204FF4800208B5184B5A660223D3
:104E0000174A5360936813F48033FBD1012822D1F1
:104E1000FEF7E0FB134B984215D003F5122303F580
:104E2000F863984213D0104B00EB8002400AB3FBAA
:104E3000F0F3520A0A49CA620B6301234B62002253
:104E4000074B5A6008BD45F67A13084AF2E745F663
:104E50001A03074AEEE75362F1E700BF00900050E3
:104E60000040025000F0490264666666D8B805004A
:104E7000BBCF0500B0F5207F10B50C465DD008D83B
:104E8000B0F5007F4ED003D8C0B1B0F5C07F15D0CB
:104E900010BDB0F5607FFBD12C4B4C1ED3F8FC202D
:104EA0002B4912F0807F4FEA041427D1D1F88030CB
:104EB00023F030032343C1F88030E9E717F03BFDCE
:104EC00017F047FD4FF48031224B214A1967136FC9
:104ED000013C23F4704343EA04331367FEF764FB99
:104EE0000446FFF72FF9C0F10201204617F02BFD11
:104EF00000F042F8BDE81040FFF7ACBCD3F8FC204E
:104F000022F08072C3F8FC20D1F8802022F0300219
:104F10002243C1F88020D3F8FC2042F08072C3F80D
:104F2000FC20B5E70A4A4C1ED2F8903023F0F85323
:104F300043EA0463C2F89030AAE7054A4C1E136F97
:104F400023F4806343EA84231367A1E700ED00E0C4
:104F5000008000500090005008B50121022000F0B0
:104F60008FF817F0E8FC17F0F4FC4FF48032014B97
:104F70001A6708BD0090005008B54FF4C070FFF7E5
:104F800069FBBDE808400449884294BF0121022121
:104F90004FF42070FFF76EBF80F0FA02034B5868A1
:104FA000C0F30800003818BF0120704700ED00E092
:104FB000054B420953F8223000F01F0023FA00F09D
:104FC000C04300F00100704700E100E0024A536B6B
:104FD0000342FCD1704700BF00400950044A4178A9
:104FE000536F23F4407343EA01235367704700BFB4
:104FF000004000500C4A10B51369044643F0040306
:10500000136103F0C9F917F0CEFC084B084AC3F846
:10501000202430BF17F0C8FC03F0F8F91CB9BDE834
:105020001040FEF7C1BA10BD00ED00E000E00350F3
:105030000000FF0F0A4A10B51369044643F0040349
:105040001361084B084AC3F8202403F0A5F930BFC8
:1050500003F0DCF91CB9BDE81040FEF7A5BA10BD9D
:1050600000ED00E000E003500000FF0F034A01796B
:10507000D36E23F030030B43D366704700400050DB
:10508000F8B504461C4BD3F88420D106FBD4D3F8E2
:105090008430C3F381139C422CD0FEF76BFA012CB1
:1050A000064602D1214617F04EFC17F06CFC4FF07B
:1050B0000072124B07465A66204617F078FC4FF4F0
:1050C00080630D4D621E93402B676B6E9A0103D473
:1050D000D5F884309B060AD5384617F058FC022CC8
:1050E00008D13046BDE8F840002117F02CBCD5F8B7
:1050F0008430EAE7F8BD00BF004000500060005077
:1051000010B50C4608B9FEF735FA074B21461B7857
:105110003BB1064B984204D80120BDE81040FFF790
:10512000AFBF0220F9E700BF6E2A0020005A6202DA
:105130000278034B012100201A70FFF7E1BF00BF86
:105140006E2A00204FF0004238B5244B244C5A669A
:105150004AF6CD33656C014605F00105236428BB92
:105160000120FFF733FF6368DB0715D51D4B58603F
:1051700008461D4B226BD2070CD4984208D1072455
:1051800015B1174B194A1A641EF0DCFD204638BDD4
:105190000130EFE79842F2D00024F1E70132236BAF
:1051A00013F0080305D08A42F8D1E8E700220E493F
:1051B000F5E78A42E3D020210A4A91620121A2F553
:1051C000805251600649084A886A800603D4934297
:1051D000D5D00133F8E79342DDE700BF00900050DF
:1051E000004009500060095040420F003254FFFF58
:1051F0004FF0004238B5164B01465A664AF6CD3399
:10520000144C154A656C236443780B205B0043F013
:105210000103D363FFF7DAFE63688A7823F4F87337
:1052200043EA02136360CA784B7943EA0223A3601E
:105230000A798B7943EA022323610878FFF782FF1A
:10524000EB0744BF054B23641EF07CFD012038BDF5
:105250000090005000400950004000503254FFFFC1
:105260004FF00042124B70B55D6E03F580535A66E5
:105270004AF6CD3304460F4980204E6C0B64FFF78D
:10528000A5FE0B6A23F00F030F2C94BF234343F0BA
:105290000F030B62F30744BF074B0B64002DA2BF43
:1052A0004FF00042054B5A661EF04CFD70BD00BF2A
:1052B00000800050004009503254FFFF00A0005011
:1052C0004FF00042104B70B55D6E03F580535A6687
:1052D0004AF6CD3304460D4980204E6C0B64FFF72F
:1052E00075FE0B6A23F4F85343EA04230B62F307B9
:1052F00044BF074B0B64002DA2BF4FF00042054B8B
:105300005A661EF01FFD70BD00800050004009501D
:105310003254FFFF00A00050072A2DE9F041154646
:1053200098464FF0030401F003072DD89600B440CF
:1053300000FA06F221461C4817F03AFB21461B48AA
:1053400007FA06F217F034FB194B1A499DF81800BA
:10535000B8F1000F18BF1946012303FA05F50D60D7
:10536000154B1649002818BF0B461D60144B9DF8BD
:105370001C00C3F82054103103F22443002818BF46
:105380000B461D60BDE8F081A2F10806B600B440EE
:1053900000FA06F221460B4817F00AFB21460A489C
:1053A00007FA06F2CEE700BF00C4035008C403505A
:1053B00010D4035010E4035014E4035014D40350E9
:1053C00000E0035004C403500CC403502DE9F04125
:1053D00005460F461E4690464AB101233022194C1D
:1053E0008B4002FB004436B304F5825423600F2146
:1053F000072F05EB450388BFA7F108044FEA031305
:10540000114895BFBC00A40004330C3308FA04F221
:10541000A140184417F0CCFAB8F1000F09D10123CC
:105420003021084ABB4001FB05223EB102F5825201
:105430001360BDE8F08104F50154D7E702F501528D
:10544000F6E700BF00C0035030C00350104B0140CE
:10545000D3F8302422EA0002C3F83024D3F83024F1
:105460001143C3F83014D3F82C240243C3F82C247E
:10547000084AD36E03F03003202B1FBFD36E23F0F6
:10548000300343F01003D366034BC3F82004704786
:1054900000C003500040005000E0035038B51446EF
:1054A0001D46032283F00103FFF790FF012004F162
:1054B0001001884005FA01F1FFF7C8FF9DF81010B0
:1054C000034B044A002918BF1346186038BD00BFBB
:1054D00024E4035024D403504FF400120B4B10B5B6
:1054E000C3F88020BFF34F8FBFF36F8F0024FF22DC
:1054F000074B21465C6520209A625C60FFF790F8BC
:105500002146BDE810402120FFF78AB800E100E005
:1055100000000450044A054B002908BF134601222D
:1055200082401A60704700BF401004504020045071
:1055300010B5012104462020FFF772F80121212037
:10554000FFF76EF80122114B5A60227812069A601A
:105550006178A27842EA01429A61FF229A620022AF
:105560009A631A644FF000425A654FF0FF324FF4CD
:10557000001103F500531A65054AC2F88011E3785B
:105580001B01DBB282F81533116010BD000004501E
:1055900000E100E0F8B50125C3B2D1F800E091F8D0
:1055A0000AC00F7B0C469D40CB7A1D491D4E0D65F0
:1055B000810001F1A04101F58821C1F804E04FF01C
:1055C000300E0EFB00601B05617B43EA0C4343EA8F
:1055D000475322F003020166C365026717F0DAF948
:1055E000736D2B437365237A13B1336C2B43336490
:1055F000637A13B1B36B2B43B3632279A37943EA84
:105600000243074A93616179E37943EA014306491A
:105610008B61044B55639D64BDE8F84017F0C0B939
:1056200000200450000004500010045010B5012464
:10563000C0B2844017F0AEF9044B5A6D22EA04025E
:105640005A659C62BDE8104017F0AAB900000450EA
:1056500010B50124C0B2844017F09CF9074BDA6AF8
:10566000224208D15B6B9C430CBF0124002417F03D
:1056700097F9204610BD0024F9E700BF0000045050
:105680004FF48032054B9A6641F6713203F51C33B4
:10569000DA63012203F50053DA607047009000508E
:1056A00041F671320121064BDA6303F50052D160F5
:1056B0000022DA634FF48032A3F518339A667047FC
:1056C00000000350013831289ABF024B185C0020BB
:1056D000704700BF495A030838B5C2F3062504468F
:1056E00002F0070241B942EA052242F440220634A0
:1056F000074B43F8242038BD1146284617F068F9B7
:1057000002462846FFF7DEFF163442EA0022EFE7A2
:10571000008003504FF48032064B5A6603F5E623AF
:105720009B69C3F38512827003F03F021B0B42702A
:105730000370704700900050014B986CD96C704713
:105740000080E00F0120034B9B680A3303F01F0326
:10575000984070470080E00F70B5054616461C461D
:1057600021B94FF42070FEF775FF0146402C1BD085
:1057700003D8DCB1202C1BD070BD602CFCD10423DD
:1057800003FB06F2530803EB4113B3FBF2F3094AA0
:10579000203B02EAC303AA6822F06002AA60AA685A
:1057A0001443AC60EB61E7E70623E9E71023E7E782
:1057B0000823E5E7F8FF7F00012100F5805310B5CD
:1057C000596040F6AA6341F2050243610023094C87
:1057D0008360C365C26000F500520361C361C364A6
:1057E0009464054C8365A04204BF03654365516022
:1057F00010BD00BFFFFF010000C0055070B50D4691
:10580000FFF7DAFF012300F580567360AB7C044696
:105810001BB1836843F080438360EB7C5BB1244B16
:105820009C4202BF2A7DA3F51033C3F8C821E36D63
:1058300043F08003E3652A8A6B7B20461343EA89A1
:105840001343E3602B7BD5E90112FFF785FF6B7DE6
:105850001BB1A36843F48033A360AB7D1BB1A36885
:1058600043F40043A360EB7D2A7E1B07120502F47C
:10587000E00203F0E0431343A3656B7E9A1E012A06
:105880004FF0020209D80B49032BC1F8202709D198
:105890000423F3652B78636170BD0749012BC1F8C0
:1058A0002027F4E7042204F50053DA65F2E700BF8D
:1058B00000C0055000D0035000E0035038B50D463D
:1058C000FFF77AFF012200F580535A602B8AA97BEB
:1058D000826843F0010343EA8123134383608368B2
:1058E0002A7D044643EA42738360AB7C5BB1194B6B
:1058F000984202BFEA7CA3F51033C3F8C821C36DF8
:1059000043F08003C3652B7B2046D5E9011243F4A5
:105910008053E36017F0B3F86B7B0BB11023636126
:105920006B7D1BB1A36843F48033A360AB7D1BB1D7
:10593000A36843F40043A360EB7D2A7E1B07120596
:1059400003F0E04302F4E0021343A3652B786361A4
:1059500038BD00BF00C00550034B5A68D20702D5BE
:10596000DA69002AF9D1704700800A50054B9A681D
:105970009107FCD45A689207F9D4DA69002AF6D163
:10598000704700BF00800A5008B5FFF7E5FF02220C
:10599000014B1A6108BD00BF00800A5008B5FFF72F
:1059A000E5FF0122024B03F580514A601A6108BDF0
:1059B00000800A5008B5044B5968012903D1FFF74C
:1059C000E3FF024B596008BD00800A5000A00A5056
:1059D00010B5064CFFF7CAFF6368012B03D1FFF730
:1059E000E9FFFFF7C3FF0378E36010BD00800A50B2
:1059F000B8B94A680B7812B1127843EAC2034A7800
:105A000043EA42038A6812B1127843EA82138A7821
:105A100043EA8203CA6812B1127843EA4223014A78
:105A20009364704700800A5008B9014B596470476D
:105A300000900A5008B9014B5964704700A00A5001
:105A400008B9014B1964704700A00A5010B9024B05
:105A5000186C70470020704700800A5048B911B197
:105A6000012903D07047044BD86C7047024B186D66
:105A700070470020704700BF00800A5040B911B144
:105A8000012903D07047034BDA647047014B1A6554
:105A9000704700BF00800A5010B9024B586D704724
:105AA0000020704700800A5038B50446054D1EF0AE
:105AB0006DF90FCC0FC594E8030085E803000020C2
:105AC00038BD00BF081D002047F6FF739A42F0B5AD
:105AD0006FD002296FD8394B5B5C012B6BD8384DE6
:105AE000DF0005EBC30415F83330A178012B13D187
:105AF0000025E078401AA84202D80844C0B2F0BDA0
:105B0000431B6668A0EB530336F913609642D4BF7B
:105B10001D4603F1FF30EEE760680028EFD0B0F9D2
:105B20000040944204DBB0F902409442B8BF1446EE
:105B300083883D44FF2B19BFC8224FF0280CB0F9D1
:105B40000620B0F908C0A2EB04030CBF0126002612
:105B500093FBFCF333446E781BB29E4201DD002BB5
:105B600001DA731E1BB24FF47A7C01339BB2071D1E
:105B70005D1E2DB24FEAC50E00EBC505EA88AD6883
:105B80009E4214FB025222EAE27202F15C02B2FB74
:105B9000FCF204DD37F8335001339542E8D200EBD4
:105BA0000E039888904228BF1046884238BF0846A6
:105BB000A4E7FF20A3E70020A1E700BF7B5A03086A
:105BC000081D00200229F0B555D82C4B585C01283F
:105BD00051D82B4C04EBC00114F830004B6801285D
:105BE0000FD1C8788C78904294BFC4EB0001C4EB0D
:105BF0000201001BCAB28242C8BF002233F9120060
:105C0000F0BD002B37D08878904202D3B3F9020060
:105C1000F6E7CC78B3F900009442F1D94C78998832
:105C2000013CA1F1FF06714203F10405E4B27141A8
:105C300003F10C07CEB2B44216D805EBC1014FF404
:105C40007A756A43B1F902404968521A04EBD4717B
:105C500002EB610292FBF4F29042D1DBB3F9020055
:105C60009042CDDC10B2CBE737F831C04E1C9445E2
:105C7000E3D33146DEE70348C2E700BF7B5A03089F
:105C8000081D00200080FFFF0148FFF70DBF00BF87
:105C9000805A030800487047EE0C00207FB50222AE
:105CA000084B0949CDE901234FF00073CDE90313F7
:105CB000072301A94FF0FF3005931EF09EF807B0AF
:105CC0005DF804FB006A18000002060008B5B0B1D8
:105CD0004FF480620B4B9A6616F0B4FE4FF0984377
:105CE0005A6CD202FCD54FF48062586D064B10F40A
:105CF00070209A6604D0BDE8084016F0F6BE212058
:105D000008BD00BF0090005000A000502DE9F041F8
:105D10008CB08846DDE912761D460446002847D03F
:105D2000002945D0002F43D0002E41D013F00F039F
:105D30003ED120482049A360002A08BF0146E36104
:105D4000C4E90013404609A916F0CBFF68BB204602
:105D5000099916F06EFE2946204616F06AFE69463D
:105D6000404600F081FA00BB6946204616F04DFE21
:105D7000404603A917F0B4F8B8B9204603A916F0B5
:105D800044FE06970127204645F0005506A90797CF
:105D9000089516F03AFE204609A909960A970B9530
:105DA00016F03DFE2046FFF791FF0CB0BDE8F081F4
:105DB0002120FAE70001000400010104F0B50C46BF
:105DC00017461E46054695B0002874D0002972D0AB
:105DD000002A70D0002B6ED0036B0F2B5BD80023F2
:105DE000364A3846C4E90023A360E36111A916F0DE
:105DF00078FF00285BD12046119916F01AFE296B16
:105E000020460F2984BF01F00F01103116F011FE5A
:105E1000384602A900F028FA002848D1204602A9F5
:105E200016F0F3FD384605A917F05AF800283ED1C0
:105E3000204605A916F0E9FD0122214B089509929B
:105E40000A932B6B05F1100003F00F0141F0005194
:105E50000B900F2B0C920D910E900F9243F000526D
:105E6000109226D90A9B08A923F0005320460A93D2
:105E700016F0CBFD0BA9204616F0C7FD01231196A5
:105E800012930F4B204611A9139316F0C8FD20461C
:105E9000FFF71CFF0BE000F12003019000930122AB
:105EA000102339462046FFF731FF002897D015B060
:105EB000F0BD0EA9DFE72120F9E700BF00000404D0
:105EC000100000202DE9F04F9BB00C4690461F4675
:105ED0000546DDF89090002800F0B280002900F01F
:105EE000AF80002A00F0AC80002B00F0A980026B8C
:105EF00002EB09031B09B3EB121F02F00F0600F0BF
:105F0000978000234F4A8B60C1E90023CB61404654
:105F100017A916F0E6FE0346002840F0858006EB40
:105F2000090B204617992BF00F0A16F082FD5146F7
:105F3000204616F07EFD404602A900F095F9034682
:105F4000002871D1204602A916F05FFD404605A940
:105F500016F0C6FF0346002866D14FF001080190F5
:105F600005A9204616F051FD374A204608A9089594
:105F7000CDF824800A9216F048FD46F00051AAEBB5
:105F8000060605F1100346F000560B93CDF830805D
:105F90000D910E97CDF83C8010960D99204621F07A
:105FA00000510D910BA9009316F02FFD20460EA96C
:105FB00016F02BFD019B244A1193AAF1100343F024
:105FC0000053CDF84880139305F120031493CDF8C6
:105FD00054801692139B204643F080431393139BE7
:105FE00011A923F00053139316F019FD204614A9AC
:105FF00016F015FD144A17A920461795CDF86080B4
:10600000199216F00CFD2046FFF760FEAAEB0B017B
:1060100049440190ABEB0A02009839441EF09AFB08
:10602000019B2A6B4A442A6318461BB0BDE8F08FD7
:1060300010304A46394630441EF08CFB0023F0E70E
:106040002123F1E703020004100000202DE9FF479F
:106050004FF000080E4617460446CDF80080002891
:1060600059D022B90025284604B0BDE8F0870029A0
:1060700051D032F0030902F0030A1FD04FF0E06361
:10608000C0E9003801230191C0F808800293C0F8EC
:106090001C8049F0005301A9039316F0C0FC494647
:1060A000204616F0C6FC2046FFF710FE054628B134
:1060B0004A46414630461EF042FBD4E7BAF1000F93
:1060C000D0D04FF000084FF0E063C4E9003801235E
:1060D000CDF804D00293114B204601A9C4F80880E2
:1060E000C4F81C80039316F09AFC0421204616F095
:1060F000A0FC2046FFF7EAFD054608B13A46D8E77E
:10610000009A4E44EB00013522FA03F3AA4506F843
:10611000013BF7D1A6E72125A5E700BF0400002039
:10612000F0B50F4616461D46044693B010B921201F
:1061300013B0F0BD0029FAD0002AF8D0002BF6D019
:10614000002331461A46384616F070FD0028EFD17C
:10615000304602A916F006FD0028E9D1EB68022BB3
:106160000AD039683F48029A81426B6902D01830E0
:10617000814270D19A42DAD82B68002BD7D14FF0E8
:1061800060623846C4E90023A360E36101A916F008
:10619000A8FD0028CCD10199204621F4F06101919D
:1061A00016F047FC6946284616F09BFD0028BFD133
:1061B0002046009916F03DFC384609A900F054F835
:1061C0000028B5D1204609A916F01FFC38460CA9B5
:1061D00016F086FE0028ABD120460CA916F015FC5F
:1061E000EB684BB1284606A900F03EF800289FD185
:1061F000204606A916F009FC304603A916F070FEE9
:10620000002895D1B368DA040CD59B0427D5062164
:10621000F36932691B6801FB03225B0043F0005302
:1062200003920593204603A916F0EFFB28460FA919
:1062300016F056FE00287FF47BAF20460FA916F01B
:10624000EEFB03252046FFF741FD01287FF470AFE8
:10625000013DF7D16CE7B3EB420F8DD267E7292000
:1062600066E700BF200000B090B189B101234B6008
:10627000C368013B012B08D88269064B1AB10A603A
:1062800000208B607047044AF9E74FF00053F7E7AE
:106290002120704708000020346C030806289ABFAC
:1062A000014B185C002070473C6C030830B5154B5F
:1062B00087B00293144B0390049346F611030D46E6
:1062C000059300F077F91428044616D1684616F0B5
:1062D00008FF4FF0A843032202A95A6319601D6109
:1062E0009A63DA6B9207FCD1142C02D1684616F03F
:1062F00006FF00F093F9044601E00028E9D02046AB
:1063000007B030BD201D0020040000202DE9F04F13
:10631000B1B005468C469E46E8466F4EDDF8EC90DF
:10632000409C06F1100A474630687168083603C77A
:106330005645B846F7D13E9B03EB0208C8F1000A68
:106340000AF00F0AB9F1000F00F09D80C9F10007B3
:1063500007F00F070121DDF8FCB044F00050C4F154
:106360001006CDF810B005910690300200F4F850F8
:1063700040F021000790B9F1000F40F08680CDF881
:1063800020D047F00050002D00F084800991212199
:106390000A9041EA07210B9142F00050CDF830C03D
:1063A0003D9B08A94FEA0A2C0D910E904CF041003C
:1063B0000F901093002A75D13E9B119143F000532A
:1063C00012933C9B1390149310AB1593434B444A88
:1063D000169340F611031793424B0021002D08BF7E
:1063E0001346189314AB19933F4B10221A931123A1
:1063F0001B931CAB18461EF0A2F901221D9200222D
:1064000046F0804603461E96239205B9EB46102CB3
:10641000CDF880B024AE4BD1012322460021304676
:10642000219322941EF08BF920AB002125938F42FB
:1064300018BF334647F0804226923A9A2CA82892F9
:106440002993B2FA82F35B0949EA837310222B91F4
:106450002A931EF074F9B9F1000F00D028AED04491
:1064600048F080432CA918A82D962E93FFF71EFF05
:1064700030B92DB90346A34225D1002818BF2C20DE
:1064800031B0BDE8F08F102764E7CDF820E049F087
:10649000005078E7002C3FF479AF04A9099101215D
:1064A0000A9076E73E9B0CAA11924120129388E74E
:1064B000102200213046219322941EF040F9002C36
:1064C000B2D10123B1E703F1C0026A4412F8C02C33
:1064D00001331043CFE700BF436C030810000020D6
:1064E000586C03085C6C030804000020F0B5C02958
:1064F0009FB0DDE9244557D0B1F5807F04D08029D5
:1065000048D029201FB0F0BD01265CB140F23447CD
:10651000029410240396049421240197059406956F
:1065200002AC0AE040F2144702941024039604944B
:106530002124059401240197069507940125102430
:10654000089409950A9221220B950C940D92174AF2
:106550000AAD0E92164A0F95109242F61102119250
:10656000129313951494159201AA1692D3B112ABFB
:106570001793042318931123199316AB1A901B93A6
:1065800040F61103C9081C911AA806A91D93FFF72C
:106590008DFEB7E7012614B94FF48267C4E74FF4C4
:1065A0008667B5E70EABE3E70F20ABE7546C030853
:1065B0001000001038B5164B5A6E42F004025A66AD
:1065C000D3F8802242F00102C3F88022114B5B68AD
:1065D000C3F3080343B14FF0A842D36B13F0430F4A
:1065E000FBD11424204638BD4FF0A843DC6B14F0D7
:1065F0004304FBD1084D2B681BB90421284602F047
:1066000011FE2B68013343F000432B60EAE700BF23
:106610000080005000ED00E0201D0020014B002014
:106620005B68704700ED00E0012300F01F02A0F559
:1066300006200949A0F550604009934051F82020F8
:106640001A4341F82020054951F8202022EA03028C
:1066500041F82020704700BF381D0020241D002075
:106660000121A0F506230E4AA3F550635B0900F053
:106670001F00814052F82300014342F823100949CA
:10668000D1E90030034488680344C86809690344B9
:106690005B1802BFC2E90033C2E9023313617047DD
:1066A000241D0020381D00202DE9F04FA9B00392D1
:1066B0001D4604460822339ECDE90401414021FADB
:1066C00002F34B40980702F1080218BF9B00202AF2
:1066D0001C44F4D18123B4FBF3F303EBC313E41A9A
:1066E000734B04F506241B7804F55064002B3ED14F
:1066F000FDF7D0FC074620B16FF0910029B0BDE84E
:10670000F08F0146402208A81EF019F840223946B1
:1067100018A81EF014F8DFF8B481DFF8B491C3466E
:106720000BF10F0ACDF800A0102208A95B46D9F89A
:1067300000001DF0E8F80022014608F1100808AF3B
:10674000914246D1CDF800A05B461022D9F8000056
:1067500018A91DF0E1F84FF0000A834618AFD345A1
:1067600041D1544B9845DAD10122514B1A704FF068
:10677000810A4FF00008DFF85CB1A4F50627A7F501
:1067800050635B095BF8232004F01F01CA40D20765
:106790003DD4494A52F82330CB40DB072AD5B8F123
:1067A000000F08BFA0468123A7F6FF47B7FBF3F30E
:1067B00003EBC313FF1A07F50624BAF1010A04F527
:1067C0005064DAD1039BBBB1B8F1000F14D044463A
:1067D00019E057F8040BCDE90612FFF725FF079AD9
:1067E00006990132ACE757F8040BFFF739FF0AF1BD
:1067F000010AB4E7039B13B96FF08B007EE7B8F191
:10680000000F18BF4446349B00201C6076E7329B83
:1068100013B10023329A13600EB1002333601023AA
:10682000DFF8AC9000932A4600232146D9F80000F7
:106830000DF01AF960BB32992A68204BC9B99A4207
:1068400006D02146D9F800000DF0A6F90028D3D1D2
:10685000D5E90223DDE90410834208BF8A42A2D1B0
:10686000039B002BCFD06B68012BCCD16FF0840041
:1068700044E7102032999A420860E2D1002EE7D016
:1068800033462146D9F8000018AA0DF041F948B165
:106890000B4B9842D5D00B4B9842D2D00A4B984222
:1068A000D6D029E7329A336812689B1A3360CFE753
:1068B0006F2A002000710800241D0020105D175E63
:1068C000FFDF00F011E000F0FEDF00F0006D0800D7
:1068D0000C0B0020381D00202DE9F04F87B08246B8
:1068E000894698461646DDF840B02AB1002B4FD0B5
:1068F00040F26C739A424ED8BBF1010F4ED800247F
:1069000006F1100739460120059417F06DF9054688
:10691000002846D021463A461DF011FF05ABCDE9CF
:10692000014300942B46012250464946FFF7BCFE26
:10693000044680B110F18C0F08BF6FF08D043A4609
:10694000002128461DF0FBFE284617F05DF9204681
:1069500007B0BDE8F08F144BC5E902A92B60C5F85C
:1069600004B02EB13246414605F110001DF0F2FE92
:10697000059E0E483B462A46314600680CF0DCFF77
:1069800018B93046FFF750FED9E76FF09104D6E70B
:106990006FF08604DBE76FF09104D8E76FF08504B1
:1069A000D5E76FF08C04D2E7105D175E0C0B00206A
:1069B0002DE9F0438DB08146DDE914780E46154689
:1069C0001C469BB1B8F1000F05D16FF0860630462A
:1069D0000DB0BDE8F083002FF7D0B7F1005FF4D31E
:1069E000C3F1005303F580239F42EED8102200210B
:1069F00008A81DF0A4FE002207AB029305AB01938B
:106A000006AB31460093484608ABCDE90522FFF7B7
:106A10004BFE06460028DAD1059BA4B1AB4215D83F
:106A200053EA0504D1D1069B0B48C8F800400094F6
:106A30003A46079900682B440DF016F8002818BF55
:106A40006FF09106C3E7AB42EDD2BEE75B1B9C4201
:106A500028BF1C46E7E700BF0C0B002030B58DB007
:106A60000C4605461022002108A81DF068FE0022F1
:106A700007AB029305AB019306AB21460093284672
:106A800008ABCDE90522FFF70FFE0446D8B9099BF4
:106A9000012B1BD0079D104B294618680DF07CF880
:106AA000B8B90122A5F506230C49A3F550635B098B
:106AB00005F01F00824051F823004240284641F86B
:106AC0002320FFF7CDFD20460DB030BD6FF08404CC
:106AD000F9E76FF09104F6E70C0B0020381D002059
:106AE0002DE9F0410D4614461E46C2B010B96FF0B4
:106AF00086000DE00029FAD0002AF8D0002BF6D04D
:106B0000038803F44F42B2F5824F04D06FF0850042
:106B100042B0BDE8F081DAB2122AF7D123F0FF03C8
:106B2000B3F5E24F27D143883360FBB9E30033600C
:106B3000B3F5807FEAD10023184643492E1921443A
:106B400011F8014D16F8012D1043121B0CBF4FF028
:106B5000FF340024B54203EA040343EA0203EFD101
:106B60000028C4D0002BC2DA0020D1E7DA1DB4EB34
:106B7000D20FDDD0BBE7B3F5824F61D10B78042B88
:106B8000B5D12022002168461DF0D9FD684615F0D8
:106B9000DAFF002851D10027842239460DEB02008C
:106BA00020971DF0CCFD202201234FF088083946A4
:106BB0000DEB0200013C8DF8803001351DF0BFFD6A
:106BC000202239460D9410A8E4000C9564081DF0AD
:106BD000B6FD20AD2022394618A81495CDF8548072
:106BE0001DF0ADFDE02CCDE91C58346003D0B4F5A8
:106BF000807F7FF47CAF154B0734089310934FF4DC
:106C000000530A934FF48043E408129308AA18AB88
:106C10006846640010A91994FFF782FA33680733B5
:106C2000DB085A0033B10021531E013B297005F1E6
:106C30000105FAD2002897D059E76FF0920067E774
:106C40006FF0960064E700BF606C030820000080CE
:106C5000F8B5134642880C460732072A4FEAD2019C
:106C600001D0A1426DD146680588C7682022184628
:106C700000211DF064FD360A034626B1012E11D015
:106C80006FF08B00F8BD002C5BD041F20102954201
:106C900005D0B5F5885F02D0B5F5905F1BD15C607B
:106CA0000020EFE7C660002C4BD041F20102954274
:106CB0000BD15C60B90707F001021FD4002AEFD1A5
:106CC0009A6842F080729A60EAE7B5F5885FF0D082
:106CD000B5F5905FEDD0B5F5105F0AD1182C03D053
:106CE000202C01D0102C2CD1C3E90044002ED7D089
:106CF000E0E705F44F42B2F5824F02D06FF0850015
:106D0000C0E7EAB2122AF9D1202CF7D10E4A25F0B9
:106D1000FF05B5F5E24F1A600CD0B5F5824F10D1E2
:106D20004FF4005217F4705F09D017F4864F04D067
:106D30009A60E3E74FF48042F4E742F480629A609D
:106D4000D4E76FF086009DE7200000802DE9F04138
:106D5000174600221C4643688CB01B0A80460D462D
:106D6000009204D0012B56D06FF08B008EE000888B
:106D700020F0FF03B3F5824F15D1B8F80220073297
:106D8000D208009216F013FA002800F0E1800B7888
:106D9000042B05D1013FB7EB420F05F1010503D0EC
:106DA0006FF0860072E00097009E22463146404612
:106DB000FFF74EFF002869D1FA1CC4E9030522F051
:106DC00003026261002E00F0A4802022002101A8AD
:106DD0001DF0B5FC3146404601AAFFF739FF0028F7
:106DE00040F097802368019A9A4240F0928063684D
:106DF000029A9A4240F08D80A368039A9A4240F02A
:106E00008880A369079A9A4240F08380E369089AD0
:106E10009A423BD07DE0032FC2D90B78012B40F082
:106E20009A80497800294BD0F73908299CD801A3CA
:106E300053F821F09D6E0108596E0108696D010833
:106E4000936E0108696D0108B76E0108696D01084C
:106E5000A76E0108AF6E01084FF41056F8253F4F9A
:106E60001C22002102A81DF06AFC03230197CDE932
:106E70000435039601AA09AD134603CBAB4220604B
:106E800061601A4604F10804F6D100200CB0BDE898
:106E9000F08110274FF08076FA25E1E720274FF0A8
:106EA0000076F725DCE7FE252C4F2D4ED8E7FF2591
:106EB0002A4F2C4ED4E74FF41056FC25274FCFE72E
:106EC0002B2F7FF66DAF202220461DF038FC05F1F8
:106ED00010032361AB070DD001AB05F128061A465C
:106EE00028686968083503C2B5421346F7D1286897
:106EF00001AD10606B68103F2360AB68694663604A
:106F0000EB682046A36001236761E36015F02AFE69
:106F100028B12022002120461DF011FC40E7B8F8DE
:106F20000030009E03F44F42B2F5824F0ED1DAB228
:106F3000122A0BD123F0FF03B3F5824F06D1730061
:106F400062691C339A42BFF43DAFE2E73346F7E78C
:106F50006FF085009AE76FF0910097E720000080BE
:106F6000004400020044000370B50E461446054676
:106F700010B96FF0860070BD0029FAD038220021C8
:106F80001DF0DDFB094B24F47E129A420AD13388AE
:106F9000B3F5105F06D1C4F30543102BE9D80020E8
:106FA0002C60E8E76FF08500E5E700BF0002C00352
:106FB000F0B50F4616461D4604468BB088B302B99D
:106FC0007BBB2022002102A81DF0B9FB02A815F00E
:106FD000BAFD20B16FF0920420460BB0F0BD2368DB
:106FE000114A23F47E13934215D135B9002402A827
:106FF00015F0B3FD0028EFD0ECE733463A46009594
:1070000002A9201DFEF75EFF012807D00028EDD061
:107010006FF09204EBE76FF08804E8E76FF08B0401
:10702000E5E76FF08604D7E70002C0032DE9F041E1
:107030008CB0884616461D460446129F002840D054
:10704000002A3ED0002B3CD0002F3AD0102B0368F2
:1070500028BF102513F47C1FC3F3054202D09542CC
:1070600028BF15461A4A23F47E1393422CD12022BE
:10707000002104A81DF063FB002304A8CDE9003320
:10708000CDE9023315F05FFD40B96B46424604A9D5
:10709000201DFEF793FE30B100233B606FF092009D
:1070A0000CB0BDE8F08104A815F057FD0446002897
:1070B000F2D12A46694630461DF04CFB20463D6021
:1070C000EEE76FF08600EBE76FF08800E8E700BFBF
:1070D0000002C0032DE9F0410E46174698460446CB
:1070E00000B3F9B1F2B1982200211DF028FB31461E
:1070F000069A04F16000FFF737FF0546A0B9234662
:10710000424639463046FFF721FE054660B972888F
:10711000D208A2F110011029E26503D80A4BCB4036
:10712000DB0704D46FF086052846BDE8F08163696B
:107130001C329342F6D304F12003184621691DF056
:1071400009FB2061F0E700BF010101000023C360DB
:1071500001F13803036120230A6843618B6D0B49F9
:1071600022F47E128A42436003D001F580718A4284
:1071700008D1102B01D0182B02D1036000207047DA
:10718000202BFAD06FF08800704700BF0001C003C9
:1071900007B5094B18689A889B7900906846ADF846
:1071A00004208DF80630FEF723F80C20FEF758F87F
:1071B000002003B05DF804FB806C030813B50024C5
:1071C000064A6846536F43F00103536700948DF8F5
:1071D0000440FDF74BFF204602B010BD00400050B8
:1071E00030B58BB06C46174D0FCD0FC40FCD0FC40B
:1071F00095E8030084E80300134BD3F84C211203F5
:107200001CD5A3F5FE431C884FF6FF739C4208BFB4
:107210008C248DF81940FDF76DFD204480F30800A3
:107220008DF818000948FCF7DBF96846FDF766FCA5
:107230003220FDF7D9FD00200BB030BDD3F850410E
:10724000E4B2E6E7886C03080080E00FC017530241
:1072500030B5094D87B001AC0FCD0FC42B6801A824
:1072600023603F238DF80530FDF77AFD3220FDF7CE
:10727000B5FD002007B030BDB06C03086FF004030B
:10728000502110B50A480B4C13F0800F03F1010296
:1072900007D123444C2A83F800131346F4D100206D
:1072A00010BD03F00F03043B034419761346EBE7CC
:1072B00000ED00E000E100E038B501F061FA0446BD
:1072C000F0B901F0ABFC01F029FB4FF41673434316
:1072D0000C4A03F5742303F23F23B3FBF2F30A21B4
:1072E000094A0A4813600A4D0268013911F0FF018A
:1072F00045F8043BF9D11A4403EBC303134403607C
:10730000204638BD40420F00801D0020501D002047
:10731000541D0020012208B5034B1A7016F0CEFB55
:10732000024B186008BD00BF702A00204C1D0020D1
:1073300010B501F0F3FA044615F02EFA844207D98D
:1073400016F0CAFB20B10122024B1860024B1A70E2
:1073500010BD00BF4C1D0020702A0020F8B51C4C49
:107360002378D3B116F0AAFB1A4B1B4D1B68C01A29
:10737000012838BF0120286001F0D0FA4FF41673BD
:107380005843164B00F5742000F23F20B0FBF3F099
:107390002968814202D900232370F8BD104D114E97
:1073A0002B78114F56F8232046F82310501A0A2143
:1073B0003A680133121A3A600932B2FBF1F20B4813
:1073C000DBB20260B3FBF1F201FB12332B70E2E798
:1073D000702A00204C1D00207C1D002040420F0020
:1073E000712A0020541D0020501D0020801D002007
:1073F000014B1868704700BF801D002020234FF408
:107400008012042110B50F4C0F4884F82C330F4B19
:107410005A660F4B03F500525067516710671167AA
:107420004FF48052C4F8842162609A185067516703
:107430009A6A22F000729A629A6A42F480529A62C0
:1074400010BD00BF00E100E0010000A0009000506E
:107450000040005A044B9A6D12F0050F02D100282B
:10746000F9D17047012070470040005A154B10B504
:107470001C6F14F004020FD003F500531A670822A2
:107480009A62FFF755FF00F0B3FE00F093FE012073
:1074900001F072FB16F022FBE30706D501220A4B2E
:1074A0001A67FFF75BFF00F085FE14F000521CBF67
:1074B000054B1A67002CBEBF4FF00042024B1A6703
:1074C00010BD00BF0040005A0060005A10B50446CD
:1074D00015F059FA024B1C6015F059FA002010BD46
:1074E000841D002010B515F04EFA034B1C6815F0F2
:1074F0004EFA204610BD00BF841D0020034B02221F
:10750000186800238068194613F0E8BD140C0020A9
:1075100030B51446054687B0104616F0C9F86369C1
:10752000024683423CBFD4E903315B181B1A7BB18E
:107530000F49049403910021CDE901310123009307
:107540002846D4E9001315F098F9002007B030BDA3
:107550000122627694F82D20002AF6D084F8353086
:107560001321E369204698472046636A9847ECE771
:10757000117501082DE9F04788B004460F461646FC
:10758000984615F007FA8146002E7AD0237E03F044
:10759000FF02002B00F0A280204616F089F86569F2
:1075A000A84205D1637ED4E9033213445D1B01E098
:1075B000F9D9451BB54228BF354615F0EBF994F8CB
:1075C0002D308246002B6DD12A46384661691DF068
:1075D000C1F863692E462B44636121E0037803F010
:1075E000FD0111295BD1216B814205D1A3F111016C
:1075F0004B424B4184F83430013E6369216B0132C8
:107600008B4203F1010308BF236363619542606904
:10761000E4D1D4E90323216B1344994200D12263BE
:107620000025D4E9032361691344994208BF6261CC
:10763000207A6576FCF772FB204616F039F863690C
:10764000834232D1257694F82D30E568656103B127
:1076500025632046636A9847214B049403930023D3
:10766000029323692A4601930123009363682168EA
:10767000207A15F002F9207AFCF770FB504615F0DD
:107680008FF94846C8F8006015F08AF9D8F800303C
:10769000002B0CBF1B20002008B0BDE8F08707F8C6
:1076A000013BAAE72E460022B0E70123207A237689
:1076B0000DF11E01FCF7BAFB9DF81E30002BDAD04D
:1076C0000DF11F01207AFCF789FB9DF81F1000299E
:1076D000D1D12246207AFFF71BFFCCE71646D0E730
:1076E00011750108002807DB01234109034A00F056
:1076F0001F00834042F82130704700BF00E100E0E6
:10770000002808DB01224309034900F01F008240E2
:10771000603341F82320704700E100E070B5044673
:107720000568FFF7DFFE844202D10020FFF7CEFE9E
:1077300095F936603046FFF7E3FF002E0CDB01229F
:107740001949730906F01F06B240203341F823207F
:10775000BFF34F8FBFF36F8F95F937603046FFF758
:10776000CFFF002E0CDB01220F49730906F01F0624
:10777000B240203341F82320BFF34F8FBFF36F8F08
:10778000287AFCF70BFB287AFCF76EFAFCF74AFA2A
:1077900000232846C4E90033C4E90433A360AB6A7C
:1077A000BDE87040184700BF00E100E02DE9F0435C
:1077B0000C461546064687B04022002120461F464B
:1077C0001CF0BDFF95E8030000232A692376EB68CF
:1077D00084E80300C4E904232A7DE36084F82C20B4
:1077E000AA7D2363012384F8343084F835300E9B5E
:1077F00084F82D2023620F9BE7616362109BA362D4
:107800002B7A84F836306B7A84F837302D4B34601D
:1078100073602D4BB3602D4B33612D4B73612D4B3A
:10782000F360FCF747FA38B12B4B984204D0102490
:10783000204607B0BDE8F083002104F10800FCF702
:10784000C1F907460028F2D14FF00108234B3362FB
:10785000234B84F83C80B361224BF3619DF84830A0
:1078600084F8390084F83B309DF84430204684F891
:107870003A30697D84F8388015F02AFF95F909902F
:107880004846FFF73DFF4846FFF72CFF164B049490
:10789000CDE902732369CDE900836368E26821685A
:1078A000207A14F0EAFF04460028C0D195F9085068
:1078B0002846FFF725FF2846FFF714FF3046FFF75D
:1078C00005FEB5E721D70208757501089FD60208A5
:1078D000A5D602081D770108038000F079D60208BA
:1078E000D1D60208ABD60208117501082DE9F04186
:1078F00001271C465B4B86B002935B4B0C9D0193AA
:107900005A4B904600930A46CDE903772946584BD7
:10791000FFF74CFF0646002840F09B80236839465D
:107920002B6463683A206B64637A85F84930237A64
:1079300085F84830E37A85F84B30A37A85F84A30E9
:10794000637B85F84D30237B85F84C30E37B85F8ED
:107950004F30A37B85F84E30FCF762FE3B46042295
:10796000617A207AFDF732FD3B460222E17AA07A65
:10797000FDF72CFD39466068FCF752FE88F8006080
:1079800041462068FDF73AFF1420617C394B01F134
:10799000390252019850607A227A03EB411342EA8D
:1079A0000042C3F83827E17AA27A42EA0142C3F8DA
:1079B000302785F8506098F81930032B4FD8DFE84E
:1079C00003F0394C021C022385F8503000230422B6
:1079D000E17BA07BFDF7FAFC0220617C254B01F1E5
:1079E000B9025201985003EB411341F22C71E07B34
:1079F000A27B42EA00425A501CE0012785F8503031
:107A000002220023617B207BFDF7E0FC617B227B6F
:107A1000637C42EA014241F228715B0103F1A04319
:107A200003F570335A500422236803F58053DA6556
:107A3000002FCBD1237A2A6C85F84830637A052150
:107A400085F84930D36C206843F00403D36415F003
:107A500026F8304606B0BDE8F0810027CEE72326A1
:107A6000F7E700BF4FD8020843D80208DBD8020866
:107A7000CFD8020800C00350BFF35F8F074B5A6A8C
:107A800022F480325A62D3F8942022F00102C3F823
:107A90009420BFF34F8FBFF36F8F704700ED00E06E
:107AA00070B52948294CFFF7E7FF8442284D294942
:107AB00019D1D5F8C03023F0FF0343F0A003C5F877
:107AC000C0304FF080430A68214D234EC5F89820FE
:107AD00043F0010301328442C5F89C60C5F8A03030
