:020000040800F2
:10000000C00A0020C90700084B0D03084B0D030868
:100010004B0D03084B0D03084B0D03084B0D030854
:100020004B0D03084B0D03084B0D0308610200083C
:100030004B0D03084B0D0308F1010008C93C0308F0
:100040004B0D03084B0D03084B0D03084B0D030824
:100050004B0D03084B0D03084B0D03084B0D030814
:100060004B0D03087D0600087D0C03084B0D0308AB
:100070004B0D03084B0D03084B0D03084B0D0308F4
:100080004B0D03084B0D03084B0D03084B0D0308E4
:100090004B0D0308650F00084B0D03084B0D0308BB
:1000A0004B0D03084B0D03084B0D03084B0D0308C4
:1000B0004B0D0308FDE9020889F40208F90B040856
:1000C000F50B040831EC0208050C0408FD0B0408CC
:1000D00061F40208010C0408C9F4020835F50208AD
:1000E0004B0D03084B0D03084B0D03084B0D030884
:1000F000BD2A03084B0D03084B0D03084B0D0308E5
:100100004B0D03084B0D03084B0D03084B0D030863
:100110004B0D03084B0D03084B0D03084B0D030853
:100120004B0D03084B0D03084B0D03084B0D030843
:100130004B0D03084B0D03084B0D03084B0D030833
:100140004B0D0308C52B00084B0D03081D2F03089A
:1001500095D202084B0D03088B0804089108040887
:100160004B0D03084B0D03084B0D03084B0D030803
:10017000013800D0FCE770470000000000000000DC
:100180000B4A1168086806C881F30B88022181F3C5
:100190001488203080F30988BFF36F8F4FF0000080
:1001A00080F31188104700BFAFF30080AFF30080E9
:1001B00008300020000000000000000000000000E7
:1001C00007480068006880F3088862B661B6BFF32C
:1001D0004F8FBFF36F8F02DF00BF00BFAFF3008010
:1001E00008ED00E00000000000000000000000003A
:1001F000EFF309801EF0100F08BF20ED108AEFF317
:100200000B82734620E9FC0F114A116808604FF019
:10021000300080F31188BFF34F8FBFF36F8F0DF065
:10022000A9FD4FF0000080F31188094A11680868A1
:10023000B0E8FC0F13F0100F08BFB0EC108A82F387
:100240000B8880F309881847AFF30080AFF3008074
:100250000830002000000000000000000000000046
:100260001EF0040F0CBFEFF30880EFF30980044980
:10027000084700BFAFF30080AFF30080AFF300800A
:10028000C1E5000800000000002370B5404C0546A1
:100290008AB0E36318B1008823601BF089FC3D48F5
:1002A00040F024F83C4E3D4B304633603C4B73608D
:1002B0003BF00BFB0021304628F092FB32A3D3E940
:1002C0000023A062C4E906233BF00AFBD4E906231D
:1002D00019431043C4E90601CDE900014FF0FF3393
:1002E0004FF0FF32A06A40F04EF802224FF0FF318B
:1002F000A06A40F04DF801201BF0DCF94FF40073C8
:1003000000222849A06A40F094F8B0F5007F38D167
:1003100000239422CDE9073309933C23CDE903322E
:1003200005939623A06A03A9069328F077FC35B3BA
:10033000287C1BF0F5FD0546F0B9A06A40F057F99E
:100340001BF09CFD1BF098F920B14FF48070002148
:1003500018F022F91BF0A0F920B14FF40060002141
:1003600018F01AF93BF080FB012028F08DFB0E4AB3
:100370000E49A06A3BF0A7FA28460AB070BDFF20DC
:10038000D7E70725F8E700BF0DD50155200000008D
:1003900060100020690345ECE437002039B50108FE
:1003A000F4370020E43500206FB80308AFB8030825
:1003B0000348044B834202D0034B03B118477047F4
:1003C000EC0F0020EC0F002000000000064B074956
:1003D000C91A891048BF0131491003D0044B0BB131
:1003E00001481847704700BFEC0F0020EC0F0020B9
:1003F0000000000010B5064C237843B9FFF7D8FF82
:10040000044B13B10448AFF300800123237010BDE7
:100410007440002000000000289A040808B5054B2D
:100420001BB105490548AFF30080BDE80840FFF760
:10043000CDBF00BF00000000D0120020289A0408A1
:10044000A3F5803A704700BF174B002B08BF134B32
:100450009D46FFF7F5FF00218B460F461348144ACF
:10046000121A40F0C6FC0E4B002B00D098470D4BE3
:10047000002B00D098470020002104000D000D48FB
:10048000002802D00C48AFF300802FF073FB20004F
:10049000290038F04EFC2FF053FA00BF000008008E
:1004A0000000000000000000C00A0020EC0F002047
:1004B000B4BE0020000000000000000010B5274C72
:1004C00001F092FA01F0EAFC236F23F0070343F0F6
:1004D0000303236730F0E0FC214B00209B6ADB0123
:1004E0005EBF4FF480321F4B9A62D4F8203123F064
:1004F000070343F00203C4F82031D4F8283123F075
:10050000070343F00203C4F82831D4F8403123F044
:10051000030343F00203C4F84031D4F8603123F000
:10052000030343F00203C4F86031D4F8403223F0EF
:10053000030343F00203C4F84032D4F8003223F03E
:10054000070343F00203C4F80032D4F8083223F062
:10055000070343F00203C4F8083210BD00800050C6
:100560000040005A0060005A30B5204D95B00DACE7
:100570000FCD0FC495E80700292384E807001C4A23
:100580000024CDE902230523CDE904448DF8113080
:10059000062321460E220DF126008DF81330069415
:1005A00040F027FC4FF48021124B0DAACDE9071330
:1005B00009238DF824300A238DF825300E4B07A926
:1005C0000A9320230B9301238DF830300B4B0C48FA
:1005D000009302AB06F00AFB054621464FF4E130DA
:1005E00030F0A4FB284615B030BD00BF601A0408E7
:1005F00000C0055024C0055075400020E8120020BE
:1006000038140020831E012B10B512D8012922D8DE
:10061000114B04221B6C05210020C3F3401301F091
:100620000FFE0E4B1B681868A8B1BDE81040436A66
:1006300018478B1E012B0CD801280CD8BDE81040A0
:100640000022054B05211B6C1046C3F3401301F03B
:10065000F7BD0129E5D910BD00C00350C00A002034
:1006600008B50449044806F0E1FCBDE80840FFF77E
:100670007BBF00BFC40A002060140020014832F094
:1006800083BB00BF381400202DE9F041424D88B0F3
:1006900001AC0FCD0FC495E8070084E807000124E2
:1006A00001213A2000F05EFF3C4E0121292000F09C
:1006B00059FF3B4B304601A903938DF8124002F0DD
:1006C00005F8234604220321022001F0B9FD02218E
:1006D00022460846002301F0B3FD234621460422AA
:1006E000022001F0ADFD042200212346022001F08A
:1006F000A7FD2C4D2C4B05F50058C5F834374FF0AD
:100700000213C5F8303703F58033C5F838371C239A
:100710004FF44870C5F8203707F086FB05F5805781
:100720001420C8F8A04007F07FFB2320C7F8A040A2
:1007300007F07AFBB9213046C8F8A04030F05CFCE5
:10074000002303211A460220C7F8A04001F078FDDB
:10075000002302211A46084601F072FD2346214675
:100760000022022001F06CFD0022234611460220E7
:1007700001F066FD304601F027FF00212920C5F871
:100780003417C5F83017C5F83817C5F8201700F02A
:10079000E9FE08B0BDE8F0817C1A040800C00550ED
:1007A00000127A0000C00350020001000348044A0E
:1007B0000449121A921030F0C9BA00BF689F0408A9
:1007C000689F0408B4BE002008B500F02FF8FFF7BA
:1007D000EDFF124B12498B4212D30020114B1249EC
:1007E0008B4218D3FFF730FE186850F82240586843
:1007F00040F82240013298688242F5D30C33EAE790
:100800000022F8E71C6844F8220001325C68A2422A
:10081000F8D30833E4E70022F8E700BF309A040871
:100820003C9A04083C9A04083C9A04084FF480411E
:100830004FF0FF30114B124A10B59A60D3F8882060
:1008400042F47002C3F888200E4A91660E4901F501
:10085000005210660D4850660220C3F8D000BFF366
:100860004F8FBFF36F8F01244FF440330848C0F817
:100870008041D36004600B6110BD00BF00ED00E05B
:10088000000000080090005000800044F7FF37008F
:1008900000E100E0014B1868704700BFD00A00205B
:1008A000084B1B6F03F00703022B04D0032B05D06A
:1008B000012B05D0FEE7044B18687047034BFBE79C
:1008C0000348704700800050D00A0020D80A00205A
:1008D000002D310108B5FFF7E3FF054B1B6FC3F394
:1008E00003330133B0FBF3F0024B186008BD00BFC7
:1008F00000800050CC0A00200048704700B4C404B7
:10090000014B1868704700BFD80A0020054B1860DB
:10091000054B1B6F03F00703032B01D1FFF7DABF71
:10092000704700BFD80A0020008000500048704780
:10093000002D31014FF0B4439868C0F304400C28F7
:100940000AD8DFE800F00B0909090909072119098C
:100950001B1D1F000F487047002070479B6803F065
:100960004073B3F1807F11D0B3F1007F10D00A4AF9
:10097000002B08BF1046704708487047084870476A
:10098000084870470848704708487047084870474B
:1009900008487047405DC60000093D00C0EA2101DB
:1009A00080BA8C010048E801005A62020024F40079
:1009B00080841E0040420F00014B1868704700BF42
:1009C000D40A00200346054A0549106803448B42B7
:1009D0008CBF4FF0FF301360704700BFDC0A00206F
:1009E0000000042008B501213A2000F0BBFD0123DE
:1009F00004220321002001F023FC002030F085FABE
:100A00000122354B3549C3F844244FF40022A3F5A5
:100A100050335A66324BD3F8FC20D20146D4D1F879
:100A2000803023F0030343F00203C1F880304FF419
:100A3000607000F0B1FD2A4B00F5D520D3F8F0200E
:100A400000F2FC4042F00102C3F8F020D3F8FC2091
:100A500042F08072C3F8FC20224AA3F55D431A607D
:100A6000214B0222B0FBF3F0204B01381861C3F890
:100A7000F0204FF48072C3F804234FF060431C4A07
:100A80000020C3F8B02F1B4AC3F8802ED3F8002EE5
:100A900042F48072C3F8002EFF2283F82020D3F89E
:100AA000002E22F48072C3F8002E08BDD3F8FC207B
:100AB00022F08072C3F8FC20D1F8802022F00302DB
:100AC00042F00202C1F88020D3F8FC2042F080728C
:100AD000C3F8FC20ABE700BF00D0035000800050FB
:100AE00000ED00E0FF030040F8590D00000004E0B5
:100AF00055CEACC5090001004FF06043D3F8802EFD
:100B000030B5D20715D501240B4D8440D5F8FC2013
:100B100042F08072C5F8FC20D3F8002E2243C3F8BF
:100B2000002E53F82020002AF0D003F820100020D7
:100B300030BD1120FCE700BF00ED00E02DE9F04FD3
:100B40009A46564B85B01B7806460F461546DDF88B
:100B50003C909DF844B0DDF85080002B00F0978069
:100B6000072A00F296800E9B002B00F09280B9F1CC
:100B7000000F00F08E80129BB3F5006F00F38980A8
:100B8000012803D1109B002B00F08380444B03EB22
:100B900005131B7B002B7ED0424C1022002168469F
:100BA00040F027F904EB45141022A7BB3946204634
:100BB00040F01FF943F210036380BBF1000F03D133
:100BC000E37843F00303E370364A0E9B02EB451CC7
:100BD000CCE90193129B6901581E9DF84C30C0F37B
:100BE0000A0003F003039B0643EA001E53582E48F5
:100BF000012E00EA03004EEA0003CDF800A0535096
:100C000017D0B8F1000F2ED19CF8023068F304130E
:100C10008CF8023027E00021204640F0EAF84FF43B
:100C200044736380BBF1000FCED1E37843F030030F
:100C3000C9E713230CF1100ECCF80C309CE80F0020
:100C40008EE80F006FF00301DCF81C20109B61F3AD
:100C50009F02012FCCF81C20CCF8143003D1CCF823
:100C60001890CCF8043000270D4A290102EB051337
:100C700042F80180159A28465A60694622469F60CC
:100C80005E7301F07BFB384605B0BDE8F08F074886
:100C9000FAE70748F8E70748F6E700BF9540002065
:100CA00068150020681400200F80FFF3028000F018
:100CB000018000F0078000F038B5124B05461B7824
:100CC000DBB1E0B130F004F90F4A00231146147B88
:100CD00054B92B6001251A0101EB03131D738C50CD
:100CE00030F0FCF8204638BD0133082B02F1100229
:100CF000EDD130F0F3F80548F5E70548F3E705488E
:100D0000F1E700BF9540002068150020048000F046
:100D1000028000F0018000F038B530F0D9F80023EF
:100D200005460B4A147B6CB90133082B02F1100203
:100D3000F8D101F0C5FA074B28461C7030F0CEF808
:100D4000204603E0284630F0C9F8034838BD00BF0C
:100D50006815002095400020058000F00D4B10B56F
:100D60001B78044693B1072812D830F0B1F80A4B2B
:100D700003EB04131A7B2AB100241C7330F0AEF885
:100D8000204610BD30F0AAF80448FAE70448F8E716
:100D90000448F6E79540002068150020068000F022
:100DA000028000F0018000F0154B13B51868002395
:100DB00001908DF8043030F08BF8124B1C7824B180
:100DC00030F08CF8104802B010BD01221A7030F0DB
:100DD00085F80E4B01A81C731C7783F82C4083F810
:100DE0003C4083F84C4083F85C4083F86C4083F8C7
:100DF0007C4008238DF8073001F08EFA2046E2E7A8
:100E0000981A040895400020038000F0681500201F
:100E10000A4A08B512785AB107280BD8084A02EBDB
:100E200000131B7B43B1002101F068FA002008BDCC
:100E30000448FCE70448FAE70448F8E79540002036
:100E400068150020028000F0018000F0078000F0AB
:100E50000A4A08B512785AB107280BD8084A02EB9B
:100E600000131B7B43B1012101F048FA002008BDAB
:100E70000448FCE70448FAE70448F8E795400020F6
:100E800068150020028000F0018000F0078000F06B
:100E90000A4A08B5127852B107280AD8084A02EB64
:100EA00000131B7B3BB101F0B5FA002008BD0548DB
:100EB000FCE70548FAE70548F8E700BF9540002041
:100EC00068150020028000F0018000F0078000F02B
:100ED0000D4B1B7893B1072812D889B10B4B03EB4C
:100EE00000131B7B73B10A4B1A6D0123834013421D
:100EF00014BF0123002300200B7070470548704782
:100F00000548704705487047954000206815002047
:100F100000000450028000F0018000F0078000F023
:100F20000B4A10B512780C4662B107280CD859B19B
:100F3000084A02EB00131B7B43B101F07DFA2070DD
:100F4000002010BD0448FCE70448FAE70448F8E72D
:100F50009540002068150020028000F0018000F01C
:100F6000078000F0184B2DE9F0411F6D5B6D1F40AD
:100F700000D5FEE701260025144CDFF858803742E3
:100F800018D02368C8F85060A3B1A1682846013181
:100F90006268A1609847637B012B0BD150B90C4B61
:100FA00003EB45131A7B60F341021A731A7F60F357
:100FB00041021A770135082D4FEA460604F1100464
:100FC000DDD1BDE8F08100BF0000045068150020AD
:100FD0006814002000200450024B1968024B186866
:100FE00027F010B9E00A0020000B002070B5940033
:100FF000224605460E4640F013FD431C0AD058B960
:101000002246314628463FF0CAFE0028034808BF62
:10101000002070BD0248FCE70248FAE710E000F04B
:1010200021E000F024E000F010B5044640F0F4FCAC
:10103000431C10D088B901F08DFA234620F003003C
:101040002044984201D1002010BD53F8042B0132F6
:10105000F7D00348F8E70348F6E70348F4E700BF92
:101060000EE000F021E000F024E000F008B52FF0E1
:1010700028FF014B186008BDE8160020014B1868D6
:101080002FF023BFE8160020044BD3F88420D206AB
:10109000FBD4D3F88400C0F38110704700400050A7
:1010A00038B5104B0546D3F880300C4603F00303E7
:1010B000022B0BD0032B0DD0012B0FD1FFF7F0FB30
:1010C0000E2305B1286004B1236038BDFFF732FC60
:1010D0000723F6E7FFF7DEFB0623F2E700231846B7
:1010E000EFE700BF0080005038B5184B0546D3F835
:1010F00020010C4600F00700062823D8DFE800F0A6
:10110000040A0E16121A1E00012305B1286004B14C
:10111000236038BDFFF7BEFB0523F6E7FFF7F0FBC2
:101120000323F2E7FFF706FC0723EEE7FFF7FEFBDA
:101130000223EAE7FFF7AEFB0623E6E7FFF7E0FB53
:101140000423E2E700231846DFE700BF00800050D9
:1011500038B5174B0546D3F828310C4603F0070382
:10116000013B052B20D8DFE803F003131B0F0B17FF
:10117000FFF790FB052305B1286004B1236038BD5B
:10118000FFF788FB0623F6E7FFF7D4FB0723F2E718
:10119000FFF7B6FB0323EEE7FFF7B2FB0423EAE712
:1011A000FFF7C4FB0223E6E700231846E3E700BF8E
:1011B0000080005073B50D460021114B0191D3F80A
:1011C0008041064604F00304022C13D0032C0CD0FB
:1011D000012C13D101A8FFF787FF10240EB1019B4A
:1011E000336005B12C6002B070BDFFF7A3FB07248C
:1011F0000190F3E7FFF79AFB0190EFE70C46EDE76C
:1012000000800050002337B50193164B0546D3F8F4
:1012100020320C4603F00703042B21D8DFE803F04B
:10122000030B11161B0001230DB1019A2A6004B1B2
:10123000236003B030BD002101A8FFF789FF12230E
:10124000F2E7FFF777FB07230190EDE72FF08BFD27
:101250000A230190E8E7FFF7AFFB09230190E3E7DA
:101260000023E1E70080005038B5104B0546D3F865
:1012700040310C4603F00303022B0BD0032B0DD09F
:10128000012B0FD12FF06FFD0A2305B1286004B1A7
:10129000236038BDFFF790FB0923F6E72FF066FDCA
:1012A0000C23F2E701230020EFE700BF008000508D
:1012B000002337B50193164B0546D3F860320C4630
:1012C00003F00703013B032B1FD8DFE803F0020EF6
:1012D0001914002101A8FFF707FF10230DB1019A8F
:1012E0002A6004B1236003B030BD002101A8FFF7DC
:1012F000BBFF1123F2E7FFF71DFB07230190EDE78A
:10130000FFF714FB02230190E8E70023E6E700BFA4
:1013100000800050002337B50193164B0546D3F8E3
:1013200094320C4603F00703013B032B1FD8DFE880
:1013300003F0020E1914002101A8FFF7D5FE1023B7
:101340000DB1019A2A6004B1236003B030BD0021C1
:1013500001A8FFF789FF1123F2E7FFF7EBFA072354
:101360000190EDE7FFF7E2FA02230190E8E700239E
:10137000E6E700BF0080005038B5144B0546D3F8AF
:1013800000020C4600F0070004281BD8DFE800F03C
:1013900003090D111500012305B1286004B1236074
:1013A00038BD2FF0E0FC0A23F6E7FFF705FB092321
:1013B000F2E72FF0DBFC0C23EEE7FFF78BFA0F23AD
:1013C000800AE9E700231846E6E700BF00800050E6
:1013D00038B5144B0546D3F808020C4600F0070058
:1013E00004281BD8DFE800F003090D1115000123C4
:1013F00005B1286004B1236038BD2FF0B4FC0A2386
:10140000F6E7FFF7D9FA0923F2E72FF0AFFC0C2338
:10141000EEE7FFF75FFA0F23800AE9E7002318469B
:10142000E6E700BF0080005038B5104B0546D3F802
:1014300040320C4603F00303022B0BD0032B0DD0DC
:10144000012B0FD12FF08FFC0A2305B1286004B1C6
:10145000236038BDFFF7B0FA0923F6E72FF086FCCA
:101460000C23F2E701230020EFE700BF00800050CB
:1014700038B5104B0546D3F860310C4603F0030332
:10148000022B0BD0032B0DD0012B0FD12FF06BFCB7
:101490000A2305B1286004B1236038BDFFF78CFA38
:1014A0000923F6E72FF062FC0C23F2E7012300206A
:1014B000EFE700BF00800050B0F5207F1FD009D8B3
:1014C000B0F5007F15D003D868B1B0F5C07F0AD061
:1014D00000200CE0B0F5607FFAD10B4BD3F8800010
:1014E000C0F3011003E0084B186FC0F30330013064
:1014F0007047054BD3F89000C0F30460F7E7024B48
:10150000186FC0F38020F2E70080005002464FF4CD
:101510008030104B10B598660020FFF7CDFF504388
:1015200041F671320C4BDC69DA635A6804F480349A
:1015300022F4401259B90949884294BF0020012081
:10154000000502435A600CB10022DA6310BD044961
:10155000F2E700BF0090005000000350005A620202
:10156000002D3101430905D0012B0CD0022B084B73
:1015700018BF002300F01F0039B103F5805301228A
:1015800082401A607047034BF4E703F50053F6E717
:1015900068800050648000501FB5002180280446F8
:1015A000CDE9001100F0A58035D85E2846D85E2828
:1015B00044D8DFE800F0A24343434343434343435B
:1015C00043434343434343434343434343434343EB
:1015D000434343434343A2AAA2AABABABABABAAA95
:1015E000C44DDA714DAAAAAA43434343434343433C
:1015F000AAAAAA79E4AA4343434343434343434348
:10160000434343BAA2A2A2DF4D4DE9885EBF4343E4
:1016100043434399A200B0F5B06F00F090802DD8FD
:10162000B0F5207F71D00CD8B0F5C07F65D0B0F593
:10163000007F65D0B0F5807F00F08680009804B010
:1016400010BDB0F5607F6BD00DD8B0F5407FF5D1FF
:10165000FFF740F902464FF42070FFF72DFFB2FB71
:10166000F0F252085AE0B0F5806F5ED0B0F5A06F8E
:10167000E4D100216846FFF7C5FDDFE7B0F5106F44
:1016800078D016D8B0F5E06F79D00AD8B0F5C06F31
:101690006BD0B0F5D06FD1D100216846FFF76CFE5A
:1016A000CCE7B0F5F06FC9D100216846FFF7E0FE46
:1016B000C4E7B0F5406F3DD013D8B0F5206F63D0CC
:1016C000B0F5286FBAD10021324B0391D3F87032B4
:1016D00003F00303012B02D103A8FFF7C5FD039B11
:1016E0003CE0B0F5486FA9D100216846FFF712FE33
:1016F000A4E7FFF7D5F80090A0E7FFF7EBF8FAE7CB
:10170000FFF7CEF80246204604E0FFF7E3F8024672
:101710004FF42070FFF7D0FEB2FBF0F200928DE79D
:1017200001A8FFF7BDFC019AEDE700216846FFF72D
:10173000DBFC83E700216846FFF70AFD7EE7002116
:101740006846FFF737FD79E74FF0E02302911B6908
:101750005B0705D5FFF7BEF80290029B00936DE78B
:1017600003A902A8FFF780FDF7E700216846FFF70D
:101770007BFD63E700216846FFF72AFE5EE7002154
:101780006846FFF751FE59E700216846FFF790FDD4
:1017900054E700BF0080005008B58020FFF7FCFE32
:1017A000034B98429EBF4FF48032024B1A6708BD2C
:1017B000005A620200A000501FB503460020B3F596
:1017C000807F019000F0C18064D85D2B55D84C2BF0
:1017D00007D82D2B48D8232B2CD8019805B05DF8BD
:1017E00004FB4D3B102BF8D801A252F823F000BFA8
:1017F00041190008DB170008DB170008DB17000899
:10180000F7180008DB170008DB170008C5190008E7
:1018100015190008BB180008BB190008DB170008E1
:10182000DB170008DB170008DB170008DB170008D0
:10183000CF190008243B092BCFD801A252F823F07E
:101840004119000841190008411900084119000810
:1018500041190008DB17000837190008DB170008DA
:10186000D7180008771900083D2B7FD03E2BB4D144
:10187000002001A9FFF7D8FDAFE7802BADD1594B70
:101880001B6F03F00703013B032BA6D8DFE803F02F
:10189000514E858DB3F5F06F68D021D8B3F5B06F98
:1018A00049D00FD8B3F5607F00F0838095D3B3F5AE
:1018B000806F45D0B3F5A06F8FD1002001A9FFF74D
:1018C000A1FC8AE7B3F5D06F55D0B3F5E06FCFD068
:1018D000B3F5C06F81D1002001A9FFF7C5FC7CE7FB
:1018E000B3F5206F6ED00BD8B3F5086F48D0B3F5C1
:1018F000106F7FF472AF002001A9FFF769FD6CE75C
:10190000B3F5406F59D0B3F5486F60D0B3F5286F89
:101910007FF463AF334BD3F8703203F00303012B32
:101920005AD0022B0CBF1523002300E0052301939E
:1019300053E70223FBE7002001A9FFF73BFC4CE73C
:10194000002001A9FFF7D0FB47E74FF0E02302900A
:101950001B695B0705D5FEF7BDFF0D230393039BB2
:10196000E5E703A902A8FFF77FFCF8E7002001A93B
:10197000FFF77EFD31E7002001A9FFF7FDFC2CE712
:10198000184BD3F8003103F00303022B07D0032BCD
:1019900009D0012B0BD1FEF7B3FF0323C7E7FFF7F5
:1019A0000BF80923C3E72FF0DCF90823BFE7012375
:1019B000BDE701A9FFF774FB0FE7002001A9FFF7BE
:1019C000C7FB0AE7002001A9FFF772FC05E700202A
:1019D00001A9FFF79FFC00E7002103A8FFF744FCE3
:1019E0001123A4E7008000504FF48012034B5A6685
:1019F0004FF48032024B9A62704700BF0090005053
:101A00000050005A08B5FFF7D7FE092811D00A3850
:101A1000012802D94FF6FF7008BD4FF48002064B33
:101A20005A6603F5D8335B6ADB07F3D54FF4FA70D7
:101A3000F2E7024B1888EFE700900050060E0020F6
:101A400038B504468020FFF7B7FE032800F08380F6
:101A50004FF48012524B4FF0A0615A6645F60E02C9
:101A6000504BC3F88020504A91624FF4803102F508
:101A7000805291629A6DD203FCD4996D11F080412D
:101A8000FBD1D4E90002120542EA0062E07B024386
:101A9000207B42EA0042607B42EA0032A07B42EABD
:101AA00080121A619869D4E90452120642EA8562EA
:101AB00000F000400243A07EE57E0243207E42EA21
:101AC0000042607E42EA00229A611A6AE06922F0CE
:101AD0000F0242EA8502354D00283DD11A6294F882
:101AE0002420996A94F82000D200294042EA40124A
:101AF0000A4394F8211042EA011242F480329A62B9
:101B00002B49284A936D31EA0303FBD14FF08071D2
:101B1000254881621369A56823F4700343EA0553DD
:101B200013614FF00043836194F822300BB9214BCD
:101B3000996294F823303BB94FF480321D4B9A627E
:101B4000184A936D5B00FCD494F825301BB1154BFB
:101B5000194AC3F8802038BD024342F00802022827
:101B60001A6208D119614FF40852996113484FF471
:101B70007F412FF06FF90B4994F822308A6A94F86C
:101B800020001B062A4043EA4013134394F8242004
:101B900043EAC20394F8232043EA02438B62D3E76B
:101BA000009000500040005A0050005AC7FFFEFE4F
:101BB000030001000060005AF1A7FFFF3440005A03
:101BC00070B5194CFF28A66A2BD8A36D4FF0807111
:101BD00013F4803F18BF4FF48032144B18BF9A6241
:101BE0009962134AA36992F9005023F47F030544D4
:101BF00023F47F4343EA002385F3080543EA0543C2
:101C0000A36132460B482FF025F9A36DDB0301D405
:101C1000002070BD32464FF4803106482FF01AF98B
:101C2000F6E72120F5E700BF0040005A0050005AB7
:101C30001A0E00202840005A014B93F9000070470B
:101C40001A0E00204FF4803311481249826A8B62C9
:101C5000836D03F00303032BFAD14FF080730E481A
:101C60008B620B4B996D30EA0101FBD101200949D0
:101C70000865996D8907FCD4054B996D8807FCD5DB
:101C8000996D8907FCD5054905482FF0E3B800BFD9
:101C90000040005A0050005A0300010000000101FA
:101CA0002840005AF0B5D0E901434FF400061A4A23
:101CB0004178057856664FF4D156022702F5B832BE
:101CC0005662164E4F2977604FF0010728BF4F210B
:101CD00006F5805677601669F603FCD441EA0521C3
:101CE00051611B01417B43EA04230B43017B43EA1F
:101CF00041039360C37B817B1B0143EA4113417C19
:101D00000B43017C43EA41035360837C13B16FF4BE
:101D1000D1535362F0BD00BF00900050001002503C
:101D2000014B1880704700BF060E0020014B188041
:101D3000704700BF040E00204FF4800208B5184B16
:101D40005A660223174A5360936813F48033FBD119
:101D5000012822D1FEF7D4FD134B984215D003F58C
:101D6000122303F5F863984213D0104B00EB800266
:101D7000400AB3FBF0F3520A0A49CA620B6301231B
:101D80004B620022074B5A6008BD45F67A13084A99
:101D9000F2E745F61A03074AEEE75362F1E700BFA0
:101DA000009000500040025000F0490264666666F0
:101DB000D8B80500BBCF0500B0F5207F10B50C46A4
:101DC0005DD008D8B0F5007F4ED003D8C0B1B0F5D3
:101DD000C07F15D010BDB0F5607FFBD12C4B4C1EE1
:101DE000D3F8FC202B4912F0807F4FEA041427D14E
:101DF000D1F8803023F030032343C1F88030E9E785
:101E00002FF037F82FF043F84FF48031224B214A5E
:101E10001967136F013C23F4704343EA04331367DB
:101E2000FEF758FD0446FFF72FF9C0F102012046E6
:101E30002FF027F800F042F8BDE81040FFF7ACBCE7
:101E4000D3F8FC2022F08072C3F8FC20D1F8802067
:101E500022F030022243C1F88020D3F8FC2042F067
:101E60008072C3F8FC20B5E70A4A4C1ED2F89030C5
:101E700023F0F85343EA0463C2F89030AAE7054A16
:101E80004C1E136F23F4806343EA84231367A1E796
:101E900000ED00E0008000500090005008B50121E6
:101EA000022000F081F82EF0E4FF2EF0F0FF4FF456
:101EB0008032014B1A6708BD0090005008B54FF4FE
:101EC000C070FFF769FBBDE808400449884294BF31
:101ED000012102214FF42070FFF76EBF80F0FA025B
:101EE000034B5868C0F30800003818BF0120704742
:101EF00000ED00E0024A536B0342FCD1704700BF83
:101F000000400950044A4178536F23F4407343EA78
:101F100001235367704700BF004000500C4A10B5C2
:101F20001369044643F00403136105F0BBFA2EF075
:101F3000D8FF084B084AC3F8202430BF2EF0D2FF48
:101F400005F0EAFA1CB9BDE81040FEF7C3BC10BDAD
:101F500000ED00E000E003500000FF0F0A4A10B55A
:101F60001369044643F004031361084B084AC3F89D
:101F7000202405F097FA30BF05F0CEFA1CB9BDE871
:101F80001040FEF7A7BC10BD00ED00E000E00350DC
:101F90000000FF0F034A0179D36E23F030030B4397
:101FA000D366704700400050F8B504461C4BD3F888
:101FB0008420D106FBD4D3F88430C3F381139C4230
:101FC0002CD0FEF76DFC012C064602D121462EF0E6
:101FD00058FF2EF076FF4FF00072124B07465A66FC
:101FE00020462EF082FF4FF480630D4D621E934019
:101FF0002B676B6E9A0103D4D5F884309B060AD503
:1020000038462EF062FF022C08D13046BDE8F84079
:1020100000212EF036BFD5F88430EAE7F8BD00BFC6
:10202000004000500060005010B50C4608B9FEF7A3
:1020300037FC074B21461B783BB1064B984204D82E
:102040000120BDE81040FFF7AFBF0220F9E700BF55
:1020500096400020005A62020278034B01210020C2
:102060001A70FFF7E1BF00BF964000204FF000421A
:1020700038B5244B244C5A664AF6CD33656C01467C
:1020800005F00105236428BB0120FFF733FF6368D7
:10209000DB0715D51D4B586008461D4B226BD20738
:1020A0000CD4984208D1072415B1174B194A1A6469
:1020B0003EF081F9204638BD0130EFE79842F2D07A
:1020C0000024F1E70132236B13F0080305D08A42A4
:1020D000F8D1E8E700220E49F5E78A42E3D0202153
:1020E0000A4A91620121A2F5805251600649084ACC
:1020F000886A800603D49342D5D00133F8E793422F
:10210000DDE700BF0090005000400950006009501A
:1021100040420F003254FFFF4FF0004238B5164BDB
:1021200001465A664AF6CD33144C154A656C236451
:1021300043780B205B0043F00103D363FFF7DAFE23
:1021400063688A7823F4F87343EA02136360CA78F9
:102150004B7943EA0223A3600A798B7943EA02238D
:1021600023610878FFF782FFEB0744BF054B236428
:102170003EF021F9012038BD009000500040095088
:10218000004000503254FFFF4FF00042124B70B538
:102190005D6E03F580535A664AF6CD3304460F4907
:1021A00080204E6C0B64FFF7A5FE0B6A23F00F0333
:1021B0000F2C94BF234343F00F030B62F30744BF7C
:1021C000074B0B64002DA2BF4FF00042054B5A662F
:1021D0003EF0F1F870BD00BF008000500040095093
:1021E0003254FFFF00A000504FF00042104B70B57A
:1021F0005D6E03F580535A664AF6CD3304460D49A9
:1022000080204E6C0B64FFF775FE0B6A23F4F853C5
:1022100043EA04230B62F30744BF074B0B64002D12
:10222000A2BF4FF00042054B5A663EF0C4F870BDA5
:1022300000800050004009503254FFFF00A00050C1
:102240002DE9F04105460F461E4690464AB101234E
:102250003022194C8B4002FB004436B304F5825403
:1022600023600F21072F05EB450388BFA7F1080462
:102270004FEA0313114895BFBC00A40004330C338C
:1022800008FA04F2A14018442EF030FEB8F1000F15
:1022900009D101233021084ABB4001FB05223EB190
:1022A00002F582521360BDE8F08104F50154D7E7CE
:1022B00002F50152F6E700BF00C0035030C00350E2
:1022C0004FF400120B4B10B5C3F88020BFF34F8FB3
:1022D000BFF36F8F0024FF22074B21465C6520204F
:1022E0009A625C60FFF73EF92146BDE8104021206C
:1022F000FFF738B900E100E000000450044A054B44
:10230000002908BF1346012282401A60704700BFAF
:10231000401004504020045010B5012104462020F4
:10232000FFF720F901212120FFF71CF90122114BB1
:102330005A60227812069A606178A27842EA0142D5
:102340009A61FF229A6200229A631A644FF0004257
:102350005A654FF0FF324FF4001103F500531A6530
:10236000054AC2F88011E3781B01DBB282F815330D
:10237000116010BD0000045000E100E0F8B5012537
:10238000C3B2D1F800E091F80AC00F7B0C469D4023
:10239000CB7A1D491D4E0D65810001F1A04101F56B
:1023A0008821C1F804E04FF0300E0EFB00601B05E1
:1023B000617B43EA0C4343EA475322F00302016680
:1023C000C36502672EF084FD736D2B437365237A1A
:1023D00013B1336C2B433364637A13B1B36B2B4368
:1023E000B3632279A37943EA0243074A936161798F
:1023F000E37943EA014306498B61044B55639D64CD
:10240000BDE8F8402EF06ABD0020045000000450E2
:102410000010045010B50124C0B284402EF058FDC5
:10242000044B5A6D22EA04025A659C62BDE81040D2
:102430002EF054BD0000045010B50124C0B28440F9
:102440002EF046FD074BDA6A224208D15B6B9C43B3
:102450000CBF012400242EF041FD204610BD0024B5
:10246000F9E700BF000004504FF48032054B9A6634
:1024700041F6713203F51C33DA63012203F5005390
:10248000DA6070470090005041F671320121064B2E
:10249000DA6303F50052D1600022DA634FF4803230
:1024A000A3F518339A6670470000035001383128AD
:1024B0009ABF024B185C0020704700BFBD1A040889
:1024C00038B5C2F30625044602F0070241B942EAD4
:1024D000052242F440220634074B43F8242038BD3D
:1024E000114628462EF012FD02462846FFF7DEFF71
:1024F000163442EA0022EFE7008003504FF48032A6
:10250000064B5A6603F5E6239B69C3F38512827076
:1025100003F03F021B0B42700370704700900050A5
:1025200040F6B732064B5B689BB293429FBF4FF4B5
:102530007A72B3FBF2F3034AD05C88BF0020704785
:102540000080E00FEF1A0408014B986CD96C7047BB
:102550000080E00F0120034B9B680A3303F01F0348
:10256000984070470080E00F70B5054616461C463F
:1025700021B94FF42070FFF70FF80146402C1BD013
:1025800003D8DCB1202C1BD070BD602CFCD10423FF
:1025900003FB06F2530803EB4113B3FBF2F3094AC2
:1025A000203B02EAC303AA6822F06002AA60AA687C
:1025B0001443AC60EB61E7E70623E9E71023E7E7A4
:1025C0000823E5E7F8FF7F00012100F5805310B5EF
:1025D000596040F6AA6341F2050243610023094CA9
:1025E0008360C365C26000F500520361C361C364C8
:1025F0009464054C8365A04204BF03654365516044
:1026000010BD00BFFFFF010000C0055070B50D46B2
:10261000FFF7DAFF012300F580567360AB7C0446B8
:102620001BB1836843F080438360EB7C5BB1244B38
:102630009C4202BF2A7DA3F51033C3F8C821E36D85
:1026400043F08003E3652A8A6B7B20461343EA89C3
:102650001343E3602B7BD5E90112FFF785FF6B7D08
:102660001BB1A36843F48033A360AB7D1BB1A368A7
:1026700043F40043A360EB7D2A7E1B07120502F49E
:10268000E00203F0E0431343A3656B7E9A1E012A28
:102690004FF0020209D80B49032BC1F8202709D1BA
:1026A0000423F3652B78636170BD0749012BC1F8E2
:1026B0002027F4E7042204F50053DA65F2E700BFAF
:1026C00000C0055000D0035000E0035038B50D465F
:1026D000FFF77AFF012200F580535A602B8AA97B0D
:1026E000826843F0010343EA8123134383608368D4
:1026F0002A7D044643EA42738360AB7C5BB1194B8D
:10270000984202BFEA7CA3F51033C3F8C821C36D19
:1027100043F08003C3652B7B2046D5E9011243F4C7
:102720008053E3602EF049FC6B7B0BB11023636197
:102730006B7D1BB1A36843F48033A360AB7D1BB1F9
:10274000A36843F40043A360EB7D2A7E1B071205B8
:1027500003F0E04302F4E0021343A3652B786361C6
:1027600038BD00BF00C00550034B5A68D20702D5E0
:10277000DA69002AF9D1704700800A50054B9A683F
:102780009107FCD45A689207F9D4DA69002AF6D185
:10279000704700BF00800A5008B5FFF7E5FF02222E
:1027A000014B1A6108BD00BF00800A5008B5FFF751
:1027B000E5FF0122024B03F580514A601A6108BD12
:1027C00000800A5008B5044B5968012903D1FFF76E
:1027D000E3FF024B596008BD00800A5000A00A5078
:1027E00010B5064CFFF7CAFF6368012B03D1FFF752
:1027F000E9FFFFF7C3FF0378E36010BD00800A50D4
:10280000B8B94A680B7812B1127843EAC2034A7821
:1028100043EA42038A6812B1127843EA82138A7843
:1028200043EA8203CA6812B1127843EA4223014A9A
:102830009364704700800A5008B9014B596470478F
:1028400000900A5008B9014B5964704700A00A5023
:1028500008B9014B1964704700A00A5010B9024B27
:10286000186C70470020704700800A5048B911B1B9
:10287000012903D07047044BD86C7047024B186D88
:1028800070470020704700BF00800A5040B911B166
:10289000012903D07047034BDA647047014B1A6576
:1028A000704700BF00800A5010B9024B586D704746
:1028B0000020704700800A5038B50446054D3DF0B1
:1028C0009EFD0FCC0FC594E8030085E803000020AF
:1028D00038BD00BFEC16002047F6FF739A42F0B5F2
:1028E0006FD002296FD8394B5B5C012B6BD8384D08
:1028F000DF0005EBC30415F83330A178012B13D1A9
:102900000025E078401AA84202D80844C0B2F0BDC1
:10291000431B6668A0EB530336F913609642D4BF9D
:102920001D4603F1FF30EEE760680028EFD0B0F9F4
:102930000040944204DBB0F902409442B8BF144610
:1029400083883D44FF2B19BFC8224FF0280CB0F9F3
:102950000620B0F908C0A2EB04030CBF0126002634
:1029600093FBFCF333446E781BB29E4201DD002BD7
:1029700001DA731E1BB24FF47A7C01339BB2071D40
:102980005D1E2DB24FEAC50E00EBC505EA88AD68A5
:102990009E4214FB025222EAE27202F15C02B2FB96
:1029A000FCF204DD37F8335001339542E8D200EBF6
:1029B0000E039888904228BF1046884238BF0846C8
:1029C000A4E7FF20A3E70020A1E700BFF21A040854
:1029D000EC1600200229F0B555D82C4B585C012884
:1029E00051D82B4C04EBC00114F830004B6801287F
:1029F0000FD1C8788C78904294BFC4EB0001C4EB2F
:102A00000201001BCAB28242C8BF002233F9120081
:102A1000F0BD002B37D08878904202D3B3F9020082
:102A2000F6E7CC78B3F900009442F1D94C78998854
:102A3000013CA1F1FF06714203F10405E4B27141CA
:102A400003F10C07CEB2B44216D805EBC1014FF426
:102A50007A756A43B1F902404968521A04EBD4719D
:102A600002EB610292FBF4F29042D1DBB3F9020077
:102A70009042CDDC10B2CBE737F831C04E1C944504
:102A8000E3D33146DEE70348C2E700BFF21A040889
:102A9000EC1600200080FFFF0148FFF70DBF00BFCC
:102AA000F81A040800487047080E00202DE9F0418C
:102AB00009F072FF0128074624D909F0A1FF051E7D
:102AC00003DA01242046BDE8F081204B1B78002B5F
:102AD00039D100244FF050081D4E06F11003304646
:102AE000C6E90044B360C6F80C800AF053F83066BB
:102AF00080B90124012FE5D9284609F0A3FF002859
:102B0000E0DADEE7114B1B7803F0FF05002BE0D085
:102B10000024D7E70F4E214606F11003324601206C
:102B2000C6E90044C6E902380AF0FEF8306600281B
:102B3000DFD03022084B83F8412302229A60012221
:102B4000024B1A70D6E70024D6E700BF974000205A
:102B5000681700200417002000E100E008B509F024
:102B60001BFF02280FD1094B4FF0FF31186E0AF0FE
:102B70005BF8002814BF0120002003D14FF48062CD
:102B8000034B9A6608BD0020F8E700BF68170020D5
:102B9000009000504FF4806208B5084B9A6609F027
:102BA000FBFE022807D1064B186E0AF06DF80038BC
:102BB00018BF012008BD0020F9E700BF00A00050A9
:102BC0006817002008B54FF098435B6CD90208D510
:102BD00009F0E2FE0238012803D8094B186E0AF00A
:102BE00031F94FF098435A6CD202FCD55B6D054A1F
:102BF00003F4702313600222034BC3F8882108BD3D
:102C000004170020140B002000E100E010B504467A
:102C100000283BD0FFF7A2FF002838D120462EF035
:102C2000AFF994F8203043B94FF098435A6CD20270
:102C3000FCD55C6D04F4702412E04FF09844A36D51
:102C400043F00203A36509F0A7FE022810D0A36D8C
:102C500023F00203A3654FF4A0220D4B1C681A60F9
:102C6000FFF798FF9CB12046BDE810402EF0D9B97F
:102C7000084B4FF0FF31186E0AF0AEF8A36D23F049
:102C80000203A3650028E6D0012000E0212010BD4A
:102C9000140B0020041700202DE9F0418CB0884669
:102CA000DDE912761D460446002847D0002945D0AC
:102CB000002F43D0002E41D013F00F033ED1204807
:102CC0002049A360002A08BF0146E361C4E900135C
:102CD000404609A92EF01FFB68BB204609992EF03B
:102CE00046F9294620462EF042F96946404600F052
:102CF000AFFE00BB694620462EF025F9404603A9E9
:102D00002EF008FCB8B9204603A92EF01CF906974E
:102D10000127204645F0005506A9079708952EF093
:102D200012F9204609A909960A970B952EF015F974
:102D30002046FFF76BFF0CB0BDE8F0812120FAE7D9
:102D400000010004000101042DE9F04792B089461A
:102D5000DDE91A681D4604461C9F002864D000293E
:102D600062D0B8F1000F5FD0002F5DD0002E5BD095
:102D700013F00F0358D12D482D49A360002A08BF36
:102D80000146E361C4E9001348460FA92EF0C3FAD7
:102D9000002846D120460F992EF0E9F82946204612
:102DA0002EF0E5F86946484600F052FE002838D17A
:102DB000694620462EF0C7F8484603A92EF0AAFB24
:102DC00078BB4FF001092046DFF868A003A92EF078
:102DD000BAF845F00055204606A90696CDF81C9095
:102DE000CDF820A0CDF82480CDF828900B952EF0BA
:102DF000AAF8204609A92EF0A6F820460CA90C979F
:102E0000CDF834900E950F96CDF84090CDF844A0B3
:102E10002EF0A3F820460FA92EF09FF82046FFF7CA
:102E2000F5FE12B0BDE8F0872120FAE703020004A6
:102E300003020104100000202DE9F04F99B08846EC
:102E4000934699460546239F002800F0B880002944
:102E500000F0B580249B002B00F0B180259B002B57
:102E600000F0AD80002F00F0AA80229B93B11C6877
:102E7000544B554A0026BBF1000F18BF1A46259B3C
:102E800003924B4404934E4506D3229B03B11C602E
:102E9000002091E0229CEBE77CB1249B3A5D9B5D96
:102EA00025995A40BBF1000F08BF13468A553B5580
:102EB000013404F00F040136E5E7A9EB060ABAF184
:102EC0000F0F55D9039B4046C5E90034AC60EC6157
:102ED00015A92EF020FA00286ED1284615992AF05F
:102EE0000F0A2EF044F8514628462EF040F840468E
:102EF00006A900F0ADFD00285ED1284606A92EF0F7
:102F000022F8404609A92EF005FB002854D1284696
:102F100009A92EF018F8012324992C4A0C970D9337
:102F20000E928A190F9228464AF000520CA910936B
:102F3000059211922EF007F828460FA92EF003F8FB
:102F4000259B059A991901231291139314921F4AF4
:102F5000284612A91597169317922DF0FEFF2846C2
:102F600015A92DF0FAFF2846FFF750FE564418BB6E
:102F7000259B03EB060A249B1E44049B534501D169
:102F80004E4680E774B116F8013B3A5D5A40BBF1FA
:102F9000000F08BF13460AF8012B3B55013404F01B
:102FA0000F04EAE71023224641462846CDE9007780
:102FB000FFF772FE0028E6D019B0BDE8F08F21209F
:102FC000FAE700BF0304010403040004100000201A
:102FD0002DE9F04F97B0894690461F460546DDF82B
:102FE00080A0002800F0BB80002900F0B8803AB132
:102FF000229B002B00F0B380239B002B00F0AF80BE
:10300000BAF1000F00F0AB80219B002B00F0A780ED
:1030100067B13C680026229B43440293464507D390
:1030200007B13C60002017B0BDE8F08F3C46F1E7E7
:103030005CB1229B219A9B5D125D01345340239A1F
:1030400004F00F0493550136E8E7A8EB060BBBF13B
:103050000F0F58D9434B4846C5E90034AC60EC61CA
:1030600013A92EF058F90028DDD1284613992BF02A
:103070000F0B2DF07CFF594628462DF078FF48466F
:1030800004A900F0E5FC0028CDD1284604A92DF0C4
:103090005AFF484607A92EF03DFA0028C3D128461A
:1030A00007A92DF050FF012322992F4ACDF828A01F
:1030B0000B930C928A190D9228464BF000520AA9E4
:1030C0000E9303920F922DF03EFF28460DA92DF08E
:1030D0003AFF239B039A991901231091119312929D
:1030E000214A284610A9CDF84CA0149315922DF032
:1030F00034FF284613A92DF030FF2846FFF786FD40
:103100005E4400288FD1229B03EB060B239B1E44B9
:10311000029B5B4501D1464680E7ACB9219B224624
:10312000CDE900A3494610232846FFF7B5FD002846
:103130007FF479AF0AF1100212F8013D0133DBB2DE
:1031400013700BB95245F7D1219A1BF8013B125D60
:103150000134534006F8013B04F00F04D8E7212066
:1031600061E700BF03030004100000202DE9F041D7
:103170008CB0884616461D460446129F00284BD048
:10318000002949D0002A47D0002F45D00B68103BBA
:10319000102B41D8214A22FA03F3D9073CD500234A
:1031A0001F4A8360C0E90023C36109A940462EF08D
:1031B000B2F870BB204609992DF0D9FE2946204669
:1031C0002DF0D5FE6946404600F042FC08BB69463A
:1031D00020462DF0B8FE404603A92EF09BF9C0B959
:1031E000204603A92DF0AFFE06960126204606A92B
:1031F00045F00055079608952DF0A5FE094B204691
:1032000009A909970A960B932DF0A7FE2046FFF710
:10321000FDFC0CB0BDE8F0812120FAE701010100BE
:103220000000040410000020F0B50C4617461E46AE
:10323000054695B0002874D0002972D0002A70D0BD
:10324000002B6ED0036B0F2B5BD80023364A384619
:10325000C4E90023A360E36111A92EF05CF8002803
:103260005BD1204611992DF082FE296B20460F2953
:1032700084BF01F00F0110312DF079FE384602A90C
:1032800000F0E6FB002848D1204602A92DF05BFEA5
:10329000384605A92EF03EF900283ED1204605A962
:1032A0002DF051FE0122214B089509920A932B6BB8
:1032B00005F1100003F00F0141F000510B900F2BAE
:1032C0000C920D910E900F9243F00052109226D95D
:1032D0000A9B08A923F0005320460A932DF033FEE1
:1032E0000BA920462DF02FFE0123119612930F4BB0
:1032F000204611A913932DF030FE2046FFF786FCDF
:103300000BE000F1200301900093012210233946C5
:103310002046FFF7C1FC002897D015B0F0BD0EA9DC
:10332000DFE72120F9E700BF0000040410000020BF
:103330002DE9F04F9BB00C4690461F460546DDF840
:103340009090002800F0B280002900F0AF80002AA1
:1033500000F0AC80002B00F0A980026B02EB0903A7
:103360001B09B3EB121F02F00F0600F09780002339
:103370004F4A8B60C1E90023CB61404617A92DF06D
:10338000CAFF0346002840F0858006EB090B204663
:1033900017992BF00F0A2DF0EAFD514620462DF02B
:1033A000E6FD404602A900F053FB0346002871D118
:1033B000204602A92DF0C7FD404605A92EF0AAF827
:1033C0000346002866D14FF00108019005A9204668
:1033D0002DF0B9FD374A204608A90895CDF824807C
:1033E0000A922DF0B0FD46F00051AAEB060605F159
:1033F000100346F000560B93CDF830800D910E97D8
:10340000CDF83C8010960D99204621F000510D9189
:103410000BA900932DF097FD20460EA92DF093FDEA
:10342000019B244A1193AAF1100343F00053CDF8F5
:103430004880139305F120031493CDF8548016921D
:10344000139B204643F080431393139B11A923F051
:10345000005313932DF081FD204614A92DF07DFD1E
:10346000144A17A920461795CDF8608019922DF0BF
:1034700074FD2046FFF7CAFBAAEB0B0149440190FB
:10348000ABEB0A02009839443DF0BDFC019B2A6B6E
:103490004A442A6318461BB0BDE8F08F10304A46F4
:1034A000394630443DF0AFFC0023F0E72123F1E73B
:1034B00003020004100000202DE9FF474FF0000830
:1034C0000E4617460446CDF80080002859D022B990
:1034D0000025284604B0BDE8F087002951D032F01D
:1034E000030902F0030A1FD04FF0E063C0E900387F
:1034F00001230191C0F808800293C0F81C8049F0B4
:10350000005301A903932DF028FD494620462DF0D4
:103510002EFD2046FFF77AFB054628B14A46414674
:1035200030463DF066FCD4E7BAF1000FD0D04FF042
:1035300000084FF0E063C4E900380123CDF804D05F
:103540000293114B204601A9C4F80880C4F81C80DE
:1035500003932DF002FD042120462DF008FD2046A6
:10356000FFF754FB054608B13A46D8E7009A4E44A7
:10357000EB00013522FA03F3AA4506F8013BF7D127
:10358000A6E72125A5E700BF040000202DE9F041B2
:103590000F4601780446013990468AB0042947D87D
:1035A000DFE801F00332373C410040251426214971
:1035B0000C3400225D43C7E90122FA6138463960C4
:1035C00029462DF0D4FC0123384646F0005604A9C4
:1035D00045F00055CDF804800293039504940593BB
:1035E00006960794089309962DF0ADFC384601A97C
:1035F0002DF0A9FC384607A92DF0AFFC3846FFF79F
:1036000005FB0AB0BDE8F081402520260A490C34AC
:10361000CFE74025202609490C34CAE780254026FB
:1036200007491434C5E78025402606491434C0E70D
:103630002120E6E700020103000301030004010367
:10364000000501030006010310B591B188B1002304
:10365000C0E90133084B00F10C0203F1200153F8DB
:10366000044B8B4242F8044BF9D101230370002034
:1036700010BD2120FCE700BF752D040810B591B1E5
:1036800088B10023C0E90133084B00F10C0203F1BB
:10369000200153F8044B8B4242F8044BF9D102232A
:1036A0000370002010BD2120FCE700BFAC2C0408F3
:1036B00010B591B188B10023C0E90133084B00F186
:1036C0000C0203F1200153F8044B8B4242F8044BE7
:1036D000F9D103230370002010BD2120FCE700BFB7
:1036E000CD2C040810B5A1B198B10023C0E9013375
:1036F000C0E90333084B00F1140203F1400153F811
:10370000044B8B4242F8044BF9D104230370002090
:1037100010BD2120FCE700BFEE2C040810B5A1B1BC
:1037200098B10023C0E90133C0E90333084B00F12D
:10373000140203F1400153F8044B8B4242F8044B4E
:10374000F9D105230370002010BD2120FCE700BF44
:103750002F2D04082DE9F04F0D46904604468BB0FE
:1037600000287DD000297BD0002A79D00278013A48
:10377000042A75D8DFE802F0030C58606B001427A8
:10378000394A00F10C0B00F1040A2C34B94608E068
:1037900020274FF01C09354A00F10C0B00F1040AF8
:1037A0002C34402199455BD80AF104030AEBD10679
:1037B00053F8040B002855D1B342F9D1DAF80030A0
:1037C000013901EA0306C5E900203146A860E86135
:1037D00028462DF0CCFB2846DAF800102DF0C7FB68
:1037E000012249F00053284601A947F0005746F04E
:1037F0000056CDF804B00292039704940592069601
:10380000CDF81C80089209932DF09DFB284604A951
:103810002DF099FB284607A92DF09FFB2846FFF7BE
:10382000F5F90BB0BDE8F08F2027114A00F10C0B21
:1038300000F1040A2C34A9E740274FF030090D4A63
:1038400000F1140B00F1040A54348021AAE7402748
:10385000094AB94600F1140B00F1040A5434F4E7A4
:103860002120DEE70F20DCE700020303000303034F
:103870000004030300050303000603032DE9F043DE
:1038800087B00D4691461E460446DDF83880002874
:1038900036D0B8F1000F33D002B98BBB6B1EDBB250
:1038A000042B2DD8174AD75C0F9B9F4228D80023A2
:1038B000280200F1407000F580703146C4E9013300
:1038C0002060E36120462DF052FB0123694620462B
:1038D00046F0005647F00057CDF80090019302964D
:1038E000CDF80C80049305972DF02DFB204603A9FD
:1038F0002DF033FB2046FFF789F907B0BDE8F083D0
:103900002120FAE7702D0408F0B50F4616461D4633
:10391000044693B010B9212013B0F0BD0029FAD0AD
:10392000002AF8D0002BF6D0002331461A4638463C
:103930002DF096FC0028EFD1304602A92DF02CFC8A
:103940000028E9D1EB68022B0AD039683F48029A77
:1039500081426B6902D01830814270D19A42DAD824
:103960002B68002BD7D14FF060623846C4E90023A2
:10397000A360E36101A92DF0CEFC0028CCD1019910
:10398000204621F4F06101912DF0F1FA69462846B4
:103990002DF0C1FC0028BFD1204600992DF0E7FA98
:1039A000384609A900F054F80028B5D1204609A9E5
:1039B0002DF0C9FA38460CA92DF0ACFD0028ABD18A
:1039C00020460CA92DF0BFFAEB684BB1284606A99A
:1039D00000F03EF800289FD1204606A92DF0B3FA4A
:1039E000304603A92DF096FD002895D1B368DA047E
:1039F0000CD59B0427D50621F36932691B6801FBAE
:103A000003225B0043F0005303920593204603A971
:103A10002DF099FA28460FA92DF07CFD00287FF49F
:103A20007BAF20460FA92DF098FA03252046FFF71B
:103A3000EDF801287FF470AF013DF7D16CE7B3EBEF
:103A4000420F8DD267E7292066E700BF200000B053
:103A500090B189B101234B60C368013B012B08D8A9
:103A60008269064B1AB10A6000208B607047044AD5
:103A7000F9E74FF00053F7E72120704708000020D6
:103A8000982D040870B50E46154604468AB00028E5
:103A90005BD0002959D0002A57D0012329461A4665
:103AA00030462DF0DDFB00284DD1B36813F4C04F34
:103AB0004BD0AB6803F4C043B3F5005F45D1254B51
:103AC000A060C4E90030E06107A930462DF023FC76
:103AD000002838D1204607992DF049FA304601A92F
:103AE000FFF7B6FF78BB20462DF02DFA304604A92B
:103AF0002DF010FD38BB204604A92DF024FAEB6808
:103B00001BBBAB6803F4C043B3F5005F1DD169462E
:103B100028462DF06CFBB0B9009B6A699A4216D317
:103B20002A6943F0005307920122204607A9089210
:103B3000032509932DF011FA2046FFF767F80128B5
:103B400001D1013DF8D10AB070BD2120FBE71D2055
:103B5000F9E700BF000001022DE9F04391B00D46E6
:103B6000DDE918760446DDF8688000286DD000296C
:103B70006BD0002F69D0B8F1000F66D0096801F052
:103B80007041B1F1404F5BD0002B5BD1531E042B31
:103B90005BD8120202F1C06202F58072002328464F
:103BA000C4E901332260E3610DA92DF0B4FB0028C4
:103BB00043D120460D992DF0DAF9314620462DF0FB
:103BC000D6F9284601A9FFF743FF002835D1204642
:103BD00001A92DF0B8F9284604A92DF09BFC60BB83
:103BE0004FF00109204604A92DF0ADF946F000562A
:103BF000204607A90797CDF8209009962DF0A3F944
:103C00002B680A9703F07043B3F1404FCDF82C9026
:103C10000C9603D120460AA92DF095F90123CDF881
:103C200034800E931B9B204643F000530DA90F9345
:103C30002DF093F92046FEF7E9FF11B0BDE8F083BF
:103C4000034AABE74FF0C062A8E72120F5E700BFC9
:103C5000000002062DE9F0418CB00D46DDE9128628
:103C60000446149F002867D0002965D0B8F1000FE2
:103C700062D0002F60D0896889045DD5296801F081
:103C80007041B1F1404F4DD0002B4DD1531E042B4C
:103C900052D82A4B03EB022200232846C4E9013301
:103CA0002260E36109A92DF036FB002837D12046B8
:103CB00009992DF05CF9314620462DF058F96946F6
:103CC0002846FFF7C5FE50BB694620462DF03BF95C
:103CD000284603A92DF01EFC08BB204603A92DF0A1
:103CE00032F9012346F00056CDF818800793089664
:103CF00009970A93159B43F000530B932B6803F02D
:103D00007043B3F1404F11D109A920462DF01BF9A2
:103D100006A920462DF017F92046FEF777FF0CB0D4
:103D2000BDE8F081064AB7E7064AB5E706A920468E
:103D30002DF009F909A9ECE72120F0E700010106BF
:103D4000000003060000010610F1860F12D010F1EA
:103D5000850F0ADA10F1950F0FD010F1930F0CBFF9
:103D60006FF06F004FF0FF307047003818BF012030
:103D7000404270476FF0710070470148704700BFC4
:103D800000B2FFFF2DE9F041A0B005468846174676
:103D90000021242207A81E463DF02BF800213C22DA
:103DA00011A810913DF025F8287807A92DF0EAFC1C
:103DB000FFF7CAFF0446D0B94FF4805107A82DF091
:103DC000D7FCBDF81C3003F44F42B2F5824F02D14C
:103DD000DBB2412B3FD0BDF81E3001210733DB0899
:103DE0003046069330F03CFD002804DA1B4C204698
:103DF00020B0BDE8F081304605F1340130F0E8FC38
:103E00000028F3DA10AD2946069A304630F085FCDA
:103E100006AB04934023CDE90253279B2946019327
:103E2000269B069A009307A84FF006232EF015FC58
:103E3000FFF78AFF04460028D9D1069A2946404652
:103E4000520830F04EFC069938464A0805EB5101FD
:103E500030F047FCCBE76FF08504C8E780B3FFFF85
:103E60002DE9F04100248046B2B00E4615462146A9
:103E70003D2222A81F4621943CF0BBFF21463C2254
:103E800012A811943CF0B5FF2146242208A83CF06A
:103E9000B0FF98F8000008A92DF074FCFFF754FF5C
:103EA0000446002841D14FF4804108A82DF060FC61
:103EB000BDF82030BDF8224003F44F420734B2F57C
:103EC000824F4FEAD40434D1DBB2412B31D12246A8
:103ED00011A93846079430F01AFC2246284621A939
:103EE00030F015FC07AB04934123039321AB0293FD
:103EF000079B1E48019321AB009311AA234608A9F2
:103F00002EF0D2FDFFF720FF044670B9BDF8203037
:103F1000304603F44F41B1F5824F079A21A922D1CF
:103F2000DBB2412B1FD130F0C6FB204632B0BDE8DA
:103F3000F08163002246013311A93846079330F01F
:103F4000ECFB042322460DF1850128468DF88430D0
:103F500030F0E3FB611C21AB2246194405F1080057
:103F600030F0DBFBBEE730F0BCFBDEE7000002090F
:103F700010F1860F14D010F1850F07DA10F1930FAE
:103F800011D0873007D04FF0FF307047003818BF8E
:103F9000012040427047054B194411F9050C704748
:103FA0006FF0710070476FF06F007047A02D04062E
:103FB000012910B50CDC084C084B00290CBF214628
:103FC00019462EF0FDFB2146BDE81040FFF7D0BF9B
:103FD0006FF0740010BD00BF0B0000020A00000269
:103FE00008B52EF02FFCBDE808400149FFF7C0BF1F
:103FF0000B000002002307B54022019301AB2EF015
:104000003DFC034903B05DF804EBFFF7B1BF00BF0F
:104010000B000002012910B50CDC084C084B0029EC
:104020000CBF214619462EF0CBFB2146BDE81040BF
:10403000FFF79EBF6FF0730010BD00BF09000002C4
:104040000800000208B52EF0FDFBBDE8084001495C
:10405000FFF78EBF09000002002307B5202201935D
:1040600001AB2EF00BFC034903B05DF804EBFFF746
:104070007FBF00BF0900000210B5044C21462EF09E
:104080009FFB2146BDE81040FFF772BF050000020C
:1040900008B52EF0D7FBBDE808400149FFF768BF1F
:1040A00005000002002307B51422019301AB2EF096
:1040B000E5FB034903B05DF804EBFFF759BF00BF10
:1040C000050000022DE9F041012905460E46904603
:1040D0001F4692B046D8046824F04003802B02D0DB
:1040E000B4F5807F41D11C2200210BA83CF081FE59
:1040F0001F4A204B0121012E08BF13460A932B1D96
:104100000193E4081C4B44F0005402910AA8039464
:10411000CDF81080059106930797089101A909939E
:104120002CF011FF04A90AA82CF00DFF07A90AA87A
:104130002CF013FF29680AA8C9082CF018FF1021D9
:104140000AA82CF014FF2DF0CBFB40B90AA82CF0E4
:1041500017FF2DF0BCFB04462DF0CAFB204612B021
:10416000BDE8F0816FF02000F9E76FF07100F6E72D
:104170000001000400010104100000202DE9F041BD
:1041800001290646884615461F4698B05AD8130797
:104190005BD1046824F04003802B02D0B4F5807F0B
:1041A00056D11C22002111A83CF023FE2A4A2B4B99
:1041B000E408B8F1010F08BF134601221093331D24
:1041C0000193274B44F00054029203940497059204
:1041D00006930797089209931E9B1F990A9345F02F
:1041E00000530B9210A80C930D9101A90E920F93FE
:1041F0002CF0A9FE04A910A82CF0A5FE0AA910A86D
:104200002CF0A1FE0DA910A82CF0A7FE07A910A85C
:104210002CF0A3FE316810A8C9082CF0A8FE29468E
:1042200010A82CF0A4FE2DF05BFB40B910A82CF0D8
:10423000A7FE2DF04CFB04462DF05AFB204618B08B
:10424000BDE8F0816FF02000F9E76FF02100F6E79C
:104250006FF01F00F3E700BF030200040302010434
:10426000100000202DE9F04F9BB080468946924611
:104270001F46249EB3B9012919D81C46D8F800302E
:1042800023F04002802A15D1574A584B0025B9F136
:10429000010F18BF1A460192554511D307B13C6072
:1042A000002084E001291C6801D80F2CE6D96FF0AA
:1042B00020007CE0B3F5807FE6D06FF01F0076E051
:1042C0007CB1259B325D5B5D26995A40B9F1010FA7
:1042D00008BF13464A553355013404F00F04013525
:1042E000DAE7AAEB050BBBF10F0F0CD8269B03EB0B
:1042F000050B259B1D44269B53440093009B5B4567
:1043000058D15546C8E71C22214613A83CF071FD40
:10431000019BD8F80020129308F1040303930123B2
:10432000D20842F0005204930592314A0696079350
:10433000089209960A930B92259A26992A442BF003
:104340000F0B0C9229444BF000520D9312A80E92C1
:104350000F9103A9109311922CF0F5FD06A912A854
:104360002CF0F1FD0CA912A82CF0EDFD0FA912A85C
:104370002CF0F3FD09A912A82CF0EFFDD8F80010DD
:1043800012A8C9082CF0F3FD594612A82CF0EFFD35
:104390002DF0A6FA58B912A82CF0F2FD2DF097FADC
:1043A00000902DF0A5FA00985D4400289ED01BB027
:1043B000BDE8F08F74B115F8013B325D5A40B9F198
:1043C000010F08BF13460BF8012B3355013404F0DD
:1043D0000F0493E73346324601214046FFF772FE51
:1043E0000028E8D0E3E700BF03040004030401044D
:1043F000100000202DE9F04F0746894698461646E2
:1044000099B092B115683B6823F04002802A03D02E
:10441000B3F5807F40F0A08000244C4507D306B15F
:104420003560002019B0BDE8F08F1546EBE75DB1AF
:10443000239B229A1B5D525D01355340249A05F05F
:104440000F0513550134E8E7A9EB040ABAF10F0F81
:104450000BD8239B03EB040A249B1C44239B03EBF4
:10446000090BD34557D14C46D7E71C22294611A842
:104470003CF0BFFC3A4B3A6810933B1D019301237B
:10448000D20842F0005202930392364ACDF81080CF
:1044900005930692CDF81C8008930992239A2499DB
:1044A00022442AF00F0A0A9221444AF000520B9348
:1044B00010A80C920D9101A90E930F922CF043FDC0
:1044C00004A910A82CF03FFD0AA910A82CF03BFD70
:1044D0000DA910A82CF041FD07A910A82CF03DFD56
:1044E000396810A8C9082CF042FD514610A82CF0DC
:1044F0003EFD2DF0F5F9002894D110A82CF040FDD8
:104500002DF0E5F9834654442DF0F2F9BBF1000F8C
:104510009FD0584686E755B1229A1AF8013B525D62
:104520000135534004F8013B05F00F0599E7424679
:1045300001213846229BFFF7C5FD00287FF472AFAA
:1045400008F1100212F8013D0133DBB21370002BA9
:10455000E2D19045F6D1DFE76FF01F0062E700BFC0
:1045600003030004100000202DE9F04FA1B01F4606
:10457000DDE92DA4154606462A9BDDF8BC800028FF
:1045800000F00B81002F00F008812C9A1AB12B9AB1
:10459000002A00F0028135B1BAF1000F00F0FD8071
:1045A000002C00F0FA80309A002A00F0F680A8F182
:1045B00004020C2A00F2F180002B00F0EE800C2B9C
:1045C00040F0EE80B3465BF8183B45F0005901938C
:1045D0002C9B43F000530093002968D11C2219A89A
:1045E0003CF007FC704A019B42EA08221892012223
:1045F000DB0843F00053CDF814B0069207936B4BE1
:10460000089709920A932B9B0B93009B0C920D9396
:10461000CDF838A00F92CDF8409011941292CDF8B9
:104620004C901CB9139B43F080431393309B05A916
:104630001493012318A8159348F0005316932CF0F7
:1046400082FC08A918A82CF07EFC0BA918A82CF055
:104650007AFC0EA918A82CF076FC14A918A82CF046
:1046600072FC11A918A82CF078FC316818A8C908A8
:104670002CF07DFC2C9918A82CF079FC294618A860
:104680002CF075FC2DF066F98246002873D118A82D
:104690002CF076FC2DF055F982462DF06CF9BAF528
:1046A000403F02D0BAF1000F69D1A24600241C227B
:1046B000002119A83CF09DFB3D4B32681893012363
:1046C000D20842F00052CDF808B003930492374A62
:1046D0000597069307922B9A0892009A09930A92DB
:1046E000CDF82CA00C93CDF834900E940F93CDF808
:1046F00040901CB9109B43F080431093012314AFEA
:10470000119712932B4B02A918A813932CF01BFCA2
:1047100005A918A82CF017FC08A918A82CF013FC60
:104720000BA918A82CF00FFC0EA918A82CF015FC4A
:1047300011A918A82CF011FC316818A8C9082CF090
:1047400016FC2C9918A82CF012FC294618A82CF05D
:104750000EFC2DF0FFF8824668B918A82CF010FC6A
:104760002DF0EFF806462DF006F946B942463946D7
:1047700030983CF048FB504621B0BDE8F08F294608
:1047800020462DF0EFF80023194614AAD154013326
:10479000102BFBD16FF06F0AEDE76FF0130AEAE719
:1047A0006FF0710AE7E700BF000003040C0000206F
:1047B00000000204100000202DE9F04F984600236D
:1047C000ABB01646359A894604461360002800F0BF
:1047D0000D82002E00F00282002900F00782B8F15D
:1047E000000F00F00382349A964200F2FF81D0E974
:1047F0000275B919184655F1000328BF0120002899
:1048000040F0F4816FF01F028A424FF00F029A418C
:10481000C0F0EC8194F84020002A40F0E781D4E910
:1048200004C247EA0C0715433D4306F00F0E1FD1A3
:104830000127BEF1000F22D0C4E9021304F14103A5
:1048400084F8407006931023CDE90209CDE9048372
:104850000190E36B324600932046A16B04F1710393
:10486000FFF782FE002800F0BF802BB0BDE8F08F7C
:10487000BEF1000F02D0012084F840000027002084
:10488000D20042EA5C720DF1800B4FEACC0CC0F111
:10489000200AA0F1200E2CFA00F502FA0AFA45EAE5
:1048A0000A0522FA0EFE083045EA0E0540280BF8EC
:1048B000015DECD10DF1880C00226546DB0043EA76
:1048C0005173C900C2F1200AA2F1200E21FA02F0B0
:1048D00003FA0AFA40EA0A0023FA0EFE083240EA16
:1048E0000E00402A0CF8010DECD12DF033F8002811
:1048F000BBD1D4E90232A16B9B1942F10002C4E999
:10490000023204F1410A00297ED11C2223A83CF086
:1049100070FA002F6BD194F84030C3F1806303F13B
:10492000031322460121229304F11803099352F83C
:10493000713B0A91DB0843F000530B930C920D91ED
:10494000002F56D0E36B43F000530E93012346F043
:1049500000501EA9CDF83C90109311901291A549DA
:1049600013931491CDF85480169317901892A24A7D
:10497000199328461A92CDF86CA01C931D9109A991
:104980002CF0E1FA28460CA92CF0DDFA28460FA9F4
:104990002CF0D9FA284615A92CF0DFFA94F840300B
:1049A0004BBB284618A92CF0D8FA21682846C9081C
:1049B0002CF0DDFA002128462CF0D9FA31462846A1
:1049C0002CF0D5FA28462CF0DBFA2CF0BAFFB0F523
:1049D000403F19D0C0B12CF0CEFF404634992CF0A6
:1049E000C1FF6FF06F0040E7359B1E603DE7834BD2
:1049F00097E7814BA9E7284612A92CF0A4FA28468C
:104A00001BA92CF0A0FAD0E794F8401004F1180B81
:104A1000002968D11C2223A83CF0EBF9784A002F2A
:104A2000784B08BF134622464FF00101229352F8FB
:104A3000513BCDF830B04FEAD30343F000530D9112
:104A40000E9316BFE36B6C4B43F000530F92109123
:104A500011931EAB12930123A06B6649984214BFB9
:104A600042464A46002013931491159246F0005294
:104A700016931792189019931A921A9A284642F090
:104A800080421A92CDF86CA01C931D910CA92CF0B9
:104A90005AFA28460FA92CF056FA284615A92CF0E8
:104AA00052FA1FB9284612A92CF04DFA284618A927
:104AB0002CF053FA28461BA92CF04FFA21682846FF
:104AC000C9082CF054FA002128462CF050FA284648
:104AD00031462CF04CFA28462CF052FA2CF031FFDB
:104AE00000287FF478AF1C22002123A83CF081F934
:104AF000002F75D194F84020434B9B1A2246012188
:104B0000229352F8513BCDF824B0DB0843F0005318
:104B10000A910B930C920D91002F63D0E36B43F03D
:104B2000005301210E931EAB0F93324B1091119342
:104B3000A36B46F000508B4218BFC146CDF8489099
:104B400013911490CDF854801691179023B91593B2
:104B5000179B43F08043179301232649CDF860A0AB
:104B600019931A911B921C93234B284609A91D9354
:104B70002CF0E9F928460CA92CF0E5F9284612A9F1
:104B80002CF0E1F994F840301BB128460FA92CF025
:104B9000DAF915A922A82CF0E0F994F840301BB3FB
:104BA00018A922A82CF0D9F921682846C9082CF0A8
:104BB000DEF9002128462CF0DAF9314628462CF09F
:104BC000D6F928462CF0DCF92CF0BBFE04462CF07C
:104BD000D2FE002C7FF401AF359B1E60002044E61E
:104BE0000A4B8BE7044B9CE71BA9DAE76FF0130035
:104BF0003BE600BF1000002020000020010003045D
:104C00000200020400000204030002040100020486
:104C100038B5134DFDF74AFF124B134A1349144898
:104C200011F004F82B7803F0FF04BBB907F0B4FED1
:104C3000012802D907F0E4FE04462B782BB90D4B6E
:104C40000D481B68984701232B7007F0A5FE01282B
:104C500004D92046BDE8384007F0F4BE38BD00BF97
:104C60009840002051AC000821AC0008073603082A
:104C700081AC0008BC0C00203432002006289ABF0A
:104C8000014B185C00207047A72D040830B5154B68
:104C900087B00293144B0390049346F611030D461C
:104CA000059300F077F91428044616D168462CF0D5
:104CB00045FF4FF0A843032202A95A6319601D6102
:104CC0009A63DA6B9207FCD1142C02D168462CF05F
:104CD00043FF00F0D9F9044601E00028E9D020465E
:104CE00007B030BDCC170020040000202DE9F04FA4
:104CF000B1B005468C469E46E8466F4EDDF8EC9016
:104D0000409C06F1100A474630687168083603C7B0
:104D10005645B846F7D13E9B03EB0208C8F1000A9E
:104D20000AF00F0AB9F1000F00F09D80C9F10007E9
:104D300007F00F070121DDF8FCB044F00050C4F18A
:104D40001006CDF810B005910690300200F4F8502E
:104D500040F021000790B9F1000F40F08680CDF8B7
:104D600020D047F00050002D00F0848009912121CF
:104D70000A9041EA07210B9142F00050CDF830C073
:104D80003D9B08A94FEA0A2C0D910E904CF0410072
:104D90000F901093002A75D13E9B119143F0005360
:104DA00012933C9B1390149310AB1593434B444ABE
:104DB000169340F611031793424B0021002D08BFB4
:104DC0001346189314AB19933F4B10221A931123D7
:104DD0001B931CAB18463CF00CF801221D920022DC
:104DE00046F0804603461E96239205B9EB46102CEA
:104DF000CDF880B024AE4BD10123224600213046AD
:104E0000219322943BF0F5FF20AB002125938F42A4
:104E100018BF334647F0804226923A9A2CA828922F
:104E20002993B2FA82F35B0949EA837310222B912A
:104E30002A933BF0DEFFB9F1000F00D028AED0443A
:104E400048F080432CA918A82D962E93FFF71EFF3B
:104E500030B92DB90346A34225D1002818BF2C2014
:104E600031B0BDE8F08F102764E7CDF820E049F0BD
:104E7000005078E7002C3FF479AF04A90991012193
:104E80000A9076E73E9B0CAA11924120129388E784
:104E9000102200213046219322943BF0AAFF002CDF
:104EA000B2D10123B1E703F1C0026A4412F8C02C69
:104EB00001331043CFE700BFAE2D040810000020DF
:104EC000C42D0408C82D040804000020F0B5C02932
:104ED0009FB0DDE9244557D0B1F5807F04D080290B
:104EE00048D029201FB0F0BD01265CB140F2344704
:104EF00002941024039604942124019705940695A6
:104F000002AC0AE040F21447029410240396049481
:104F10002124059401240197069507940125102466
:104F2000089409950A9221220B950C940D92174A28
:104F30000AAD0E92164A0F95109242F61102119286
:104F4000129313951494159201AA1692D3B112AB31
:104F50001793042318931123199316AB1A901B93DC
:104F600040F61103C9081C911AA806A91D93FFF762
:104F70008DFEB7E7012614B94FF48267C4E74FF4FA
:104F80008667B5E70EABE3E70F20ABE7C02D04085B
:104F900010000010F8B5374B5A6E42F004025A6602
:104FA000D3F8802242F00102C3F88022324B5B68C2
:104FB000C3F308033BB14FF0A842D36B13F0430F88
:104FC000FBD11420F8BD2D4F3B789BBB07F0E4FCD0
:104FD0000128064617D83B7803F0FF0453BB002393
:104FE000274DC5E9003305F11003AB605023284677
:104FF000EB6007F0CFFD286690B101239E423B7025
:1050000018D9204606E007F0FBFC041E30DB3B7895
:10501000002BE4D007F016FD00280BDA0220D1E7C0
:10502000012E01D80120CDE7204607F00BFD002816
:10503000F8DAF3E707F0B0FC02280DD0114C236832
:105040001BB9042120460EF089F8236800200133A3
:1050500043F000432360B5E7094B4FF0FF31186E72
:1050600007F0E2FD002814BF01200020AAD1E5E7E7
:105070000D20A7E70080005000ED00E099400020DF
:10508000D0170020CC1700200A4B10B55C68C4F381
:10509000080464B907F080FC022804D1064B186E9E
:1050A00007F0F2FD0446201E18BF012010BD0020AD
:1050B000FCE700BF00ED00E0D0170020012300F066
:1050C0001F02A0F506200949A0F550604009934051
:1050D00051F820201A4341F82020054951F820209A
:1050E00022EA030241F82020704700BF4818002040
:1050F000341800200121A0F506230E4AA3F55063C1
:105100005B0900F01F00814052F82300014342F880
:1051100023100949D1E90030034488680344C86872
:10512000096903445B1802BFC2E90033C2E90233D4
:105130001361704734180020481800202DE9F04F03
:10514000A9B003921D4604460822339ECDE904010E
:10515000414021FA02F34B40980702F1080218BFC0
:105160009B00202A1C44F4D18123B4FBF3F303EB0E
:10517000C313E41A734B04F506241B7804F550643A
:10518000002B3ED1FBF728FF074620B16FF09100BE
:1051900029B0BDE8F08F0146402208A83BF029FE67
:1051A0004022394618A83BF024FEDFF8B481DFF82E
:1051B000B491C3460BF10F0ACDF800A0102208A944
:1051C0005B46D9F800003AF0D7FE0022014608F10C
:1051D000100808AF914246D1CDF800A05B461022DE
:1051E000D9F8000018A93AF0D0FE4FF0000A834623
:1051F00018AFD34541D1544B9845DAD10122514BD8
:105200001A704FF0810A4FF00008DFF85CB1A4F586
:105210000627A7F550635B095BF8232004F01F0104
:10522000CA40D2073DD4494A52F82330CB40DB076D
:105230002AD5B8F1000F08BFA0468123A7F6FF4783
:10524000B7FBF3F303EBC313FF1A07F50624BAF118
:10525000010A04F55064DAD1039BBBB1B8F1000F29
:1052600014D0444619E057F8040BCDE90612FFF7B5
:1052700025FF079A06990132ACE757F8040BFFF7B0
:1052800039FF0AF1010AB4E7039B13B96FF08B00F1
:105290007EE7B8F1000F18BF4446349B00201C6025
:1052A00076E7329B13B10023329A13600EB10023CC
:1052B00033601023DFF8AC9000932A460023214688
:1052C000D9F8000023F010F960BB32992A68204B0E
:1052D000C9B99A4206D02146D9F8000023F09CF9BA
:1052E0000028D3D1D5E90223DDE90410834208BFA9
:1052F0008A42A2D1039B002BCFD06B68012BCCD16B
:105300006FF0840044E7102032999A420860E2D19D
:10531000002EE7D033462146D9F8000018AA23F022
:1053200037F948B10B4B9842D5D00B4B9842D2D0AD
:105330000A4B9842D6D029E7329A336812689B1AF2
:105340003360CFE79A400020007108003418002035
:10535000105D175EFFDF00F011E000F0FEDF00F0EF
:10536000006D0800000B00204818002070B5104D9B
:105370002B7803F0FF04ABB907F00EFB012802D92C
:1053800007F03EFB04462B782BB90A4B0A481B68F2
:10539000984701232B7007F0FFFA012802D9204615
:1053A00007F050FBBDE87040044B03481B681847EA
:1053B0009B400020BC0C00205C180020B40C002096
:1053C000034B1B781BB1034B03481B6818477047FE
:1053D0009B400020B00C00205C1800202DE9F04F0D
:1053E00087B08246894698461646DDF840B02AB115
:1053F000002B53D040F26C739A4252D8BBF1010F8C
:1054000052D8002406F110073946012005942EF0E9
:1054100005F9054600284AD021463A463BF0E9FC0A
:10542000FFF7A4FF05ABCDE9014300942B46012211
:1054300050464946FFF782FE044690B110F18C0FAA
:1054400008BF6FF08D043A46002128463BF0D1FC9E
:10545000284609F0E3F9FFF7B3FF204607B0BDE89F
:10546000F08F144BC5E902A92B60C5F804B02EB12A
:105470003246414605F110003BF0C5FC059E0E4842
:105480003B462A463146006822F096FF18B930465E
:10549000FFF714FED7E76FF09104D4E76FF08604AE
:1054A000DBE76FF09104D8E76FF08504D5E76FF084
:1054B0008C04D2E7105D175E000B00202DE9F04749
:1054C0008CB08146DDE914780C4616461D466BB15A
:1054D000B8F1000F49D0002F47D0B7F1005F44D397
:1054E000C3F1005303F580239F423ED84FF0000ADA
:1054F0001022002108A83BF07CFCCDE905AAFFF7AB
:1055000035FF07AB029305AB019306AB2146009331
:105510005246484608ABFFF711FE0446D0B9059B3A
:105520003DB1B3421CD853EA060504D06FF086049F
:1055300010E0B342FAD3069B0D48C8F8005000951E
:105540003A4607990068334422F0CEFF002818BF7E
:105550006FF09104FFF734FF20460CB0BDE8F087F0
:105560009B1B9D4228BF1D46E5E76FF08604F3E7CD
:10557000000B002070B500260C4605468CB01022AA
:10558000002108A83BF035FCCDE90566FFF7EEFEEB
:1055900007AB029305AB019306AB2146009332465D
:1055A000284608ABFFF7CAFD0446D8B9099B012B72
:1055B0001DD0079D114B2946186823F02DF8C8B956
:1055C0000122A5F506230E49A3F550635B0905F0FA
:1055D0001F00824051F823004240284641F8232012
:1055E000FFF788FDFFF7ECFE20460CB070BD6FF0B2
:1055F0008404F7E76FF09104F4E700BF000B00208C
:10560000481800200D4B984209D010D80C4B20F4BC
:1056100080729A4203D003F5806398420BD10B88C5
:10562000B3F5105F0CBF00206FF085007047054B8D
:1056300020F40070F1E76FF0850070470010C0049F
:10564000004040040011C0042DE9F04F1F46002324
:10565000A7B0CDE90933DDE931B8DDE93346CDE95D
:105660000B33DDE9359ACDE90D33CDE90F330590E4
:105670000792069129B96FF08605284627B0BDE844
:10568000F08F079B002BF6D0B8F1000F01D1002C52
:10569000F1D1309B13B9BBF1000FECD116B9B9F1C0
:1056A000000FE8D1BAF1000FE5D038460599FFF7B1
:1056B000A9FF05460028E0D1014624221DA83BF0A1
:1056C00098FB2022294615A83BF093FB1DA82BF040
:1056D000D6FC002840F0A980DDE90612059815AB3C
:1056E00000F076FB05460028C7D115982CF094FAF7
:1056F00005460028C1D114B9CAF80000BDE7B0457D
:105700001ED208EB04039E421AD24C45B3D8414640
:10571000224630463BF053FBAA4BB0469F4214D082
:10572000A84B9F4221D8A3F580639F4200F0F380ED
:1057300003F580739F4200F040816FF085059CE780
:10574000A04B9F42ECD14C4595D814F00F0292D15A
:105750002346CDE9008615A91DA8FDF79DFA03464D
:10576000002855D1CAF8004087E7974B9F4200F0C8
:10577000858003F500739F4217D0A3F540739F42C5
:10578000DBD14C453FF677AFBBF1100F7FF473AF21
:10579000309B11AF03F1100C3A4618685968083372
:1057A00003C263451746F7D11EE000234C45CDE9FF
:1057B0001133CDE913333FF65EAFBBF10D0F7FF42C
:1057C0005AAF01238DF84430309B0DF1450203F1AF
:1057D0000C0153F8040B8B4242F8040BF9D11B78EF
:1057E000137001238DF8533014F00F0720D10F2CC4
:1057F000B8D909AB019311AB0093CDE90286002320
:1058000024F00F0215A91DA8FDF7E2FB034688B39B
:105810004A460021304605933BF0EBFA0022059BF7
:10582000CAF80020012B00F000816FF0920524E7F8
:1058300024F00F0343440DF1340C03F1100E6246C3
:1058400018685968083303C273459446F7D10F2C82
:10585000CFD824F00F03334403930DAB029309AB6D
:10586000019311AB00933A46002315A91DA8FDF73B
:10587000AFFB74E7002F3FF475AFEAE74C453FF606
:10588000FAAEBBF1100F7FF4F6AE309B09AF03F117
:10589000100C3A4618685968083303C26345174626
:1058A000F7D114F00F0720D024F00F0343440DF17B
:1058B000340C03F1100E624618685968083303C2AD
:1058C00073459446F7D10F2C12D8002224F00F0311
:1058D000334403930DAB029309AB019300923B4613
:1058E00015A91DA8FDF7A8FA39E70F2C7FF63AAFE6
:1058F000002209AB0193CDE9028624F00F03009248
:1059000015A91DA8FDF798FA0346002880D1002F9D
:105910003FF428AFD9E723077FF4ADAE4C4500F242
:105920008180BBF1100F7FF4A6AE309B0DF1240CEB
:1059300003F1100E624618685968083303C27345B4
:105940009446F7D1214B9F4268D104F00F0B24F00D
:105950000F015A4641440DA83BF055FA0F2C37D998
:10596000CDE9018624F00F0B0DF124085B460022DF
:10597000CDF8008015A91DA8FDF7E6F9034600281B
:105980007FF446AF114B9F427FF4ECAE04F00F0062
:10599000C0F110020DAB114618443BF02AFA0F2C4F
:1059A0001ED9B344ABF11003424618685968083356
:1059B00003C25B459046F7D112E024F00F03103389
:1059C0004B45ACE7004440040011C00400414004D2
:1059D000CBF110020DAB114603EB0B003BF009FAC3
:1059E00009AB0DAF009300221023CDE9017715A973
:1059F0001DA8FDF7A9F9034600287FF409AF24F09C
:105A00000F04264411AA3B4603CB934230607160D9
:105A10001F4606F10806F6D11034A3E60F2C7FF6D8
:105A2000A1AE9DE76FF0890527E66FF08B0524E6B0
:105A30002DE9F047C2B00C460746002115466846DE
:105A400020229A464A9EDDF83091DDF838813BF0FD
:105A5000D0F9202200210DEB02003BF0CAF92022F0
:105A6000002110A83BF0C5F92422002118A83BF022
:105A7000C0F90021802222A821913BF0BAF93CB163
:105A800035B12EB1B9F1000F02D0B8F1000F05D138
:105A90006FF08604204642B0BDE8F0872188628816
:105AA00001F4E043B3F5804FF2D02C4B2C483B403F
:105AB00043F01063834202D06FF08504EAE7D31D00
:105AC000BAEBD30F4FEAD307E2D34D9B9F423FD8A7
:105AD00047F212139942EFD1B2F5807FECD1214BFE
