S019000062745F736F635F77616E64795F6E696767612E7333377A
S31508012000C00A0020AD2F0108BF160308BF16030832
S31508012010B52A0308BF160308BF160308BF16030827
S31508012020BF160308BF160308BF160308BF16030821
S31508012030BF1603084CCC030891140308BF160308FE
S31508012040BF160308BF160308BF160308BF16030801
S31508012050BF160308BF160308BF160308BF160308F1
S31508012060BF160308BF160308BF160308BF160308E1
S31508012070BF160308BF160308BF160308E93301088C
S31508012080BF160308BF160308BF160308BF160308C1
S31508012090BF16030821370108BF160308BF16030830
S315080120A0BF16030821390108FD380108BF160308C0
S315080120B0BF16030879EF020805FA02080DB80308E6
S315080120C009B80308ADF1020819B8030811B80308DD
S315080120D0DDF9020815B8030845FA0208B1FA02083B
S315080120E0BF160308BF160308BF160308BF16030861
S315080120F0BF290308BF160308BF160308BF1603083E
S31508012100BF160308BF160308BF160308BF16030840
S31508012110BF160308BF160308BF160308BF16030830
S31508012120BF160308BF160308BF160308BF16030820
S31508012130BF160308BF160308BF160308BF16030810
S31508012140BF160308BF160308BF160308452C030864
S3150801215011D80208BF1603089FB40308A5B40308DB
S31508012160BF160308BF160308BF160308BF160308E0
S31508012170013800D0FCE77047002370B5404C05468E
S315080121808AB0E36318B1008823600CF0F3F93D487F
S3150801219028F0B3FE3C4E3D4B304633603C4B7360F2
S315080121A024F0CEFB0021304616F08EFE32A3D3E989
S315080121B00023A062C4E9062324F0CDFBD4E9062353
S315080121C019431043C4E90601CDE900014FF0FF3375
S315080121D04FF0FF32A06A28F0DDFE02224FF0FF31F0
S315080121E0A06A28F0DCFE01200BF046FF4FF40073CD
S315080121F000222849A06A28F023FFB0F5007F38D1CC
S3150801220000239422CDE9073309933C23CDE9033210
S3150801221005939623A06A03A9069316F073FF35B3AF
S31508012220287C0CF05FFB0546F0B9A06A28F0E9FFA7
S315080122300CF006FB0BF002FF20B14FF48070002171
S3150801224008F08CFE0BF00AFF20B14FF40060002164
S3150801225008F084FE24F043FC012016F089FE0E4A9C
S315080122600E49A06A24F06AFB28460AB070BDFF2011
S31508012270D7E70725F8E700BF0DD50155200000006F
S31508012280400F0020690345ECF0220020FDDE01081D
S3150801229000230020F0200020E568030825690308CB
S315080122A00348044B834202D0034B03B118477047D6
S315080122B0D00E0020D00E002000000000064B074972
S315080122C0C91A891048BF0131491003D0044B0BB113
S315080122D001481847704700BFD00E0020D00E0020D5
S315080122E00000000010B5064C237843B9FFF7D8FF64
S315080122F0044B13B10448AFF300800123237010BDCA
S31508012300E02A002000000000B824040808B5054B9F
S315080123101BB105490548AFF30080BDE80840FFF742
S31508012320CDBF00BF00000000B0110020B82404088A
S31508012330A3F5803A704700BF174B002B08BF134B14
S315080123409D46FFF7F5FF00218B460F461348144AB1
S31508012350121A2AF054F80E4B002B00D098470D4B51
S31508012360002B00D098470020002104000D000D48DD
S31508012370002802D00C48AFF300801EF02DFD200086
S3150801238029001FF079F81EF0CBFA00BF00000800FB
S315080123900000000000000000C00A0020D00E002046
S315080123A0FC2B002000000000000000000368864A9C
S315080123B023F47F4323F00703934273B505D0834A79
S315080123C0934200F0AB8002B070BD814E30460FF0EB
S315080123D011F9054610B37F4C7F49206820F03CFB74
S315080123E07E49206820F038FB1FF014F91FF013F915
S315080123F07B4B7C4A00937C494E23206820F02CFBBA
S315080124007A492B467A4A206820F026FB284600F0AE
S31508012410B9FB7849206820F01FFBFEE702213078D6
S315080124200FF022F9044610B36A4D6B49286820F06B
S3150801243013FB6A49286820F00FFB1FF0EBF81FF021
S31508012440EAF8674B674A009367495323286820F0DF
S3150801245003FB66492346664A286820F0FDFA2046AA
S3150801246000F090FB6349286820F0F6FAFEE7A022FF
S3150801247000900346114630780FF0D4F8054610B39C
S31508012480544C5549206820F0E7FA5449206820F051
S31508012490E3FA1FF0BFF81FF0BEF8514B514A0093FB
S315080124A051495C23206820F0D7FA50492B46504AF7
S315080124B0206820F0D1FA284600F064FB4D492068CF
S315080124C020F0CAFAFEE7022130780FF0E1F8054656
S315080124D000283FF478AF3F4C3F49206820F0BCFA0A
S315080124E03E49206820F0B8FA1FF094F81FF093F8D7
S315080124F03B4B3C4A00933C496023206820F0ACFAE8
S315080125003A492B463A4A206820F0A6FA284600F0AE
S3150801251039FB3849206820F09FFAFEE72C4C022146
S3150801252020780FF0A1F8054610B32A4C2A492068ED
S3150801253020F092FA2949206820F08EFA1FF06AF8ED
S315080125401FF069F8264B274A009327496E2320680E
S3150801255020F082FA25492B46254A206820F07CFA84
S31508012560284600F00FFB2349206820F075FAFEE79C
S31508012570022120780FF08CF8054600283FF423AF96
S31508012580144C1549206820F067FA1449206820F090
S3150801259063FA1FF03FF81FF03EF8114B114A0093FA
S315080125A011497323206820F057FA10492B46104A1F
S315080125B0206820F051FA284600F0E4FA0D4920680F
S315080125C020F04AFAFEE700BFA0000100A0000601BC
S315080125D0F60C00200012002040C8030842C8030870
S315080125E085C8030847C8030850C803085FC8030815
S315080125F05CC8030874C8030830B503687C4A23F429
S315080126007F4323F00703934289B040F0EE80082206
S3150801261000211220774B0FF061F8044610B3764D6E
S315080126207649286820F018FA7549286820F014FABE
S315080126301EF0F0FF1EF0EFFF724B734A00937349C9
S315080126403D23286820F008FA71492346714A28680B
S3150801265020F002FA204600F095FA6F49286820F022
S31508012660FBF9FEE70146032214206C4B0FF036F8FE
S31508012670044610B3604D6149286820F0EDF96049B8
S31508012680286820F0E9F91EF0C5FF1EF0C4FF5D4B6E
S315080126905D4A00935D494B23286820F0DDF95C49C2
S315080126A023465C4A286820F0D7F9204600F06AFAE2
S315080126B05949286820F0D0F9FEE701460522162077
S315080126C0574B0FF00BF8054610B34B4C4B49206896
S315080126D020F0C2F94A49206820F0BEF91EF09AFF97
S315080126E01EF099FF474B484A0093484959232068E9
S315080126F020F0B2F946492B46464A206820F0ACF943
S31508012700284600F03FFA4449206820F0A5F9FEE77B
S315080127100DF10F0104A80FF00FF8044610B3364D5A
S315080127203649286820F098F93549286820F094F93F
S315080127301EF070FF1EF06FFF324B334A0093334988
S315080127406423286820F088F931492346314A2868E4
S3150801275020F082F9204600F015FA2F49286820F062
S315080127607BF9FEE7BDF8143001465BBAADF81830BF
S315080127709DF8133008228DF81A30FF238DF81B3087
S31508012780FE238DF81C309DF8123018208DF81D3067
S31508012790BDF810305BBAADF81E3006AB0EF09EFFE1
S315080127A0054610B3144C1549206820F055F914490B
S315080127B0206820F051F91EF02DFF1EF02CFF114B59
S315080127C0114A009311497423206820F045F91049EC
S315080127D02B46104A206820F03FF9284600F0D2F926
S315080127E00D49206820F038F9FEE709B030BD00BF71
S315080127F0A000010094C803080012002040C803087D
S3150801280042C80308CFC803089DC8030850C803086F
S315080128105FC803085CC8030874C80308C5C8030869
S31508012820C9C8030810B5274C01F094FD01F0ECFF67
S31508012830236F23F0070343F0030323671FF006F80A
S31508012840214B00209B6ADB015EBF4FF480321F4B90
S315080128509A62D4F8203123F0070343F00203C4F83F
S315080128602031D4F8283123F0070343F00203C4F8D2
S315080128702831D4F8403123F0030343F00203C4F8A6
S315080128804031D4F8603123F0030343F00203C4F85E
S315080128906031D4F8403223F0030343F00203C4F84D
S315080128A04032D4F8003223F0070343F00203C4F898
S315080128B00032D4F8083223F0070343F00203C4F8C0
S315080128C0083210BD008000500040005A0060005ACE
S315080128D008B504481EF00EFFBDE8084002481EF080
S315080128E009BF00BF40CB030828CB030808B5044835
S315080128F01EF041FFBDE8084002481EF03CBF00BF7C
S3150801290070CB030858CB0308184B37B583422AD135
S31508012910174B1B783BB3C8B20EF0CEFE054610B373
S31508012920144C1549206820F097F81449206820F0BE
S3150801293093F81EF06FFE1EF06EFE114B114A0093BE
S3150801294011498523206820F087F810492B46104A3B
S31508012950206820F081F8284600F014F90D4920680E
S3150801296020F07AF8FEE703B030BD00BFC811002099
S31508012970E12A00200012002040C8030842C80308C3
S31508012980FACB030888CB030850C803085FC80308B5
S315080129905CC8030874C8030830B500250368584A9B
S315080129A023F47F4323F0070385B093420446029537
S315080129B0ADF80C507ED002F5802293420ED0A2F1DA
S315080129C08272934240F09A804E4B1B78002B00F09E
S315080129D0958005B0BDE8304020F081B9B0F80530E2
S315080129E01B2B40F08B80FF2304A91A4611E903002B
S315080129F01EF009FE012814BF41F2FC15414B05F0F2
S31508012A00FC0208BF18701B2120790EF07DFE0546D1
S31508012A1010B33D4C3D49206820F01EF83C4920681A
S31508012A2020F01AF81EF0F6FD1EF0F5FD394B3A4A6C
S31508012A3000933A495923206820F00EF838492B4665
S31508012A40384A206820F008F8284600F09BF83649ED
S31508012A50206820F001F8FEE7344900902379344ACA
S31508012A600968344800F0E8F80546002846D0264C9F
S31508012A70264920681FF0F0FF254920681FF0ECFF62
S31508012A801EF0C8FD1EF0C7FD224B234A00932349B9
S31508012A90622320681FF0E0FF21492B46214A20685E
S31508012AA01FF0DAFF284600F06DF81F4920681FF06D
S31508012AB0D3FFFEE7B0F80530B7EE047A07EE903A91
S31508012AC0F8EE677AB0F8073067EE877A013307EED2
S31508012AD0103AB8EEC77A67EE877AB1EE047A67EEEE
S31508012AE0877AFAFE677AFCEEE77A17EE903AB3F53B
S31508012AF07A7F38BF4FF47A730C4A136005B030BD3C
S31508012B00A0000602E12A00200012002040C803089E
S31508012B1042C8030809CC030888CB030850C8030830
S31508012B205FC803085CC8030874C80308C00A002004
S31508012B3009290108C8110020012208B5074B1A7096
S31508012B400022074B1A700422064B1A701F22064BE5
S31508012B501A7004F01DFA054B186008BDFF0C002019
S31508012B60E22A0020FE0C0020FD0C002000120020A5
S31508012B70024B034918681FF06FBF00BF00120020FF
S31508012B8029CC030870B50C4C0C49064620681FF081
S31508012B9063FF04F0FDF90546206804F0EDF93046B7
S31508012BA0FFF7E6FF284604F0E7F920680449BDE87F
S31508012BB070401FF051BF00BF001200202BCC030844
S31508012BC02DCC030838B505461EF05CFE00230B4ADA
S31508012BD014685CB1AC4206D1A96A6BB199621EF060
S31508012BE057FE012007E02346A46AF2E7002DF3D039
S31508012BF01EF04EFE204638BD1160F0E70412002093
S31508012C0010B5044698B105F097F82046FFF7DAFFA4
S31508012C1010B194F82C300BB9002010BD1EF032FE0D
S31508012C20044A1368013B13601EF032FEF4E72220C2
S31508012C30F3E700BF081200202DE9F04385B00546E9
S31508012C40914698460E469DF8307009B9002F5CD119
S31508012C502846FFF7D5FF0446002836D185F82C000B
S31508012C60686305F05DF9864233D905F0F9F821461E
S31508012C70844640F2E7304FF47A720023E6FB0C01F2
S31508012C801CF08CFF4FF0FF3200231CF087FF2B4608
S31508012C90E88611462846CDE900441D4A1FF07DFF06
S31508012CA0044690B9C5E9089885F82D702E631EF07B
S31508012CB0E9FD184A136833B31A469B6A002BFBD100
S31508012CC095620023AB621EF0E3FD204605B0BDE820
S31508012CD0F08347B12B4631462846CDE900440C4AD4
S31508012CE005F0E2F8DCE7304603A905F0BFF804462B
S31508012CF00028EAD12B462846CDE90077044A0399EC
S31508012D001FF027FFCCE71560DBE72124DDE700BFCD
S31508012D10192D01080412002091F82C3013B50C4620
S31508012D2083B98B8ECA8E93420ED243B9CDE900334D
S31508012D3020460B46104A4FF0FF311FF0EEFEA38ED8
S31508012D400133A38602B010BD52B191F82D307BB183
S31508012D5001230093D1E908232046096BFFF76CFF8D
S31508012D600123064A84F82C30136801331360E9E716
S31508012D70084604F0E1FFF3E7192D010808120020BF
S31508012D802DE9F041144E336823B34FF00008134F71
S31508012D901EF078FD05463C6824B92846BDE8F04191
S31508012DA01EF076BD94F82C3093B1336884F82C80E4
S31508012DB0013B336094F82D3013B92046FFF702FF23
S31508012DC028461EF065FDD4E9083120469847DFE715
S31508012DD0A46AE1E7BDE8F081081200200412002088
S31508012DE0034B1B68002B14BF04200120704700BF4A
S31508012DF008120020024B1868B0FA80F040097047A3
S31508012E0008120020202808B513DC032804DC013841
S31508012E10012806D90E200BE0094B0438C340DB070D
S31508012E20F8D5012304220921022001F027FF0020F9
S31508012E3008BD4028EED1012304220821F4E700BF8A
S31508012E401100001007B508201EF07EFC02238DF83C
S31508012E500030054B684601931EF0F5FB082003B0C8
S31508012E605DF804EB1EF07BBC006A18102DE9F041F1
S31508012E70424D88B001AC0FCD0FC495E8070084E830
S31508012E800700012401213A2001F022F83C4E0121D4
S31508012E90292001F01DF83B4B304601A903938DF813
S31508012EA0124002F013F8234604220321022001F0FE
S31508012EB0E5FE022122460846002301F0DFFE2346ED
S31508012EC021460422022001F0D9FE042200212346CC
S31508012ED0022001F0D3FE2C4D2C4B05F50058C5F800
S31508012EE034374FF00213C5F8303703F58033C5F888
S31508012EF038371C234FF44870C5F8203705F0FEF91A
S31508012F0005F580571420C8F8A04005F0F7F92320E5
S31508012F10C7F8A04005F0F2F9B9213046C8F8A04033
S31508012F201EF035FD002303211A460220C7F8A040EA
S31508012F3001F0A4FE002302211A46084601F09EFE6E
S31508012F40234621460022022001F098FE002223464C
S31508012F501146022001F092FE304601F095FF00214C
S31508012F602920C5F83417C5F83017C5F83817C5F834
S31508012F70201700F0ADFF08B0BDE8F08130CC03089A
S31508012F8000C0055000127A0000C00350020001007B
S31508012F900348044A0449121A92101EF091BB00BF55
S31508012FA0DC280408DC280408FC2B002008B500F0FE
S31508012FB02FF8FFF7EDFF124B12498B4212D300206F
S31508012FC0114B12498B4218D3FFF7B6F9186850F816
S31508012FD02240586840F82240013298688242F5D367
S31508012FE00C33EAE70022F8E71C6844F822000132AC
S31508012FF05C68A242F8D30833E4E70022F8E700BF89
S31508013000C0240408CC240408CC240408CC240408CD
S315080130104FF480414FF0FF30114B124A10B59A60B8
S31508013020D3F8882042F47002C3F888200E4A9166C4
S315080130300E4901F5005210660D4850660220C3F884
S31508013040D000BFF34F8FBFF36F8F01244FF4403386
S315080130500848C0F88041D36004600B6110BD00BF09
S3150801306000ED00E0002001080090005000800044B7
S31508013070F7FF370000E100E0014B1868704700BF11
S31508013080C80A0020084B1B6F03F00703022B04D064
S31508013090032B05D0012B05D0FEE7044B18687047B2
S315080130A0034BFBE70348704700800050C80A00201D
S315080130B0D00A0020002D310108B5FFF7E3FF054BC3
S315080130C01B6FC3F303330133B0FBF3F0024B1860F4
S315080130D008BD00BF00800050C40A002000487047A0
S315080130E000B4C404014B1868704700BFD00A002019
S315080130F0054B1860054B1B6F03F00703032B01D122
S31508013100FFF7DABF704700BFD00A002000800050E1
S3150801311000487047002D31014FF0B4439868C0F359
S3150801312004400C280AD8DFE800F00B090909090947
S31508013130072119091B1D1F000F48704700207047FA
S315080131409B6803F04073B3F1807F11D0B3F1007F20
S3150801315010D00A4A002B08BF104670470848704726
S315080131600848704708487047084870470848704734
S315080131700848704708487047405DC60000093D0089
S31508013180C0EA210180BA8C010048E801005A6202AE
S315080131900024F40080841E0040420F00014B186889
S315080131A0704700BFCC0A00204FF000639B6A10B538
S315080131B003F17842B2F5903F11D21968094A914252
S315080131C00DD1094C227812F0FD0F01D0002010BD57
S315080131D0DB6998470028FAD101232370F6E74FF4F3
S315080131E08170F4E707B0CD5EE32A00204FF0005363
S315080131F0074A1A60BFF34F8F0649074BCA6802F49C
S31508013200E0621343CB60BFF34F8F00BFFDE700BFFA
S3150801321002020FF000ED00E00400FA050346054A34
S315080132200549106803448B428CBF4FF0FF30136089
S31508013230704700BFD40A0020000004204FF0BA42AC
S315080132400123054802F580514B6008620349096864
S31508013250D160034A1370704701000C1FD80A002079
S31508013260E42A00204FF0BA41074BCA681A600123C5
S31508013270064A53604B6813F00203FBD14FF0FF3146
S315080132801162034A13707047D80A00200020005DB6
S31508013290E42A00204FF0BA42D369126A10B51340E6
S315080132A013F0F8501EBF0120114A1070DC070ED525
S315080132B04FF0BA410A695007FCD50E4A4C691068A5
S315080132C020441060886951680144012051605903FE
S315080132D041BF08490A6802F180720A601A0341BFB0
S315080132E004494A6802F180724A60034AD36110BDF3
S315080132F0E52A00200C1200200020005D0023044A64
S3150801330004491370044A05481360054A00F034B8A5
S31508013310E52A002065320108141200203D32010811
S31508013320953201088B1E012B03D8044B1B6823B168
S315080133301847012901D8024BF8E770472C120020DB
S315080133403012002010B51EF096FA0446002101201D
S3150801335003F0E4FF20461EF092FA0022014B1A7090
S3150801336010BD00BFE62A0020024B03C883E803000C
S31508013370002070472012002038B5114C2378EBB98C
S31508013380104B114D1960114B28601A604FF080429D
S315080133900F4B10489A66FFF7E7FF4FF400420E4BB2
S315080133A01A602B6803B198470C480D4904F04AF88E
S315080133B00123002023700B4B187038BD1220FCE73F
S315080133C0E72A00202C1200203012002028120020A3
S315080133D0009000502012002000E100E018120020A1
S315080133E09CCC0308E62A002008B5054B1B682BB1BF
S315080133F0984718B1BDE80840FFF7A4BF08BD00BF4C
S315080134002812002010B40A6808461378022B10D037
S3150801341014213023147913FB041307495B58517996
S31508013420CB40DB4303F0010313705DF8044B1EF038
S3150801343066B95DF8044B704730C00350F7B50468A8
S31508013440012105463A2000F043FD00230122617956
S31508013450207901F013FC14223023217913FB01236F
S315080134601D4A99586379D940C943A37901F00101E5
S31508013470022B217017D100F0A9F9184A2B46617958
S31508013480207900F0CDF9FF28024660790ED12A4647
S31508013490124900F001FA0123024661792079CDE942
S315080134A0003301F091FB002003B0F0BD0126277916
S315080134B0002301460096384601F048FC2A4607498A
S315080134C0607900F0E9F900236179024620790093D1
S315080134D001963346E5E700BF30C0035005340108BD
S315080134E002681378022B24D014213023107913FB98
S315080134F0001310495B585179CB40917903F00103C8
S31508013500012912D1508843EA40034FF6E07063F06F
S315080135103F039BB2834202D11170538070474FF625
S31508013520DF718B42F9D10021F6E711B983F0010366
S315080135301370704730C0035008B501213A2000F0D6
S31508013540C7FC012304220321002001F097FB002078
S315080135501EF0B5F90122354B3549C3F844244FF419
S315080135600022A3F550335A66324BD3F8FC20D20118
S3150801357046D4D1F8803023F0030343F00203C1F89F
S3150801358080304FF4607000F0BDFC2A4B00F5D52061
S31508013590D3F8F02000F2FC4042F00102C3F8F02013
S315080135A0D3F8FC2042F08072C3F8FC20224AA3F526
S315080135B05D431A60214B0222B0FBF3F0204B013820
S315080135C01861C3F8F0204FF48072C3F804234FF052
S315080135D060431C4A0020C3F8B02F1B4AC3F8802E4B
S315080135E0D3F8002E42F48072C3F8002EFF2283F826
S315080135F02020D3F8002E22F48072C3F8002E08BDCD
S31508013600D3F8FC2022F08072C3F8FC20D1F8802080
S3150801361022F0030242F00202C1F88020D3F8FC200E
S3150801362042F08072C3F8FC20ABE700BF00D003501C
S315080136300080005000ED00E0FF030040F8590D003E
S31508013640000004E055CEACC5090001004FF0604307
S31508013650D3F8802E30B5D20715D501240B4D8440F9
S31508013660D5F8FC2042F08072C5F8FC20D3F8002E6C
S315080136702243C3F8002E53F82020002AF0D003F87D
S315080136802010002030BD1120FCE700BF00ED00E04E
S3150801369010B5012243780178847830209A40054B89
S315080136A000FB01331CB903F501531A6010BD03F57C
S315080136B08253FAE700C0035010B501224378017816
S315080136C0847830209A40054B00FB01331CB903F579
S315080136D082531A6010BD03F50153FAE700C003507F
S315080136E00122437801789A4030235943014B5A50B5
S315080136F0704700BF40F0035010213023024600787E
S3150801370013FB001305495B585178CB4003F00100C0
S3150801371093780BB980F00100704700BF30C00350A1
S31508013720184B2DE9F0411F6D5B6D1F4000D5FEE773
S3150801373001260025144CDFF85880374218D0236833
S31508013740C8F85060A3B1A168284601316268A16032
S315080137509847637B012B0BD150B90C4B03EB4513EF
S315080137601A7B60F341021A731A7F60F341021A77D2
S315080137700135082D4FEA460604F11004DDD1BDE8EE
S31508013780F08100BF000004503413002034120020D9
S315080137900020045070B5044601250B4E04B970BDCE
S315080137A094FAA4F0B0FA80F005FA00F306EB0012D9
S315080137B024EA03045368002BF0D0117B11B19168F8
S315080137C09847EBE79847E9E7B413002008B51920AD
S315080137D001F046F828B14FF00072074BC3F8802173
S315080137E01A601A2001F03CF828B14FF08062024BAA
S315080137F0C3F880211A6008BD00E100E038B5054626
S315080138000C461EF03FF80022044B03EB05135C60DF
S315080138101A73BDE838401EF03BB800BFB413002048
S31508013820F8B504460D4617461E461EF02BF81CB978
S31508013830052D1AD0FF2421E0012C05D1012D21D017
S31508013840032DF7D1042410E0022C07D1052D1BD036
S31508013850072D1BD0002DEDD1062406E0032CE9D156
S31508013860022D15D0052DE5D10A240A4904F11003C4
S3150801387001EB03110123C1E901760B731EF008F868
S315080138802046F8BD0324F0E70724EEE70824ECE711
S315080138900924EAE7B4130020F8B505460E4617468B
S315080138A01DF0F0FF134B2C46D3F8242405F0FC0138
S315080138B022FA05F3DB0712D500230133DBB2042B09
S315080138C004D1FF241DF0E4FF2046F8BDEC1804F0EE
S315080138D003040C4422FA04FC1CF0010FEDD1FF2C61
S315080138E0F0D00122044B03EB0413C3E901671A73F1
S315080138F0E8E700BF00C00350B4130020074BD3F814
S315080139002404D3F8202403F50053104000F0553061
S3150801391020F05020C3F82004FFF73CBF00C0035035
S31508013920074BD3F82404D3F8202403F50053104099
S3150801393000F0AA3020F0A020C3F82004FFF72ABF20
S3150801394000C00350024B1968024B186814F0CEBE2A
S31508013950DC0A0020FC0A002070B5940022460546C0
S315080139600E4628F049FF431C0AD058B9224631466B
S31508013970284628F01AFD0028034808BF002070BD14
S315080139800248FCE70248FAE710E000F021E000F0FF
S3150801399024E000F010B5044628F032FF431C10D08D
S315080139A088B901F067FA234620F0030020449842BB
S315080139B001D1002010BD53F8042B0132F7D003487A
S315080139C0F8E70348F6E70348F4E700BF0EE000F01E
S315080139D021E000F024E000F008B51DF04CFF014B92
S315080139E0186008BDA41C0020014B18681DF047BFCC
S315080139F0A41C0020044BD3F88420D206FBD4D3F8A8
S31508013A008400C0F3811070470040005038B5104B50
S31508013A100546D3F880300C4603F00303022B0BD07E
S31508013A20032B0DD0012B0FD1FFF72CFB0E2305B16C
S31508013A30286004B1236038BDFFF76EFB0723F6E75C
S31508013A40FFF71AFB0623F2E700231846EFE700BF44
S31508013A500080005038B5184B0546D3F820010C46AE
S31508013A6000F00700062823D8DFE800F0040A0E163E
S31508013A70121A1E00012305B1286004B1236038BD5E
S31508013A80FFF7FAFA0523F6E7FFF72CFB0323F2E71C
S31508013A90FFF742FB0723EEE7FFF73AFB0223EAE7C4
S31508013AA0FFF7EAFA0623E6E7FFF71CFB0423E2E73A
S31508013AB000231846DFE700BF0080005038B5174BD2
S31508013AC00546D3F828310C4603F00703013B052BBD
S31508013AD020D8DFE803F003131B0F0B17FFF7CCFA07
S31508013AE0052305B1286004B1236038BDFFF7C4FA80
S31508013AF00623F6E7FFF710FB0723F2E7FFF7F2FACB
S31508013B000323EEE7FFF7EEFA0423EAE7FFF700FBE4
S31508013B100223E6E700231846E3E700BF00800050CA
S31508013B2073B50D460021114B0191D3F88041064624
S31508013B3004F00304022C13D0032C0CD0012C13D14E
S31508013B4001A8FFF787FF10240EB1019B336005B169
S31508013B502C6002B070BDFFF7DFFA07240190F3E786
S31508013B60FFF7D6FA0190EFE70C46EDE70080005023
S31508013B70002337B50193164B0546D3F820320C4678
S31508013B8003F00703042B21D8DFE803F0030B111612
S31508013B901B0001230DB1019A2A6004B1236003B009
S31508013BA030BD002101A8FFF789FF1223F2E7FFF7CD
S31508013BB0B3FA07230190EDE71DF08FFD0A23019063
S31508013BC0E8E7FFF7EBFA09230190E3E70023E1E7CA
S31508013BD00080005038B5104B0546D3F840310C46E5
S31508013BE003F00303022B0BD0032B0DD0012B0FD1AE
S31508013BF01DF073FD0A2305B1286004B1236038BDA1
S31508013C00FFF7CCFA0923F6E71DF06AFD0C23F2E764
S31508013C1001230020EFE700BF00800050002337B5DD
S31508013C200193164B0546D3F860320C4603F0070399
S31508013C30013B032B1FD8DFE803F0020E19140021FC
S31508013C4001A8FFF707FF10230DB1019A2A6004B1F5
S31508013C50236003B030BD002101A8FFF7BBFF112384
S31508013C60F2E7FFF759FA07230190EDE7FFF750FA54
S31508013C7002230190E8E70023E6E700BF0080005031
S31508013C80002337B50193164B0546D3F894320C46F3
S31508013C9003F00703013B032B1FD8DFE803F0020EED
S31508013CA01914002101A8FFF7D5FE10230DB1019AB9
S31508013CB02A6004B1236003B030BD002101A8FFF7D3
S31508013CC089FF1123F2E7FFF727FA07230190EDE7AA
S31508013CD0FFF71EFA02230190E8E70023E6E700BF93
S31508013CE00080005038B5144B0546D3F800020C463F
S31508013CF000F0070004281BD8DFE800F003090D11BE
S31508013D001500012305B1286004B1236038BD1DF0F3
S31508013D10E4FC0A23F6E7FFF741FA0923F2E71DF067
S31508013D20DFFC0C23EEE7FFF7C7F90F23800AE9E763
S31508013D3000231846E6E700BF0080005038B5144B4B
S31508013D400546D3F808020C4600F0070004281BD8DC
S31508013D50DFE800F003090D111500012305B12860FC
S31508013D6004B1236038BD1DF0B8FC0A23F6E7FFF756
S31508013D7015FA0923F2E71DF0B3FC0C23EEE7FFF76A
S31508013D809BF90F23800AE9E700231846E6E700BFF7
S31508013D900080005038B5104B0546D3F840320C4622
S31508013DA003F00303022B0BD0032B0DD0012B0FD1EC
S31508013DB01DF093FC0A2305B1286004B1236038BDC0
S31508013DC0FFF7ECF90923F6E71DF08AFC0C23F2E765
S31508013DD001230020EFE700BF0080005038B5104BE3
S31508013DE00546D3F860310C4603F00303022B0BD0CA
S31508013DF0032B0DD0012B0FD11DF06FFC0A2305B142
S31508013E00286004B1236038BDFFF7C8F90923F6E72E
S31508013E101DF066FC0C23F2E701230020EFE700BF43
S31508013E2000800050B0F5207F1FD009D8B0F5007F7B
S31508013E3015D003D868B1B0F5C07F0AD000200CE0D0
S31508013E40B0F5607FFAD10B4BD3F88000C0F30110AF
S31508013E5003E0084B186FC0F3033001307047054B78
S31508013E60D3F89000C0F30460F7E7024B186FC0F36C
S31508013E708020F2E70080005002464FF48030104B54
S31508013E8010B598660020FFF7CDFF504341F6713211
S31508013E900C4BDC69DA635A6804F4803422F4401264
S31508013EA059B90949884294BF0020012000050243F7
S31508013EB05A600CB10022DA6310BD0449F2E700BF6B
S31508013EC00090005000000350005A6202002D310193
S31508013ED0430905D0012B0CD0022B084B18BF002330
S31508013EE000F01F0039B103F58053012282401A60A0
S31508013EF07047034BF4E703F50053F6E76880005073
S31508013F00648000501FB5002180280446CDE90011C0
S31508013F1000F0A58035D85E2846D85E2844D8DFE863
S31508013F2000F0A24343434343434343434343434389
S31508013F304343434343434343434343434343434342
S31508013F404343A2AAA2AABABABABABAAAC44DDA719C
S31508013F504DAAAAAA4343434343434343AAAAAA7978
S31508013F60E4AA43434343434343434343434343BA93
S31508013F70A2A2A2DF4D4DE9885EBF4343434343995D
S31508013F80A200B0F5B06F00F090802DD8B0F5207F73
S31508013F9071D00CD8B0F5C07F65D0B0F5007F65D07B
S31508013FA0B0F5807F00F08680009804B010BDB0F5AA
S31508013FB0607F6BD00DD8B0F5407FF5D1FFF77CF85F
S31508013FC002464FF42070FFF72DFFB2FBF0F25208BC
S31508013FD05AE0B0F5806F5ED0B0F5A06FE4D100214C
S31508013FE06846FFF7C5FDDFE7B0F5106F78D016D83C
S31508013FF0B0F5E06F79D00AD8B0F5C06F6BD0B0F5DF
S31508014000D06FD1D100216846FFF76CFECCE7B0F539
S31508014010F06FC9D100216846FFF7E0FEC4E7B0F5A5
S31508014020406F3DD013D8B0F5206F63D0B0F5286F37
S31508014030BAD10021324B0391D3F8703203F003034E
S31508014040012B02D103A8FFF7C5FD039B3CE0B0F5A0
S31508014050486FA9D100216846FFF712FEA4E7FFF7CA
S3150801406011F80090A0E7FFF727F8FAE7FFF70AF833
S315080140700246204604E0FFF71FF802464FF4207077
S31508014080FFF7D0FEB2FBF0F200928DE701A8FFF729
S31508014090BDFC019AEDE700216846FFF7DBFC83E7E3
S315080140A000216846FFF70AFD7EE700216846FFF70B
S315080140B037FD79E74FF0E02302911B695B0705D5C8
S315080140C0FEF7FAFF0290029B00936DE703A902A887
S315080140D0FFF780FDF7E700216846FFF77BFD63E7F9
S315080140E000216846FFF72AFE5EE700216846FFF7CA
S315080140F051FE59E700216846FFF790FD54E700BFD6
S315080141000080005008B58020FFF7FCFE034B98425B
S315080141109EBF4FF48032024B1A6708BD005A6202ED
S3150801412000A000501FB503460020B3F5807F01901B
S3150801413000F0C18064D85D2B55D84C2B07D82D2BA0
S3150801414048D8232B2CD8019805B05DF804FB4D3BC4
S31508014150102BF8D801A252F823F000BFAD4201088E
S3150801416047410108474101084741010863420108DF
S3150801417047410108474101083143010881420108C5
S315080141802742010827430108474101084741010819
S315080141904741010847410108474101083B430108D6
S315080141A0243B092BCFD801A252F823F0AD420108CE
S315080141B0AD420108AD420108AD420108AD42010810
S315080141C047410108A3420108474101084342010842
S315080141D0E34201083D2B7FD03E2BB4D1002001A933
S315080141E0FFF7D8FDAFE7802BADD1594B1B6F03F015
S315080141F00703013B032BA6D8DFE803F0514E858D53
S31508014200B3F5F06F68D021D8B3F5B06F49D00FD8A0
S31508014210B3F5607F00F0838095D3B3F5806F45D001
S31508014220B3F5A06F8FD1002001A9FFF7A1FC8AE79A
S31508014230B3F5D06F55D0B3F5E06FCFD0B3F5C06FF6
S3150801424081D1002001A9FFF7C5FC7CE7B3F5206FF2
S315080142506ED00BD8B3F5086F48D0B3F5106F7FF45D
S3150801426072AF002001A9FFF769FD6CE7B3F5406F4E
S3150801427059D0B3F5486F60D0B3F5286F7FF463AFB3
S31508014280334BD3F8703203F00303012B5AD0022BB8
S315080142900CBF1523002300E00523019353E70223EE
S315080142A0FBE7002001A9FFF73BFC4CE7002001A929
S315080142B0FFF7D0FB47E74FF0E02302901B695B0746
S315080142C005D5FEF7F9FE0D230393039BE5E703A93D
S315080142D002A8FFF77FFCF8E7002001A9FFF77EFD9A
S315080142E031E7002001A9FFF7FDFC2CE7184BD3F8AD
S315080142F0003103F00303022B07D0032B09D0012B4E
S315080143000BD1FEF7EFFE0323C7E7FEF747FF0923A5
S31508014310C3E71DF0E0F90823BFE70123BDE701A9BB
S31508014320FFF774FB0FE7002001A9FFF7C7FB0AE7B0
S31508014330002001A9FFF772FC05E7002001A9FFF794
S315080143409FFC00E7002103A8FFF744FC1123A4E71B
S31508014350008000504FF48012034B5A664FF48032A6
S31508014360024B9A62704700BF009000500050005AF5
S3150801437008B5FFF7D7FE092811D00A38012802D94E
S315080143804FF6FF7008BD4FF48002064B5A6603F5D7
S31508014390D8335B6ADB07F3D54FF4FA70F2E7024BC1
S315080143A01888EFE700900050E40C002038B5044661
S315080143B08020FFF7B7FE032800F083804FF48012B0
S315080143C0524B4FF0A0615A6645F60E02504BC3F8A0
S315080143D08020504A91624FF4803102F580529162F1
S315080143E09A6DD203FCD4996D11F08041FBD1D4E9C1
S315080143F00002120542EA0062E07B0243207B42EAA0
S315080144000042607B42EA0032A07B42EA80121A61CE
S315080144109869D4E90452120642EA856200F000401E
S315080144200243A07EE57E0243207E42EA0042607E88
S3150801443042EA00229A611A6AE06922F00F0242EA08
S315080144408502354D00283DD11A6294F82420996ACF
S3150801445094F82000D200294042EA40120A4394F80F
S31508014460211042EA011242F480329A622B49284A03
S31508014470936D31EA0303FBD14FF0807125488162C0
S315080144801369A56823F4700343EA055313614FF0D2
S315080144900043836194F822300BB9214B996294F851
S315080144A023303BB94FF480321D4B9A62184A936DFB
S315080144B05B00FCD494F825301BB1154B194AC3F897
S315080144C0802038BD024342F0080202281A6208D148
S315080144D019614FF40852996113484FF47F411DF051
S315080144E093F90B4994F822308A6A94F820001B063E
S315080144F02A4043EA4013134394F8242043EAC203AB
S3150801450094F8232043EA02438B62D3E700900050D4
S315080145100040005A0050005AC7FFFEFE0300010082
S315080145200060005AF1A7FFFF3440005A70B5194CD4
S31508014530FF28A66A2BD8A36D4FF0807113F4803F2C
S3150801454018BF4FF48032144B18BF9A629962134A06
S31508014550A36992F9005023F47F03054423F47F43AA
S3150801456043EA002385F3080543EA0543A361324676
S315080145700B481DF049F9A36DDB0301D4002070BD7A
S3150801458032464FF4803106481DF03EF9F6E7212000
S31508014590F5E700BF0040005A0050005A000D002000
S315080145A02840005A014B93F900007047000D00207E
S315080145B04FF4803311481249826A8B62836D03F086
S315080145C00303032BFAD14FF080730E488B620B4B12
S315080145D0996D30EA0101FBD1012009490865996DF8
S315080145E08907FCD4054B996D8807FCD5996D890710
S315080145F0FCD5054905481DF007B900BF0040005A1A
S315080146000050005A03000100000001012840005A29
S31508014610F0B5D0E901434FF400061A4A4178057806
S3150801462056664FF4D156022702F5B8325662164E2F
S315080146304F2977604FF0010728BF4F2106F58056AD
S3150801464077601669F603FCD441EA052151611B011D
S31508014650417B43EA04230B43017B43EA410393600D
S31508014660C37B817B1B0143EA4113417C0B43017CDC
S3150801467043EA41035360837C13B16FF4D153536208
S31508014680F0BD00BF0090005000100250014B188089
S31508014690704700BFE40C0020014B1880704700BF2B
S315080146A0E20C00204FF4800208B5184B5A66022323
S315080146B0174A5360936813F48033FBD1012822D13A
S315080146C0FEF710FD134B984215D003F5122303F597
S315080146D0F863984213D0104B00EB8002400AB3FBF3
S315080146E0F0F3520A0A49CA620B6301234B6200229C
S315080146F0074B5A6008BD45F67A13084AF2E745F6AC
S315080147001A03074AEEE75362F1E700BF009000502B
S315080147100040025000F0490264666666D8B8050092
S31508014720BBCF0500B0F5207F10B50C465DD008D883
S31508014730B0F5007F4ED003D8C0B1B0F5C07F15D013
S3150801474010BDB0F5607FFBD12C4B4C1ED3F8FC2075
S315080147502B4912F0807F4FEA041427D1D1F8803013
S3150801476023F030032343C1F88030E9E71DF05BF8F5
S315080147701DF067F84FF48031224B214A1967136FF0
S31508014780013C23F4704343EA04331367FEF794FCB0
S315080147900446FFF72FF9C0F1020120461DF04BF838
S315080147A000F042F8BDE81040FFF7ACBCD3F8FC2096
S315080147B022F08072C3F8FC20D1F8802022F0300262
S315080147C02243C1F88020D3F8FC2042F08072C3F856
S315080147D0FC20B5E70A4A4C1ED2F8903023F0F8536C
S315080147E043EA0463C2F89030AAE7054A4C1E136FE0
S315080147F023F4806343EA84231367A1E700ED00E00D
S31508014800008000500090005008B50121022000F0F8
S315080148108FF81DF008F81DF014F84FF48032014B9B
S315080148201A6708BD0090005008B54FF4C070FFF72D
S3150801483069FBBDE808400449884294BF0121022169
S315080148404FF42070FFF76EBF80F0FA02034B5868E9
S31508014850C0F30800003818BF0120704700ED00E0DA
S31508014860054B420953F8223000F01F0023FA00F0E5
S31508014870C04300F00100704700E100E0024A536BB3
S315080148800342FCD1704700BF00400950044A4178F1
S31508014890536F23F4407343EA01235367704700BFFC
S315080148A0004000500C4A10B51369044643F004034E
S315080148B0136103F013F81CF0EEFF084B084AC3F81E
S315080148C0202430BF1CF0E8FF03F042F81CB9BDE80C
S315080148D01040FEF7F1BB10BD00ED00E000E003500B
S315080148E00000FF0F0A4A10B51369044643F0040392
S315080148F01361084B084AC3F8202402F0EFFF30BFC2
S3150801490003F026F81CB9BDE81040FEF7D5BB10BD6B
S3150801491000ED00E000E003500000FF0F034A0179B3
S31508014920D36E23F030030B43D36670470040005023
S31508014930F8B504461C4BD3F88420D106FBD4D3F82A
S315080149408430C3F381139C422CD0FEF79BFB012CC8
S31508014950064602D121461CF06EFF1CF08CFF4FF073
S315080149600072124B07465A6620461CF098FF4FF410
S3150801497080630D4D621E93402B676B6E9A0103D4BB
S31508014980D5F884309B060AD538461CF078FF022CE8
S3150801499008D13046BDE8F84000211CF04CBFD5F8D7
S315080149A08430EAE7F8BD00BF0040005000600050BF
S315080149B010B50C4608B9FEF765FB074B21461B786F
S315080149C03BB1064B984204D80120BDE81040FFF7D9
S315080149D0AFBF0220F9E700BFE82A0020005A6202A9
S315080149E00278034B012100201A70FFF7E1BF00BFCF
S315080149F0E82A00204FF0004238B5244B244C5A6669
S31508014A004AF6CD33656C014605F00105236428BBDA
S31508014A100120FFF733FF6368DB0715D51D4B586087
S31508014A2008461D4B226BD2070CD4984208D107249D
S31508014A3015B1174B194A1A6426F0C4FA204638BD2F
S31508014A400130EFE79842F2D00024F1E70132236BF7
S31508014A5013F0080305D08A42F8D1E8E700220E4987
S31508014A60F5E78A42E3D020210A4A91620121A2F59B
S31508014A70805251600649084A886A800603D49342DF
S31508014A80D5D00133F8E79342DDE700BF0090005027
S31508014A90004009500060095040420F003254FFFFA0
S31508014AA04FF0004238B5164B01465A664AF6CD33E1
S31508014AB0144C154A656C236443780B205B0043F05C
S31508014AC00103D363FFF7DAFE63688A7823F4F87380
S31508014AD043EA02136360CA784B7943EA0223A36067
S31508014AE00A798B7943EA022323610878FFF782FF63
S31508014AF0EB0744BF054B236426F064FA012038BD51
S31508014B000090005000400950004000503254FFFF09
S31508014B104FF00042124B70B55D6E03F580535A662D
S31508014B204AF6CD3304460F4980204E6C0B64FFF7D5
S31508014B30A5FE0B6A23F00F030F2C94BF234343F002
S31508014B400F030B62F30744BF074B0B64002DA2BF8B
S31508014B504FF00042054B5A6626F034FA70BD00BF85
S31508014B6000800050004009503254FFFF00A0005059
S31508014B704FF00042104B70B55D6E03F580535A66CF
S31508014B804AF6CD3304460D4980204E6C0B64FFF777
S31508014B9075FE0B6A23F4F85343EA04230B62F30701
S31508014BA044BF074B0B64002DA2BF4FF00042054BD3
S31508014BB05A6626F007FA70BD008000500040095079
S31508014BC03254FFFF00A00050072A2DE9F04115468F
S31508014BD098464FF0030401F003072DD89600B44018
S31508014BE000FA06F221461C481CF05AFE21461B48CB
S31508014BF007FA06F21CF054FE194B1A499DF81800DB
S31508014C00B8F1000F18BF1946012303FA05F50D601F
S31508014C10154B1649002818BF0B461D60144B9DF805
S31508014C201C00C3F82054103103F22443002818BF8E
S31508014C300B461D60BDE8F081A2F10806B600B44036
S31508014C4000FA06F221460B481CF02AFE21460A48BC
S31508014C5007FA06F2CEE700BF00C4035008C40350A2
S31508014C6010D4035010E4035014E4035014D4035031
S31508014C7000E0035004C403500CC403502DE9F0416D
S31508014C8005460F461E4690464AB101233022194C65
S31508014C908B4002FB004436B304F5825423600F218E
S31508014CA0072F05EB450388BFA7F108044FEA03134D
S31508014CB0114895BFBC00A40004330C3308FA04F26A
S31508014CC0A14018441CF0ECFDB8F1000F09D10123ED
S31508014CD03021084ABB4001FB05223EB102F582524A
S31508014CE01360BDE8F08104F50154D7E702F50152D6
S31508014CF0F6E700BF00C0035030C00350104B014017
S31508014D00D3F8302422EA0002C3F83024D3F8302439
S31508014D101143C3F83014D3F82C240243C3F82C24C6
S31508014D20084AD36E03F03003202B1FBFD36E23F03E
S31508014D30300343F01003D366034BC3F820047047CE
S31508014D4000C003500040005000E0035038B5144637
S31508014D501D46032283F00103FFF790FF012004F1AA
S31508014D601001884005FA01F1FFF7C8FF9DF81010F8
S31508014D70034B044A002918BF1346186038BD00BF03
S31508014D8024E4035024D403504FF48032054B9A6629
S31508014D9041F6713203F51C33DA63012203F5005338
S31508014DA0DA6070470090005041F671320121064BD6
S31508014DB0DA6303F50052D1600022DA634FF48032D8
S31508014DC0A3F518339A667047000003500138312855
S31508014DD09ABF024B185C0020704700BFC5CC030878
S31508014DE038B5C2F30625044602F0070241B942EA7C
S31508014DF0052242F440220634074B43F8242038BDE5
S31508014E00114628461CF05CFD02462846FFF7DEFFE0
S31508014E10163442EA0022EFE7008003504FF480324D
S31508014E20064B5A6603F5E6239B69C3F3851282701E
S31508014E3003F03F021B0B427003707047009000504D
S31508014E4040F6B732064B5B689BB293429FBF4FF45D
S31508014E507A72B3FBF2F3034AD05C88BF002070472D
S31508014E600080E00FF7CC0308014B986CD96C7047AA
S31508014E700080E00F0120034B9B680A3303F01F03F0
S31508014E80984070470080E00F012100F5805310B566
S31508014E90596040F6AA6341F2050243610023094CB1
S31508014EA08360C365C26000F500520361C361C364D0
S31508014EB09464054C8365A04204BF0365436551604C
S31508014EC010BD00BFFFFF010000C0055038B50D46F3
S31508014ED0FFF7DAFF012200F580535A602B8AA97B76
S31508014EE0826843F0010343EA81231343836083689D
S31508014EF02A7D044643EA42738360AB7C5BB1194B56
S31508014F00984202BFEA7CA3F51033C3F8C821C36DE2
S31508014F1043F08003C3652B7B2046D5E9011243F490
S31508014F208053E3601CF023FD6B7B0BB11023636197
S31508014F306B7D1BB1A36843F48033A360AB7D1BB1C2
S31508014F40A36843F40043A360EB7D2A7E1B07120581
S31508014F5003F0E04302F4E0021343A3652B7863618F
S31508014F6038BD00BF00C00550034B5A68D20702D5A9
S31508014F70DA69002AF9D1704700800A50054B9A6808
S31508014F809107FCD45A689207F9D4DA69002AF6D14E
S31508014F90704700BF00800A5008B5FFF7E5FF0222F7
S31508014FA0014B1A6108BD00BF00800A5008B5FFF71A
S31508014FB0E5FF0122024B03F580514A601A6108BDDB
S31508014FC000800A5008B5044B5968012903D1FFF737
S31508014FD0E3FF024B596008BD00800A5000A00A5041
S31508014FE010B5064CFFF7CAFF6368012B03D1FFF71B
S31508014FF0E9FFFFF7C3FF0378E36010BD00800A509D
S31508015000B8B94A680B7812B1127843EAC2034A78EA
S3150801501043EA42038A6812B1127843EA82138A780C
S3150801502043EA8203CA6812B1127843EA4223014A63
S315080150309364704700800A5008B9014B5964704758
S3150801504000900A5008B9014B5964704700A00A50EC
S3150801505008B9014B1964704700A00A5010B9024BF0
S31508015060186C70470020704700800A5048B911B182
S31508015070012903D07047044BD86C7047024B186D51
S3150801508070470020704700BF00800A5040B911B12F
S31508015090012903D07047034BDA647047014B1A653F
S315080150A0704700BF00800A5010B9024B586D70470F
S315080150B00020704700800A5038B50446054D25F092
S315080150C0A5FF0FCC0FC594E8030085E8030000206F
S315080150D038BD00BFA81C002047F6FF739A42F0B5F9
S315080150E06FD002296FD8394B5B5C012B6BD8384DD1
S315080150F0DF0005EBC30415F83330A178012B13D172
S315080151000025E078401AA84202D80844C0B2F0BD8A
S31508015110431B6668A0EB530336F913609642D4BF66
S315080151201D4603F1FF30EEE760680028EFD0B0F9BD
S315080151300040944204DBB0F902409442B8BF1446D9
S3150801514083883D44FF2B19BFC8224FF0280CB0F9BC
S315080151500620B0F908C0A2EB04030CBF01260026FD
S3150801516093FBFCF333446E781BB29E4201DD002BA0
S3150801517001DA731E1BB24FF47A7C01339BB2071D09
S315080151805D1E2DB24FEAC50E00EBC505EA88AD686E
S315080151909E4214FB025222EAE27202F15C02B2FB5F
S315080151A0FCF204DD37F8335001339542E8D200EBBF
S315080151B00E039888904228BF1046884238BF084691
S315080151C0A4E7FF20A3E70020A1E700BFFACC030864
S315080151D0A81C00200229F0B555D82C4B585C01288B
S315080151E051D82B4C04EBC00114F830004B68012848
S315080151F00FD1C8788C78904294BFC4EB0001C4EBF8
S315080152000201001BCAB28242C8BF002233F912004A
S31508015210F0BD002B37D08878904202D3B3F902004B
S31508015220F6E7CC78B3F900009442F1D94C7899881D
S31508015230013CA1F1FF06714203F10405E4B2714193
S3150801524003F10C07CEB2B44216D805EBC1014FF4EF
S315080152507A756A43B1F902404968521A04EBD47166
S3150801526002EB610292FBF4F29042D1DBB3F9020040
S315080152709042CDDC10B2CBE737F831C04E1C9445CD
S31508015280E3D33146DEE70348C2E700BFFACC030899
S31508015290A81C00200080FFFF0148FFF70DBF00BFD3
S315080152A000CD030800487047E60C00207FB50222AE
S315080152B0084B0949CDE901234FF00073CDE90313E2
S315080152C0072301A94FF0FF30059325F0D6FE07B055
S315080152D05DF804FB006A18000002060008B5B0B1C3
S315080152E04FF480620B4B9A661CF024FB4FF09843EF
S315080152F05A6CD202FCD54FF48062586D064B10F4F5
S3150801530070209A6604D0BDE808401CF052BB2120E3
S3150801531008BD00BF0090005000A000502DE9F041E3
S315080153208CB08846DDE912761D460446002847D02A
S31508015330002945D0002F43D0002E41D013F00F038A
S315080153403ED120482049A360002A08BF0146E361EF
S31508015350C4E90013404609A91CF027FC68BB20468E
S3150801536009991CF0DEFA294620461CF0DAFA694644
S31508015370404600F0DFFA00BB694620461CF0BDFA3C
S31508015380404603A91CF010FDB8B9204603A91CF034
S31508015390B4FA06970127204645F0005506A907974E
S315080153A008951CF0AAFA204609A909960A970B95A9
S315080153B01CF0ADFA2046FFF791FF0CB0BDE8F0816D
S315080153C02120FAE700010004000101042DE9F0415A
S315080153D08CB0884616461D460446129F00284BD0B7
S315080153E0002949D0002A47D0002F45D00B68103B29
S315080153F0102B41D8214A22FA03F3D9073CD50023B9
S315080154001F4A8360C0E90023C36109A940461CF00D
S31508015410CCFB70BB204609991CF083FA2946204625
S315080154201CF07FFA6946404600F084FA08BB6946D3
S3150801543020461CF062FA404603A91CF0B5FCC0B927
S31508015440204603A91CF059FA06960126204606A904
S3150801545045F00055079608951CF04FFA094B20466A
S3150801546009A909970A960B931CF051FA2046FFF7EA
S3150801547035FF0CB0BDE8F0812120FAE701010100F2
S315080154800000040410000020F0B50C4617461E461D
S31508015490054695B0002874D0002972D0002A70D02C
S315080154A0002B6ED0036B0F2B5BD80023364A384688
S315080154B0C4E90023A360E36111A91CF076FB002867
S315080154C05BD1204611991CF02CFA296B20460F292D
S315080154D084BF01F00F0110311CF023FA384602A9E6
S315080154E000F028FA002848D1204602A91CF005FA3E
S315080154F0384605A91CF058FC00283ED1204605A9C6
S315080155001CF0FBF90122214B089509920A932B6B92
S3150801551005F1100003F00F0141F000510B900F2B1C
S315080155200C920D910E900F9243F00052109226D9CB
S315080155300A9B08A923F0005320460A931CF0DDF9BB
S315080155400BA920461CF0D9F90123119612930F4B8A
S31508015550204611A913931CF0DAF92046FFF7BEFE7F
S315080155600BE000F120030190009301221023394634
S315080155702046FFF7D3FE002897D015B0F0BD0EA937
S31508015580DFE72120F9E700BF00000404100000202E
S315080155902DE9F04F9BB00C4690461F460546DDF8AF
S315080155A09090002800F0B280002900F0AF80002A10
S315080155B000F0AC80002B00F0A980026B02EB090316
S315080155C01B09B3EB121F02F00F0600F097800023A8
S315080155D04F4A8B60C1E90023CB61404617A91CF0ED
S315080155E0E4FA0346002840F0858006EB090B2046BD
S315080155F017992BF00F0A1CF094F9514620461CF016
S3150801560090F9404602A900F095F90346002871D1A0
S31508015610204602A91CF071F9404605A91CF0C4FBF5
S315080156200346002866D14FF00108019005A92046D6
S315080156301CF063F9374A204608A90895CDF8248055
S315080156400A921CF05AF946F00051AAEB060605F132
S31508015650100346F000560B93CDF830800D910E9746
S31508015660CDF83C8010960D99204621F000510D91F8
S315080156700BA900931CF041F920460EA91CF03DF92F
S31508015680019B244A1193AAF1100343F00053CDF864
S315080156904880139305F120031493CDF8548016928C
S315080156A0139B204643F080431393139B11A923F0C0
S315080156B0005313931CF02BF9204614A91CF027F963
S315080156C0144A17A920461795CDF8608019921CF03F
S315080156D01EF92046FFF702FEAAEB0B014944019089
S315080156E0ABEB0A020098394426F094FE019B2A6B1B
S315080156F04A442A6318461BB0BDE8F08F10304A4663
S315080157003946304426F086FE0023F0E72123F1E7E7
S3150801571003020004100000202DE9FF474FF000089E
S315080157200E4617460446CDF80080002859D022B9FE
S315080157300025284604B0BDE8F087002951D032F08B
S31508015740030902F0030A1FD04FF0E063C0E90038ED
S3150801575001230191C0F808800293C0F81C8049F022
S31508015760005301A903931CF0D2F8494620461CF0C0
S31508015770D8F82046FFF7B2FD054628B14A46414604
S31508015780304626F03CFED4E7BAF1000FD0D04FF0F0
S3150801579000084FF0E063C4E900380123CDF804D0CE
S315080157A00293114B204601A9C4F80880C4F81C804D
S315080157B003931CF0ACF8042120461CF0B2F82046ED
S315080157C0FFF78CFD054608B13A46D8E7009A4E44DC
S315080157D0EB00013522FA03F3AA4506F8013BF7D196
S315080157E0A6E72125A5E700BF04000020F0B50F466E
S315080157F016461D46044693B010B9212013B0F0BDD4
S315080158000029FAD0002AF8D0002BF6D00023314619
S315080158101A4638461CF06EF90028EFD1304602A91F
S315080158201CF004F90028E9D1EB68022B0AD0396883
S315080158303F48029A81426B6902D01830814270D181
S315080158409A42DAD82B68002BD7D14FF060623846D6
S31508015850C4E90023A360E36101A91CF0A6F90028A5
S31508015860CCD10199204621F4F06101911CF059F837
S31508015870694628461CF099F90028BFD120460099A7
S315080158801CF04FF8384609A900F054F80028B5D19C
S31508015890204609A91CF031F838460CA91CF084FAEF
S315080158A00028ABD120460CA91CF027F8EB684BB1B0
S315080158B0284606A900F03EF800289FD1204606A9E9
S315080158C01CF01BF8304603A91CF06EFA002895D186
S315080158D0B368DA040CD59B0427D50621F369326926
S315080158E01B6801FB03225B0043F0005303920593F7
S315080158F0204603A91CF001F828460FA91CF054FA02
S3150801590000287FF47BAF20460FA91CF000F8032579
S315080159102046FFF7E3FC01287FF470AF013DF7D17C
S315080159206CE7B3EB420F8DD267E7292066E700BF24
S31508015930200000B090B189B101234B60C368013BD7
S31508015940012B08D88269064B1AB10A6000208B60C0
S315080159507047044AF9E74FF00053F7E721207047EB
S3150801596008000020B4DE030870B50E461546044645
S315080159708AB000285BD0002959D0002A57D00123C4
S3150801598029461A4630461CF0B5F800284DD1B368A9
S3150801599013F4C04F4BD0AB6803F4C043B3F5005FB3
S315080159A045D1254BA060C4E90030E06107A930461E
S315080159B01CF0FBF8002838D1204607991BF0B1FFE7
S315080159C0304601A9FFF7B6FF78BB20461BF095FFC5
S315080159D0304604A91CF0E8F938BB204604A91BF097
S315080159E08CFFEB681BBBAB6803F4C043B3F5005FE0
S315080159F01DD1694628461CF044F8B0B9009B6A696E
S31508015A009A4216D32A6943F0005307920122204687
S31508015A1007A90892032509931BF079FF2046FFF78A
S31508015A205DFC012801D1013DF8D10AB070BD2120E4
S31508015A30FBE71D20F9E700BF0000010206289ABF0F
S31508015A40014B185C00207047BCDE030830B5154BC6
S31508015A5087B00293144B0390049346F611030D463F
S31508015A60059300F077F91428044616D168461CF008
S31508015A7059FB4FF0A843032202A95A6319601D6115
S31508015A809A63DA6B9207FCD1142C02D168461CF092
S31508015A9057FB00F093F9044601E00028E9D02046B7
S31508015AA007B030BDC01C0020040000202DE9F04FCE
S31508015AB0B1B005468C469E46E8466F4EDDF8EC9039
S31508015AC0409C06F1100A474630687168083603C7D4
S31508015AD05645B846F7D13E9B03EB0208C8F1000AC2
S31508015AE00AF00F0AB9F1000F00F09D80C9F100070D
S31508015AF007F00F070121DDF8FCB044F00050C4F1AE
S31508015B001006CDF810B005910690300200F4F85051
S31508015B1040F021000790B9F1000F40F08680CDF8DA
S31508015B2020D047F00050002D00F0848009912121F2
S31508015B300A9041EA07210B9142F00050CDF830C096
S31508015B403D9B08A94FEA0A2C0D910E904CF0410095
S31508015B500F901093002A75D13E9B119143F0005383
S31508015B6012933C9B1390149310AB1593434B444AE1
S31508015B70169340F611031793424B0021002D08BFD7
S31508015B801346189314AB19933F4B10221A931123FA
S31508015B901B931CAB184626F032FC01221D920022EB
S31508015BA046F0804603461E96239205B9EB46102C0D
S31508015BB0CDF880B024AE4BD10123224600213046D0
S31508015BC02193229426F01BFC20AB002125938F42BA
S31508015BD018BF334647F0804226923A9A2CA8289253
S31508015BE02993B2FA82F35B0949EA837310222B914E
S31508015BF02A9326F004FCB9F1000F00D028AED04450
S31508015C0048F080432CA918A82D962E93FFF71EFF5E
S31508015C1030B92DB90346A34225D1002818BF2C2037
S31508015C2031B0BDE8F08F102764E7CDF820E049F0E0
S31508015C30005078E7002C3FF479AF04A909910121B6
S31508015C400A9076E73E9B0CAA11924120129388E7A7
S31508015C501022002130462193229426F0D0FB002CF5
S31508015C60B2D10123B1E703F1C0026A4412F8C02C8C
S31508015C7001331043CFE700BFC3DE0308100000203D
S31508015C80D8DE0308DCDE030804000020F0B5C029CD
S31508015C909FB0DDE9244557D0B1F5807F04D080292E
S31508015CA048D029201FB0F0BD01265CB140F2344727
S31508015CB002941024039604942124019705940695C9
S31508015CC002AC0AE040F214470294102403960494A5
S31508015CD0212405940124019706950794012510248A
S31508015CE0089409950A9221220B950C940D92174A4C
S31508015CF00AAD0E92164A0F95109242F611021192AA
S31508015D00129313951494159201AA1692D3B112AB54
S31508015D101793042318931123199316AB1A901B93FF
S31508015D2040F61103C9081C911AA806A91D93FFF785
S31508015D308DFEB7E7012614B94FF48267C4E74FF41D
S31508015D408667B5E70EABE3E70F20ABE7D4DE0308BA
S31508015D501000001038B5164B5A6E42F004025A6606
S31508015D60D3F8802242F00102C3F88022114B5B6806
S31508015D70C3F3080343B14FF0A842D36B13F0430FA3
S31508015D80FBD11424204638BD4FF0A843DC6B14F030
S31508015D904304FBD1084D2B681BB90421284602F0A0
S31508015DA0E3FC2B68013343F000432B60EAE700BFAD
S31508015DB00080005000ED00E0C01C0020014B0020CF
S31508015DC05B68704700ED00E0012300F01F02A0F5B3
S31508015DD006200949A0F550604009934051F8202052
S31508015DE01A4341F82020054951F8202022EA0302E6
S31508015DF041F82020704700BFD81C0020C41C002091
S31508015E000121A0F506230E4AA3F550635B0900F0AC
S31508015E101F00814052F82300014342F82310094923
S31508015E20D1E90030034488680344C8680969034412
S31508015E305B1802BFC2E90033C2E902331361704736
S31508015E40C41C0020D81C00202DE9F04FA9B00392EC
S31508015E501D4604460822339ECDE90401414021FA34
S31508015E6002F34B40980702F1080218BF9B00202A4B
S31508015E701C44F4D18123B4FBF3F303EBC313E41AF3
S31508015E80734B04F506241B7804F55064002B3ED1A8
S31508015E90FDF758FD074620B16FF0910029B0BDE81E
S31508015EA0F08F0146402208A826F0A9FA4022394671
S31508015EB018A826F0A4FADFF8B481DFF8B491C3462E
S31508015EC00BF10F0ACDF800A0102208A95B46D9F8F4
S31508015ED0000024F058FE0022014608F1100808AF18
S31508015EE0914246D1CDF800A05B461022D9F80000B0
S31508015EF018A924F051FE4FF0000A834618AFD3457E
S31508015F0041D1544B9845DAD10122514B1A704FF0C1
S31508015F10810A4FF00008DFF85CB1A4F50627A7F55A
S31508015F2050635B095BF8232004F01F01CA40D207BE
S31508015F303DD4494A52F82330CB40DB072AD5B8F17C
S31508015F40000F08BFA0468123A7F6FF47B7FBF3F367
S31508015F5003EBC313FF1A07F50624BAF1010A04F580
S31508015F605064DAD1039BBBB1B8F1000F14D0444693
S31508015F7019E057F8040BCDE90612FFF725FF079A32
S31508015F8006990132ACE757F8040BFFF739FF0AF116
S31508015F90010AB4E7039B13B96FF08B007EE7B8F1EA
S31508015FA0000F18BF4446349B00201C6076E7329BDD
S31508015FB013B10023329A13600EB100233360102304
S31508015FC0DFF8AC9000932A4600232146D9F8000051
S31508015FD012F0FEFC60BB32992A68204BC9B99A4275
S31508015FE006D02146D9F8000012F08AFD0028D3D13F
S31508015FF0D5E90223DDE90410834208BF8A42A2D10A
S31508016000039B002BCFD06B68012BCCD16FF084009A
S3150801601044E7102032999A420860E2D1002EE7D06F
S3150801602033462146D9F8000018AA12F025FD48B1D1
S315080160300B4B9842D5D00B4B9842D2D00A4B98427B
S31508016040D6D029E7329A336812689B1A3360CFE7AC
S31508016050E92A002000710800C41C0020105D175EA3
S31508016060FFDF00F011E000F0FEDF00F0006D080030
S31508016070FC0A0020D81C00202DE9F04F87B0824683
S31508016080894698461646DDF840B02AB1002B4FD00E
S3150801609040F26C739A424ED8BBF1010F4ED80024D8
S315080160A006F110073946012005941CF033FE054612
S315080160B0002846D021463A4626F0A1F905ABCDE996
S315080160C0014300942B46012250464946FFF7BCFE80
S315080160D0044680B110F18C0F08BF6FF08D043A4663
S315080160E00021284626F08BF928461CF023FE204677
S315080160F007B0BDE8F08F144BC5E902A92B60C5F8B6
S3150801610004B02EB13246414605F1100026F082F957
S31508016110059E0E483B462A463146006812F0C0FBEA
S3150801612018B93046FFF750FED9E76FF09104D6E764
S315080161306FF08604DBE76FF09104D8E76FF085040A
S31508016140D5E76FF08C04D2E7105D175EFC0A0020D4
S315080161502DE9F0438DB08146DDE914780E461546E2
S315080161601C469BB1B8F1000F05D16FF08606304683
S315080161700DB0BDE8F083002FF7D0B7F1005FF4D377
S31508016180C3F1005303F580239F42EED81022002164
S3150801619008A826F034F9002207AB029305AB019350
S315080161A006AB31460093484608ABCDE90522FFF711
S315080161B04BFE06460028DAD1059BA4B1AB4215D899
S315080161C053EA0504D1D1069B0B48C8F80040009450
S315080161D03A46079900682B4412F0FAFB002818BFC3
S315080161E06FF09106C3E7AB42EDD2BEE75B1B9C425B
S315080161F028BF1C46E7E700BFFC0A002030B58DB072
S315080162000C4605461022002108A826F0F8F80022B7
S3150801621007AB029305AB019306AB214600932846CB
S3150801622008ABCDE90522FFF70FFE0446D8B9099B4D
S31508016230012B1BD0079D104B2946186812F060FCEC
S31508016240B8B90122A5F506230C49A3F550635B09E4
S3150801625005F01F00824051F823004240284641F8C4
S315080162602320FFF7CDFD20460DB030BD6FF0840425
S31508016270F9E76FF09104F6E7FC0A0020D81C002024
S315080162802DE9F04F93B00446DDE91E75DDE9206876
S315080162909346DDE91C028A46DDF8889029B96FF034
S315080162A08604204613B0BDE8F08FBBF1000FF6D087
S315080162B00FB9002DF3D108B9002AF0D116B9B8F1F2
S315080162C0000FECD1B9F1000FE9D02C4A934251D114
S315080162D02388B3F5105F4DD12022002102A826F0AC
S315080162E08EF8202200210AA826F089F802A81BF0B8
S315080162F08EFB10B16FF09204D3E720465A465146F9
S315080163000AAB00F00FFA04460028CAD10A981BF016
S315080163106FFF04460028C4D115B9C9F80050C0E773
S31508016320B74224D27B199E4221D24545B7D8394670
S315080163302A46304626F049F8374615F00F0AAED1F7
S31508016340CDE900762B4652460AA902A8FEF7E6FFD2
S3150801635007460028E1D042465146304626F04FF816
S31508016360012FC9F800A0C5D16FF08B0499E74545FF
S31508016370E3D994E76FF0850493E700BF004440042E
S315080163802DE9F047C2B00C4607460021154601A87B
S3150801639020229A464A9EDDF83091DDF8388126F0AA
S315080163A02EF82022002109A826F029F8202200210A
S315080163B011A826F024F82022002119A826F01FF892
S315080163C00021802222A8219126F019F83CB135B185
S315080163D02EB1B9F1000F02D0B8F1000F05D16FF057
S315080163E08604204642B0BDE8F0872188628801F418
S315080163F0E043B3F5804FF2D02C4B2D483B4043F098
S315080164001063834202D06FF08504EAE7D31DBAEB25
S31508016410D30F4FEAD307E2D34D9B9F423FD847F2AA
S3150801642012139942EFD1B2F5807FECD1214B4B98EB
S31508016430099384230230013620F0030016937B006A
S315080164400D960E90129320465246294621AE01AB6F
S31508016450159600F067F904460028C2D10B9B1190E6
S3150801646043F4005319A80B931BF0D1FAD0B911AB19
S3150801647009AA01A919A8FFF7B9F9054610B14828CB
S31508016480ADD1C0E73A463146484625F0C3FF2B460B
S3150801649073550135842DFBD1C8F80070A1E76FF05B
S315080164A089049EE76FF092049BE700BF0000FFF6A0
S315080164B000000209200000802DE9F0410D4614462E
S315080164C01E46C2B010B96FF086000DE00029FAD059
S315080164D0002AF8D0002BF6D0038803F44F42B2F510
S315080164E0824F04D06FF0850042B0BDE8F081DAB280
S315080164F0122AF7D123F0FF03B3F5E24F27D14388D8
S315080165003360FBB9E3003360B3F5807FEAD100233A
S31508016510184643492E19214411F8014D16F8012D43
S315080165201043121B0CBF4FF0FF340024B54203EA97
S31508016530040343EA0203EFD10028C4D0002BC2DAD0
S315080165400020D1E7DA1DB4EBD20FDDD0BBE7B3F5F6
S31508016550824F61D10B78042BB5D1202200216846E0
S3150801656025F04DFF68461BF052FA002851D1002745
S31508016570842239460DEB0200209725F040FF2022A0
S3150801658001234FF0880839460DEB0200013C8DF8CE
S315080165908030013525F033FF202239460D9410A8A5
S315080165A0E4000C95640825F02AFF20AD202239461F
S315080165B018A81495CDF8548025F021FFE02CCDE9D3
S315080165C01C58346003D0B4F5807F7FF47CAF154B3B
S315080165D00734089310934FF400530A934FF48043FA
S315080165E0E408129308AA18AB6846640010A919941E
S315080165F0FFF7FCF833680733DB085A0033B100218B
S31508016600531E013B297005F10105FAD2002897D0DE
S3150801661059E76FF0920067E76FF0960064E700BFED
S31508016620E0DE030820000080F8B5134642880C46D0
S315080166300732072A4FEAD20101D0A1426DD1466835
S315080166400588C76820221846002125F0D8FE360A93
S31508016650034626B1012E11D06FF08B00F8BD002C30
S315080166605BD041F20102954205D0B5F5885F02D0AB
S31508016670B5F5905F1BD15C600020EFE7C660002C82
S315080166804BD041F2010295420BD15C60B90707F084
S3150801669001021FD4002AEFD19A6842F080729A60EB
S315080166A0EAE7B5F5885FF0D0B5F5905FEDD0B5F5B9
S315080166B0105F0AD1182C03D0202C01D0102C2CD114
S315080166C0C3E90044002ED7D0E0E705F44F42B2F5FE
S315080166D0824F02D06FF08500C0E7EAB2122AF9D1DB
S315080166E0202CF7D10E4A25F0FF05B5F5E24F1A60C1
S315080166F00CD0B5F5824F10D14FF4005217F4705FE4
S3150801670009D017F4864F04D09A60E3E74FF4804224
S31508016710F4E742F480629A60D4E76FF086009DE759
S31508016720200000802DE9F041174600221C464368E7
S315080167308CB01B0A80460D46009204D0012B56D018
S315080167406FF08B008EE0008820F0FF03B3F5824FCF
S3150801675015D1B8F802200732D20800921BF054FD71
S31508016760002800F0E1800B78042B05D1013FB7EB37
S31508016770420F05F1010503D06FF0860072E000971C
S31508016780009E224631464046FFF74EFF002869D152
S31508016790FA1CC4E9030522F003026261002E00F027
S315080167A0A4802022002101A825F029FE3146404671
S315080167B001AAFFF739FF002840F097802368019A5C
S315080167C09A4240F092806368029A9A4240F08D801C
S315080167D0A368039A9A4240F08880A369079A9A4265
S315080167E040F08380E369089A9A423BD07DE0032F03
S315080167F0C2D90B78012B40F09A80497800294BD0F1
S31508016800F73908299CD801A353F821F075680108BE
S3150801681031680108416701086B6801084167010889
S315080168208F680108416701087F68010887680108C0
S315080168304FF41056F8253F4F1C22002102A825F0D7
S31508016840DEFD03230197CDE90435039601AA09ADB7
S31508016850134603CBAB42206061601A4604F1080473
S31508016860F6D100200CB0BDE8F08110274FF08076F4
S31508016870FA25E1E720274FF00076F725DCE7FE2524
S315080168802C4F2D4ED8E7FF252A4F2C4ED4E74FF42F
S315080168901056FC25274FCFE72B2F7FF66DAF202209
S315080168A0204625F0ACFD05F110032361AB070DD099
S315080168B001AB05F128061A4628686968083503C236
S315080168C0B5421346F7D1286801AD10606B68103FD1
S315080168D02360AB6869466360EB682046A3600123C1
S315080168E06761E3601BF0A2F828B120220021204647
S315080168F025F085FD40E7B8F80030009E03F44F42C5
S31508016900B2F5824F0ED1DAB2122A0BD123F0FF0368
S31508016910B3F5824F06D1730062691C339A42BFF4FC
S315080169203DAFE2E73346F7E76FF085009AE76FF088
S31508016930910097E72000008000440002004400030C
S315080169402DE9F04F8FB0DDF8608081460C469246FE
S315080169509B461A9FB8F1000F05D16FF086042046B1
S315080169600FB0BDE8F08F002FF7D00028F5D0202210
S31508016970002106A825F043FD06A81BF048F810B12A
S315080169806FF09204EBE714F47C1FC4F305452AD093
S31508016990102DE2D8199B9D4233D81D4B24F47E1441
S315080169A09C4231D1002302AECDE90233CDE904334D
S315080169B052465B464946009606A8FEF707FD044679
S315080169C098B92A463146404625F024FD23463355D3
S315080169D00134102CFBD100243D6006A81BF021F8D8
S315080169E00028BCD0CCE71025D4E7212806D00128F9
S315080169F014BF6FF092046FF08B04EEE76FF0860414
S31508016A00EBE76FF08904AAE76FF08504A7E700BFF3
S31508016A100002C00370B50E461446054610B96FF05C
S31508016A20860070BD0029FAD03822002125F0E7FC3E
S31508016A30094B24F47E129A420AD13388B3F5105FC2
S31508016A4006D1C4F30543102BE9D800202C60E8E7EA
S31508016A506FF08500E5E700BF0002C003F0B50F46F9
S31508016A6016461D4604468BB088B302B97BBB202265
S31508016A70002102A825F0C3FC02A81AF0C8FF20B11C
S31508016A806FF0920420460BB0F0BD2368114A23F437
S31508016A907E13934215D135B9002402A81AF0C1FF15
S31508016AA00028EFD0ECE733463A46009502A9201DA7
S31508016AB0FEF76EFD012807D00028EDD06FF092048D
S31508016AC0EBE76FF08804E8E76FF08B04E5E76FF012
S31508016AD08604D7E70002C0032DE9F0418CB0884649
S31508016AE016461D460446129F002840D0002A3ED06D
S31508016AF0002B3CD0002F3AD0102B036828BF102555
S31508016B0013F47C1FC3F3054202D0954228BF1546EC
S31508016B101A4A23F47E1393422CD12022002104A879
S31508016B2025F06DFC002304A8CDE90033CDE9023335
S31508016B301AF06DFF40B96B46424604A9201DFEF7BF
S31508016B40A3FC30B100233B606FF092000CB0BDE8A6
S31508016B50F08104A81AF065FF04460028F2D12A46F6
S31508016B606946304625F056FC20463D60EEE76FF053
S31508016B708600EBE76FF08800E8E700BF0002C00374
S31508016B802DE9F0410E4617469846044600B3F9B179
S31508016B90F2B19822002125F032FC3146069A04F119
S31508016BA06000FFF737FF0546A0B923464246394636
S31508016BB03046FFF7B7FD054660B97288D208A2F1DB
S31508016BC010011029E26503D80A4BCB40DB0704D430
S31508016BD06FF086052846BDE8F08163691C32934249
S31508016BE0F6D304F120031846216925F013FC206128
S31508016BF0F0E700BF010101000023C36001F138037A
S31508016C00036120230A6843618B6D0B4922F47E12C6
S31508016C108A42436003D001F580718A4208D1102B5C
S31508016C2001D0182B02D1036000207047202BFAD01F
S31508016C306FF08800704700BF0001C00307B5094B14
S31508016C4018689A889B7900906846ADF804208DF8F3
S31508016C500630FDF725FF0C20FDF75AFF002003B08B
S31508016C605DF804FB00DF030813B50024064A6846ED
S31508016C70536F43F00103536700948DF80440FDF701
S31508016C804DFE204602B010BD0040005030B58BB015
S31508016C906C46174D0FCD0FC40FCD0FC495E80300F1
S31508016CA084E80300134BD3F84C2112031CD5A3F532
S31508016CB0FE431C884FF6FF739C4208BF8C248DF84F
S31508016CC01940FDF76FFC204480F308008DF8180081
S31508016CD00948FCF70DFA6846FDF768FB3220FDF70F
S31508016CE0DBFC00200BB030BDD3F85041E4B2E6E737
S31508016CF008DF03080080E00FC017530230B5094DBD
S31508016D0087B001AC0FCD0FC42B6801A823603F23C0
S31508016D108DF80530FDF77CFC3220FDF7B7FC002025
S31508016D2007B030BD30DF03086FF00403502110B5FA
S31508016D300A480B4C13F0800F03F1010207D12344D3
S31508016D404C2A83F800131346F4D1002010BD03F032
S31508016D500F03043B034419761346EBE700ED00E005
S31508016D6000E100E038B500F0ADFF0446F0B901F0E6
S31508016D70F7F901F075F84FF4167343430C4A03F516
S31508016D80742303F23F23B3FBF2F30A21094A0A48A3
S31508016D9013600A4D0268013911F0FF0145F8043BF9
S31508016DA0F9D11A4403EBC30313440360204638BDE3
S31508016DB040420F00201D0020F01C0020F41C00207A
S31508016DC0012208B5034B1A701BF00CFF024B186021
S31508016DD008BD00BFEA2A0020EC1C002010B501F00E
S31508016DE03FF804461AF07CFC844207D91BF008FFD9
S31508016DF020B10122024B1860024B1A7010BD00BF68
S31508016E00EC1C0020EA2A0020F8B51C4C2378D3B1E3
S31508016E101BF0E8FE1A4B1B4D1B68C01A012838BF28
S31508016E200120286001F01CF84FF416735843164BDD
S31508016E3000F5742000F23F20B0FBF3F02968814287
S31508016E4002D900232370F8BD104D114E2B78114F2E
S31508016E5056F8232046F82310501A0A213A680133B6
S31508016E60121A3A600932B2FBF1F20B48DBB2026040
S31508016E70B3FBF1F201FB12332B70E2E7EA2A002099
S31508016E80EC1C00201C1D002040420F00EB2A0020AC
S31508016E90F41C0020F01C0020201D0020014B18685E
S31508016EA0704700BF201D002020234FF480120421C3
S31508016EB010B50F4C0F4884F82C330F4B5A660F4BFD
S31508016EC003F5005250675167106711674FF48052F6
S31508016ED0C4F8842162609A18506751679A6A22F049
S31508016EE000729A629A6A42F480529A6210BD00BF91
S31508016EF000E100E0010000A0009000500040005AA7
S31508016F00044B9A6D12F0050F02D10028F9D170478A
S31508016F10012070470040005A154B10B51C6F14F03C
S31508016F2004020FD003F500531A6708229A62FFF785
S31508016F3055FF00F0FFFB00F0DFFB012001F0BEF872
S31508016F401BF060FEE30706D501220A4B1A67FFF715
S31508016F505BFF00F0D1FB14F000521CBF054B1A670A
S31508016F60002CBEBF4FF00042024B1A6710BD00BF8E
S31508016F700040005A0060005A10B504461AF07BFC1E
S31508016F80024B1C601AF07BFC002010BD241D00205A
S31508016F9010B51AF070FC034B1C681AF070FC2046F9
S31508016FA010BD00BF241D0020034B022218680023D0
S31508016FB08068194619F070BD140C0020BFF35F8F65
S31508016FC0074B5A6A22F480325A62D3F8942022F087
S31508016FD00102C3F89420BFF34F8FBFF36F8F704739
S31508016FE000ED00E070B52948294CFFF7E7FF844218
S31508016FF0284D294919D1D5F8C03023F0FF0343F0AC
S31508017000A003C5F8C0304FF080430A68214D234ECE
S31508017010C5F8982043F0010301328442C5F89C6003
S31508017020C5F8A0300A601ED00DE0D5F8C02020F0C2
S315080170301F03203B22F0FF0242F0A002B3F1005FDA
S31508017040C5F8C020E1D2164B0A68124823F01F037F
S3150801705043F00303C0F89820C0F89C30114B013265
S31508017060C0F8A0300A60BFF35F8F0522094BC3F849
S3150801707094205A6A42F480325A62BFF34F8FBFF3A3
S315080170806F8FBFF34F8FBFF36F8F70BD1C0D00203D
S31508017090C80E002000ED00E0281D00200300002096
S315080170A0E70E0020E1FFFF3FF8B51446FFF786FF1C
S315080170B01F2C27D90027C2062A4D1CBF20F01F0006
S315080170C020302A68CB06284B18BF21F01F01FCB2D5
S315080170D0A2422BD8D3F8C04020F01F0024F47F44E5
S315080170E044F4807421F01F01C3F8C04040F0030046
S315080170F0C3F8982041F003010132C3F89C00C3F894
S31508017100A0102A600020BFF35F8F0522164BC3F833
S3150801711094205A6A42F480325A62BFF34F8FBFF302
S315080171206F8FBFF34F8FBFF36F8FF8BDC3F89840CA
S31508017130D3F89C40D3F8A06024F01F04A04226F09F
S315080171401F0601D1B142DDD0B04201D8A14207D212
S31508017150D3F89840013724F0FF04C3F89840B6E7FE
S315080171602820D0E7281D002000ED00E0BFF34F8F4F
S315080171700549064BCA6802F4E0621343CB60BFF3C4
S315080171804F8F00BFFDE700BF00ED00E00400FA05E0
S31508017190054B1A782AB95B78002B0CBF032002200D
S315080171A070470120704700BFF62A00200329F8B569
S315080171B098BF124B05460E468CBF00245C5C03281B
S315080171C005D8DFE800F002080B0E44F002040C4B68
S315080171D01F684FB9F8BD44F00804F8E744F02004E5
S315080171E0F5E744F08004F2E77B681A68144203D095
S315080171F0314628465B6898473F68EAE744DF030853
S31508017200581D002038B5104D2B78ABB10F4C23789B
S315080172101BB100F0CFFB00232370002000F0F2FB26
S315080172200B4C50B100F0F8FB0023012120782B709C
S31508017230FFF7BCFF0123237038BD0122054B1A70E5
S315080172402278054B1A70F7E7F12A0020EF2A002069
S31508017250F82A0020F22A0020F32A002010B51AF095
S315080172600AFB064B04461B781BB1BDE810401AF011
S3150801727006BBFFF7C7FF2046F7E700BFEE2A002047
S31508017280094A137830B101331370084B1B78012B67
S3150801729003D87047013B13707047054B1B780BB930
S315080172A0FFF7B0BF704700BFF62A0020F82A002072
S315080172B0F22A002070B51AF0DEFA134E0546337825
S315080172C0ABB900F0FFFC044620B128461AF0D7FAFC
S315080172D0204670BD00F02AFF0C481AF004FA00F0A7
S315080172E0F5FF0B4B1C6000F0BBFD0A4B186000F064
S315080172F055FA1BF0EEFB084B0024186001232846BB
S3150801730033701AF0BCFAE3E7F92A0020581D002069
S315080173102C1D0020541D0020301D00202DE9F843A6
S31508017320284A0138135C39B1274F01333978135488
S31508017330012904D8BDE8F883013B1354FAE7FFF79E
S3150801734027FF0128044635D81AF095FADFF8848014
S31508017350054698F8003013B31C4E33781BB9012241
S3150801736032701B4A1370DFF8709099F8003023B118
S3150801737000F020FB002389F8003028461AF07FFA2E
S31508017380012000F03FFB1AF076FA337805461BB167
S3150801739000F042FB00233370002388F800302846AA
S315080173A01AF06DFA3878A042C4D02146FFF7FEFEDE
S315080173B03C70BFE70329F5D10228F3D11BF08DFBF9
S315080173C0F0E700BFF62A0020F82A0020EE2A00205E
S315080173D0F22A0020F12A0020EF2A002010B50446DF
S315080173E01AF049FA002C0CBFFF210121064A13782D
S315080173F00B44DBB21370B3FA83F3BDE81040034ABA
S315080174005B0913701AF03BBAF52A0020F42A00200A
S3150801741038B51AF030FA094B05461B78012B04D802
S315080174201AF02DFA0024204638BD054B1C6800F0D9
S315080174304DFB044428461AF022FAF4E7F82A0020FC
S315080174402C1D002038B5416004461AF014FA054689
S31508017450214604481AF04AF92846BDE838401AF088
S315080174600EBA00BF581D0020054B1B685843054B33
S3150801747000F5742000F23F20B0FBF3F0704700BF1F
S31508017480541D002040420F002DE9F04F85B0EFF35F
S31508017490108772B6AFF300801AF080F800286FD013
S315080174A0804EDFF82C82337823B10020FFF7E8FEFF
S315080174B000233370FFF76CFE0446002867D0841E4C
S315080174C0E4B2012C6AD9FFF763FE01280546764C1A
S315080174D0DFF8009200F28C802078854240F0C68061
S315080174E0207800F0DDFA99F8003013B16F4B1B785C
S315080174F02370AFF3008007B962B6EFF3108772B64F
