S0100000626C696E6B795F6F672E73333726
S31508012000C00A0020FD410108B7E80208B7E802083E
S3150801201061FB0208B7E80208B7E80208B7E8020850
S31508012020B7E80208B7E80208B7E80208B7E80208FD
S31508012030B7E802088C7F030815E00208B7E802082A
S31508012040B7E80208B7E80208B7E80208B7E80208DD
S31508012050B7E80208B7E80208B7E80208B7E80208CD
S31508012060B7E802084530010817E10208B7E802088F
S31508012070B7E80208B7E80208B7E80208B7E80208AD
S31508012080B7E80208B7E80208B7E80208B7E802089D
S31508012090B7E80208D14B0108B7E80208B7E8020811
S315080120A0B7E80208D14D0108AD4D0108B7E80208A5
S315080120B0B7E802085DB10208E9BB0208AD67030883
S315080120C0A967030891B30208B9670308B16703084A
S315080120D0C1BB0208B567030829BC020895BC0208FA
S315080120E0B7E80208B7E80208B7E80208B7E802083D
S315080120F057F70208B7E80208B7E80208B7E802087E
S31508012100B7E80208B7E80208B7E80208B7E802081C
S31508012110B7E80208B7E80208B7E80208B7E802080C
S31508012120B7E80208B7E80208B7E80208B7E80208FC
S31508012130B7E80208B7E80208B7E80208B7E80208EC
S31508012140B7E80208B7E80208B7E80208F7FC020888
S31508012150F5990208B7E802083F64030845640308CD
S31508012160B7E80208B7E80208B7E80208B7E80208BC
S31508012170013800D0FCE77047D0B51BA7D7E900673F
S315080121802DED028B04469FED1A8AD4ED007AF4EE02
S31508012190C87AF1EE10FA0EDA13A7D7E900679FEDB0
S315080121A0158AD4ED007AF4EEC87AF1EE10FA0ED457
S315080121B0BDEC028BD0BD17EE900A19F045FF3246E9
S315080121C03B4619F0E1FD19F097FF2060DDE717EEB0
S315080121D0900A19F039FF32463B4619F0D7FD19F036
S315080121E08BFF2060DDE700BF182D4454FB21194001
S315080121F0DB0F4940DB0F49C0002370B5404C05464B
S315080122008AB0E36318B1008823600CF04BFD3D48A2
S3150801221023F043FE3C4E3D4B304633603C4B7360E6
S3150801222020F06FFF0021304612F040FF32A3D3E9B8
S315080122300023A062C4E9062320F06EFFD4E9062331
S3150801224019431043C4E90601CDE900014FF0FF33F4
S315080122504FF0FF32A06A23F06DFE02224FF0FF31E4
S31508012260A06A23F06CFE01200CF09EFA4FF400736D
S3150801227000222849A06A23F0B3FEB0F5007F38D1C1
S3150801228000239422CDE9073309933C23CDE9033290
S3150801229005939623A06A03A9069313F025F835B387
S315080122A0287C0CF07DFE0546F0B9A06A23F079FF7B
S315080122B00CF024FE0CF05AFA20B14FF4807000217C
S315080122C00AF0CCFA0CF062FA20B14FF40060002152
S315080122D00AF0C4FA20F0E3FF012012F03BFF0E4A90
S315080122E00E49A06A20F00BFF28460AB070BDFF20F0
S315080122F0D7E70725F8E700BF0DD5015520000000EF
S31508012300600F0020690345EC242300202DE601080F
S315080123103423002024210020A7300308E7300308CE
S315080123200348044B834202D0034B03B11847704755
S31508012330F00E0020F00E002000000000064B0749B1
S31508012340C91A891048BF0131491003D0044B0BB192
S3150801235001481847704700BFF00E0020F00E002014
S315080123600000000010B5064C237843B9FFF7D8FFE3
S31508012370044B13B10448AFF300800123237010BD49
S31508012380E82A002000000000A0D6030808B5054B7E
S315080123901BB105490548AFF30080BDE80840FFF7C2
S315080123A0CDBF00BF00000000D0110020A0D6030851
S315080123B0A3F5803A704700BF174B002B08BF134B94
S315080123C09D46FFF7F5FF00218B460F461348144A31
S315080123D0121A24F0C4FA0E4B002B00D098470D4B65
S315080123E0002B00D098470020002104000D000D485D
S315080123F0002802D00C48AFF300801AF0C1FA200079
S3150801240029001BF0FBFD1AF05FF800BF0000080069
S315080124100000000000000000C00A0020F00E0020A5
S31508012420042C00200000000000000000154B37B501
S3150801243018681CF060FA08B1012820D18DF8070048
S31508012440012200211D200DF107030FF069F804464A
S3150801245090B9032001F0CEF870B10B4D0B492868ED
S315080124601DF0C6F91BF0AAFE1BF0A9FE9DF8072070
S31508012470074928681DF0BCF9204603B030BD012480
S31508012480FAE700BFCC0A0020A4120020A0760308B0
S31508012490A576030830B585B00DF10B05012200219B
S315080124A01D20009503AB0FF009F8044668B92A46C2
S315080124B001211D200FF08EF8044630B9044B9DF812
S315080124C00B20044918681DF093F9204605B030BD64
S315080124D0A4120020C6760308114B10B518681CF023
S315080124E013FA1BF068FE01F0F1FCB2EE040A01F0E2
S315080124F01FFD01F09DFD012001F07CF870B1094C2A
S31508012500094920681DF074F91BF058FE1BF057FEA7
S3150801251020680649BDE810401DF06AB910BD00BF24
S31508012520CC0A0020A4120020F4760308F9760308E1
S3150801253070B588B001F090FD02A801F03FFD0320B7
S3150801254001F058F898B1814C814920681DF050F97D
S315080125501BF034FE1BF033FEBDF90C30BDF9082023
S3150801256000937C49BDF90A3020681DF041F97A4C7F
S315080125702378002B34D0012001F03CF860B1734D6B
S31508012580764928681DF034F91BF018FE1BF017FE72
S31508012590734928681DF02CF900232370FFF746FFBD
S315080125A0044618B9FFF776FF0446C8B1012001F0C1
S315080125B021F8A8B1654D694928681DF019F91BF07C
S315080125C0FDFD1BF0FCFD67492346674A28681DF097
S315080125D00FF9204601F054F8644928681DF008F9F6
S315080125E01DF059FB624E04463368C51A642007F08C
S315080125F0B3F9854268D30120346000F0FBFF60B16E
S31508012600524C564920681DF0F3F81BF0D7FD1BF014
S31508012610D6FD584920681DF0EBF801F01DFD04A808
S3150801262001F0CCFC049B06220693BDF81430002168
S31508012630ADF81C30242006AB0EF072FF04460028C4
S3150801264044D1032000F0D6FF98B1404C4049206898
S315080126501DF0CEF81BF0B2FD1BF0B1FDBDF914302B
S31508012660BDF9102000934449BDF9123020681DF0C8
S31508012670BFF801F0F1FC04A801F0A0FC049B0621B7
S315080126800693BDF81430242006AAADF81C300EF0C6
S31508012690A1FF0446002847D1032000F0ABFF98B1FB
S315080126A02A4C2B4920681DF0A3F81BF087FD1BF067
S315080126B086FDBDF91430BDF9102000932F49BDF9E7
S315080126C0123020681DF094F808B070BD012000F0A2
S315080126D091FF68B11D4D214928681DF089F81BF045
S315080126E06DFD1BF06CFD2246254928681DF080F812
S315080126F0012000F07FFF0028E6D0144D174928680D
S315080127001DF076F81BF05AFD1BF059FD23461D4AAC
S31508012710144928681DF06CF8204600F0B1FF1349EA
S3150801272028681DF065F8CFE7012000F063FF00284F
S31508012730DED0064D094928681DF05AF81BF03EFD02
S315080127401BF03DFD22461049CFE700BFA412002029
S31508012750A076030823770308E92A0020F4760308FC
S315080127604E7703087F7703087C77030814790308F3
S31508012770E8110020947703089B770308F977030883
S31508012780C777030853780308227803087FB50368D7
S31508012790AF4A23F47F4323F00703934200F0AA814B
S315080127A00AD8A2F5102293422AD002F5A022934212
S315080127B000F0FE8004B070BDA64A934200F00A817B
S315080127C002F101729342F5D1B0F805301D2BF1D112
S315080127D003890320DB0740F1008200F00BFF002884
S315080127E000F0C1809C4C9D4920681DF001F81BF042
S315080127F0E5FC1BF0E4FC9A4920681CF0F9FFB2E0FD
S31508012800984E30460EF0E6FD054618B3924C9649A9
S3150801281020681CF0EDFF954920681CF0E9FF1BF0C4
S31508012820CDFC1BF0CCFC924B924A009392494FF493
S315080128308B7320681CF0DCFF90492B46904A206870
S315080128401CF0D6FF284600F01BFF8E4920681CF0B5
S31508012850CFFFFEE7022130780EF0F6FD044618B3E5
S315080128607D4D814928681CF0C3FF804928681CF002
S31508012870BFFF1BF0A3FC1BF0A2FC7D4B7D4A009316
S315080128807D4940F21B1328681CF0B2FF7B49234699
S315080128907B4A28681CF0ACFF204600F0F1FE794916
S315080128A028681CF0A5FFFEE7A02200900346114602
S315080128B030780EF0A7FD054618B3674C6A492068BB
S315080128C01CF096FF694920681CF092FF1BF076FC04
S315080128D01BF075FC664B674A009367494FF4927380
S315080128E020681CF085FF65492B46654A20681CF05F
S315080128F07FFF284600F0C4FE624920681CF078FF75
S31508012900FEE7022130780EF0B3FD054618B3524CA6
S31508012910554920681CF06CFF544920681CF068FF73
S315080129201BF04CFC1BF04BFC514B524A009352498D
S3150801293040F2291320681CF05BFF50492B46504A88
S3150801294020681CF055FF284600F09AFE4D4920687C
S315080129501CF04EFFFEE74C4B18681BF0D1FFFFF742
S3150801296065FD044628B9FFF795FD044600283FF49E
S3150801297021AF012000F03EFE00283FF41BAF364D83
S31508012980424928681CF034FF1BF018FC1BF017FCA1
S315080129903A4923463A4A28681CF02AFF204600F09D
S315080129A06FFE3B49286804B0BDE870401CF020BFA3
S315080129B0032000F01FFE00283FF4FCAE264C2749F1
S315080129C020681CF015FF1BF0F9FB1BF0F8FB3149D9
S315080129D02068E8E7032000F00DFE60B11E4C1F4990
S315080129E020681CF005FF1BF0E9FB1BF0E8FB2A49F0
S315080129F020681CF0FDFE1B4C022120780EF024FDF8
S31508012A00054600284AD0144C174920681CF0F0FEE8
S31508012A10164920681CF0ECFE1BF0D0FB1BF0CFFB1F
S31508012A20134B144A0093144940F2471320681CF0CB
S31508012A30DFFE12492B46124A20681CF0D9FE2846A9
S31508012A4000F01EFE0F4920681CF0D2FEFEE700BF0B
S31508012A50A0000A00A0000601A4120020A07603081F
S31508012A60E0780308160D002013790308597803083E
S31508012A70157903085E780308677803087F770308E2
S31508012A807C77030873780308CC0A0020F4760308D8
S31508012A9014790308847803089878030802212078B2
S31508012AA00EF0E6FC054600283FF484AE534C544923
S31508012AB020681CF09DFE534920681CF099FE1BF006
S31508012AC07DFB1BF07CFB504B504A009350494FF459
S31508012AD0A67320681CF08CFE4E492B464E4A206888
S31508012AE01CF086FE284600F0CBFD4C4920681CF0F8
S31508012AF07FFEFEE7B0F805001B287FF45BAE0DF1FB
S31508012B000B0300930122002103AB0EF0D7FC044608
S31508012B10C8B99DF80B30002B32D1414B18681BF010
S31508012B2038FF032000F066FD00283FF443AE334C1E
S31508012B303C4920681CF05CFE1BF040FB1BF03FFB88
S31508012B403949206819E0012000F054FD00283FF4B6
S31508012B5031AE2A4D354928681CF04AFE1BF02EFB7A
S31508012B601BF02DFB2B4923462B4A28681CF040FEF7
S31508012B70204600F085FD2E4928681CF039FE19E625
S31508012B80012B14D1264B18681BF000FF032000F017
S31508012B9031FD00283FF40EAE184C224920681CF07E
S31508012BA027FE1BF00BFB1BF00AFB2249C9E7012094
S31508012BB000F020FD00283FF4FDAD104C1B492068AC
S31508012BC01CF016FE1BF0FAFA1BF0F9FA9DF80B2019
S31508012BD0194920681CF00CFEECE500F00BFD0028F5
S31508012BE03FF4E8AD054C0F4920681CF001FE1BF0C7
S31508012BF0E5FA1BF0E4FA1149EAE600BFA41200203F
S31508012C001379030859780308157903085E780308C8
S31508012C10677803087F7703087C77030873780308C6
S31508012C20D00A0020A0760308AC780308F4760308D6
S31508012C3014790308B6780308BF780308FD780308F2
S31508012C40034B1B68834202BF0122024B1A7070476D
S31508012C50CC0A0020E92A002030B503687C4A23F40F
S31508012C607F4323F00703934289B040F0EE800822A0
S31508012C7000211220774B0EF053FC044610B3764D13
S31508012C80764928681CF0B4FD754928681CF0B0FD22
S31508012C901BF094FA1BF093FA724B734A009373492B
S31508012CA03D2328681CF0A4FD71492346714A28680A
S31508012CB01CF09EFD204600F0E3FC6F4928681CF0D5
S31508012CC097FDFEE70146032214206C4B0EF028FC03
S31508012CD0044610B3604D614928681CF089FD6049B6
S31508012CE028681CF085FD1BF069FA1BF068FA5D4B34
S31508012CF05D4A00935D494B2328681CF079FD5C49C0
S31508012D0023465C4A28681CF073FD204600F0B8FC8F
S31508012D10594928681CF06CFDFEE701460522162074
S31508012D20574B0EF0FDFB054610B34B4C4B4920683B
S31508012D301CF05EFD4A4920681CF05AFD1BF03EFA5C
S31508012D401BF03DFA474B484A0093484959232068E6
S31508012D501CF04EFD46492B46464A20681CF048FDA4
S31508012D60284600F08DFC444920681CF041FDFEE729
S31508012D700DF10F0104A80EF043FC044610B3364DBD
S31508012D80364928681CF034FD354928681CF030FDA1
S31508012D901BF014FA1BF013FA324B334A00933349EA
S31508012DA0642328681CF024FD31492346314A2868E2
S31508012DB01CF01EFD204600F063FC2F4928681CF014
S31508012DC017FDFEE7BDF8143001465BBAADF81830B9
S31508012DD09DF8133008228DF81A30FF238DF81B3021
S31508012DE0FE238DF81C309DF8123018208DF81D3001
S31508012DF0BDF810305BBAADF81E3006AB0EF090FB8D
S31508012E00054610B3144C154920681CF0F1FC144909
S31508012E1020681CF0EDFC1BF0D1F91BF0D0F9114B21
S31508012E20114A00931149742320681CF0E1FC1049EA
S31508012E302B46104A20681CF0DBFC284600F020FCD3
S31508012E400D4920681CF0D4FCFEE709B030BD00BF6F
S31508012E50A000010024790308A412002013790308AD
S31508012E60597803085F7903082D79030867780308F9
S31508012E707F7703087C770308737803085579030875
S31508012E805979030810B5274C02F0BCFC02F014FF6F
S31508012E90236F23F0070343F0030323671BF0FEFDAB
S31508012EA0214B00209B6ADB015EBF4FF480321F4B2A
S31508012EB09A62D4F8203123F0070343F00203C4F8D9
S31508012EC02031D4F8283123F0070343F00203C4F86C
S31508012ED02831D4F8403123F0030343F00203C4F840
S31508012EE04031D4F8603123F0030343F00203C4F8F8
S31508012EF06031D4F8403223F0030343F00203C4F8E7
S31508012F004032D4F8003223F0070343F00203C4F831
S31508012F100032D4F8083223F0070343F00203C4F859
S31508012F20083210BD008000500040005A0060005A67
S31508012F3030B5204D95B00DAC0FCD0FC495E80700FF
S31508012F40292384E807001C4A0024CDE90223052326
S31508012F50CDE904448DF81130062321460E220DF1E0
S31508012F6026008DF81330069423F0F9FC4FF48021DE
S31508012F70124B0DAACDE9071309238DF824300A232C
S31508012F808DF825300E4B07A90A9320230B930123AD
S31508012F908DF831300B4B0C48009302AB05F0BEFCA3
S31508012FA0054621464FF4E1301BF057F9284615B07E
S31508012FB030BD00BF2C7D030800C0055024C0055054
S31508012FC0EA2A0020EC11002040120020831E012B62
S31508012FD010B512D8012922D8114B04221B6C0521E0
S31508012FE00020C3F3401303F009FA0E4B1B68186857
S31508012FF0A8B1BDE81040436A18478B1E012B0CD8AF
S3150801300001280CD8BDE810400022054B05211B6C90
S315080130101046C3F3401303F0F1B90129E5D910BDF0
S3150801302000C00350C00A002008B50449044805F049
S315080130307FFFBDE80840FFF77BBF00BFC40A002039
S315080130406412002001481CF041BD00BF4012002057
S31508013050014B1A6A186810474012002001481BF0F4
S3150801306045BC00BF487D030801481BF08CBC00BF66
S31508013070607D0308102337B58DF80430214B224DA6
S315080130801B788DF80530214B1B788DF806302B7887
S31508013090012B22D0022B22D0D3B91D4803222A2183
S315080130A0007801AB0EF080FA044698B1012000F0D1
S315080130B0A1FA68B1174D184928681CF099FB1BF04D
S315080130C07DF81BF07CF82246144928681CF090FB11
S315080130D003B030BD01232B70FAE70223FBE7012079
S315080130E000F088FA0028F3D00A4C0B4920681CF036
S315080130F07FFB1BF063F81BF062F8094920681CF096
S3150801310077FBE5E70C2B00200A2B00200B2B002070
S31508013110112B0020A4120020F4760308787D0308F9
S31508013120AE7D030838B52A4B1B78002B4ED0294CA7
S31508013130294D214628461BF032F848B1112845D1B8
S3150801314047F6FF732B8023806B806380AB80A38057
S31508013150224B1B78D3B12248062224211D4B007825
S315080131600EF00CFA044688B1012000F043FA68B162
S315080131701C4D1D4928681CF03BFB1BF01FF81BF072
S315080131801EF82246194928681CF032FB184B1B7891
S31508013190E3B11348062227210F4B00780EF0EEF90A
S315080131A0044698B1012000F025FA78B10D4D0E4973
S315080131B028681CF01DFB1BF001F81BF000F82246DD
S315080131C028680A49BDE838401CF012BB38BD00BF63
S315080131D0102B00208E2A0020882A00200F2B002081
S315080131E0112B0020A4120020F4760308D97D0308C8
S315080131F00E2B0020084908B50978084B1A7849B9F1
S315080132000749087800F001009042187001D01AF0B9
S31508013210CAFF08BD0120F5E70F2B0020102B00205F
S315080132200E2B00200368564A23F47F4323F0070335
S31508013230934273B504464DD002F18072934211D080
S31508013240A2F10172934243D100234E4A13704E4AAA
S3150801325013704E4A13704E4A137002B0BDE870409F
S31508013260FFF7C8BFC379012B22D1B0F80530242B4B
S3150801327008D10389474A0179003B117018BF012318
S31508013280404AE9E7272B0AD02A2B21D10389414A4B
S315080132900179003B117018BF01233C4ADCE7038919
S315080132A03C4A0179003B117018BF0123364AD3E71E
S315080132B0022B0DD1B0F805302A2B09D1344C2378CD
S315080132C0022B03D100232370FFF7D4FE00232370BA
S315080132D002B070BDB0F805302A2BF9D1837A012BDB
S315080132E043D12A4B1B78002B41D0C57A2A4B2B4E4A
S315080132F01D7002239D42337034D0642D32D0012DC6
S3150801330002D11AF04EFF58B300263246B4F805101A
S3150801331020790EF01BF9054658B3214C214920683E
S315080133201CF066FA204920681CF062FA1AF046FF7A
S315080133301AF045FF1D4B1E4A00931E49D4232068E7
S315080133401CF056FA1C492B461C4A20681CF050FAF8
S31508013350284600F095F91A4920681CF049FAFEE753
S315080133603570D1E701233370CEE70D26CDE78126E7
S31508013370CBE7002EACD102B0BDE87040FFF77ABEAC
S31508013380A0000A020F2B00200E2B00200D2B002077
S315080133900A2B0020112B00200C2B00200B2B0020C0
S315080133A0A41200201379030859780308807E0308BC
S315080133B0117E0308677803087F7703087C7703087B
S315080133C073780308184B37B583422AD1174B1B78F4
S315080133D03BB3C8B20EF060F8054610B3144C154954
S315080133E020681CF005FA144920681CF001FA1AF045
S315080133F0E5FE1AF0E4FE114B114A009311498523A3
S3150801340020681CF0F5F910492B46104A20681CF073
S31508013410EFF9284600F034F90D4920681CF0E8F95F
S31508013420FEE703B030BD00BF6C120020122B00204E
S31508013430A41200201379030859780308047F0308A6
S31508013440927E0308677803087F7703087C77030869
S315080134507378030830B500250368584A23F47F4377
S3150801346023F0070385B0934204460295ADF80C5044
S315080134707ED002F5802293420ED0A2F18272934247
S3150801348040F09A804E4B1B78002B00F0958005B0D2
S31508013490BDE830401CF07CBCB0F80530212B40F06B
S315080134A08B80FF2304A91A4611E903001AF07CFE52
S315080134B0012814BF41F2FC15414B05F0FC0208BF77
S315080134C01870212120790EF041F8054610B33D4CBC
S315080134D03D4920681CF08CF93C4920681CF088F9A4
S315080134E01AF06CFE1AF06BFE394B3A4A00933A49C8
S315080134F0592320681CF07CF938492B46384A20683C
S315080135001CF076F9284600F0BBF8364920681CF00D
S315080135106FF9FEE7344900902379344A096834483B
S3150801352000F008F90546002846D0264C26492068A9
S315080135301CF05EF9254920681CF05AF91AF03EFE7E
S315080135401AF03DFE224B234A009323496223206841
S315080135501CF04EF921492B46214A20681CF048F9EE
S31508013560284600F08DF81F4920681CF041F9FEE74E
S31508013570B0F80530B7EE047A07EE903AF8EE677AB6
S31508013580B0F8073067EE877A013307EE103AB8EEDE
S31508013590C77A67EE877AB1EE047A67EE877AFAFE1A
S315080135A0677AFCEEE77A17EE903AB3F57A7F38BF79
S315080135B04FF47A730C4A136005B030BDA0000602B9
S315080135C0122B0020A4120020137903085978030846
S315080135D0137F0308927E0308677803087F77030839
S315080135E07C77030873780308D40A0020C5330108D9
S315080135F06C1200200B4B02461B7883B10A4B1B78D1
S31508013600834234BF00200120084B1B7833B1084B95
S315080136101B78134113F0010F08BF002070470120E2
S31508013620F2E700BF1C0D00201B0D0020132B002004
S315080136301A0D0020012208B5074B1A700022074B04
S315080136401A700422064B1A701F22064B1A7004F0D0
S3150801365061FF054B186008BD1C0D0020132B0020C7
S315080136601B0D00201A0D0020A4120020024B03494D
S3150801367018681CF0BDB800BFA4120020337F0308E8
S3150801368070B50C4C0C49064620681CF0B1F804F0DC
S3150801369041FF0546206804F031FF3046FFF7E6FF93
S315080136A0284604F02BFF20680449BDE870401CF049
S315080136B09FB800BFA4120020357F0308377F03088F
S315080136C038B505461BF006FA00230B4A14685CB1A7
S315080136D0AC4206D1A96A6BB199621BF001FA0120C5
S315080136E007E02346A46AF2E7002DF3D01BF0F8F9A8
S315080136F0204638BD1160F0E7A812002010B504462F
S3150801370098B106F08FF82046FFF7DAFF10B194F862
S315080137102C300BB9002010BD1BF0DCF9044A1368E4
S31508013720013B13601BF0DCF9F4E72220F3E700BF45
S31508013730AC1200202DE9F04385B00546914698461E
S315080137400E469DF8307009B9002F5CD12846FFF75F
S31508013750D5FF0446002836D185F82C00686306F0A3
S3150801376083F9864233D906F0F1F82146844640F2B8
S31508013770E7304FF47A720023E6FB0C0118F00CFDD2
S315080137804FF0FF32002318F007FD2B46E886114655
S315080137902846CDE900441D4A1CF058FA044690B95A
S315080137A0C5E9089885F82D702E631BF093F9184A18
S315080137B0136833B31A469B6A002BFBD19562002323
S315080137C0AB621BF08DF9204605B0BDE8F08347B121
S315080137D02B4631462846CDE900440C4A06F008F93D
S315080137E0DCE7304603A906F0E5F804460028EAD1E5
S315080137F02B462846CDE90077044A03991CF002FABC
S31508013800CCE71560DBE72124DDE700BF15380108A1
S31508013810A812002091F82C3013B50C4683B98B8E6B
S31508013820CA8E93420ED243B9CDE9003320460B46E0
S31508013830104A4FF0FF311CF0C9F9A38E0133A38654
S3150801384002B010BD52B191F82D307BB1012300931E
S31508013850D1E908232046096BFFF76CFF0123064AC5
S3150801386084F82C30136801331360E9E7084605F03C
S31508013870D9FFF3E715380108AC1200202DE9F0410C
S31508013880144E336823B34FF00008134F1BF022F987
S3150801389005463C6824B92846BDE8F0411BF020B925
S315080138A094F82C3093B1336884F82C80013B33604B
S315080138B094F82D3013B92046FFF702FF28461BF06E
S315080138C00FF9D4E9083120469847DFE7A46AE1E70A
S315080138D0BDE8F081AC120020A8120020034B1B683A
S315080138E0002B14BF04200120704700BFAC12002032
S315080138F0024B1868B0FA80F040097047AC120020F4
S31508013900202808B513DC032804DC0138012806D968
S315080139100E200BE0094B0438C340DB07F8D5012319
S3150801392004220921022002F069FD002008BD402871
S31508013930EED1012304220821F4E700BF110000108B
S3150801394007B508201BF008F802238DF80030054B4F
S31508013950684601931AF045FC082003B05DF804EBAC
S315080139601BF005B8006A181070B5144680220C4B76
S315080139700D461A6440EA02010A481BF0F9F8094E95
S315080139802544AC4204D18022074B00201A6470BD3D
S31508013990002130461BF0ECF804F8010BF1E700BFF3
S315080139A000E0035000000A5000D00350F8B5802605
S315080139B00D46094C094F04F500531E6400F07F01BA
S315080139C038461BF0D5F804F58054294638461BF0CD
S315080139D0CFF800202664F8BD00C0035000000A5045
S315080139E070B5264C8EB0264601AD0FCE14340FC5E0
S315080139F00FCC06AD0FC594E80F0085E80F00204BE4
S31508013A000121039306AB05934FF480735720ADF854
S31508013A101C3001F0B5FC01213A2001F0B1FC00236C
S31508013A2004220321022002F0E9FC022100230846B0
S31508013A30012202F0E3FC002304220121022002F004
S31508013A40DDFC012304220721002002F0D7FC0D48E2
S31508013A5001A902F0B1FB0C4B0C4A0020C3F8CC2497
S31508013A604FF00212C3F8C424A2F58032C3F8C82461
S31508013A701C22C3F8B4240EB070BD00BF3C7F0308F6
S31508013A80A05A320000000A5000C003500200030089
S31508013A9010B52DED028B9FED188AB7EE007AC8EEA8
S31508013AA0007A77EEC77A9FED157AF4EEC77AF1EECA
S31508013AB010FA82B019DCF5EEC07AF1EE10FA17D4D5
S31508013AC0FCEEE77ACDED017A9DF8044019202146EE
S31508013AD0FFF76CFF631C00EE103AB8EEC00A88EED9
S31508013AE0000A02B0BDEC028B10BDF0EE477AE7E79B
S31508013AF0DFED037AE4E700BF00007A4400007F4364
S31508013B000000000013B5044601211B200DF1070230
S31508013B10FFF72AFF9DF8073003F01803102B0CD086
S31508013B2004D863B1082B0CD0012004E0182BFBD173
S31508013B30054B0020236002B010BD044BF9E7044B86
S31508013B40F7E7044BF5E700BF00007A3D0000FA3CB1
S31508013B500000FA3B00007A3C01212DE9F0430022DE
S31508013B6085B0804608461AF08FFC9FED6D0AFFF76F
S31508013B708FFF05201AF0C8FB00201AF072FC684670
S31508013B80FFF7C0FF322005F0F9FE40211A20FFF7A2
S31508013B900DFF44216A20FFF709FF78212320FFF74B
S31508013BA005FF052005F0EAFE0221722001AAFFF7AA
S31508013BB0DBFEBDF804305BBA9BB2B3F5FC7FF0D3EC
S31508013BC07822002123201AF063FB0221722001AA20
S31508013BD0FFF7CAFE4FF000090C23BDF804704C46E6
S31508013BE07FBABFB2B7FBF3F74D464E461FFA89F3C4
S31508013BF0BB4278D396FBF7F607EE906A9DED007AFD
S31508013C00F8EEE77A95FBF7F567EE877AC8ED007A5D
S31508013C1007EE905AF8EEE77A94FBF7F467EE877A9F
S31508013C20C8ED017A07EE904AF8EEE77A67EE877AE9
S31508013C3001AAC8ED027A02211320FFF795FE9DF924
S31508013C4004309DF8058001AA0221152048EA0328B7
S31508013C50FFF78AFE9DF904309DF8057001AA022135
S31508013C60172047EA0327FFF77FFE002E9DF9042058
S31508013C709DF80530B8BF0336002DA8EBA606B8BFD8
S31508013C800335002C43EA0223B8BF0334C6F30721E0
S31508013C901320A3EBA404A7EBA505FFF787FEF1B252
S31508013CA01420FFF783FEC5F307211520FFF77EFED3
S31508013CB0E9B21620FFF77AFEC4F307211720FFF7AA
S31508013CC075FEE1B21820FFF771FE402200216A2035
S31508013CD01AF0DEFA0022114610461AF0D5FB00202A
S31508013CE005B0BDE8F08301AA0C217420FFF73CFE5C
S31508013CF09DF90A209DF80B3009F1010943EA0223CF
S31508013D001E449DF90C209DF80D3043EA02231D44FB
S31508013D109DF90E209DF80F3043EA02231C4465E7FE
S31508013D2000007A44B7EE007AC7EE007A9FED057A6D
S31508013D30C0ED157AC7EE007A80ED140AC0ED167A41
S31508013D40704700BF35FA8E3CF0B52DED048B0F4652
S31508013D5000F15C050446D0ED098A90ED0A9AD0ED8A
S31508013D600B9A85B028461646B0EE408A1AF033FDFE
S31508013D70002F48D094ED097ADFED386AB4EEE67A79
S31508013D80F1EE10FA3FDBDFED367AB4EEE77AF1EEC3
S31508013D9010FA38D894ED0A7AB4EEE67AF1EE10FA0A
S31508013DA031DBB4EEE77AF1EE10FA2CD8F5EEC09ACB
S31508013DB0F1EE10FAF1EE688AB1EE490A04F16807E4
S31508013DC025DB19F02BF98DED010AB0EE680A19F019
S31508013DD025F9B1EE400A28463A4601A98DED020AAF
S31508013DE08DED038A1AF02FFD28461AF0E7FC0EB965
S31508013DF000236366D4ED147AB6EE000A284680EEEF
S31508013E00270A1AF000FD05B0BDEC048BF0BD19F0C8
S31508013E1005F99FED149A39EE400A8DED010AB0EEC7
S31508013E20680A19F0FBF838EE098AB1EE400A01A8CA
S31508013E308DED020A8DED038A1AF0C0FC3A46284632
S31508013E4001A91AF000FD28461AF0B8FCD4ED187A33
S31508013E50F1EE677AC4ED187AC9E700BFDA1B7CBFB1
S31508013E60DA1B7C3FDB0F494070B5044600F05AF86F
S31508013E700128054626D104F12406304600F0F2F859
S31508013E803146204604F144061AF021FC304600F07A
S31508013E90F7F8D4ED117AF1EE677AC4ED117AD4ED1B
S31508013EA0127AF1EE677A31462046C4ED127A1AF093
S31508013EB02AFC29462046BDE870409FED030A0022E8
S31508013EC0FFF742BF70BD00BF000000007FB50225A5
S31508013ED00E4E0F4835701AF0D8FB1AF0F1F9044660
S31508013EE060B90DF103001AF002FB044630B9032349
S31508013EF001A83370FFF730FE044610B11AF0BCF979
S31508013F0000252046357004B070BD00BF142B002073
S31508013F10B01200200022024B1A701AF0ADB900BF88
S31508013F20142B0020014B1878704700BF142B002072
S31508013F3070B501212DED028B0223B0EE408A1C4E8D
S31508013F4082B00022084633701AF09EFAB0EE480A8B
S31508013F50FFF79EFD174D082085ED000A1AF0E4F9D2
S31508013F6003201AF0D1F900201AF068FA00201AF095
S31508013F7078FA322005F002FD0F4C002101201AF0D3
S31508013F809CFA01A81AF0A7FA95ED000A20461AF03C
S31508013F909BFB95ED000A2046FFF7C4FE20461AF062
S31508013FA0CEFB0123337002B0BDEC028B70BD00BF9E
S31508013FB0142B002024130020B01200201A4AD36BB8
S31508013FC06BB392ED0C6A9FED197A07EE903A26EEDD
S31508013FD0076AF8EE677AC6EE276A92ED0D6AFDEE74
S31508013FE0E66A26EE076A16EE903AC6EE276AFDEEEF
S31508013FF0E66A038016EE903AD2ED0E6A66EE876A95
S3150801400086EEA77ABDEEC77A438017EE103A83800B
S3150801401000231363536393630023D36370470380B9
S3150801402043808380704700BFB012002000007A44A5
S31508014030002110B508461AF040FAFFF76BFFFFF7A3
S3150801404045FF0446034B93ED000AFFF771FF20462F
S3150801405010BD00BF241300200148FFF705BF00BFAC
S31508014060B0120020054A1278012A04D00022026003
S315080140704260826070471AF081B900BF142B002094
S31508014080054A1278012A04D0002202604260826041
S3150801409070471AF0A3B900BF142B00209FED060A3A
S315080140A000F10C03B0EC017AF1EC017A984207EEC3
S315080140B0270AF7D1704700BF000000002DE9F0413B
S315080140C0424D88B001AC0FCD0FC495E8070084E8CE
S315080140D00700012401213A2001F052F93C4E012141
S315080140E0292001F04DF93B4B304601A903938DF880
S315080140F0124002F0FBFB234604220321022002F0B0
S315080141007DF9022122460846002302F077F9234663
S3150801411021460422022002F071F9042200212346D5
S31508014120022002F06BF92C4D2C4B05F50058C5F809
S3150801413034374FF00213C5F8303703F58033C5F825
S3150801414038371C234FF44870C5F8203705F07AFE36
S3150801415005F580571420C8F8A04005F073FE232002
S31508014160C7F8A04005F06EFEB9213046C8F8A04050
S315080141701AF08EFD002303211A460220C7F8A04033
S3150801418002F03CF9002302211A46084602F036F9E4
S31508014190234621460022022002F030F90022234656
S315080141A01146022002F02AF9304602F01DFB0021D1
S315080141B02920C5F83417C5F83017C5F83817C5F8D2
S315080141C0201701F0DDF808B0BDE8F081707F03081B
S315080141D000C0055000127A0000C003500200010019
S315080141E00348044A0449121A92101AF065BB00BF23
S315080141F0E4DA0308E4DA0308042C002008B500F021
S315080142002FF8FFF7EDFF124B12498B4212D300200C
S31508014210114B12498B4218D3FEF7CEF8186850F89D
S315080142202240586840F82240013298688242F5D304
S315080142300C33EAE70022F8E71C6844F82200013249
S315080142405C68A242F8D30833E4E70022F8E700BF26
S31508014250A8D60308B4D60308B4D60308B4D6030807
S315080142604FF480414FF0FF30114B124A10B59A6056
S31508014270D3F8882042F47002C3F888200E4A916662
S315080142800E4901F5005210660D4850660220C3F822
S31508014290D000BFF34F8FBFF36F8F01244FF4403324
S315080142A00848C0F88041D36004600B6110BD00BFA7
S315080142B000ED00E000200108009000500080004455
S315080142C0F7FF370000E100E0014B1868704700BFAF
S315080142D0DC0A0020084B1B6F03F00703022B04D0EE
S315080142E0032B05D0012B05D0FEE7044B1868704750
S315080142F0034BFBE70348704700800050DC0A0020A7
S31508014300E40A0020002D310108B5FFF7E3FF054B4C
S315080143101B6FC3F303330133B0FBF3F0024B186091
S3150801432008BD00BF00800050D80A00200048704729
S3150801433000B4C404014B1868704700BFE40A0020A2
S31508014340054B1860054B1B6F03F00703032B01D1BF
S31508014350FFF7DABF704700BFE40A0020008000506B
S3150801436000487047002D31014FF0B4439868C0F3F7
S3150801437004400C280AD8DFE800F00B0909090909E5
S31508014380072119091B1D1F000F4870470020704798
S315080143909B6803F04073B3F1807F11D0B3F1007FBE
S315080143A010D00A4A002B08BF1046704708487047C4
S315080143B008487047084870470848704708487047D2
S315080143C00848704708487047405DC60000093D0027
S315080143D0C0EA210180BA8C010048E801005A62024C
S315080143E00024F40080841E0040420F00014B186827
S315080143F0704700BFE00A00204FF000639B6A10B5C2
S3150801440003F17842B2F5903F11D21968094A9142EF
S315080144100DD1094C227812F0FD0F01D0002010BDF4
S31508014420DB6998470028FAD101232370F6E74FF490
S315080144308170F4E707B0CD5E152B00204FF00053CD
S31508014440074A1A60BFF34F8F0649074BCA6802F439
S31508014450E0621343CB60BFF34F8F00BFFDE700BF98
S3150801446002020FF000ED00E00400FA050346054AD2
S315080144700549106803448B428CBF4FF0FF30136027
S31508014480704700BFE80A00200000042010B40A683B
S3150801449008461378022B10D014213023147913FB04
S315080144A0041307495B585179CB40DB4303F00103F9
S315080144B013705DF8044BFEF7C3BB5DF8044B7047F8
S315080144C030C00350F7B50468012105463A2000F0CB
S315080144D057FF002301226179207901F08FFF142209
S315080144E03023217913FB01231D4A99586379D94051
S315080144F0C943A37901F00101022B217017D100F0FC
S31508014500BDFB184A2B466179207900F0E1FBFF28AB
S31508014510024660790ED12A46124900F015FC01239C
S31508014520024661792079CDE9003301F00DFF0020BB
S3150801453003B0F0BD012627790023014600963846C7
S3150801454001F0C4FF2A460749607900F0FDFB002304
S31508014550617902462079009301963346E5E700BF63
S3150801456030C003508D44010802681378022B24D009
S3150801457014213023107913FB001310495B58517924
S31508014580CB40917903F00103012912D1508843EAFE
S3150801459040034FF6E07063F03F039BB2834202D1BA
S315080145A01170538070474FF6DF718B42F9D10021A4
S315080145B0F6E711B983F001031370704730C0035051
S315080145C008B501213A2000F0DBFE0123042203216C
S315080145D0002001F013FF00201AF0E3FA0122354BFF
S315080145E03549C3F844244FF40022A3F550335A66DB
S315080145F0324BD3F8FC20D20146D4D1F8803023F0CF
S31508014600030343F00203C1F880304FF4607000F0F1
S31508014610D1FE2A4B00F5D520D3F8F02000F2FC4054
S3150801462042F00102C3F8F020D3F8FC2042F0807270
S31508014630C3F8FC20224AA3F55D431A60214B0222E6
S31508014640B0FBF3F0204B01381861C3F8F0204FF4A2
S315080146508072C3F804234FF060431C4A0020C3F854
S31508014660B02F1B4AC3F8802ED3F8002E42F480726D
S31508014670C3F8002EFF2283F82020D3F8002E22F457
S315080146808072C3F8002E08BDD3F8FC2022F0807290
S31508014690C3F8FC20D1F8802022F0030242F002027E
S315080146A0C1F88020D3F8FC2042F08072C3F8FC20C0
S315080146B0ABE700BF00D003500080005000ED00E0DA
S315080146C0FF030040F8590D00000004E055CEACC5C3
S315080146D0090001004FF06043D3F8802E30B5D207A8
S315080146E015D501240B4D8440D5F8FC2042F0807283
S315080146F0C5F8FC20D3F8002E2243C3F8002E53F840
S315080147002020002AF0D003F82010002030BD112007
S31508014710FCE700BF00ED00E010B5012243780178FF
S31508014720847830209A40054B00FB01331CB903F508
S3150801473001531A6010BD03F58253FAE700C003500E
S3150801474010B5012243780178847830209A40054BC8
S3150801475000FB01331CB903F582531A6010BD03F53A
S315080147600153FAE700C003500122437801789A40C1
S3150801477030235943014B5A50704700BF40F003504C
S31508014780102130230246007813FB001305495B58B4
S315080147905178CB4003F0010093780BB980F0010002
S315080147A0704700BF30C003502DE9F04F9A46564B6B
S315080147B085B01B7806460F461546DDF83C909DF8F0
S315080147C044B0DDF85080002B00F09780072A00F2EC
S315080147D096800E9B002B00F09280B9F1000F00F035
S315080147E08E80129BB3F5006F00F38980012803D1EF
S315080147F0109B002B00F08380444B03EB05131B7BB6
S31508014800002B7ED0424C10220021684622F0A7F8E0
S3150801481004EB45141022A7BB3946204622F09FF81F
S3150801482043F210036380BBF1000F03D1E37843F031
S315080148300303E370364A0E9B02EB451CCCE9019350
S31508014840129B6901581E9DF84C30C0F30A0003F00B
S3150801485003039B0643EA001E53582E48012E00EA1D
S3150801486003004EEA0003CDF800A0535017D0B8F163
S31508014870000F2ED19CF8023068F304138CF802302D
S3150801488027E00021204622F06AF84FF4447363803A
S31508014890BBF1000FCED1E37843F03003C9E7132308
S315080148A00CF1100ECCF80C309CE80F008EE80F00C6
S315080148B06FF00301DCF81C20109B61F39F02012FA6
S315080148C0CCF81C20CCF8143003D1CCF81890CCF8CD
S315080148D0043000270D4A290102EB051342F801802D
S315080148E0159A28465A60694622469F605E7301F00A
S315080148F069FE384605B0BDE8F08F0748FAE707486C
S31508014900F8E70748F6E700BF162B00202814002011
S31508014910281300200F80FFF3028000F0018000F0C9
S31508014920078000F038B5124B05461B78DBB1E0B1BC
S315080149301AF0D0F80F4A00231146147B54B92B609C
S3150801494001251A0101EB03131D738C501AF0C8F8DF
S31508014950204638BD0133082B02F11002EDD11AF0B9
S31508014960BFF80548F5E70548F3E70548F1E700BF4D
S31508014970162B002028140020048000F0028000F085
S31508014980018000F038B51AF0A5F8002305460B4A50
S31508014990147B6CB90133082B02F11002F8D101F02E
S315080149A0B3FD074B28461C701AF09AF8204603E017
S315080149B028461AF095F8034838BD00BF2814002088
S315080149C0162B0020058000F00D4B10B51B78044608
S315080149D093B1072812D81AF07DF80A4B03EB041392
S315080149E01A7B2AB100241C731AF07AF8204610BDE6
S315080149F01AF076F80448FAE70448F8E70448F6E7AF
S31508014A00162B002028140020068000F0028000F0F2
S31508014A10018000F0154B13B51868002301908DF835
S31508014A2004301AF057F8124B1C7824B11AF058F8CA
S31508014A30104802B010BD01221A701AF051F80E4B37
S31508014A4001A81C731C7783F82C4083F83C4083F833
S31508014A504C4083F85C4083F86C4083F87C4008231B
S31508014A608DF8073001F07CFD2046E2E7DC7F03087C
S31508014A70162B0020038000F0281400200A4A08B5E6
S31508014A8012785AB107280BD8084A02EB00131B7B88
S31508014A9043B1002101F056FD002008BD0448FCE79A
S31508014AA00448FAE70448F8E7162B002028140020E2
S31508014AB0028000F0018000F0078000F00A4A08B57C
S31508014AC012785AB107280BD8084A02EB00131B7B48
S31508014AD043B1012101F036FD002008BD0448FCE779
S31508014AE00448FAE70448F8E7162B002028140020A2
S31508014AF0028000F0018000F0078000F00A4A08B53C
S31508014B00127852B107280AD8084A02EB00131B7B10
S31508014B103BB101F0A3FD002008BD0548FCE70548A7
S31508014B20FAE70548F8E700BF162B002028140020ED
S31508014B30028000F0018000F0078000F00D4B1B7821
S31508014B4093B1072812D889B10B4B03EB00131B7BD2
S31508014B5073B10A4B1A6D01238340134214BF012313
S31508014B60002300200B7070470548704705487047B9
S31508014B7005487047162B0020281400200000045011
S31508014B80028000F0018000F0078000F00B4A10B5A2
S31508014B9012780C4662B107280CD859B1084A02EBBB
S31508014BA000131B7B43B101F06BFD2070002010BD83
S31508014BB00448FCE70448FAE70448F8E7162B0020FE
S31508014BC028140020028000F0018000F0078000F020
S31508014BD0184B2DE9F0411F6D5B6D1F4000D5FEE7AF
S31508014BE001260025144CDFF85880374218D023686F
S31508014BF0C8F85060A3B1A168284601316268A1606E
S31508014C009847637B012B0BD150B90C4B03EB45132A
S31508014C101A7B60F341021A731A7F60F341021A770D
S31508014C200135082D4FEA460604F11004DDD1BDE829
S31508014C30F08100BF0000045028140020281300202A
S31508014C400020045070B5044601250B4E04B970BD09
S31508014C5094FAA4F0B0FA80F005FA00F306EB001214
S31508014C6024EA03045368002BF0D0117B11B1916833
S31508014C709847EBE79847E9E7A814002008B51920F3
S31508014C8001F046F828B14FF00072074BC3F88021AE
S31508014C901A601A2001F03CF828B14FF08062024BE5
S31508014CA0C3F880211A6008BD00E100E038B5054661
S31508014CB00C4619F00FFF0022044B03EB05135C6049
S31508014CC01A73BDE8384019F00BBF00BFA8140020BD
S31508014CD0F8B504460D4617461E4619F0FBFE1CB9E3
S31508014CE0052D1AD0FF2421E0012C05D1012D21D053
S31508014CF0032DF7D1042410E0022C07D1052D1BD072
S31508014D00072D1BD0002DEDD1062406E0032CE9D191
S31508014D10022D15D0052DE5D10A240A4904F11003FF
S31508014D2001EB03110123C1E901760B7319F0D8FED2
S31508014D302046F8BD0324F0E70724EEE70824ECE74C
S31508014D400924EAE7A8140020F8B505460E461746D1
S31508014D5019F0C0FE134B2C46D3F8242405F0FC01A8
S31508014D6022FA05F3DB0712D500230133DBB2042B44
S31508014D7004D1FF2419F0B4FE2046F8BDEC1804F05E
S31508014D8003040C4422FA04FC1CF0010FEDD1FF2C9C
S31508014D90F0D00122044B03EB0413C3E901671A732C
S31508014DA0E8E700BF00C00350A8140020074BD3F85A
S31508014DB02404D3F8202403F50053104000F055309D
S31508014DC020F05020C3F82004FFF73CBF00C0035071
S31508014DD0074BD3F82404D3F8202403F500531040D5
S31508014DE000F0AA3020F0A020C3F82004FFF72ABF5C
S31508014DF000C00350024B1968024B18680FF068BDD2
S31508014E00EC0A00200C0B002070B5940022460546DA
S31508014E100E4622F025FC431C0AD058B922463146D3
S31508014E20284621F072FD0028034808BF002070BDFE
S31508014E300248FCE70248FAE710E000F021E000F03A
S31508014E4024E000F010B5044622F006FC431C10D0FD
S31508014E5088B901F08FFC234620F0030020449842CC
S31508014E6001D1002010BD53F8042B0132F7D00348B5
S31508014E70F8E70348F6E70348F4E700BF0EE000F059
S31508014E8021E000F024E000F008B519F01CFE014B02
S31508014E90186008BD981D0020014B186819F017BE47
S31508014EA0981D0020044BD3F88420D206FBD4D3F8EE
S31508014EB08400C0F3811070470040005038B5104B8C
S31508014EC00546D3F880300C4603F00303022B0BD0BA
S31508014ED0032B0DD0012B0FD1FFF7FCF90E2305B1DA
S31508014EE0286004B1236038BDFFF73EFA0723F6E7C9
S31508014EF0FFF7EAF90623F2E700231846EFE700BFB2
S31508014F000080005038B5184B0546D3F820010C46E9
S31508014F1000F00700062823D8DFE800F0040A0E1679
S31508014F20121A1E00012305B1286004B1236038BD99
S31508014F30FFF7CAF90523F6E7FFF7FCF90323F2E7BA
S31508014F40FFF712FA0723EEE7FFF70AFA0223EAE761
S31508014F50FFF7BAF90623E6E7FFF7ECF90423E2E7D8
S31508014F6000231846DFE700BF0080005038B5174B0D
S31508014F700546D3F828310C4603F00703013B052BF8
S31508014F8020D8DFE803F003131B0F0B17FFF79CF973
S31508014F90052305B1286004B1236038BDFFF794F9EC
S31508014FA00623F6E7FFF7E0F90723F2E7FFF7C2F969
S31508014FB00323EEE7FFF7BEF90423EAE7FFF7D0F983
S31508014FC00223E6E700231846E3E700BF0080005006
S31508014FD073B50D460021114B0191D3F88041064660
S31508014FE004F00304022C13D0032C0CD0012C13D18A
S31508014FF001A8FFF787FF10240EB1019B336005B1A5
S315080150002C6002B070BDFFF7AFF907240190F3E7F2
S31508015010FFF7A6F90190EFE70C46EDE7008000508F
S31508015020002337B50193164B0546D3F820320C46B3
S3150801503003F00703042B21D8DFE803F0030B11164D
S315080150401B0001230DB1019A2A6004B1236003B044
S3150801505030BD002101A8FFF789FF1223F2E7FFF708
S3150801506083F907230190EDE719F033FC0A23019030
S31508015070E8E7FFF7BBF909230190E3E70023E1E736
S315080150800080005038B5104B0546D3F840310C4620
S3150801509003F00303022B0BD0032B0DD0012B0FD1E9
S315080150A019F017FC0A2305B1286004B1236038BD3D
S315080150B0FFF79CF90923F6E719F00EFC0C23F2E732
S315080150C001230020EFE700BF00800050002337B519
S315080150D00193164B0546D3F860320C4603F00703D5
S315080150E0013B032B1FD8DFE803F0020E1914002138
S315080150F001A8FFF707FF10230DB1019A2A6004B131
S31508015100236003B030BD002101A8FFF7BBFF1123BF
S31508015110F2E7FFF729F907230190EDE7FFF720F9F1
S3150801512002230190E8E70023E6E700BF008000506C
S31508015130002337B50193164B0546D3F894320C462E
S3150801514003F00703013B032B1FD8DFE803F0020E28
S315080151501914002101A8FFF7D5FE10230DB1019AF4
S315080151602A6004B1236003B030BD002101A8FFF70E
S3150801517089FF1123F2E7FFF7F7F807230190EDE717
S31508015180FFF7EEF802230190E8E70023E6E700BF00
S315080151900080005038B5144B0546D3F800020C467A
S315080151A000F0070004281BD8DFE800F003090D11F9
S315080151B01500012305B1286004B1236038BD19F033
S315080151C088FB0A23F6E7FFF711F90923F2E719F035
S315080151D083FB0C23EEE7FFF797F80F23800AE9E72D
S315080151E000231846E6E700BF0080005038B5144B87
S315080151F00546D3F808020C4600F0070004281BD818
S31508015200DFE800F003090D111500012305B1286037
S3150801521004B1236038BD19F05CFB0A23F6E7FFF7F2
S31508015220E5F80923F2E719F057FB0C23EEE7FFF738
S315080152306BF80F23800AE9E700231846E6E700BF63
S315080152400080005038B5104B0546D3F840320C465D
S3150801525003F00303022B0BD0032B0DD0012B0FD127
S3150801526019F037FB0A2305B1286004B1236038BD5C
S31508015270FFF7BCF80923F6E719F02EFB0C23F2E732
S3150801528001230020EFE700BF0080005038B5104B1E
S315080152900546D3F860310C4603F00303022B0BD005
S315080152A0032B0DD0012B0FD119F013FB0A2305B1DE
S315080152B0286004B1236038BDFFF798F80923F6E79B
S315080152C019F00AFB0C23F2E701230020EFE700BFE0
S315080152D000800050B0F5207F1FD009D8B0F5007FB7
S315080152E015D003D868B1B0F5C07F0AD000200CE00C
S315080152F0B0F5607FFAD10B4BD3F88000C0F30110EB
S3150801530003E0084B186FC0F3033001307047054BB3
S31508015310D3F89000C0F30460F7E7024B186FC0F3A7
S315080153208020F2E70080005002464FF48030104B8F
S3150801533010B598660020FFF7CDFF504341F671324C
S315080153400C4BDC69DA635A6804F4803422F440129F
S3150801535059B90949884294BF002001200005024332
S315080153605A600CB10022DA6310BD0449F2E700BFA6
S315080153700090005000000350005A6202002D3101CE
S31508015380430905D0012B0CD0022B084B18BF00236B
S3150801539000F01F0039B103F58053012282401A60DB
S315080153A07047034BF4E703F50053F6E768800050AE
S315080153B0648000501FB5002180280446CDE90011FC
S315080153C000F0A58035D85E2846D85E2844D8DFE89F
S315080153D000F0A243434343434343434343434343C5
S315080153E0434343434343434343434343434343437E
S315080153F04343A2AAA2AABABABABABAAAC44DDA71D8
S315080154004DAAAAAA4343434343434343AAAAAA79B3
S31508015410E4AA43434343434343434343434343BACE
S31508015420A2A2A2DF4D4DE9885EBF43434343439998
S31508015430A200B0F5B06F00F090802DD8B0F5207FAE
S3150801544071D00CD8B0F5C07F65D0B0F5007F65D0B6
S31508015450B0F5807F00F08680009804B010BDB0F5E5
S31508015460607F6BD00DD8B0F5407FF5D1FEF74CFFC4
S3150801547002464FF42070FFF72DFFB2FBF0F25208F7
S315080154805AE0B0F5806F5ED0B0F5A06FE4D1002187
S315080154906846FFF7C5FDDFE7B0F5106F78D016D877
S315080154A0B0F5E06F79D00AD8B0F5C06F6BD0B0F51A
S315080154B0D06FD1D100216846FFF76CFECCE7B0F575
S315080154C0F06FC9D100216846FFF7E0FEC4E7B0F5E1
S315080154D0406F3DD013D8B0F5206F63D0B0F5286F73
S315080154E0BAD10021324B0391D3F8703203F003038A
S315080154F0012B02D103A8FFF7C5FD039B3CE0B0F5DC
S31508015500486FA9D100216846FFF712FEA4E7FEF706
S31508015510E1FE0090A0E7FEF7F7FEFAE7FEF7DAFEEE
S315080155200246204604E0FEF7EFFE02464FF42070DD
S31508015530FFF7D0FEB2FBF0F200928DE701A8FFF764
S31508015540BDFC019AEDE700216846FFF7DBFC83E71E
S3150801555000216846FFF70AFD7EE700216846FFF746
S3150801556037FD79E74FF0E02302911B695B0705D503
S31508015570FEF7CAFE0290029B00936DE703A902A8F3
S31508015580FFF780FDF7E700216846FFF77BFD63E734
S3150801559000216846FFF72AFE5EE700216846FFF705
S315080155A051FE59E700216846FFF790FD54E700BF11
S315080155B00080005008B58020FFF7FCFE034B984297
S315080155C09EBF4FF48032024B1A6708BD005A620229
S315080155D000A000501FB503460020B3F5807F019057
S315080155E000F0C18064D85D2B55D84C2B07D82D2BDC
S315080155F048D8232B2CD8019805B05DF804FB4D3B00
S31508015600102BF8D801A252F823F000BF5D57010804
S31508015610F7550108F7550108F75501081357010809
S31508015620F7550108F7550108E157010831570108EF
S31508015630D7560108D7570108F7550108F755010844
S31508015640F7550108F7550108F7550108EB57010801
S31508015650243B092BCFD801A252F823F05D57010844
S315080156605D5701085D5701085D5701085D57010837
S31508015670F755010853570108F7550108F35601086C
S31508015680935701083D2B7FD03E2BB4D1002001A9A9
S31508015690FFF7D8FDAFE7802BADD1594B1B6F03F050
S315080156A00703013B032BA6D8DFE803F0514E858D8E
S315080156B0B3F5F06F68D021D8B3F5B06F49D00FD8DC
S315080156C0B3F5607F00F0838095D3B3F5806F45D03D
S315080156D0B3F5A06F8FD1002001A9FFF7A1FC8AE7D6
S315080156E0B3F5D06F55D0B3F5E06FCFD0B3F5C06F32
S315080156F081D1002001A9FFF7C5FC7CE7B3F5206F2E
S315080157006ED00BD8B3F5086F48D0B3F5106F7FF498
S3150801571072AF002001A9FFF769FD6CE7B3F5406F89
S3150801572059D0B3F5486F60D0B3F5286F7FF463AFEE
S31508015730334BD3F8703203F00303012B5AD0022BF3
S315080157400CBF1523002300E00523019353E7022329
S31508015750FBE7002001A9FFF73BFC4CE7002001A964
S31508015760FFF7D0FB47E74FF0E02302901B695B0781
S3150801577005D5FEF7C9FD0D230393039BE5E703A9A9
S3150801578002A8FFF77FFCF8E7002001A9FFF77EFDD5
S3150801579031E7002001A9FFF7FDFC2CE7184BD3F8E8
S315080157A0003103F00303022B07D0032B09D0012B89
S315080157B00BD1FEF7BFFD0323C7E7FEF717FE092343
S315080157C0C3E719F084F80823BFE70123BDE701A958
S315080157D0FFF774FB0FE7002001A9FFF7C7FB0AE7EC
S315080157E0002001A9FFF772FC05E7002001A9FFF7D0
S315080157F09FFC00E7002103A8FFF744FC1123A4E757
S31508015800008000504FF48012034B5A664FF48032E1
S31508015810024B9A62704700BF009000500050005A30
S3150801582008B5FFF7D7FE092811D00A38012802D989
S315080158304FF6FF7008BD4FF48002064B5A6603F512
S31508015840D8335B6ADB07F3D54FF4FA70F2E7024BFC
S315080158501888EFE700900050040D002038B504467B
S315080158608020FFF7B7FE032800F083804FF48012EB
S31508015870524B4FF0A0615A6645F60E02504BC3F8DB
S315080158808020504A91624FF4803102F5805291622C
S315080158909A6DD203FCD4996D11F08041FBD1D4E9FC
S315080158A00002120542EA0062E07B0243207B42EADB
S315080158B00042607B42EA0032A07B42EA80121A610A
S315080158C09869D4E90452120642EA856200F000405A
S315080158D00243A07EE57E0243207E42EA0042607EC4
S315080158E042EA00229A611A6AE06922F00F0242EA44
S315080158F08502354D00283DD11A6294F82420996A0B
S3150801590094F82000D200294042EA40120A4394F84A
S31508015910211042EA011242F480329A622B49284A3E
S31508015920936D31EA0303FBD14FF0807125488162FB
S315080159301369A56823F4700343EA055313614FF00D
S315080159400043836194F822300BB9214B996294F88C
S3150801595023303BB94FF480321D4B9A62184A936D36
S315080159605B00FCD494F825301BB1154B194AC3F8D2
S31508015970802038BD024342F0080202281A6208D183
S3150801598019614FF40852996113484FF47F4119F090
S3150801599063F80B4994F822308A6A94F820001B06AA
S315080159A02A4043EA4013134394F8242043EAC203E6
S315080159B094F8232043EA02438B62D3E70090005010
S315080159C00040005A0050005AC7FFFEFE03000100BE
S315080159D00060005AF1A7FFFF3440005A70B5194C10
S315080159E0FF28A66A2BD8A36D4FF0807113F4803F68
S315080159F018BF4FF48032144B18BF9A629962134A42
S31508015A00A36992F9005023F47F03054423F47F43E5
S31508015A1043EA002385F3080543EA0543A3613246B1
S31508015A200B4819F019F8A36DDB0301D4002070BDEA
S31508015A3032464FF48031064819F00EF8F6E7212070
S31508015A40F5E700BF0040005A0050005A1D0D00201E
S31508015A502840005A014B93F9000070471D0D00209C
S31508015A604FF4803311481249826A8B62836D03F0C1
S31508015A700303032BFAD14FF080730E488B620B4B4D
S31508015A80996D30EA0101FBD1012009490865996D33
S31508015A908907FCD4054B996D8807FCD5996D89074B
S31508015AA0FCD50549054818F0D7BF00BF0040005A84
S31508015AB00050005A03000100000001012840005A65
S31508015AC0F0B5D0E901434FF400061A4A4178057842
S31508015AD056664FF4D156022702F5B8325662164E6B
S31508015AE04F2977604FF0010728BF4F2106F58056E9
S31508015AF077601669F603FCD441EA052151611B0159
S31508015B00417B43EA04230B43017B43EA4103936048
S31508015B10C37B817B1B0143EA4113417C0B43017C17
S31508015B2043EA41035360837C13B16FF4D153536243
S31508015B30F0BD00BF0090005000100250014B1880C4
S31508015B40704700BF040D0020014B1880704700BF45
S31508015B50020D00204FF4800208B5184B5A6602233D
S31508015B60174A5360936813F48033FBD1012822D175
S31508015B70FEF7E0FB134B984215D003F5122303F504
S31508015B80F863984213D0104B00EB8002400AB3FB2E
S31508015B90F0F3520A0A49CA620B6301234B620022D7
S31508015BA0074B5A6008BD45F67A13084AF2E745F6E7
S31508015BB01A03074AEEE75362F1E700BF0090005067
S31508015BC00040025000F0490264666666D8B80500CE
S31508015BD0BBCF0500B0F5207F10B50C465DD008D8BF
S31508015BE0B0F5007F4ED003D8C0B1B0F5C07F15D04F
S31508015BF010BDB0F5607FFBD12C4B4C1ED3F8FC20B1
S31508015C002B4912F0807F4FEA041427D1D1F880304E
S31508015C1023F030032343C1F88030E9E718F02BFF5E
S31508015C2018F037FF4FF48031224B214A1967136F59
S31508015C30013C23F4704343EA04331367FEF764FB1C
S31508015C400446FFF72FF9C0F10201204618F01BFFA1
S31508015C5000F042F8BDE81040FFF7ACBCD3F8FC20D1
S31508015C6022F08072C3F8FC20D1F8802022F030029D
S31508015C702243C1F88020D3F8FC2042F08072C3F891
S31508015C80FC20B5E70A4A4C1ED2F8903023F0F853A7
S31508015C9043EA0463C2F89030AAE7054A4C1E136F1B
S31508015CA023F4806343EA84231367A1E700ED00E048
S31508015CB0008000500090005008B50121022000F034
S31508015CC08FF818F0D8FE18F0E4FE4FF48032014B35
S31508015CD01A6708BD0090005008B54FF4C070FFF769
S31508015CE069FBBDE808400449884294BF01210221A5
S31508015CF04FF42070FFF76EBF80F0FA02034B586825
S31508015D00C0F30800003818BF0120704700ED00E015
S31508015D10054B420953F8223000F01F0023FA00F020
S31508015D20C04300F00100704700E100E0024A536BEE
S31508015D300342FCD1704700BF00400950044A41782C
S31508015D40536F23F4407343EA01235367704700BF37
S31508015D50004000500C4A10B51369044643F0040389
S31508015D60136103F031FB18F0BEFE084B084AC3F86D
S31508015D70202430BF18F0B8FE03F060FB1CB9BDE85B
S31508015D801040FEF7C1BA10BD00ED00E000E0035077
S31508015D900000FF0F0A4A10B51369044643F00403CD
S31508015DA01361084B084AC3F8202403F00DFB30BFE2
S31508015DB003F044FB1CB9BDE81040FEF7A5BA10BDB7
S31508015DC000ED00E000E003500000FF0F034A0179EF
S31508015DD0D36E23F030030B43D3667047004000505F
S31508015DE0F8B504461C4BD3F88420D106FBD4D3F866
S31508015DF08430C3F381139C422CD0FEF76BFA012C35
S31508015E00064602D1214618F03EFE18F05CFE4FF018
S31508015E100072124B07465A66204618F068FE4FF480
S31508015E2080630D4D621E93402B676B6E9A0103D4F6
S31508015E30D5F884309B060AD5384618F048FE022C58
S31508015E4008D13046BDE8F840002118F01CBED5F847
S31508015E508430EAE7F8BD00BF0040005000600050FA
S31508015E6010B50C4608B9FEF735FA074B21461B78DB
S31508015E703BB1064B984204D80120BDE81040FFF714
S31508015E80AFBF0220F9E700BF172B0020005A6202B4
S31508015E900278034B012100201A70FFF7E1BF00BF0A
S31508015EA0172B00204FF0004238B5244B244C5A6674
S31508015EB04AF6CD33656C014605F00105236428BB16
S31508015EC00120FFF733FF6368DB0715D51D4B5860C3
S31508015ED008461D4B226BD2070CD4984208D10724D9
S31508015EE015B1174B194A1A6420F03CF8204638BDFB
S31508015EF00130EFE79842F2D00024F1E70132236B33
S31508015F0013F0080305D08A42F8D1E8E700220E49C2
S31508015F10F5E78A42E3D020210A4A91620121A2F5D6
S31508015F20805251600649084A886A800603D493421A
S31508015F30D5D00133F8E79342DDE700BF0090005062
S31508015F40004009500060095040420F003254FFFFDB
S31508015F504FF0004238B5164B01465A664AF6CD331C
S31508015F60144C154A656C236443780B205B0043F097
S31508015F700103D363FFF7DAFE63688A7823F4F873BB
S31508015F8043EA02136360CA784B7943EA0223A360A2
S31508015F900A798B7943EA022323610878FFF782FF9E
S31508015FA0EB0744BF054B23641FF0DCFF012038BD16
S31508015FB00090005000400950004000503254FFFF45
S31508015FC04FF00042124B70B55D6E03F580535A6669
S31508015FD04AF6CD3304460F4980204E6C0B64FFF711
S31508015FE0A5FE0B6A23F00F030F2C94BF234343F03E
S31508015FF00F030B62F30744BF074B0B64002DA2BFC7
S315080160004FF00042054B5A661FF0ACFF70BD00BF4A
S3150801601000800050004009503254FFFF00A0005094
S315080160204FF00042104B70B55D6E03F580535A660A
S315080160304AF6CD3304460D4980204E6C0B64FFF7B2
S3150801604075FE0B6A23F4F85343EA04230B62F3073C
S3150801605044BF074B0B64002DA2BF4FF00042054B0E
S315080160605A661FF07FFF70BD00800050004009503E
S315080160703254FFFF00A0005010B518F03DFD04236F
S3150801608000F5805100F500520B6113610B61136134
S315080160900B6113610B611361202341F20201036154
S315080160A00023C360836041614FF4A0218361836546
S315080160B041620549C36103628362C362436303653F
S315080160C0D164036310BD00BFFF3F0D0370B50546DC
S315080160D01446084641B9354B9D4218D0344B9D426A
S315080160E008BF5720FFF766F9AB6813F0010F6B6815
S315080160F030D0B0FBF4F4D80704F1FF344FEA046456
S3150801610007D42B6923F07F4323432B6170BD5620A7
S31508016110E8E72821284618F0EBFCAB6C990715D15E
S31508016120AB6CDA0714D4AB6C13F0020F14BF062656
S315080161300026284618F0E0FC2B69314623F07F43F8
S3150801614023432B61BDE8704018F00DBD0526F0E725
S315080161500926EEE7AB6DDB07AB6848BF640003F0C1
S31508016160E003402B1BD004D8DBB1202BCED108236A
S3150801617004E0602B17D0802BC8D10123634341016A
S31508016180B1FBF3F20B4B203A284603EAC20201217E
S3150801619018F0AEFC2A63BDE8704018F0A9BC0623C6
S315080161A0ECE71023EAE70423E8E700BF0000015BF8
S315080161B000000A50F8FF7F00F8B5436804460E460A
S315080161C00D691BB140F6FF7118F092FC2046FFF7E6
S315080161D053FF2269737BB17B22F087020B4313437A
S315080161E043F0800323611DBBA368F27B23F00303FD
S315080161F0134343F00103A3606369327B23F00F0362
S3150801620013436361D6E901122046FFF75FFF0521B3
S31508016210204618F08BFC282118F06AFC3378A36312
S3150801622018F066FCA36CDB4313F4405FFAD1F8BDA2
S315080162302369297F23F0F80343EAC1132978EA7B06
S315080162400B43297943EA4113697A43EA011343EA7D
S3150801625082132361E068D5E9053720F0F0403B4316
S3150801626020F470200343287B697B43EA802343EAB1
S31508016270C133E360A368F07B23F00303034343F0D0
S315080162800103A3606B88A06803F4C0430343A360BA
S31508016290A368687943EA8023A360AB79EF79606ADA
S315080162A01B013F0203F0700307F4E06720F477202F
S315080162B020F4EE603B430343287A000300F4E040F0
S315080162C00343687F000400F4702003436362636933
S315080162D0307B23F00F03034363616B89A36111B319
S315080162E0164B9C420CD1AB7B154903F00F034B6748
S315080162F0002A87D02B7C124A03F00F03136781E724
S31508016300104B9C427FF47EAFAB7B0D4903F00F0324
S31508016310C1F88030002A3FF475AF2B7C084A03F098
S315080163200F03D3676EE7002A3FF46CAF034B9C4219
S31508016330E0D0044B9C42F0D064E700BF0000015B4B
S315080163400090035000000A50072A2DE9F04115462E
S3150801635098464FF0030401F003072DD89600B44080
S3150801636000FA06F221461C4818F00CFC21461B4887
S3150801637007FA06F218F006FC194B1A499DF8180097
S31508016380B8F1000F18BF1946012303FA05F50D6088
S31508016390154B1649002818BF0B461D60144B9DF86E
S315080163A01C00C3F82054103103F22443002818BFF7
S315080163B00B461D60BDE8F081A2F10806B600B4409F
S315080163C000FA06F221460B4818F0DCFB21460A487A
S315080163D007FA06F2CEE700BF00C4035008C403500B
S315080163E010D4035010E4035014E4035014D403509A
S315080163F000E0035004C403500CC403502DE9F041D6
S3150801640005460F461E4690464AB101233022194CCD
S315080164108B4002FB004436B304F5825423600F21F6
S31508016420072F05EB450388BFA7F108044FEA0313B5
S31508016430114895BFBC00A40004330C3308FA04F2D2
S31508016440A140184418F09EFBB8F1000F09D10123A9
S315080164503021084ABB4001FB05223EB102F58252B2
S315080164601360BDE8F08104F50154D7E702F501523E
S31508016470F6E700BF00C0035030C00350104B01407F
S31508016480D3F8302422EA0002C3F83024D3F83024A2
S315080164901143C3F83014D3F82C240243C3F82C242F
S315080164A0084AD36E03F03003202B1FBFD36E23F0A7
S315080164B0300343F01003D366034BC3F82004704737
S315080164C000C003500040005000E0035038B51446A0
S315080164D01D46032283F00103FFF790FF012004F113
S315080164E01001884005FA01F1FFF7C8FF9DF8101061
S315080164F0034B044A002918BF1346186038BD00BF6C
S3150801650024E4035024D403504FF400120B4B10B566
S31508016510C3F88020BFF34F8FBFF36F8F0024FF228C
S31508016520074B21465C6520209A625C60FEF728FFCE
S315080165302146BDE810402120FEF722BF00E100E018
S3150801654000000450044A054B002908BF13460122DE
S3150801655082401A60704700BF401004504020045022
S3150801656010B5012104462020FEF70AFF012121204A
S31508016570FEF706FF0122114B5A60227812069A602D
S315080165806178A27842EA01429A61FF229A62002260
S315080165909A631A644FF000425A654FF0FF324FF47E
S315080165A0001103F500531A65054AC2F88011E3780C
S315080165B01B01DBB282F81533116010BD00000450CF
S315080165C000E100E0F8B50125C3B2D1F800E091F881
S315080165D00AC00F7B0C469D40CB7A1D491D4E0D65A1
S315080165E0810001F1A04101F58821C1F804E04FF0CD
S315080165F0300E0EFB00601B05617B43EA0C4343EA40
S31508016600475322F003020166C365026718F062FA6E
S31508016610736D2B437365237A13B1336C2B43336440
S31508016620637A13B1B36B2B43B3632279A37943EA34
S315080166300243074A93616179E37943EA01430649CB
S315080166408B61044B55639D64BDE8F84018F048BA60
S3150801665000200450000004500010045010B5012415
S31508016660C0B2844018F036FA044B5A6D22EA040285
S315080166705A659C62BDE8104018F032BA0000045011
S3150801668010B50124C0B2844018F024FA074BDA6A1F
S31508016690224208D15B6B9C430CBF0124002418F0ED
S315080166A01FFA204610BD0024F9E700BF0000045078
S315080166B04FF48032054B9A6641F6713203F51C3365
S315080166C0DA63012203F50053DA607047009000503F
S315080166D041F671320121064BDA6303F50052D160A6
S315080166E00022DA634FF48032A3F518339A667047AD
S315080166F000000350013831289ABF024B185C00206C
S31508016700704700BF0180030838B5C2F30625044661
S3150801671002F0070241B942EA052242F44022063450
S31508016720074B43F8242038BD1146284618F03AFA93
S3150801673002462846FFF7DEFF163442EA0022EFE753
S31508016740008003504FF48032064B5A6603F5E62360
S315080167509B69C3F38512827003F03F021B0B4270DB
S315080167600370704700900050014B986CD96C7047C4
S315080167700080E00F0120034B9B680A3303F01F03D7
S31508016780984070470080E00F70B5054616461C46CE
S3150801679021B94FF42070FEF70DFE0146402C1BD09F
S315080167A003D8DCB1202C1BD070BD602CFCD104238E
S315080167B003FB06F2530803EB4113B3FBF2F3094A51
S315080167C0203B02EAC303AA6822F06002AA60AA680B
S315080167D01443AC60EB61E7E70623E9E71023E7E733
S315080167E00823E5E7F8FF7F00012100F5805310B57E
S315080167F0596040F6AA6341F2050243610023094C38
S315080168008360C365C26000F500520361C361C36456
S315080168109464054C8365A04204BF036543655160D2
S3150801682010BD00BFFFFF010000C0055070B50D4641
S31508016830FFF7DAFF012300F580567360AB7C044647
S315080168401BB1836843F080438360EB7C5BB1244BC7
S315080168509C4202BF2A7DA3F51033C3F8C821E36D14
S3150801686043F08003E3652A8A6B7B20461343EA8952
S315080168701343E3602B7BD5E90112FFF785FF6B7D97
S315080168801BB1A36843F48033A360AB7D1BB1A36836
S3150801689043F40043A360EB7D2A7E1B07120502F42D
S315080168A0E00203F0E0431343A3656B7E9A1E012AB7
S315080168B04FF0020209D80B49032BC1F8202709D149
S315080168C00423F3652B78636170BD0749012BC1F871
S315080168D02027F4E7042204F50053DA65F2E700BF3E
S315080168E000C0055000D0035000E0035038B50D46EE
S315080168F0FFF77AFF012200F580535A602B8AA97B9C
S31508016900826843F0010343EA812313438360836862
S315080169102A7D044643EA42738360AB7C5BB1194B1B
S31508016920984202BFEA7CA3F51033C3F8C821C36DA8
S3150801693043F08003C3652B7B2046D5E9011243F456
S315080169408053E36018F085F96B7B0BB11023636103
S315080169506B7D1BB1A36843F48033A360AB7D1BB188
S31508016960A36843F40043A360EB7D2A7E1B07120547
S3150801697003F0E04302F4E0021343A3652B78636155
S3150801698038BD00BF00C00550034B5A68D20702D56F
S31508016990DA69002AF9D1704700800A50054B9A68CE
S315080169A09107FCD45A689207F9D4DA69002AF6D114
S315080169B0704700BF00800A5008B5FFF7E5FF0222BD
S315080169C0014B1A6108BD00BF00800A5008B5FFF7E0
S315080169D0E5FF0122024B03F580514A601A6108BDA1
S315080169E000800A5008B5044B5968012903D1FFF7FD
S315080169F0E3FF024B596008BD00800A5000A00A5007
S31508016A0010B5064CFFF7CAFF6368012B03D1FFF7E0
S31508016A10E9FFFFF7C3FF0378E36010BD00800A5062
S31508016A20B8B94A680B7812B1127843EAC2034A78B0
S31508016A3043EA42038A6812B1127843EA82138A78D2
S31508016A4043EA8203CA6812B1127843EA4223014A29
S31508016A509364704700800A5008B9014B596470471E
S31508016A6000900A5008B9014B5964704700A00A50B2
S31508016A7008B9014B1964704700A00A5010B9024BB6
S31508016A80186C70470020704700800A5048B911B148
S31508016A90012903D07047044BD86C7047024B186D17
S31508016AA070470020704700BF00800A5040B911B1F5
S31508016AB0012903D07047034BDA647047014B1A6505
S31508016AC0704700BF00800A5010B9024B586D7047D5
S31508016AD00020704700800A5038B50446054D1FF05E
S31508016AE065FA0FCC0FC594E8030085E8030000207A
S31508016AF038BD00BF9C1D002047F6FF739A42F0B5CA
S31508016B006FD002296FD8394B5B5C012B6BD8384D96
S31508016B10DF0005EBC30415F83330A178012B13D137
S31508016B200025E078401AA84202D80844C0B2F0BD50
S31508016B30431B6668A0EB530336F913609642D4BF2C
S31508016B401D4603F1FF30EEE760680028EFD0B0F983
S31508016B500040944204DBB0F902409442B8BF14469F
S31508016B6083883D44FF2B19BFC8224FF0280CB0F982
S31508016B700620B0F908C0A2EB04030CBF01260026C3
S31508016B8093FBFCF333446E781BB29E4201DD002B66
S31508016B9001DA731E1BB24FF47A7C01339BB2071DCF
S31508016BA05D1E2DB24FEAC50E00EBC505EA88AD6834
S31508016BB09E4214FB025222EAE27202F15C02B2FB25
S31508016BC0FCF204DD37F8335001339542E8D200EB85
S31508016BD00E039888904228BF1046884238BF084657
S31508016BE0A4E7FF20A3E70020A1E700BF338003083D
S31508016BF09C1D00200229F0B555D82C4B585C01285C
S31508016C0051D82B4C04EBC00114F830004B6801280D
S31508016C100FD1C8788C78904294BFC4EB0001C4EBBD
S31508016C200201001BCAB28242C8BF002233F9120010
S31508016C30F0BD002B37D08878904202D3B3F9020011
S31508016C40F6E7CC78B3F900009442F1D94C789988E3
S31508016C50013CA1F1FF06714203F10405E4B2714159
S31508016C6003F10C07CEB2B44216D805EBC1014FF4B5
S31508016C707A756A43B1F902404968521A04EBD4712C
S31508016C8002EB610292FBF4F29042D1DBB3F9020006
S31508016C909042CDDC10B2CBE737F831C04E1C944593
S31508016CA0E3D33146DEE70348C2E700BF3380030872
S31508016CB09C1D00200080FFFF0148FFF70DBF00BFA4
S31508016CC03880030800487047060D00207FB5022268
S31508016CD0084B0949CDE901234FF00073CDE90313A8
S31508016CE0072301A94FF0FF3005931FF096F907B066
S31508016CF05DF804FB006A18000002060008B5B0B189
S31508016D004FF480620B4B9A6617F086FF4FF0984353
S31508016D105A6CD202FCD54FF48062586D064B10F4BA
S31508016D2070209A6604D0BDE8084017F0C8BF212034
S31508016D3008BD00BF0090005000A000502DE9F041A9
S31508016D408CB08846DDE912761D460446002847D0F0
S31508016D50002945D0002F43D0002E41D013F00F0350
S31508016D603ED120482049A360002A08BF0146E361B5
S31508016D70C4E90013404609A918F09DF868BB2046E6
S31508016D80099917F040FF2946204617F03CFF694646
S31508016D90404600F081FA00BB6946204617F01FFFFE
S31508016DA0404603A918F086F9B8B9204603A917F091
S31508016DB016FF06970127204645F0005506A90797AD
S31508016DC0089517F00CFF204609A909960A970B950D
S31508016DD017F00FFF2046FFF791FF0CB0BDE8F081D1
S31508016DE02120FAE70001000400010104F0B50C4670
S31508016DF017461E46054695B0002874D0002972D05C
S31508016E00002A70D0002B6ED0036B0F2B5BD80023A2
S31508016E10364A3846C4E90023A360E36111A918F08C
S31508016E204AF800285BD12046119917F0ECFE296B28
S31508016E3020460F2984BF01F00F01103117F0E3FE38
S31508016E40384602A900F028FA002848D1204602A9A6
S31508016E5017F0C5FE384605A918F02CF900283ED1C9
S31508016E60204605A917F0BBFE0122214B0895099278
S31508016E700A932B6B05F1100003F00F0141F0005145
S31508016E800B900F2B0C920D910E900F9243F000521E
S31508016E90109226D90A9B08A923F0005320460A9383
S31508016EA017F09DFE0BA9204617F099FE01231196AE
S31508016EB012930F4B204611A9139317F09AFE2046F9
S31508016EC0FFF71CFF0BE000F120030190009301225C
S31508016ED0102339462046FFF731FF002897D015B011
S31508016EE0F0BD0EA9DFE72120F9E700BF0000040481
S31508016EF0100000202DE9F04F9BB00C4690461F4626
S31508016F000546DDF89090002800F0B280002900F0CF
S31508016F10AF80002A00F0AC80002B00F0A980026B3C
S31508016F2002EB09031B09B3EB121F02F00F0600F06F
S31508016F30978000234F4A8B60C1E90023CB61404605
S31508016F4017A917F0B8FF0346002840F0858006EB1D
S31508016F50090B204617992BF00F0A17F054FE5146D4
S31508016F60204617F050FE404602A900F095F903465F
S31508016F70002871D1204602A917F031FE404605A91D
S31508016F8018F098F80346002866D14FF001080190D9
S31508016F9005A9204617F023FE374A204608A9089571
S31508016FA0CDF824800A9217F01AFE46F00051AAEB92
S31508016FB0060605F1100346F000560B93CDF830800E
S31508016FC00D910E97CDF83C8010960D99204621F02B
S31508016FD000510D910BA9009317F001FE20460EA949
S31508016FE017F0FDFD019B244A1193AAF1100343F002
S31508016FF00053CDF84880139305F120031493CDF877
S3150801700054801692139B204643F080431393139B97
S3150801701011A923F00053139317F0EBFD204614A989
S3150801702017F0E7FD144A17A920461795CDF8608091
S31508017030199217F0DEFD2046FFF760FEAAEB0B0159
S3150801704049440190ABEB0A02009839441FF092FCBF
S31508017050019B2A6B4A442A6318461BB0BDE8F08F88
S3150801706010304A46394630441FF084FC0023F0E7C5
S315080170702123F1E703020004100000202DE9FF4750
S315080170804FF000080E4617460446CDF80080002842
S3150801709059D022B90025284604B0BDE8F087002951
S315080170A051D032F0030902F0030A1FD04FF0E06312
S315080170B0C0E9003801230191C0F808800293C0F89D
S315080170C01C8049F0005301A9039317F092FD494624
S315080170D0204617F098FD2046FFF710FE054628B111
S315080170E04A46414630461FF03AFCD4E7BAF1000F4A
S315080170F0D0D04FF000084FF0E063C4E9003801230F
S31508017100CDF804D00293114B204601A9C4F8088092
S31508017110C4F81C80039317F06CFD0421204617F070
S3150801712072FD2046FFF7EAFD054608B13A46D8E75B
S31508017130009A4E44EB00013522FA03F3AA4506F8F4
S31508017140013BF7D1A6E72125A5E700BF04000020EA
S31508017150F0B50F4616461D46044693B010B92120D0
S3150801716013B0F0BD0029FAD0002AF8D0002BF6D0CA
S31508017170002331461A46384617F042FE0028EFD159
S31508017180304602A917F0D8FD0028E9D1EB68022B91
S315080171900AD039683F48029A81426B6902D0183091
S315080171A0814270D19A42DAD82B68002BD7D14FF099
S315080171B060623846C4E90023A360E36101A917F0B8
S315080171C07AFE0028CCD10199204621F4F06101917B
S315080171D017F019FD6946284617F06DFE0028BFD13C
S315080171E02046009917F00FFD384609A900F054F812
S315080171F00028B5D1204609A917F0F1FC38460CA993
S3150801720017F058FF0028ABD120460CA917F0E7FC68
S31508017210EB684BB1284606A900F03EF800289FD135
S31508017220204606A917F0DBFC304603A917F042FFF2
S31508017230002895D1B368DA040CD59B0427D5062115
S31508017240F36932691B6801FB03225B0043F00053B3
S3150801725003920593204603A917F0C1FC28460FA9F6
S3150801726017F028FF00287FF47BAF20460FA917F0F7
S31508017270C0FC03252046FFF741FD01287FF470AFC6
S31508017280013DF7D16CE7B3EB420F8DD267E72920B1
S3150801729066E700BF200000B090B189B101234B60B9
S315080172A0C368013B012B08D88269064B1AB10A60EB
S315080172B000208B607047044AF9E74FF00053F7E75F
S315080172C02120704708000020EC91030806289ABF80
S315080172D0014B185C00207047F491030830B5154B33
S315080172E087B00293144B0390049346F611030D4697
S315080172F0059300F077F91428044616D1684617F065
S31508017300DAFF4FF0A843032202A95A6319601D61E7
S315080173109A63DA6B9207FCD1142C02D1684617F0EE
S31508017320D8FF00F093F9044601E00028E9D0204689
S3150801733007B030BDB41D0020040000202DE9F04F30
S31508017340B1B005468C469E46E8466F4EDDF8EC9090
S31508017350409C06F1100A474630687168083603C72B
S315080173605645B846F7D13E9B03EB0208C8F1000A19
S315080173700AF00F0AB9F1000F00F09D80C9F1000764
S3150801738007F00F070121DDF8FCB044F00050C4F105
S315080173901006CDF810B005910690300200F4F850A9
S315080173A040F021000790B9F1000F40F08680CDF832
S315080173B020D047F00050002D00F08480099121214A
S315080173C00A9041EA07210B9142F00050CDF830C0EE
S315080173D03D9B08A94FEA0A2C0D910E904CF04100ED
S315080173E00F901093002A75D13E9B119143F00053DB
S315080173F012933C9B1390149310AB1593434B444A39
S31508017400169340F611031793424B0021002D08BF2E
S315080174101346189314AB19933F4B10221A93112351
S315080174201B931CAB18461FF09AFA01221D920022E3
S3150801743046F0804603461E96239205B9EB46102C64
S31508017440CDF880B024AE4BD1012322460021304627
S31508017450219322941FF083FA20AB002125938F42B2
S3150801746018BF334647F0804226923A9A2CA82892AA
S315080174702993B2FA82F35B0949EA837310222B91A5
S315080174802A931FF06CFAB9F1000F00D028AED04448
S3150801749048F080432CA918A82D962E93FFF71EFFB6
S315080174A030B92DB90346A34225D1002818BF2C208F
S315080174B031B0BDE8F08F102764E7CDF820E049F038
S315080174C0005078E7002C3FF479AF04A9099101210E
S315080174D00A9076E73E9B0CAA11924120129388E7FF
S315080174E0102200213046219322941FF038FA002CED
S315080174F0B2D10123B1E703F1C0026A4412F8C02CE4
