:1000000000100020CD190000CF810100CF81010038
:10001000CF810100CF810100CF810100CF8101009C
:10002000CF810100CF810100CF810100D10000000C
:10003000CF810100CF810100010100001D8C010072
:10004000CF810100C5D80100CF810100952B0100AF
:10005000D5D80100D1D801004D320100C9D8010026
:10006000CF810100CF810100CF810100CF8101004C
:10007000CF810100CF810100CF810100CF8101003C
:10008000CF810100CF810100CF810100CF8101002C
:10009000CF810100CF810100CF810100CF8101001C
:1000A000CF810100CF810100CF81010081320100A9
:1000B000CDD8010075500000BD320100CF81010094
:1000C00005170100CF8101000000000000000000C2
:1000D000074B19680868B0E8F04F80F30988BFF350
:1000E0006F8F4FF0000080F311887047AFF30080EE
:1000F0006C21002000000000000000000000000053
:10010000EFF30980BFF36F8F154B1A681EF0100FC5
:1001100008BF20ED108A20E9F04F10602DE909009A
:100120004FF0600080F31188BFF34F8FBFF36F8FE4
:1001300006F08CFD4FF0000080F3118809BC1968AF
:100140000868B0E8F04F1EF0100F08BFB0EC108A3E
:1001500080F30988BFF36F8F704700BFAFF3008053
:100160006C210020000000000000000000000000E2
:1001700001F0FF01102A2BDB10F0070F08D010F858
:10018000013B013A8B422DD010F0070F42B3F6D15C
:10019000F0B441EA012141EA014122F007047FF075
:1001A00000070023F0E80256083C85EA010586EACC
:1001B000010685FA47F5A3FA87F586FA47F6A5FA08
:1001C00087F68EB9EED1F0BC01F0FF0102F0070214
:1001D00032B110F8013B013A83EA010313B1F8D1BF
:1001E0000020704701387047002D06BF35460338A0
:1001F000073815F0010F07D1013015F4807F02BFD9
:10020000013015F4C03F0130F0BC0138704700BF29
:1002100070B5414C00238AB0E363054618B10088ED
:1002200023600AF031F83D4E3D481CF046FF3D4B3F
:10023000336030463C4B736019F0A3FF0021304619
:100240000FF0C4F832A3D3E90023A062C4E9062367
:1002500019F0A2FFD4E9062319431043C4E90601AB
:10026000CDE900014FF0FF334FF0FF32A06A1CF0E0
:10027000CBFF02224FF0FF31A06A1CF0C7FF012024
:1002800009F0CAFC2949A06A4FF4007300221DF04E
:100290001FF8B0F5007F38D10023CDE9073309936B
:1002A00094223C23CDE903320593A06A962303A947
:1002B00006931CF015FF35B3287C0AF085F8054637
:1002C000F0B9A06A1DF0DEF80AF02CF809F086FCFF
:1002D00020B14FF48070002108F072FE09F08EFC0E
:1002E00020B14FF40060002108F06AFE1AF014F803
:1002F00001200FF0BFF80E4A0E49A06A19F03FFF27
:1003000028460AB070BDFF20D7E70725F8E700BFF1
:100310000DD501552000000098120020F424002083
:10032000690345EC9D9A000004250020F42200207A
:1003300027A1010067A101000348044B834202D0BA
:10034000034B03B118477047781200207812002041
:10035000000000000548064B1B1AD90F01EBA30152
:10036000491002D0034B03B11847704778120020A0
:10037000781200200000000010B5064C237843B925
:10038000FFF7DAFF044B13B10448AFF300800123F9
:10039000237010BD5E2E00200000000030280200F7
:1003A00008B5054B1BB105490548AFF30080BDE812
:1003B0000840FFF7CFBF00BF00000000701400200E
:1003C00030280200A3F5803A704700BF174B002B7E
:1003D00008BF134B9D46FFF7F5FF00218B460F46E4
:1003E0001348144A121A1DF098FC0E4B002B00D033
:1003F00098470D4B002B00D09847002000210400A7
:100400000D000D48002802D00C48AFF3008015F015
:1004100045F82000290017F010FE14F0E3FD00BF9E
:100420000000080000000000000000000010002094
:1004300078120020EC5000200000000000000000B6
:1004400030B589B003683B4A23F47F4323F00703A8
:1004500093426CD10DF10F0104A80CF075FC044619
:1004600010B3354D3549286818F0F2FA3449286838
:1004700018F0EEFA17F075FE17F074FE314B00938A
:10048000314A32492868642318F0E2FA3049314A87
:100490002868234618F0DCFA204601F015FA2E49A8
:1004A000286818F0D5FAFEE7BDF814305BBAADF84D
:1004B00018309DF813308DF81A30FF238DF81B305B
:1004C000FE238DF81C309DF812308DF81D30BDF8DC
:1004D00010305BBAADF81E30014606AB0822122080
:1004E0000CF08CFB054610B3134C1449206818F02F
:1004F000AFFA1349206818F0ABFA17F032FE17F084
:1005000031FE104B0093104A10492068742318F0F4
:100510009FFA0F490F4A20682B4618F099FA28468F
:1005200001F0D2F90C49206818F092FAFEE709B000
:1005300030BD00BFA0000100C814002000F9010078
:1005400002F9010064F9010007F901002FF9010027
:100550003EF901003BF9010053F9010008B505F02F
:100560003FF828B1BDE8084002482D2117F036BEFB
:1005700008BD00BF0AFD010038B501F0C9FF0E48F3
:100580000E4C012101F0ECFB01221146002001F08C
:100590001BFF022501221146C4F88050002001F003
:1005A00013FF0122C4F884501146002001F00CFF13
:1005B000C4F88850002038BD30053E0000400E4091
:1005C00013B5284B01225A6402F058FE044601A8D4
:1005D00002F024FE8E2C1CD82349D1F8B00040F044
:1005E0000403C1F8B030214B4FF050121A601A6367
:1005F0001A66C3F89020C3F8C020C3F8F020C1F8F1
:10060000B000194AD36A23F07F0343F02003D3627A
:1006100001E08F2CF5D09DF80530012B01BF144A65
:10062000D2F8643143F00403C2F86431114B002264
:10063000C3F8B42A03F0DEFC01F0C2F903F078FC41
:1006400003F0C4FC03F08AFCFFF796FF18F0AAF948
:1006500001F0AAF904F0D0FF02B0BDE8104003F0A9
:10066000EBBE00BF00000E4000400E4000A0004066
:1006700000300E400000C64330B585B017F027FDAE
:100680008DF80F0017480DF10F03007801221F218C
:100690000CF00CFB054610B3134C1449206818F0FD
:1006A000D7F91349206818F0D3F917F05AFD17F05D
:1006B00059FD104B0093104A104920685F2318F031
:1006C000C7F90F490F4A20682B4618F0C1F9284690
:1006D00001F0FAF80C49206818F0BAF9FEE705B005
:1006E00030BD00BF5F2E0020C814002000F90100BB
:1006F00002F90100ACFD010024FD01002FF9010009
:100700003EF901003BF9010053F9010030B585B015
:100710000368A74A23F47F4323F007039342044668
:1007200000F098800ED8A2F18272934200F0878088
:1007300002F18072934200F086809E4A93421DD05F
:1007400005B030BD9C4A934200F0F78002F1807200
:100750009342F5D1B0F805301F2BF1D1C1790129B1
:10076000EED1964B02791A700289954B002A6FD010
:10077000197005B0BDE83040FFF77EBF17F0A5FC4B
:100780008DF80E0017F0A5FC0DF10E038DF80F008B
:100790000122002122200CF031FA044610B3894DC9
:1007A0008949286818F054F98849286818F050F9E0
:1007B00017F0D7FC17F0D6FC854B0093854A864985
:1007C0002868692318F044F98449854A2868234633
:1007D00018F03EF9204601F077F88249286818F0B1
:1007E00037F9FEE701460DF10F03012226200CF038
:1007F00005FA05460028A3D0724C7349206818F00A
:1008000027F97249206818F023F917F0AAFC17F0AD
:10081000A9FC6F4B00936F4A6F4920686B2318F057
:1008200017F96E496E4A20682B4618F011F92846D0
:1008300001F04AF86B49206818F00AF9FEE7002039
:1008400017F04BFC7CE7002017F047FC5C4B0022C4
:100850001A7075E7B0F805301F2B38D0242B7FF4C1
:100860006FAF17F038FC00220DF10F0300930192D7
:100870008DF80F00B4F80510207901230CF0D4F99D
:10088000054600283FF45CAF4E4C4F49206818F0F5
:10089000DFF84E49206818F0DBF817F062FC17F01B
:1008A00061FC514B00934B4A4B492068972318F049
:1008B000CFF84A494A4A20682B4618F0C9F828461A
:1008C00001F002F84749206818F0C2F8FEE717F077
:1008D000FEFB00220DF10F03009301928DF80F0033
:1008E000B4F80510207901230CF09EF90546002884
:1008F0003FF426AF334C3449206818F0A9F8334947
:10090000206818F0A5F817F02CFC17F02BFC374BDB
:100910000093304A30492068892318F099F82F490C
:100920002F4A20682B4618F093F8284600F0CCFF99
:100930002C49206818F08CF8FEE7B0F80530242B1D
:100940007FF4FEAE837A012B2FD1C07A17F0C5FB5E
:100950000022B4F8051020790CF090F90546002823
:100960003FF4EEAE174C1849206818F071F817499B
:10097000206818F06DF817F0F4FB17F0F3FB1C4B30
:100980000093144A14492068B82318F061F81349F9
:10099000134A20682B4618F05BF8284600F094FFB5
:1009A0001049206818F054F8FEE70D22D1E700BF87
:1009B000A0000A01A0000100A0000A025F2E002092
:1009C000602E0020C814002000F9010002F9010087
:1009D000F1FD010024FD01002FF901003EF90100A5
:1009E0003BF9010053F90100C2FD0100DAFD0100ED
:1009F00093FD010030B585B017F070FB8DF80F0046
:100A000017480DF10F030078012229210CF04EF94F
:100A1000054610B3134C1449206818F019F813490F
:100A2000206818F015F817F09CFB17F09BFB104B93
:100A30000093104A10492068472318F009F80F491D
:100A40000F4A20682B4618F003F8284600F03CFFB8
:100A50000C49206817F0FCFFFEE705B030BD00BF71
:100A6000612E0020C814002000F9010002F90100E5
:100A70007BFE010004FE01002FF901003EF9010098
:100A80003BF9010053F9010030B585B003688A4A8B
:100A900023F47F4323F007039342044630D002F14E
:100AA0000072934200F09E80A2F1017293422DD118
:100AB000824817F060FB054640B3814C81492068AD
:100AC00017F0C6FF8049206817F0C2FF17F049FBF6
:100AD00017F048FB7D4B00937D4A7E4920685723E1
:100AE00017F0B6FF7C497D4A20682B4617F0B0FF0F
:100AF000284600F0E9FE7A49206817F0A9FFFEE7D2
:100B0000B0F80530292B03D02D2B36D005B030BDE1
:100B100017F0E4FA00220DF10F03009301928DF813
:100B20000F00B4F80510207901230CF07DF805467C
:100B30000028EBD0624C6349206817F089FF6249B6
:100B4000206817F085FF17F00CFB17F00BFB654BC7
:100B500000935F4A5F492068652317F079FF5E497B
:100B60005E4A20682B4617F073FF284600F0ACFE63
:100B70005B49206817F06CFFFEE717F0B3FA00221C
:100B80000DF10F03009301928DF80F00B4F80510DA
:100B9000207901230CF048F805460028B6D0484CCF
:100BA0004849206817F054FF4749206817F050FF64
:100BB00017F0D7FA17F0D6FA4B4B0093444A454941
:100BC0002068732317F044FF4349444A20682B46AA
:100BD00017F03EFF284600F077FE4149206817F0E5
:100BE00037FFFEE7B0F80530292B8FD1C379012BF1
:100BF0008CD13E4A017911700289002A31D00093CC
:100C00003B4A2E48002342F2107100F07DFE05465B
:100C100010B32B4C2B49206817F01AFF2A49206883
:100C200017F016FF17F09DFA17F09CFA314B00935E
:100C3000274A28492068822317F00AFF2649274AB5
:100C400020682B4617F004FF284600F03DFE24499B
:100C5000206817F0FDFEFEE705B0BDE83040FFF765
:100C6000C9BE164817F087FA054600283FF44EAF74
:100C7000134C1449206817F0EBFE1349206817F055
:100C8000E7FE17F06EFA17F06DFA1A4B0093104A50
:100C9000104920688A2317F0DBFE0F490F4A2068AD
:100CA0002B4617F0D5FE284600F00EFE0C492068B2
:100CB00017F0CEFEFEE700BFA0000A018814002056
:100CC000C814002000F9010002F90100DAFE010059
:100CD00004FE01002FF901003EF901003BF901007B
:100CE00053F90100C1FE0100AFFE0100612E00209A
:100CF000E180010093FE010070B58EB00368894A5F
:100D000023F47F4323F00703934240F00981864B8D
:100D100006AA03F11806144618685968154603C553
:100D20000833B3422A46F7D118689B882860AB8005
:100D30007E480BF071FD054610B37D4C7D4920685F
:100D400017F086FE7C49206817F082FE17F009FA3A
:100D500017F008FA794B0093794A7A4920687E2384
:100D600017F076FE7849794A20682B4617F070FE16
:100D7000284600F0A9FD7649206817F069FEFEE7D5
:100D80000DF1160300930DF1120205AB04A90DF14C
:100D90000E000BF0A1FF054610B3654C65492068B5
:100DA00017F056FE6449206817F052FE17F0D9F983
:100DB00017F0D8F9614B0093614A6249206881239A
:100DC00017F046FE6049614A20682B4617F040FE46
:100DD000284600F079FD5E49206817F039FEFEE7ED
:100DE000BDF91430002B4FF00A0237DD0533B3FB99
:100DF000F2F3293B9AB21BB27F2B3ADC53B24B4D34
:100E00008DF83530287823461E2200210BF03EFD58
:100E1000044600282FD0464D4649286817F018FE92
:100E20004549286817F014FE17F09BF917F09AF956
:100E3000424B0093424A43492868932317F008FE27
:100E40004149424A2868234617F002FE204600F036
:100E50003BFD3F49286817F0FBFDFEE7053B93FB90
:100E6000F2F3293B9AB21BB28033C7DA6FF07F03EB
:100E7000C5E77F23C3E70090A022034611462878E8
:100E80000BF0E2FC044610B3294D2A49286817F0FC
:100E9000DFFD2949286817F0DBFD17F062F917F02C
:100EA00061F9264B0093264A264928689C2317F0AF
:100EB000CFFD2549254A2868234617F0C9FD20465D
:100EC00000F002FD2249286817F0C2FDFEE7014646
:100ED00028780BF0F1FC054610B3154C1549206835
:100EE00017F0B6FD1449206817F0B2FD17F039F974
:100EF00017F038F9114B0093114A12492068A123C9
:100F000017F0A6FD1049114A20682B4617F0A0FDE6
:100F1000284600F0D9FC0E49206817F099FDFEE73D
:100F20000EB070BDA00001006CFF01004E12002049
:100F3000C814002000F9010002F9010054FF01006B
:100F4000F4FE01002FF901003EF901003BF9010018
:100F500053F901002DE9F04F9BB00368B34A23F425
:100F60007F4323F00703934240F0738410A80BF0F3
:100F7000B7FC044610B3AE4DAE49286817F068FDC3
:100F8000AD49286817F064FD17F0EBF817F0EAF8A0
:100F9000AA4B0093AA4AAB492868832317F058FD4F
:100FA000A949AA4A2868234617F052FD204600F0B6
:100FB0008BFCA749286817F04BFDFEE7DFF8A0B2CD
:100FC000DBF80060BBF80620F3680D921A88022A4D
:100FD00040F045835A8841F601039A4240F03F832E
:100FE000DBF80820314601240D9B9C422BD3BDF831
:100FF00040000BF0F1FD0546002800F02A848C4CDF
:101000008C49206817F024FD8B49206817F020FDDB
:1010100017F0A7F817F0A6F8884B0093884A89497B
:1010200020684FF49E7317F013FD8749874A2068A4
:101030002B4617F00DFD284600F046FC8449206839
:1010400017F006FDFEE7B1F912004B8A002807DB16
:1010500032F81330A3F520539BB2012B40F2FF82EC
:101060000134A4B21031BFE742F60212934200F0FD
:10107000F482294616A817F059F84146022214A80E
:101080001CF056FEA888BDF84080BDF8449080F45E
:101090000063C3F3C02300F0030A4AEA432A17F0AF
:1010A00023F80DF146020346287A17F038F8059226
:1010B000179A0492BDF85A200392BDF85820CDE942
:1010C0000102BDF85020ADF8002049465246404686
:1010D0000BF0E6FC0546002800F0EE82544C554922
:1010E000206817F0B5FC5449206817F0B1FC17F0E0
:1010F00038F817F037F8514B0093514A514920689E
:1011000040F2171317F0A4FC4F49504A20682B46B1
:1011100017F09EFC284600F0D7FB4D49206817F0D9
:1011200097FCFEE7E968B5F9042031F8023B0DF1C0
:101130004200CDE90010D20FBDF8400000210BF0B5
:10114000E7FB054610B33A4C3A49206817F080FC9B
:101150003949206817F07CFC17F003F817F002F803
:10116000364B0093364A374920689B2317F070FCB2
:101170003549364A20682B4617F06AFC284600F0AD
:10118000A3FB3349206817F063FCFEE7BDF842304B
:10119000F15B99421FD0264D2649286817F058FC6C
:1011A0002549286817F054FC16F0DBFF16F0DAFF2B
:1011B000224B0093224A234928689E2317F048FCBB
:1011C000244A2549286817F043FC24492868224608
:1011D00017F03EFCFEE7BDF840000BF0D5FC0546DD
:1011E000002800F03A82124C1249206817F030FCB7
:1011F0001149206817F02CFC16F0B3FF16F0B2FF6F
:101200000E4B00930E4A0F492068A32317F020FCD1
:101210000D490E4A20682B4617F01AFC284600F0AC
:1012200053FB0B49206817F013FCFEE7A0000100F8
:10123000C814002000F9010002F901009601020023
:101240008AFF01002FF901003EF901003BF901007E
:1012500053F90100E9FF010018000200300002000C
:1012600090F90100E968B5F9042031F8023B0DF16D
:101270004200CDE90010D20FBDF8400001210BF073
:1012800047FB054610B3944C9449206817F0E0FBE7
:101290009349206817F0DCFB16F063FF16F062FF3D
:1012A000904B0093904A91492068B02317F0D0FBEF
:1012B0008F49904A20682B4617F0CAFB284600F059
:1012C00003FB8D49206817F0C3FBFEE7BDF84230F1
:1012D000F15B99421FD0804D8049286817F0B8FB18
:1012E0007F49286817F0B4FB16F03BFF16F03AFF71
:1012F0007C4B00937C4A7D492868B32317F0A8FBF8
:101300007E4A7F49286817F0A3FB7E492868224659
:1013100017F09EFBFEE7BDF840000BF035FC0546DC
:10132000002800F09A816C4C6C49206817F090FB03
:101330006B49206817F08CFB16F013FF16F012FFB4
:10134000684B0093684A69492068B82317F080FB0E
:101350006749684A20682B4617F07AFB284600F058
:10136000B3FA6549206817F073FBFEE7AA89BDF858
:101370004210BDF8400016AB0BF0F4FA054610B36E
:10138000554C5649206817F063FB5549206817F003
:101390005FFB16F0E6FE16F0E5FE524B0093524A54
:1013A00052492068C12317F053FB5149514A206824
:1013B0002B4617F04DFB284600F086FA4E49206870
:1013C00017F046FBFEE7F25BBDF858309A4200F09A
:1013D0004481414C4149206817F03AFB404920685C
:1013E00017F036FB16F0BDFE16F0BCFE3D4B009329
:1013F0003D4A3E492068C42317F02AFB424A40492F
:10140000206817F025FBF35BBDF858203F492068A2
:1014100017F01EFBFEE707F1100A06EB0A07394634
:1014200012A816F083FEBDF848300A93BDF84A3082
:101430000B93139B0C93B5F90E30E989002B67DBF6
:1014400009EB4101022216A81CF072FCB888BDF815
:101450004080BDF8429016F047FE11A90346387A45
:1014600016F05DFE2A7B06910C9905910B9904916B
:101470000A99CDE90201BDF85810ADF80410002119
:101480000091404649460BF091FA0546002800F0CD
:101490009380114C1149206817F0DAFA104920683E
:1014A00017F0D6FA16F05DFE16F05CFE0D4B0093B9
:1014B0000D4A0E492068E02317F0CAFA0C490D4A7C
:1014C00020682B4617F0C4FA284600F0FDF90A49B7
:1014D000206817F0BDFAFEE7C814002000F90100EB
:1014E00002F90100960102008AFF01002FF90100B4
:1014F0003EF901003BF9010053F90100E9FF010049
:101500001800020030000200580002007E000200B5
:10151000AD4B18690DF1580821F4004100EB0111A1
:10152000102240461CF004FCB888BDF840300E93F1
:1015300016F0DAFD0F90387ABDF8429016F0EFFD04
:101540000C9B2F7B08930B9B07930A9BCDE905030C
:1015500011AA099298E80F0001AD85E80F00002359
:1015600000930E980F9B3A4649460BF059FA0546F0
:1015700010B3964C9649206817F06AFA954920688E
:1015800017F066FA16F0EDFD16F0ECFD924B0093A5
:10159000924A93492068F02317F05AFA9149924AE7
:1015A00020682B4617F054FA284600F08DF98F4931
:1015B000206817F04DFAFEE7BDF8443036F80A10FF
:1015C00099421FD0814D8249286817F041FA81491C
:1015D000286817F03DFA16F0C4FD16F0C3FD7E4BE7
:1015E00000937E4A7E492868F42317F031FA804A36
:1015F0008049286817F02CFA7F492868224617F09E
:1016000027FAFEE7BDF840000BF0D2FA054610B30A
:101610006E4C6F49206817F01BFA6E49206817F06E
:1016200017FA16F09EFD16F09DFD6B4B00936B4A6A
:101630006B492068F92317F00BFA6A496A4A206857
:101640002B4617F005FA284600F03EF96749206856
:1016500017F0FEF9FEE70134A4B20134A4B20D9BE9
:101660009C42BFF4C4AC06EB04152701B5F9023067
:10167000B5F802A0002B45DB534BD3F8089039F89E
:101680001A3042F60302934209EB4A083FF6ECACEB
:10169000B3F5205FFFF4EDACA3F52053013B022B23
:1016A0003FF640AD01A252F823F000BF65120000E2
:1016B0006D13000017140000F25BBDF846309A422B
:1016C000CBD0424D4249286817F0C2F941492868F9
:1016D00017F0BEF916F045FD16F044FD3E4B0093A1
:1016E0003E4A3F4928684FF48D7317F0B1F9434AD9
:1016F0004049286817F0ACF941492868224617F09C
:10170000A7F9FEE7294614A816F010FDDBF8101023
:101710002AF4004A0DF1580901EB0A11102248463B
:101720001CF006FBA888BDF844300A9380F40062E0
:10173000C2F3C02200F0030848EA422816F0D4FCA5
:101740000DF146020B90287ABDF840A016F0E7FC98
:101750000892159A0792BDF852200692BDF85020C3
:10176000CDE9040299E80F008DE80F000B9B0A9960
:10177000424650460BF0CAF90546002842D0134CA9
:101780001349206817F064F91249206817F060F9CE
:1017900016F0E7FC16F0E6FC0F4B00930F4A1049D9
:1017A00020684FF4997317F053F90E490E4A2068D8
:1017B0002B4617F04DF9284600F086F80B492068B3
:1017C00017F046F9FEE700BF90F90100C8140020A9
:1017D00000F9010002F90100960102008AFF0100F0
:1017E0002FF901003EF901003BF9010053F9010016
:1017F000D0000200180002000A01020039010200B4
:101800006B010200F25BBDF846309A423FF425AF0F
:10181000114D1249286817F01BF91149286817F073
:1018200017F916F09EFC16F09DFC0E4B00930E4A25
:101830000E49286840F2351317F00AF90C4A0D4991
:10184000286817F005F90C492868224617F000F9B6
:10185000FEE71BB0BDE8F08FC814002000F90100BE
:1018600002F90100960102008AFF01002FF9010030
:1018700039010200180002006B01020008B5084B94
:1018800001221A70074B00221A70074B04221A70AB
:10189000064B1F221A7002F001FC054B186008BDB0
:1018A00051120020622E0020501200204F12002002
:1018B000C8140020024B0349186817F0C9B800BFCC
:1018C000C8140020AA01020070B50C4C0C49064651
:1018D000206817F0BDF802F0E1FB0546206802F031
:1018E000A7FB3046FFF7E6FF284602F0A1FB206881
:1018F0000449BDE8704017F0ABB800BFC814002021
:10190000AC010200AE0102002DE9F7439DF82890DA
:10191000054690461F4649B9B9F1000F39D1002854
:1019200014BF2120222003B0BDE8F08378B34FF428
:101930007A7303FB01F404F2E7349C42B4FBF3F640
:1019400027D316F018FC012801D10120EBE7144B36
:1019500000933146134801952B464A4605F040FC5A
:101960000646C0B1C5E90B086F6385F83C9004F0EA
:10197000F9FF00240246009423460121304605F079
:1019800069FC012809D0284616F0F5FBDDE7222086
:10199000C9E72120C7E71920C5E72046C3E700BFF4
:1019A00067810100B101020008B50448012100F07F
:1019B000D7F9BDE8084016F05EBB00BF00250A005D
:1019C0000148012100F0CCB900250A0008B500F05B
:1019D0007DF8124B12498B4212D3124B1249002050
:1019E0008B4218D3FEF7F2FC186850F82240586872
:1019F00040F82240013298688242F5D30C33EAE77E
:101A00000022F8E71C6844F8220001325C68A24218
:101A1000F8D30833E4E70022F8E700BF38280200D3
:101A2000442802004428020044280200004870476D
:101A300000F049020D4AD2F8943003F00703032B5B
:101A400011D0042B03D0022B0BD1094B00E0094B22
:101A50001868D2F80031C3F304230133B0FBF3F06C
:101A60007047054BF4E74FF40040F2E700400E40AA
:101A70000C100020081000200010002008B5FFF70F
:101A8000D9FF054BD3F80831C3F308230133B0FB6A
:101A9000F3F0024B186008BD00400E400410002017
:101AA000014B1868704700BF0C100020054B1860F0
:101AB000054BD3F8943003F00703022B01D1FFF755
:101AC000DDBF70470C10002000400E400D4B0E4A49
:101AD0009A60D3F8882042F47002C3F888200B4B38
:101AE0005A6D42F400525A651A6C22F003021A64CD
:101AF0005A6F22F001025A671A6E22F080521A665B
:101B0000704700BF00ED00E00000000000300E4014
:101B1000014B1868704700BF0810002038B5044614
:101B20000D4601B118B90448372116F057FB236858
:101B30002B60256038BD00BFBB01020040B1054AE3
:101B40001378012B04D80370013313700020704701
:101B500001207047632E0020054A0649034610689D
:101B600003448B4294BF13604FF0FF30704700BFB7
:101B700010100020007C002008B52948012100F049
:101B8000EFF8012304220221052001F08FF9002043
:101B900001F076F9234B0122C3F8102811460420E6
:101BA00000F012FC204800F04DFA204BD3F8F02052
:101BB00042F00102C3F8F020D3F8FC2042F080721A
:101BC000C3F8FC20A3F55D43194A1A6000F5D5203F
:101BD000184B00F2FC40B0FBF3F0174B0138022227
:101BE0001861C3F8F0204FF48072C3F804234FF05B
:101BF0006043124AC3F8B02F114AC3F8802ED3F8BD
:101C0000002E42F48072C3F8002EFF2283F82020B9
:101C1000D3F8002E22F48072C3F8002E002008BDF5
:101C200000250A000080144206000E0000ED00E0CE
:101C3000FF030040F8590D00000004E055CEACC58C
:101C40000900010030B54FF06043D3F8802ED20771
:101C500015D501240B4D8440D5F8FC2042F080724C
:101C6000C5F8FC20D3F8002E2243C3F8002E53F809
:101C70002020002AF0D003F82010002030BD1120D1
:101C8000FCE700BF00ED00E00C4B984205D90C4B7F
:101C9000984210D80122012301E00022134609498D
:101CA0000B640949D1F8003123F0807343EA0263E1
:101CB000C1F8003170470222EDE700BF0048E8019B
:101CC0000090D0030000C84300400E40044BD3F8FE
:101CD0004421D20703D4D3F840211042FBD17047EE
:101CE00000400E400A4B0B4998424A680BD90A4BF8
:101CF00098420AD902F040724B6823F0407343EADD
:101D000002634B6070470022F6E70122F4E700BF50
:101D100040787D0100000E40005A620238B5074C41
:101D200041F67133256C2364FFF780FEADB2FFF7F7
:101D3000D9FF0DB10023236438BD00BF00000E4061
:101D400038B5064C256C41F671332364ADB2FFF70C
:101D5000C9FF0DB10023236438BD00BF00000E4051
:101D600038B5C0F30323013B092B06D8DFE803F0A5
:101D70000C2E0505322924051C18BDE838401748EB
:101D800041F6B05116F02ABA154DC0F3043405F1EE
:101D9000424505F5801504EBC5008000016038BDA3
:101DA000104DC0F30434F2E70F4DC0F304344FF488
:101DB0008030FFF78BFFEAE7C0F304340B4D1020AF
:101DC000F7E7C0F304340A4D0120F2E7094DC0F3F0
:101DD0000434DCE7084DC0F30434D8E70D020200F8
:101DE00000400E4050410E40F0400E40E8400E4092
:101DF000E0400E40C0400E40B0400E4008B5C0F379
:101E00000313013B092B4CD8DFE803F0050B0F1936
:101E10004B4B1F23333F244BD3F80001C0F3042066
:101E200008BD214BD3F81401F8E71F4BD3F800315C
:101E3000C3F300630133012098400138F0E71A4BE7
:101E4000D3F80C01C0F30820EAE7174BD3F80801D8
:101E5000F8E7164B984205D1134BD3F8203103F025
:101E60000F03E8E741F65471114816F0B7F9002066
:101E7000D6E7104B984205D10B4BD3F8283103F02D
:101E80000303D8E741F67871EEE70B4B984205D192
:101E9000054BD3F8300100F00F00C1E741F6877120
:101EA000E2E741F6AC71DFE700400E408006160025
:101EB0000D02020090071A00A009140008B500F0F6
:101EC0000F00013807284BD8DFE800F00412214A40
:101ED00031354A3D2B4BD3F8940000F0070003281E
:101EE00005D0042843D002280CBF0420052008BDDB
:101EF000244BD3F8800000F007000228F7D0042814
:101F000039D0012808BF032018BF0120EFE71D4B7F
:101F1000D3F8843003F00703013B032B03D8DFE839
:101F200003F00426282A0120E1E70320DFE7154B10
:101F3000D3F88800DFE7134B1B6F13F0010F0CBFC2
:101F400007200920D3E70F4BD3F85C3103F03003AF
:101F5000202B12D0302B12D0102B08BF0720D3E734
:101F6000094842F2013116F039F90020BFE702209A
:101F7000BDE70620BBE70A20B9E70420B7E7082041
:101F8000B5E700BF00400E400D02020010B5284B1F
:101F9000984204460DD1FFF791FF264BD3F88440B9
:101FA00004F00704042C3BD8DFE804F03F24283079
:101FB0002C00214B984205D1FFF780FF1D4BD3F831
:101FC0008840EDE71D4B984205D1FFF777FF194B8D
:101FD000D3F88040E4E741F61311194816F0FEF8F3
:101FE0002046FFF76BFF41F642110446144816F0F5
:101FF000F5F8D7E7BDE8104016F0EAB8BDE81040A4
:10200000FFF786BDBDE8104016F0E5B8FFF712FDFA
:10201000084BD3F80031C3F300630133D84010BD3F
:10202000074841F6941116F0D9F80020F7E700BFF1
:102030000300200000400E400500240002001E00A6
:102040000D02020038B500F47813B3F5A01F054661
:1020500056D020D8B3F5202F6ED00AD8B3F5003F64
:1020600043D0B3F5802F35D0002B65D04FF4F75116
:1020700068E0B3F5602F58D0B3F5801F00F0808082
:10208000B3F5402FF2D1FFF7D5FC4C4BD3F8143108
:10209000C3F3042325E0B3F5001F3BD00FD8B3F5FD
:1020A000D01F39D0B3F5F01F25D0B3F5B01FDDD167
:1020B0004348FFF76BFF414BD3F8203126E0B3F5DF
:1020C000481F44D0B3F5781F6ED0B3F5101FCDD1A3
:1020D0003C4811E0FFF7AEFC384BD3F80C31C3F3AA
:1020E00008230133B0FBF3F038BDFFF7A3FC334BFB
:1020F000D3F80831F3E73248BDE83840FFF746BF70
:102100003048FFF743FF2D4BD3F8303103F00F0376
:10211000D840E9E72C48EFE72B48FFF737FF274B7C
:10212000D3F8283103F00303F2E72848FFF7C6FE8F
:10213000072825D0092803D1BDE83840FFF77ABC2D
:1021400041F2D661224816F049F80020CCE7214838
:10215000FFF7B4FE0138072823D801A353F820F075
:102160004B210000A3210000A321000087210000D3
:10217000A3210000A3210000812100008F21000085
:10218000154B1868B0E7BDE83840FFF789BCFFF78A
:1021900051FC0A4BD3F80031C3F3042303FB0000C6
:1021A000A2E741F20D71CDE7FFF744FC0446284653
:1021B00016F03BF8B4FBF0F096E700BF00400E408D
:1021C00002001E00050024000300200006000E008F
:1021D0000D020200B80032001410002008B5FFF70D
:1021E0006DFE02280ABF024B4FF6FF70188808BD2B
:1021F0003A120020014B1880704700BF3A120020AD
:10220000014B1880704700BF3812002038B50C46CB
:1022100004287BD8DFE800F06403451B3000B1F5EB
:10222000007F04D33D4842F6B44115F0D7FF3C4A45
:10223000C4F30804D2F86838002BFBD1394A136A7A
:1022400023F4FF7323F001032343136238BD7F2976
:1022500004D9324842F6C14115F0C0FF304A04F0BB
:102260007F04D2F86038002BFBD12E4A136923F08B
:102270007F031C431461E9E77F2904D9274842F60C
:10228000DC4115F0ABFF264A04F07F04D2F8643835
:10229000002BFBD1234A936923F07F031C439461F5
:1022A000D4E7204DD5F890305B0704D51B4842F6A3
:1022B000EC4115F093FF6B6A23F0300343F01003F9
:1022C0006B62296B184BC4F3C31203320F2A03EA63
:1022D000010328BF0F22234343EA02732B63B5E7B0
:1022E0007F2904D90D4842F6075115F077FF4F2C8E
:1022F0000B4A28BF4F24D2F87438002BFBD1094A6F
:10230000936B23F07F03234393639FE7BDE838403B
:10231000024842F6155115F061BF00BF0D020200E0
:102320000020C84300400E4000F8FF0F38B50228D7
:102330000C4604D0134842F62D5115F04FFF124DB4
:102340006B6A13F0300F1AD0202C15D0302C16D019
:10235000ACB10C4842F6485115F040FF0B4BD5F894
:10236000902033EA0202FAD15B024ABFD5F8A000FE
:102370000120C0F3802038BD4FF40003EFE74FF495
:102380004003ECE70D02020000400E40FF03E107AE
:1023900008B502280CD129B1094B4FF48060C3F86D
:1023A000A80059664AB1BDE808400220FFF7BEBF49
:1023B000044842F67E5115F011FF012008BD00BF10
:1023C00000400E400D020200F8B504281ED8324B22
:1023D00013F800C0314B1D5C314B33F81070314B9A
:1023E00033F81040304BC1B901211C66A940D3F825
:1023F00090000842FBD1002A48D001232A4903FA61
:102400000CF3D1F890201A42FBD13FE0BDE8F84030
:10241000264842F6F93115F0E1BE022837D15C6A50
:1024200014F0300F33D15C6AE40705D55E6A26F0FC
:10243000300646F010065E621D4C1B4B25441F669D
:10244000AD002B68002BFCD002B36444A4002368C9
:10245000002BFCD0022819D1C1B1134D696A11F0CB
:10246000010116D001222021FFF792FFD5F89C60D0
:10247000012200210220FFF7A7FFC6F30A01022074
:10248000FFF7C4FE2F662368002BFCD0F8BD0021A7
:10249000D2E7FFF74BFFE9E7750202007002020086
:1024A000660202005C02020000400E400D020200C3
:1024B0008004F21008B5024698B901221146FFF7D0
:1024C00083FFFFF72BFC104B04225A67FFF7B2FA89
:1024D000FFF7DAFBFFF7D2FABDE808400021FFF76B
:1024E0002FBC012807D10146FFF76EFFFFF716FC4E
:1024F000054B0322E9E7054842F23A3115F06EFE3A
:10250000FFF70CFCE2E700BF00400E400D020200A6
:1025100008B50C48FFF7B8FB012211460220FFF76F
:1025200053FFFFF7FBFB084B02225A67FFF782FAC3
:10253000FFF7AAFBFFF7A2FABDE808400021FFF76A
:10254000FFBB00BF0148E80100400E4008B50C4841
:10255000FFF79AFB012211460320FFF735FFFFF733
:10256000DDFB084B01225A67FFF764FAFFF78CFB8B
:10257000FFF784FABDE808400021FFF7E1BB00BF88
:102580000148E80100400E4010B504461120FFF755
:1025900095FC042804D1244842F6732115F01EFE50
:1025A000012200210220FFF70FFF237C012B04D121
:1025B0001D4842F6B02115F011FE1C4A217C536AD9
:1025C00023F00103022908BF43F001035362184BB3
:1025D0002178C3F8A014936AE17A23F007030B4330
:1025E0009362A188637A43EAC123D362136BA07A12
:1025F000217A03F07F630343E08843EAC02343EA80
:10260000C11303310F2928BF0F2143EA017313635C
:10261000A37B617B1B0143EA0133E17B0B43217BFD
:1026200043EA0143536310BD0D02020000400E4017
:102630000000C84370B505461120FFF73FFC022893
:1026400004D10F4842F62B3115F0C8FD0D4E0E4C4B
:10265000B26B6B7814402A78144344EAC324AB78F5
:1026600044EA0364EB7844EA0324B36BA34205D045
:10267000002101220846FFF7A7FEB46370BD00BF2A
:102680000D02020000400E4080E4FFF8034B586842
:10269000C0F30800003818BF0120704700ED00E0CB
:1026A00070B5064615460C4621B9094840F2ED11B1
:1026B00015F094FD214606F1200015F0E3FD102DE4
:1026C00005D104F11001BDE8704015F0DBBD70BD0F
:1026D0007A0202001848194BC26C1B88C2F303220D
:1026E0002833013202EB820103EB5303B3FBF1F316
:1026F000C16C013B072B28BF072321F0EE6141EAA3
:10270000036343F48013C3640D4BB3F90030002B13
:1027100010DB2833510801EB420203EB5303B3FBF8
:10272000F2F3026D072B28BF072322F0700242EA62
:1027300003130365704700BF00300E40202E0020B9
:102740001C2E0020084A1378013B012B0AD80749A8
:102750000B6C03F00303012B02D1CB6FDB03FCD521
:1027600003231370704700BF652E002000300E4019
:10277000054A064BD16C1960D36C23F47F4343F4B4
:10278000EE43D364FFF7A6BF00300E40D014002004
:1027900038B5164B164DD3F8804145F60E02C3F8F6
:1027A00080212A6822F0AA02D205D20D1A66114BA6
:1027B0001B78032B04F0010412D0042B12D0022B3F
:1027C00002D10020FFF776FE2B68DB075EBF074BC8
:1027D00002221A661CB1054B0022C3F8802138BDC5
:1027E0000120EFE7FFF794FEEEE700BF00400E4048
:1027F000CC140020642E002008B5054BD3F890209F
:10280000044B11201A60FFF759FB034B187008BDE9
:1028100000400E40CC140020642E002010B5044669
:1028200008B1FFF7E9FF124A136943F0040313618B
:10283000FFF79EFFFFF786FF15F00CFE15F00BFE6D
:102840000C4B0D4AC3F8242430BF15F005FE02F0EE
:102850003FF80A4B1A680A4BDA64FFF73BFF1CB9D2
:10286000BDE81040FFF70AB9BDE81040FFF790BF80
:1028700000ED00E000A000400000FFFFD0140020A9
:1028800000300E4010B5044608B1FFF7B5FF184BF5
:10289000D3F8802145F60E01D20748BF0022C3F8C5
:1028A00080114FF42071196648BFC3F88021114A86
:1028B000136943F004031361FFF75AFFFFF742FF68
:1028C0000D4B0E4AC3F8242415F0C4FD30BF01F0AF
:1028D000FFFF0B4B1A680B4BDA64FFF7FBFE1CB9CA
:1028E000BDE81040FFF7CAB8BDE81040FFF750BF81
:1028F00000400E4000ED00E000A000400000FFFF9F
:10290000D014002000300E400A4903798A6922F071
:102910003F021343027843EA8203427843EA4203C8
:10292000827843EAC203C278012A08BF43F0010358
:102930008B61704700300E4010B51A4B4AF6E852D2
:10294000596B5A639A6FD407FCD41B6C13F00303C2
:1029500006D0154A01249842C2F8B44A0AD110BDE3
:1029600018B9114BC3F8B40AF9E7012802BF0F4B9D
:1029700002221A700B4B9A6FD207FCD41A6C22F009
:10298000030202431A649A6F12F00102FBD100386D
:10299000054C18BF01200129C4F8B40A08BF5A63C6
:1029A000DDE700BF00300E400000C643652E00206A
:1029B0002DE9F041A0F5E163B3F5966F07D94FF427
:1029C0004161604815F00AFC0020BDE8F0815E4CD2
:1029D0005E4BD4F81872B0F5E16F1CD0DD6CC5F316
:1029E00001753C0E2E02C7F307474FF4966C4FF467
:1029F000E16E01233343B3F5007F534E49D017D81E
:102A0000B3F5807F42D040F20118434535D0CBB9B1
:102A1000D6F81C3218E0DD6CC5F30175C7F3072446
:102A20002E02FFB24FF4167C4FF4966E0023E1E7BE
:102A3000B3F5407F30D040F20138434523D0D6F87B
:102A4000283201E0D6F82432C3F30726DBB2A4EB28
:102A50000708A0EB0E0E0EFB08F8B8FBFCF8474485
:102A6000A74207D8F41A0EFB04F4B4FBFCF41C4490
:102A7000B44214D940F65E41A3E7D6F824321E0EC4
:102A8000C3F30743E3E7D6F82832F8E7D6F81C3259
:102A9000F5E7D6F82032D7E7D6F82032EFE772B163
:102AA0002A4AD36DB0F5E16623F4FE4318BF012630
:102AB00023F0020343EA460343EA0723D36509B937
:102AC000012082E7204BD3F80021D2B2032A07D895
:102AD000B0F5E16FD3F82C320AD0C3F3072308E036
:102AE000022DD3F8303210D0032D11D0012DF4D0A7
:102AF000DBB21B0313F4702F0CD040F616211148E3
:102B000015F06CFB40F66D415BE7C3F30743F0E75C
:102B10001B0EEEE70D49CA6E22F470421343CB66DA
:102B20004B6E23F4FF7323F00103B0F5E16F18BF80
:102B300043F00103E72C28BFE72443EA44034B6634
:102B4000BEE700BFCC0202000081E00F00300E4063
:102B500008B51B4A136FD16C11F0010F03F0060387
:102B600015D0A3B1132829D9143813288CBF1023EA
:102B700008231348013BC26C190322F47F4241EA47
:102B800003231343C364BDE80840FFF7A3BDD16C22
:102B900001F00101194304D109280FD90A38092885
:102BA000E4E7D26CD20702D50BB92728DEE7054847
:102BB00040F6B34115F012FB0023DAE70423D8E70F
:102BC00000300E40CC02020010B50C4BD3F8803917
:102BD000044633B9012804D9094840F6D14115F01B
:102BE000FDFA084A136F23F0070323431367064BCC
:102BF000BDE810401888FFF7ABBF00BF0000C64318
:102C0000CC02020000300E401E2E002037B56F4B64
:102C100002229A639B6B03F00F039342044608D091
:102C200040F6AB216A4815F0D9FA0025284603B0D2
:102C300030BD684BD3F81C32013300F0A180664BE5
:102C4000D96B9A6B1160596C1A6C1160D96C9A6CC3
:102C50001160596D1A6D1160D96D9A6D11605A6EBF
:102C60001B6E1A602389C82B04D9594840F6B52138
:102C700015F0B4FAA28823899A4204D9544840F640
:102C8000B62115F0ABFAB4F90C30C82B04DD50486E
:102C900040F6B72115F0A2FA6378012B07D1A3887B
:102CA000C82B04D94A4840F6BB2115F097FAE288B0
:102CB00042F210739A4204D9454840F6C82115F0F3
:102CC0008DFAE2884A2A61D9B2F5FA7F60D340F6DC
:102CD000C3139A428CBF4FF040524FF000523B4D0D
:102CE000B4F90C10EB6C23F0405323F001030029DE
:102CF000A8BF43F001031343EB64384BA2881A804A
:102D0000EB6E43F08073EB66354BD3F8800900B16E
:102D10000420FFF759FF2B6E23F0C0432B66EB6CAA
:102D200043F0060301A8EB6400F078FA9DF8050073
:102D3000012811D19DF80430022B0DD829490B78B8
:102D400053B96B6C284A43F001036B642B6E1A4035
:102D5000264B13432B660870254B21891980254B80
:102D6000B4F90C20A0881A80FFF7F2FEA37B93B180
:102D7000012B1DD0164840F6C71115F02FFA0DE0B3
:102D8000134840F6141115F029FA6BE70022A6E764
:102D90004FF08052A3E70D4B174A9A6501226088D5
:102DA0001146FFF705FE054628B940F6FF2139E731
:102DB000064B124AF1E7A37A094A003B18BF0123E8
:102DC000C2F894376078FFF7B7FD2FE700300E4068
:102DD000CC0202000081E00F0080E00F1E2E0020D8
:102DE0000000C643652E0020000F0EF0B4C0400B5B
:102DF000202E00201C2E002077402057372110B7AE
:102E000038B5052804460D4605D80B4B33F810306D
:102E1000CB40DB0704D4094840F22D4115F0DEF920
:102E200030230C2113FB041303F18C43012203F51F
:102E30002043AA401A6038BDBC0302001B030200F5
:102E400038B5052804460D4605D80B4B33F810302D
:102E5000CB40DB0704D4094840F2FE3115F0BEF93F
:102E600030230C2113FB041303F18843012203F5E3
:102E70002043AA401A6038BDBC0302001B030200B5
:102E800010B51F28044603D90648522115F0A6F9AB
:102E9000054AD2F8443423F003032343C2F84434F0
:102EA00010BD00BF6C03020000A00040F8B505286B
:102EB00004460D4616461F4605D81C4B33F8103005
:102EC000CB40DB0704D41A484FF4B07115F086F9F3
:102ED00026B129462046CFB1FFF792FF04EB440309
:102EE000072D4FEA03134FF00F0112D8A80006FA7E
:102EF00000F281400F48184415F0B3FAAEB92946E4
:102F0000204677B1BDE8F840FFF77ABFFFF798FF9A
:102F1000E4E7A5F10800800006FA00F281400648C7
:102F2000E9E7BDE8F840FFF78BBFF8BDBC0302003E
:102F30006C03020004A0004008A00040044B41F6CE
:102F400071321A649A6822F001029A60704700BFD9
:102F500000000E40034B9A6822F001029A600022A2
:102F60001A64704700000E40094A0A4BD969C90724
:102F700005D512B96FF002007047013AF6E7002A52
:102F8000F8D001221861DA60D86940F380007047F8
:102F90008096980000000E4070B505460C4609B9B1
:102FA000002070BD134B1A68134B9A4204D8134883
:102FB00040F2134115F012F9114A0023082055F888
:102FC000231091610F49D0600133D669F60705D50A
:102FD00011B96FF00200E4E70139F6E70029F8D0F3
:102FE000D169890702D56FF00100DAE79C42E6D18A
:102FF000D6E700BF041000203F420F00C8030200C4
:1030000000000E40809698002DE9F0472E4C236C6E
:1030100015461FFA83F8820741F6713306460F46BC
:10302000236404D029484FF48C6115F0D7F8AB071E
:1030300004D0264840F2634115F0D0F8A368AD08EB
:1030400043F00103A3603AD120484FF48E6115F09C
:10305000C5F8002032683B689A4224D03046FFF71A
:1030600083FF00BB01213846FFF796FF1BE0C4F346
:103070000A04C4F50064A408A5EB0A039C4228BF17
:103080001C4621464846FFF787FF0028E2D1A244AC
:1030900009EB8409AA45DCD206EB8A042046FFF737
:1030A00063FF0028E3D0084B9A6822F001029A607F
:1030B000B8F1000F01D000221A64BDE8F087B946CC
:1030C0004FF0000AE6E700BF00000E40C803020010
:1030D00070B5274C41F67133256C2364C0F30A03A5
:1030E0000646ADB223B1234840F2D64115F076F83A
:1030F000A36843F00103A36001232661E360E36951
:10310000580709D5A36823F00103A3600DB100237C
:1031100023644FF0FF3070BD0223E360164A144B66
:10312000D969C90700D56AB9D96911F002010BD074
:103130009A6822F001029A600DB100221A646FF0C1
:103140000100E8E7013AEBE742B9996821F0010193
:10315000996005B11A646FF00200DCE79A6822F00A
:1031600001029A600DB90020D5E71964FBE700BFA2
:1031700000000E40C80302008096980038B502286F
:1031800004460D4603D911484C2115F027F86B79F8
:103190001F2B03D90D484F2115F020F8AB786A7822
:1031A0009B0143EA82032A781343EA7843EA021335
:1031B0002A7943EAC2236A7943EA0233AA790434BA
:1031C00043EA42432401024A135138BD1704020066
:1031D00000200440014B1860704700BF000084428B
:1031E000437882789B0043EA021302781343C27843
:1031F00043EA4213027943EA0223427943EA023363
:10320000827943EAC233C27943EA0243027A43EA4B
:103210004243014A136070470020044010B5044641
:1032200018B91048572114F0D9FF0F4AD2F8E430EA
:10323000D2F8E0109B0003F03C03C1F381110B4373
:10324000A370D2F8E03003F03F036370D2F8E830A7
:10325000D2F8EC2003F0F003C2F3031213432370FF
:1032600010BD00BF6704020000FF0FE0024BD3F85F
:10327000F000D3F8F41070470081E00F024BD3F850
:10328000FC00000E704700BF0081E00F024BD3F836
:10329000F80080B2704700BF0081E00F38B50446E7
:1032A00019F0FAFF0FCC044D0FC594E80F0085E824
:1032B0000F00002038BD00BFD4140020F0B547F641
:1032C000FF739A4272D0062972D83A4B5B5C022B8C
:1032D0006ED8394D05EBC304DF00A17815F8333003
:1032E000012938BF0121012B13D1E0780025401AB4
:1032F000A84202D80844C0B2F0BD431BA0EB530360
:10330000666836F913609642CCBF03F1FF301D4664
:10331000EEE760680028EFD0B0F90040944204DB8B
:10332000B0F902409442B8BF14468388FF2B04BF13
:10333000B0F90620B0F908C03D440FBF01260026B1
:10334000C8224FF0280C131B93FBFCF333446E7818
:103350001BB29E4201DD002B01DA731E1BB201334A
:103360009BB24FF47A7C071D5D1E2DB24FEAC50E4D
:1033700000EBC5059E42EA88AD6814FB025222EAC2
:10338000E27202F15C02B2FBFCF205DD37F8335069
:10339000954203F10103E7D200EB0E0398889042B7
:1033A00028BF1046884238BF0846A4E7FF20A3E79D
:1033B0000020A1E7B9040200D4140020F0B50629CA
:1033C00061D8324B595C02295DD8314B13F831007A
:1033D000012816D103EBC1039C78D8785B68012CD7
:1033E000214638BF0121904294BFC1EB0001C1EBDF
:1033F0000201CAB2001B8242C8BF002233F9120088
:10340000F0BD002A3DD003EBC103596800293AD032
:103410009878904202D3B1F90200F1E7DC78B1F973
:1034200000009442ECD95C788B88A3F1FF06013C44
:10343000734201F10405E4B2734101F10C07DEB2FD
:10344000B44216D805EBC3034FF47A75B3F90240C2
:103450005B686A43D21A04EBD47302EB630292FBFB
:10346000F4F29042CCDBB1F902009042C8DC10B219
:10347000C6E737F833C0944503F10106E2D333467B
:10348000DDE70448BCE70448BAE700BFB90402001E
:10349000D41400200CFEFFFF0080FFFF08B5044895
:1034A000FFF7FCFEBDE80840012019F0F9BE00BF9F
:1034B00040110200004870473C12002010F1860FB6
:1034C00006D038B19330044808BF6FF06F007047E2
:1034D0006FF07100704700BF009FFFFF70B58CB0A8
:1034E00004460D461646002122220DF10E001AF068
:1034F00014FC4FF41053ADF80C302CB323681BB3FD
:1035000015B39B79022B1AD0042B20D14FF4807372
:10351000206CADF80E304C2198B9012015F061FBFC
:10352000C0B120640C4B0093206CF3082A4603A919
:1035300000F022FC0CB0BDE87040FFF7BFBF802355
:10354000E6E704F069FDEDE704480CB070BD6FF0EC
:103550007100FAE70248F8E70002C003009FFFFF8E
:10356000809EFFFF10B550B1046844B139B1006CC2
:1035700028B100F03FFCBDE81040FFF79FBF0148B5
:1035800010BD00BF009FFFFF07B578B102686AB1A8
:10359000006C58B151B100230193102201AB00F02F
:1035A00093FC03B05DF804EBFFF788BF014803B05C
:1035B0005DF804FB009FFFFF08B501290BDC074BFA
:1035C000074A00290CBF1146194600F035FABDE83C
:1035D000084015F019B86FF0730008BD080000022C
:1035E0000900000208B548B1006E02F0C1F928B127
:1035F000BDE808400248882114F0F0BD08BD00BFB6
:10360000C004020010B5044698B1102200211AF03F
:1036100084FB04F11003A3605023E360204602F012
:1036200001F9206628B9BDE810400248792114F05C
:10363000D5BD10BDC0040200024B034A0349044833
:1036400004F0F6BC91860100B7860100E535000064
:10365000053600002DE9F74F0F9D0190F5202F78DA
:10366000DDF834A0884616469B4615F0D1F80023B5
:1036700004460360082243600E9904F1800914F0A7
:1036800093FE2946484614F029FE07F007072A78DA
:10369000013702F00702C7F110072A700023EA1968
:1036A00005F1100702F8013B9742FBD1294604F1CE
:1036B000840014F013FE0523A360109BF34200F076
:1036C0008880102B12D08EB1C3F11002B24228BFF5
:1036D00032460F3341462B4402EB080011F801CB70
:1036E00003F801CF8842F9D19044B61A394604F163
:1036F0008C0014F0F3FD5923A3600523A360462337
:10370000A360BEB1002326636363524B236501238C
:1037100063650F2E54D80023C5E90033C5E9023391
:1037200018F80320EA5401339E42F9D82946484646
:1037300014F0D4FD0023C4F830A06363019B002B78
:103740004AD0454B2365454B6365454BA365454BC7
:10375000E365012323660026BAF1000F1ED0BAF1FB
:103760000F0F4BD8C5E90066C5E9026600231BF8B8
:103770000320EA5401339A45F9D12946484614F00A
:10378000ADFD2946484614F0C0FD0C9B33B1002323
:103790000C99EA5CCA5401339A45F9D12946484646
:1037A00014F0B3FD204600F0D7F8019B002B47D161
:1037B0001A4612998B4245D1002A3DD02C203CE07C
:1037C0004146484614F08CFD103E08F11008A0D187
:1037D000B0E74623A360ADE7234B236503F1BC4369
:1037E00003F5262303F64D43636503F12243A3F556
:1037F000C053A3651D4BE3651D4BABE759464846D7
:1038000014F06EFD0C9BAAF1100A0BF1100B3BB1EA
:103810001946484614F07BFD0C9B10330C939BE734
:103820002946484614F071FD96E71199EA5CCA549E
:103830000133129A9342F8D1002003B0BDE8F08F13
:103840000023F6E71198E95CC05C41400A4301336C
:10385000AFE700BF70590546F87045590546034863
:10386000055163FB04480559F803480546FB044825
:103870000559010070B5144D2B7803F0FF0413B106
:103880000124204670BD01F0D1FE012811D901F0BC
:1038900001FF061EF5DB2B782BB90C4B0C481B687F
:1038A000984701232B70304601F016FFC443E40F04
:1038B000E7E72B78002BE3D1044B05481B689847BA
:1038C00001232B70DCE700BF662E00204010002093
:1038D000F814002010B5FFF7CDFF18B90D48C52129
:1038E00014F07CFC01F0A2FE022809D10A4C002150
:1038F000206E01F0E1FF18B1084B20461B68984785
:10390000074B08480122C3F80426074A136801330D
:10391000136010BD3A050200F81400203810002092
:103920000010C84300000F40F4140020074B9842D9
:103930000AD103F16E7303F588330022C3F804261D
:10394000034B04481B681847704700BF00000F4036
:1039500034100020F8140020024B984201D1FFF7E8
:10396000E5BF704700000F402DE9F04788B00746DB
:10397000884615461E46FFF7ADFF044607F17E4018
:103980000838012850D80423236000236360E364CF
:10399000626822F4406262606A4623639146636310
:1039A000A8F1040308F11C0853F8041F09BA4345A1
:1039B00042F8041BF8D114F03DFC4946074604F5D3
:1039C000827014F0B8FC384614F038FC184B2365AC
:1039D000109BDFF8609005EB831704F5D27A14F0A2
:1039E00029FC29468046504614F0B5FC4035404637
:1039F00014F024FCBD42C4F85090F0D114F01AFC2D
:103A00003146054604F5807014F09DFC284614F0FC
:103A100015FC2046FFF78AFF331F1C3653F8042F8E
:103A200012BAB3421A60F9D108B0BDE8F08700BFFE
:103A3000888AC801070D810138B50D460446D0B10A
:103A40006C2200211AF069F90C4B9D4205D001331C
:103A50009D420DD06FF0850038BD0949202204F148
:103A60000C001AF065F90020C4E901002560F3E7B5
:103A700004492022F3E76FF08600EDE7080000021A
:103A800012060200F20502002DE9F3410E461F4620
:103A9000054600285FD083B9002A5CD12B68324AE2
:103AA00093425ED0013293420CBF6FF089046FF0F5
:103AB0008804204602B0BDE8F0810029ECD00368FC
:103AC00029498B4244D001318B4247D14FF0200825
:103AD000904546D86A68D3008DF8073053098DF8B1
:103AE0000630530B8DF80530530D8DF80430AB685C
:103AF000D90001EB52718DF8031002F03F02590911
:103B0000372A8DF802104FEA53318DF801104FEA31
:103B1000535316498DF8003094BFC2F13802C2F1F8
:103B20007802284614F076FE04460028C1D1082207
:103B30006946284614F06EFE04460028B9D1C7F83D
:103B40000080424605F10C0130461AF0F1F8B0E76A
:103B50004FF01C08BCE76FF08604AAE76FF08804FA
:103B6000A7E76FF08904A4E708000002B20502008D
:103B70002DE9F04F91B01E469DF87430BDF870806D
:103B80000290914603930D46002900F0BB804F1E22
:103B90003F09FFF79FFE08F1FF330F2B044600F2A9
:103BA000DC80B9F1000F00F0D880102E02D0202E5A
:103BB00040F0D38014F03EFB002323602363636353
:103BC000674B23656749824604F1840014F086FB45
:103BD000102E14BF102308231A464946204601938D
:103BE00014F0E2FB604B2365604B6365604BA3659B
:103BF000604BE3654FF4C1732366266916F0030634
:103C0000FBD105F00F03C3F110035FFA83FBBBF197
:103C1000100F04A901D1002D76D104F1800014F019
:103C200074FB504614F00AFB1022002108A81AF079
:103C300074F8029BA5EB071203EB071108A81AF012
:103C400077F8BBF1100F4FEA071A60D010ABA3EB67
:103C50000B028021BBF1010F02F8101C08D0CBF140
:103C6000110008AB0BF1FF32002118441AF055F88F
:103C700008AB04A91A6851F8040B01364240042E1F
:103C800043F8042BF6D114F0D5FA236B019A43F0D4
:103C9000100349462363054604F18007204614F0CB
:103CA00083FB1A99384614F01BFB029E04F1A0090D
:103CB000B24440F2051B564534D108A9484614F0D9
:103CC0000DFB40F20513236523699B07FCD10CA96A
:103CD000384614F01AFB039B63B31B9842460CA9A9
:103CE0001AF026F80026102200210CA81AF015F868
:103CF000284614F0A3FA2046FFF718FE304611B00C
:103D0000BDE8F08F0F4644E704F1880087E7002DF7
:103D1000AED15A46294608A819F0FFFF80238DF836
:103D20002030A5E73146484614F0DAFA1036C4F8D8
:103D300050B0C0E71B9B039A0CA8984413F8011BD2
:103D400010F8016B984581EA060142EA0102F5D1BB
:103D5000002AC7D06FF09406C5E76FF08606CDE75E
:103D60003082010034060200F50536F024FC31FEF5
:103D700036833624FC31FE362DE9F041DDF818801B
:103D80000C4617461E46054630B329B302B91BBB85
:103D90004C220021284619F0C0FF2388B3F5105F9C
:103DA00009D108F0FE43B3F1407F15D1104B28F440
:103DB0007E129A4203D06FF08500BDE8F0816488DE
:103DC000C5F80080E208B2426A6205D8182AF2D02B
:103DD000202A04D0102A02D06FF08600EDE7B2420C
:103DE000FAD13946281D19F0A3FF0020E5E700BFEE
:103DF0000002C0032DE9F74F0D4616460446002881
:103E00005DD051B9002A5AD103682E4A23F47E139B
:103E1000934244D06FF088001DE00368294A23F4E0
:103E20007E139342F6D1002E39D0806CE8B1C0F1F8
:103E30001002B24219D23830204419F079FF04F14F
:103E400028020092616A04F13803201D14F067FD16
:103E500020B16FF0920003B0BDE8F08FA36CA064B6
:103E6000C3F11002103E15441E4406F10F084FEA3C
:103E700018182F464FF0010904F1280A04F1040B29
:103E8000C1450ED33544ED1B09D0A06C38302A460D
:103E90003946204419F04CFFA36C2B44A364002046
:103EA000D9E7CDF800A0616A3B465246584614F067
:103EB00036FD0028CDD1103709F10109E0E76FF098
:103EC0008600C8E70002C0037FB51D4608B301B3F2
:103ED000FAB1F3B10368154C23F47E16A6421BD148
:103EE00013F47C1FC3F3054408BF1024944216D872
:103EF0000123CDE9024300F1280301910093436AB5
:103F0000816C021D3830FFF733FE58B92C6004B0C5
:103F100070BD6FF08600FAE76FF08800F7E76FF08A
:103F20008900F4E76FF09200F1E700BF0002C003E0
:103F30007FB5094B6A4603F11006154618685968A3
:103F4000144603C40833B3422246F7D12846FEF78D
:103F50005DFE002004B070BD4406020070B586B05E
:103F6000174B01AA03F11006154618685968144644
:103F700003C40833B3422246F7D11B882380114B78
:103F8000D3F8B420120316D5A3F500434FF6FF7201
:103F90001B88934208BF4FF48D730B48ADF80A306D
:103FA000FDF784FD2846FEF7EFFA3220FEF728F9E8
:103FB000002006B070BDD3F8B830C3F30803ECE7B7
:103FC000540602000081E00F00F0490207B5084BDB
:103FD00018680190202301A88DF80430FEF72AFB11
:103FE0003220FEF707F9002003B05DF804FB00BFA4
:103FF0006606020010B50C480C4C6FF00403A021BB
:1040000013F0800F03F1010207D12344222A83F821
:1040100000131346F4D1002010BD03F00F03043B3E
:10402000034419761346EBE700ED00E000E100E001
:1040300073B5044614F0FEF8054614F0FCFD88B193
:10404000134E33788DF80730FF2B0BD10DF107009D
:10405000FDF774FD18B10F48642114F0BFF89DF806
:10406000073033700C4B28461C6014F0E7F814F04E
:10407000E2FD50B19DF807102246002014F0B9F877
:1040800018B104486F2114F0A9F8002002B070BDE7
:10409000521200206A0602005C15002073B514F06D
:1040A000C9F8104D104B2E781C6814F0C7F814F0A6
:1040B000C2FD60B1FF2E0AD0297801AA002014F0B9
:1040C00091F818B109488F2114F088F8019C2CB997
:1040D00014F0B0F8064B1C6814F0B0F8204602B09B
:1040E00070BD00BF521200205C1500206A0602005D
:1040F0006015002010B5044614F09CF8024B1C60BB
:1041000014F09CF8002010BD6015002010B500F0E0
:104110004BF8054B054A1860002418465A609C600D
:10412000FFF7E8FF204610BD641500203141000074
:1041300013B5064C23780093054B1B8800F064F8F8
:1041400010B923780133237002B010BD672E002010
:104150004212002010B50020144614F02EFC022854
:1041600004D018B10248C32114F038F8204610BD1D
:10417000C9060200034B1868002380680222194612
:1041800010F0ECBF3C11002008B518B10548DF2144
:1041900014F024F84FF06042D2F8803E1B02FBD4AA
:1041A00008BD00BF3707020030B585B00F4B1D6852
:1041B000CDB9012208201A6014F020F8502303938F
:1041C0000B4B0C4C02946846CDE9003501F02AFBFC
:1041D00044F8040C18B90848822113F0FFFF07497E
:1041E000074800F0F9F9074805B030BDCC150020AC
:1041F000A0070200741500203707020018100020E5
:10420000C4150020701500202DE9F74F9DF830A04F
:104210000646884615461F4601F008FA022811D0C6
:1042200005F1040905F1090B3B0A00245FFA89F93D
:104230005C4510D301F0FAF9022837D0002003B012
:10424000BDE8F08F30684FF0FF3101F035FB0028FA
:10425000E6D00120F3E7052C14D8DFE804F0210BA9
:10426000030D0F11D121082001930134FDF7EAFC61
:10427000019BDDE74946F6E7F9B2F4E71946F2E7B4
:104280005146F0E7AA1DA2420CD0EA1DA24209D075
:1042900005F10802A24207D0A8F10602115DE2E78B
:1042A0005B21E0E75A21DEE75D21DCE7306801F0C1
:1042B00033FB0028C2D00248D12113F08FFFBDE7A5
:1042C00037070200054B1A782AB95B78002B0CBF20
:1042D0000320022070470120704700BF702E00208D
:1042E000F8B5032905460E4607D8174B5C5C032D2D
:1042F00019D8DFE805F0090F121514484FF4517171
:1043000013F06CFF0024F2E744F00204104B1F6826
:104310007FB9F8BD44F00804F8E744F02004F5E75D
:1043200044F08004F2E7094840F2593113F056FF97
:10433000ECE77B681A68144203D05B683146284674
:1043400098473F68E4E700BF14080200AB0702008B
:10435000FC15002038B5104D2B78ABB10F4C2378ED
:104360001BB114F0ABFB00232370002014F0A7FB5B
:104370000B4C50B100F0CAFA002320782B700121B9
:10438000FFF7AEFF0123237038BD064B01221A70E0
:10439000054B22781A70F7E76C2E00206A2E002059
:1043A000722E00206D2E00206E2E002010B513F00E
:1043B00041FF064B1B7804461BB1BDE8104013F0CB
:1043C0003DBFFFF7C7FF2046F7E700BF692E00207B
:1043D00010B5154C2378FF2B14D1E0B113484FF4DE
:1043E000767113F0FBFE2378D3B901232370104BB1
:1043F0001B78012B11D90F4B1B7873B9BDE8104006
:10440000FFF7A8BF53B90028EFD1084840F2DA31CE
:1044100013F0E4FE2378013B237010BD0028FAD08E
:104420000133DBB2E2E700BF702E0020AB070200D1
:10443000722E00206D2E002070B5144E13F0FAFE7F
:1044400033780546ABB900F0A3FB044620B12846FB
:1044500013F0F4FE204670BDAFF300800C4813F05B
:10446000BEFE00F031FE0B4B1C6000F05DFC0A4B01
:10447000186000F0E5F914F024FB084B18600123E4
:1044800028463370002413F0D9FEE3E7732E002092
:10449000FC150020D0150020F8150020D4150020B0
:1044A0002DE9F843441EE3B2012B0E4604D93648E9
:1044B00040F29B1113F092FE344D2B5DFF2B4AD13D
:1044C000002E50D030484FF4CF7113F087FE2B5D93
:1044D000002B4CD02E4F3978013301292B5544D96C
:1044E000FFF7F0FE0128044646D8DFF8B08013F04D
:1044F000A1FE98F80030054613B3264E33781BB959
:1045000001223270244A1370DFF8949099F8003039
:1045100023B114F0D3FA002389F80030284613F0B1
:104520008DFE012014F0CBFA13F084FE337805469B
:104530001BB100F0EBF900233370002388F8003042
:10454000284613F07BFE3878A0420ED02146FFF7B4
:10455000C7FE3C7009E063B94EB90B484FF4D07107
:1045600013F03CFE2B5D013B2B55BDE8F8832B5D22
:10457000B0E7002EF7D0ADE70329E4D10228E2D15D
:1045800000F016FADFE700BFAB070200702E002034
:10459000722E0020692E00206D2E00206C2E00202F
:1045A0006A2E002038B513F045FE094B1B78012B0D
:1045B000054604D813F042FE0024204638BD054BC2
:1045C0001C6800F0E7F90444284613F037FEF4E7CE
:1045D000722E0020D015002038B54160044613F03B
:1045E00029FE214605460448FDF798FA2846BDE80D
:1045F000384013F023BE00BFFC150020054B1B689C
:10460000584300F57420044B00F23F20B0FBF3F058
:10461000704700BFF815002040420F002DE9FF470A
:10462000EFF3108772B6AFF3008014F0BDFC0028E2
:104630007ED0764EDFF8F081337823B10020FFF78B
:10464000C7FE00233370FFF73DFE012811D009D9C2
:104650000238C0B2012872D940F2C131404613F08D
:10466000BDFD06E0337823B10020FFF7B1FE002343
:104670003370FFF727FE0128654CDFF8BC91054633
:1046800000F28B802078A84205D099F80030002BEA
:1046900000F0AF802570207800F060F999F80030C4
:1046A00013B15C4B1B782370AFF3008007B962B67F
:1046B000EFF3108772B6584B1A7852B100221A7075
:1046C000544B20781B78984203D101212170FFF7C9
:1046D00007FE524800F096FA03F030FA054600282B
:1046E000AAD1DFF8588198F80030A3B189F800000A
:1046F000DFF8409199F800301BB114F0DFF989F828
:104700000050002014F0DBF9002876D000F0FEF80D
:10471000002388F80030337823B10020FFF758FEDB
:104720000023337020780021FFF7DAFD0023237087
:10473000AFF3008007B962B604B0BDE8F08703A903
:10474000002000F0ADFA002893D1354B039A1B6886
:104750009A4204D80120FFF73BFE012388E7314B42
:104760001C6800F017F9241804D52F4840F2AA312C
:1047700013F034FD039B9C42ECD200F02FF9830030
:1047800043F002030399294A24489BB20193002372
:104790000093091B14F099F96BE7DFF8A0A09AF8D1
:1047A0000030CBB914F087F92078854203D099F80E
:1047B0000030D3B125709AF80030002B7FF46BAF36
:1047C0001B4B1B7823B914F078F91A4B01221A708D
:1047D00001238AF800305EE7207885423FF45BAF22
:1047E00099F80030002B7FF455AF2946FFF778FD8C
:1047F000E0E72946FFF774FD4CE7012000F0AEF832
:1048000007B962B6EFF3108772B67AE76B2E002015
:10481000722E00206E2E0020682E0020D815002059
:10482000D4150020D0150020AB070200AD430000D6
:104830006F2E00206A2E00206D2E00206C2E00208E
:1048400010B51C4C636AD90003D51B488F2113F0A7
:10485000C5FC636A9B0003D51748922113F0BEFC88
:10486000144BD3F8903003F00403002B134B14BF08
:10487000012200221A7005D04FF41670FFF7BEFE19
:104880000F4B18600F4B1B680120C3F303239840A4
:10489000C0F1010000EB80006430FFF7AFFE0A4A70
:1048A000136803441360034BD3F89020074B1A603E
:1048B00010BD00BF00400E4018080200752E0020F9
:1048C0000C160020002004400416002000160020D2
:1048D00008B50B4B1B7893B1022000F0BBFB70B105
:1048E00000F00EFA58B1002201210220FDF76CFD04
:1048F00014F02EF9034B1860034B01221A7008BD07
:10490000752E002008160020742E002038B50E4C9D
:104910000E4D23782BB92B781BB114F019F90C4BE1
:10492000186013F09CFD2B786BB10A4AD2F89030D6
:104930001B07FBD514F00CF9054B1B68C01A064B7E
:1049400018600023237038BD742E0020752E0020BF
:104950000816002000400E400C16002002280AD045
:1049600003280BD001280CD1084A136923F0040353
:10497000136130BF70470020FDF750BF0020FDF7E6
:1049800081BF034840F27F1113F028BC00ED00E026
:1049900018080200044B1B680BB103EBD303034A56
:1049A00010681844704700BF0C1600200416002041
:1049B000084B45F60E02D3F88011C3F88021064A51
:1049C000126802F4A0721A66CA0744BF0022C3F834
:1049D0008021704700400E4000160020014B1878DF
:1049E000704700BF752E002038B500F0D1FA094C91
:1049F000094B1A6823680025C31A2AB123B15169EB
:104A0000994203D3C91A5161206038BD55615B1AC0
:104A10009268F2E7141600201816002070B5C388BB
:104A200004460D463BB9FFF7BDFD8542064602D25E
:104A300014F035F835460E4965610B688BB90C608A
:104A4000A3600DE0AD1A9A68656118466AB1134615
:104A50005A69AA42F6D930B18460521BA3605A61E8
:104A600070BD0020F4E70C60F7E79C60A260F7E7F8
:104A70001816002038B5134D2B685B6993B1124AA4
:104A8000146802201C4400F0B7FA204600F086FAB1
:104A90000E492A6800230B70D088800709D50123AE
:104AA0000B7038BD022000F0A7FA022000F0CAFA0D
:104AB000EEE79268002AF4D050690344012BEBD949
:104AC000EFE700BF1816002014160020772E0020F4
:104AD00070B516469DF814200271049A0260C0E970
:104AE00003360022BDF81830826004460D46C380AC
:104AF000EEB900F04DFA2844A0619DB12E4613F0A6
:104B000099FB0546FFF770FF31462046FFF786FF09
:104B1000104B1B68A34201D1FFF7ACFF284613F0EE
:104B20008DFB02E0E36865617BB9002070BD00F099
:104B30002FFA3044A061002DE0D1E3686561002BBD
:104B4000DDD0216820469847D9E72168204698475C
:104B5000EBE700BF181600200C490B6800227BB160
:104B600083420AD183687AB1936083681BB15A6922
:104B700041690A445A61002070471A469B68EEE773
:104B80000028EFD0022070470B60EEE718160020D7
:104B900070B5154E13F055FB34780546FCB9134B30
:104BA0001C60134B1C60134B1C8000F0ABF9012000
:104BB00000F022FA00F076FA0F4B0246186020B996
:104BC000284613F044FB232070BD23460B4840F2D7
:104BD000E73110F087F80A4B18600123337028463C
:104BE00013F035FB0020EFE7782E00201816002088
:104BF00014160020222E00201C16002018FCFFFF97
:104C00001016002070B5044640B313F013FB144E89
:104C10000546FFF7E9FE3068A04209D02046FFF7BD
:104C20009BFF0446B0B1284613F008FB204670BD38
:104C3000FFF792FF04460028F5D133683BB9022004
:104C400000F0E8F9284613F0F9FA0024EEE7FFF740
:104C500011FFF7E73368002BF4D1F0E72224E5E7F2
:104C60001816002038B50C460546A8B1A1B100239E
:104C70000B7013F0E6FA094B1B68012133B913F0EE
:104C8000E6FA002038BD9D4204D121702278002A26
:104C9000F9D0F4E79B68F1E72220F3E7181600202B
:104CA000F8B506460F4613F0CCFA134B1B680446C2
:104CB000002523B9204613F0CAFA1B2011E05A69D7
:104CC0001544DA88B2420DD10C4E00F061F9336818
:104CD000C01AA8420AD3002320463B6013F0B7FA5B
:104CE0000020F8BDFF2EEFD09B68E2E700F050F9FE
:104CF00033682B441B1AEFE7181600201416002007
:104D000008B5074B187848B113F022FF054B1B6814
:104D10009B69C01A02288CBF0020012008BD00BF7B
:104D2000772E002018160020014B1868704700BF2E
:104D30001C160020F8B50C4B1B68834205460E4636
:104D40000FD30A4B00241F6840F2E73021464FF48E
:104D50007A720023E5FB07010FF0C4FF30602046A4
:104D6000F8BD2120FCE700BF101600201C16002013
:104D700010B50F4B1A689AB1531E4FF47A71134253
:104D8000A0FB01010ED1B2FA82F2C2F11F04531C42
:104D9000E040D24301FA03F3184321FA02F202433E
:104DA000104610BD00230FF09DFF0246F8E700BF3C
:104DB0001C1600202DE9F047C20704460BD54D4ACA
:104DC000138801339BB21380FFF70EFE4A4B1B681A
:104DD0000BB1FFF74FFEA30740F18A8013F031FAC1
:104DE0000546FFF701FE4FF00009434F4E46C84607
:104DF0003C680CB163698BB1404B0022012E1A70E4
:104E000003D119F0020F18BF1E70002C6CD0FFF7F1
:104E100031FE2846BDE8F04713F019BA23465A6917
:104E20003AB91A792179914288BF1C469B68002BB8
:104E3000F5D1284613F00BFA2569DDB100F0A8F88A
:104E4000A269A0EB02094FEAE9734D4578EB030331
:104E500011DA23691344A361E368B4F806900136BC
:104E600013B121682046984713F0EBF90546FFF788
:104E7000BBFDBDE7A94613F0E4F982462046FFF7E3
:104E80006BFE504613F0E3F92369002BE4D0B5EB39
:104E900009054FEAE97363EB4303002B04DA184872
:104EA00040F22B5113F09AF9A38B33B1E28B1344E8
:104EB0009BB2B3F57A7F0FD2E38313F0C2F9294690
:104EC00081462046FFF7AAFDA36922691344A36126
:104ED000484613F0BCF9BFE7A3F57A73E383A369EF
:104EE000013B013DA361E8E7022000F093F890E761
:104EF000BDE8F087222E002018160020762E002014
:104F00008B08020010B586B01D4B1868596803AABB
:104F100003C2197AD3F8090011700024B3F80D20E8
:104F20000190DB7B1748ADF8082001218DF80A308D
:104F3000FCF716FF8DF80C4013F018FE8DF81000EA
:104F400003A8FEF74DF901A901208DF80440FEF7F2
:104F500015F90D4A536A23F4FF6323F007035362E4
:104F600040F2FF73136201209460FEF733F9074BA0
:104F70004FF00052C3F880211A6006B010BD00BF88
:104F8000EE080200A00914000020044000E100E047
:104F9000014B9868704700BF0020044010B50446DC
:104FA00013F048F9124A9368516D9269520704D47C
:104FB000CA1A032A01D88B420DD1E21A022A98BFDD
:104FC000DC1C0B4BB4F1FF3F38BF013C5C655A6AF7
:104FD00042F004025A6213F031F9064A137833B1F1
:104FE00003490B6D43F002030B650023137010BDE2
:104FF00000200440531200208207054A00F00103FC
:10500000516A48BF43F004030B435362704700BF2B
:1050100000200440820700F0010309D5074A01215E
:10502000117007490A6D22F0030243F004030A6578
:1050300003494A6A22EA03034B6270475312002075
:1050400000200440830742BF014B0422DA6170470D
:1050500000200440064B01289B6904D0022805D19A
:10506000C3F38000704703F00100704700207047D1
:105070000020044010B513F0E4F8094A936904468F
:10508000590703F0010003F0070348BF40F0020096
:105090001362FFF78FFE2046BDE8104013F0D7B82B
:1050A0000020044008B50448FCF7CCFF034613F089
:1050B0005DFD23FA00F008BDA00914000148FDF7CA
:1050C0008DB800BF0500240010B50A4BD3F8883016
:1050D00003F00703013B012B0BD813F0ABF80121C0
:1050E00004460220FFF7DCF92046BDE8104013F02B
:1050F000A5B810BD00400E402DE9F0411E460368E2
:1051000004460F4690461BB11148E62113F066F89D
:1051100063681BB10E48E72113F060F80025A56015
:1051200042462946012000F047FC606058B13046F5
:10513000069A214600F0FEFA0646386030B96068EB
:1051400000F01AFD66600120BDE8F0812846FBE70B
:10515000FE0802007FB51E4E33781B0736D4337825
:1051600013F0060F2CD11B4D2B6823B11A4840F2C7
:10517000911113F033F8194800F054FB28602B68A4
:1051800013B33378164A174843F0020333700023F1
:105190000393154B009303A9144BFFF7ADFF04468F
:1051A00058B1337803F0FD0333702B684BB1286896
:1051B00000F0DEFB00232B6003E00D4807F038FE13
:1051C0000024204604B070BD0124EEE70224F8E775
:1051D0007D2F00202C160020FE080200400A02004D
:1051E000B80A020048160020C80A02001D53000039
:1051F000F551000070B5144B1860144B1960144B36
:105200000C461A60154613F016FD124B1B688342BC
:1052100004D128462346BDE8704018470E4C20684C
:1052200000F092FC20B10D4840F2FE2112F0D6FFB2
:105230000848022113F0B3FC20684FF0FF31BDE8AD
:10524000704000F011BC00BF5C1600205416002016
:10525000581600204816002024160020FE080200E0
:1052600038B5054612F0EDFFAC688CB912F0EFFFCF
:1052700068684FF0FF3100F0F7FB0028F2D00630ED
:1052800006289ABF054B1C5C012444F0004403E04F
:105290000023AB6012F0DBFF204638BD600902003E
:1052A000F8B5114E114D124F04462046FFF7D8FFB6
:1052B000B0F5803F04D040F2D521304612F08EFF89
:1052C0002B6803F03803202B07D1284612F0BFFECD
:1052D0000421384613F063FCE7E740F2E221304650
:1052E00012F07CFFF4E700BFFE080200792E0020D8
:1052F0004816002038B5084D04462046FFF7B0FF99
:10530000B0F5807F04D040F2C321284612F066FF3A
:1053100005F050FDF1E700BFFE0802002DE9F74F50
:1053200013F089FC544F5549554B3860554A00934A
:105330000846554B554EFFF7DFFE0446E8B9544981
:10534000544B0093544A554B0846FFF7D5FE04468C
:1053500098B907F00DF9044678B93378DFF8489129
:10536000DFF84881DFF848A103F0FD0343F00403B0
:105370003370042515F0080B44D0404D286818B14F
:1053800000F02AFA00232B60686818B100F0F4FBE3
:1053900000236B603E4D286818B100F01DFA002311
:1053A0002B60686818B100F0E7FB00236B60DFF842
:1053B0000481D8F8000000F0DBFA00257868C8F80E
:1053C00000503D6000F0D8FB35487D60012333700C
:1053D0006FF05F02017802704278002C45D0032202
:1053E000427082788370C378A4B20623C37084802D
:1053F000857112F02CFE13F01EFC03B0BDE8F04FD7
:1054000000F0EAB9A9070FD5D9F80000DAF80020B2
:10541000D8F8001007F0A0FD224BC8F800B01868BB
:1054200025F0020500F05AFB05F064FC6A070ED572
:1054300014F073FF58B11A4815F028FE002899D1CE
:1054400013484FF4803113F0AAFB25F0040514F043
:10545000A4FF08B96B078DD40748FFF701FF054388
:1054600088D505F047FC0425E2E744708278837014
:10547000C278C370BDE700BF481600203C1600206C
:10548000940A0200840A0200F55200007D2F0020D9
:1054900030160020600A0200500A0200A1520000EB
:1054A000792E0020241600205C16002054160020BF
:1054B000581600202C16002038B5FBF74FF80E4A7E
:1054C0000E4C0021012000F077FA206023686BB1B8
:1054D0000B4800F0A7F90B4B0B4A18601D68002120
:1054E00011602DB9206800F047FB2560012038BD10
:1054F000BDE83840FFF72EBE200A02002416002027
:10550000300A0200281600202016002002484FF41E
:10551000807113F044BB00BF3C16002001480121FC
:1055200013F03DBB4816002010B5144B1B78DB0769
:1055300009D5134C0021206800F0BEF928B9114AA2
:10554000136801331360002010BD13F074FB0E4B81
:105550001B688342F3D020684FF0FF3100F0ACF9B4
:1055600038B9084A1368013313600620074B185CEA
:10557000EAE706300628F9D90120E5E77D2F00206B
:10558000281600202016002048160020600902007E
:1055900010B50B4B1B78DB0711D50A4C236823B9D8
:1055A000094840F2623112F019FE2368013B236082
:1055B0002BB9064BBDE81040186800F0ADB910BD1E
:1055C0007D2F002020160020FE0802002816002053
:1055D000024A137843F00103137070477D2F0020B7
:1055E000024A0349034805F0FDB900BFEC0A020076
:1055F000080B0200300B0200EFF3058373B9EFF3E1
:105600001082094B12B9EFF3118212B11A68022A03
:1056100004D0186828B901221A6070476FF005009D
:1056200070474FF0FF307047201C002008B501F094
:1056300071FC38B1022804D0034B1868431E58424D
:10564000584108BD0320FCE7201C002010B5EFF3F3
:105650000583ABB9EFF310820C4B12B9EFF3118253
:1056600012B11A68022A0BD01A68012A0BD1084A13
:105670000024D47702221A6001F026F9204610BDDA
:105680006FF00500FBE74FF0FF30F8E7201C00202B
:1056900000ED00E008B5EFF3058393B9EFF3108355
:1056A00013B9EFF311831BB10A4B1B68022B08D00F
:1056B00001F030FC40B1022808D101F04BF9002084
:1056C00008BD6FF00500FBE70120F9E74FF0FF3060
:1056D000F6E700BF201C002010B50446EFF3058359
:1056E00003BBEFF3108313B9EFF311831BB1104B1E
:1056F0001B68022B16D001F00DFC30F0020314D110
:10570000012C03D101F026F9204610BD6CB901F03F
:10571000DBF90128F8D001F0FDFB841E18BF4FF023
:10572000FF34F1E76FF00504EEE74FF0FF34EBE7ED
:10573000201C0020F0B587B0144600220B460592CD
:10574000EFF3058222BBEFF3108212B9EFF311825F
:105750001AB1204A1268022A1AD0C8B1002C34D0DB
:10576000A56925B16A1E372A02D9002011E0182543
:105770006268D207F9D466696EB1B208D4E9027CD6
:10578000216857B1BCF15F0F02D9246904B1AEB9E9
:10579000059807B0F0BDA022F0E7BCF1000FF7D1EB
:1057A0002469002CF4D105ACCDE9005492B213F079
:1057B000B4FB01281CBF00230593E9E7CDE90147AD
:1057C000009500F09DFF0590E2E721461825A022F4
:1057D000E9E700BF201C002010B50446EFF3058365
:1057E000A3B9EFF3108313B9EFF311831BB10C4B83
:1057F0001B68022B0AD064B1204601F025F804286A
:105800000AD0204600F0CAFF002010BD6FF005004E
:10581000FBE76FF00300F8E76FF00200F5E700BF69
:10582000201C002038B50546EFF3058313B1002492
:10583000204638BDEFF3108313B9EFF311831BB18A
:105840001C4B1B68022BF2D02DB36B681A07EED4E9
:10585000D5E9021203F0010371B14F2AE7D993B1E0
:10586000042013F0B6FA04460028E0D0296800F0BE
:10587000FDFD44F00104DBE7002AD8D1ABB10420E0
:1058800013F0BCFAEFE7012013F0A3FA0446002856
:10589000CDD0296806E0012013F0B0FA04460028B4
:1058A000C5D0294600F0E2FDC2E7012013F0A6FAB8
:1058B000ECE700BF201C002010B503460C4620F08A
:1058C000010003F00102EFF30581E9B9EFF3108164
:1058D00011B9EFF3118119B10E490968022913D0EA
:1058E000012B14D9214662B100F032FD012801D10B
:1058F000002010BD002C14BF6FF001006FF00200FB
:10590000F7E700F077FCF1E76FF00500F1E76FF0E3
:105910000300EEE7201C002008B5024602F0010358
:1059200020F00100EFF30581C9B9EFF3108111B93F
:10593000EFF3118119B10D49096802290FD0012A2D
:1059400010D93BB100F0F8FA01280CBF00206FF02D
:10595000020008BD1A46194600F040FAF4E76FF05D
:105960000500F6E76FF00300F3E700BF201C0020FE
:1059700010B5034620F00104EFF305829AB9EFF366
:10598000108212B9EFF311821AB10A4A1268022A80
:1059900009D0012B0AD9204600F07AFD204600F0FC
:1059A0008FFD002010BD6FF00500FBE76FF00300D6
:1059B000F8E700BF201C002073B50E461546EFF334
:1059C0000583D3BBEFF3108313B9EFF311831BB13E
:1059D000244B1B68022B30D078B3B0422DD375B95D
:1059E000012837D10322002100F082F9044620B3B8
:1059F000AEB96DBB2946204600F038FD1EE0D5E962
:105A00000232C3B14F2A18D901281AD103220092B9
:105A10000022114600F02EF9044670B1C6B10023F1
:105A20001A461946204600F0D9F90128E1D020464F
:105A300000F046FD01E0002AD2D00024204602B04A
:105A400070BD1A46314600F08FF904460028F4D0A4
:105A50002D68CFE7314600F0A7F904460028C8D1E9
:105A6000EBE700BF201C002013B50C4688B3EFF312
:105A700005834BB9EFF3108313B9EFF31183F3B13F
:105A8000154B1B68022B1AD11CBB01AA214601949D
:105A900000F07EFC012803D06FF0020002B010BDC0
:105AA000019B0BB90020F9E74FF0E0234FF0805243
:105AB000C3F8042DBFF34F8FBFF36F8FF2E721467A
:105AC00000F098FB0128EDD0002CE5D06FF001002C
:105AD000E4E76FF00300E1E7201C002007B570B396
