S01B000062745F736F635F626C696E6B795F7368617265642E733337A1
S214004000007C0020457200004172000041720000F2
S214004010AD5900004172000041720000417200007C
S21400402041720000417200004172000041720000BF
S21400403041720000417200004172000041720000AF
S21400404041720000F1AA0000417200004DA4000079
S21400405035AB0000FDAA000001AB0000F5AA000089
S214004060417200004172000041720000417200007F
S214004070417200004172000041720000417200006F
S214004080417200004172000041720000417200005F
S214004090417200004172000041720000417200004F
S2140040A041720000417200004172000039AB00000E
S2140040B0F9AA00004172000075AB000041720000D2
S2140040C0F9900000417200000348044B834202D07E
S2140040D0034B03B118477047F0000020F0000020A3
S2140040E0000000000548064B1B1AD90F01EBA30180
S2140040F0491002D0034B03B118477047F000002068
S214004100F00000200000000010B5064C237843B9EC
S214004110FFF7DAFF044B13B10448AFF30080012326
S214004120237010BDF0000020000000004CE20000EC
S21400413008B5054B1BB105490548AFF30080BDE83F
S2140041400840FFF7CFBF00BF00000000F4000020CB
S2140041504CE20000A3F5803A704700BF174B002BD7
S21400416008BF134B9D46FFF7F5FF00218B460F4611
S2140041701348144A121A08F02FFC0E4B002B00D0DE
S21400418098470D4B002B00D09847002000210400D4
S2140041900D000D48002802D00C48AFF3008008F050
S2140041A0E9FB2000290002F047F908F0D1FB00BF28
S2140041B0000008000000000000000000007C002056
S2140041C0F00000209419002000000000000000000D
S2140041D0BFF34F8F0549064BCA6802F4E0621343EB
S2140041E0CB60BFF34F8F00BFFDE700BF00ED00E0E0
S2140041F00400FA0510B50246F8B1114B1968888814
S21400420090421AD39888904281BF0968996001202D
S214004210988099889868002420B904B198604FF671
S214004220FF7203E08A4203D10CB198609A8010BDF9
S2140042300131006889B20124EEE70020F7E700BFED
S214004240B810002000239A6AB2F5006F0AD2D3F89D
S2140042502838A3F50061B1F5605F03D21168084AFB
S214004260914203D000230370836070471968054AA3
S2140042709142F7D1012202709A6842609B69F3E787
S214004280AD1007B007B0CD5E1FB50C4640B901A80B
S214004290FFF7D8FF044B029A1A6023600423A3801A
S2140042A0002004B010BD00BFA00200200023D3F8F9
S2140042B02828A2F50061B1F5605F01D2536A18475D
S2140042C018467047002310B4D3F82838A3F50064C6
S2140042D0B4F5605F09D21B6BA3F50064B4F5605FAC
S2140042E003D29B6B5DF8044B184740F201105DF853
S2140042F0044B70470023D3F82838A3F50062B2F5C4
S214004300605F07D21B6BA3F50062B2F5605F01D257
S214004310DB6B184740F20110704700007FB50E4A6D
S21400432003466D4602F11006106851682C4603C419
S2140043300832B2422546F7D15A1E04A90F3311F8A7
S214004340014D12F8010F844204D19A42F7D10120A0
S21400435004B070BD0020FBE7F4CB0000F8B5184EA3
S214004360306848BB174B184C184FE41A184B1C44BF
S21400437024F4FF6424F00704D7F8F8309BB2B4EBBB
S214004380832F18D2656BC5B1D7F8F8309BB2B5EB62
S214004390832F12D2D7F8F82005F1500392B2B3EB70
S2140043A0822F0AD82846FFF7B9FF30B1EB6933F001
S2140043B0080302D034603068F8BD04F50064DBE71B
S2140043C09802002010000020F00000200081E00F7E
S2140043D0A3EA000010B50C4648B9FFF7BFFF054B2F
S2140043E010B1426B126A1A6023600423A380002077
S2140043F010BD00BF9C020020084B40F201121A605C
S2140044004FF0FF329A6001225A60014410F8012BE7
S2140044109A618842FAD1D869C043704700C001400B
S214004420034B044A9979117500221A60704700BF41
S214004430680B0020000B002030B500228BB013461E
S214004440D91003F00704415C2141CC0741BF02F1BB
S21400445028016944013201F8283C0133252BEFD1AD
S2140044600D4C0023D91003F00705415C2941C9070C
S2140044705FBFB3FBF2F102FB11312831694448BF3C
S214004480D9B203F1010358BF11F8281C04F8011F24
S214004490252BE7D10BB030BD290B002008B503480B
S2140044A0FFF7CAFF002340F8063C08BD6E0B00204D
S2140044B0084A10B5136840F2E244604300F5807085
S2140044C004FB013303EB500313605368034453604B
S2140044D010BD00BF000B0020D0B50C4CE38C0A20AA
S2140044E0584307F099FF0646A08C0F4607F094FF46
S2140044F0074B002207F0FAFF02460B4630463946C5
S21400450008F01EF908F004FA2083D0BD000B002046
S2140045100000F43F70B5094CB4F80710A079B4F861
S2140045200960B4F80D50FFF7C3FF054B9E84DD8489
S214004530FFF7D2FF0023236070BD00BF680B00208A
S214004540000B0020837DDB0701D5808A7047D0E909
S21400455001239B1A44BF828A9B1898B270470000BA
S214004560084BD3F8F020D3F8F4300270110A120C7E
S21400457082701A0AC2701A0C1B0E417002714371C7
S214004580704700BF0081E00F0C4B984205D90C4BDA
S214004590984210D80122012301E00022134609495F
S2140045A00B640949D1F8003123F0807343EA0263B3
S2140045B0C1F8003170470222EDE700BF0048E8016D
S2140045C00090D0030000C84300400E402F4B1A6FE7
S2140045D0D96C11F0010F02F0060242D0002A40D03A
S2140045E013284FD9143813288CBF102308232749C3
S2140045F0013BCA6C180322F47F4240EA03231343AC
S214004600CB64234BCA6C1B88C2F3032228330132C7
S21400461002EB820003EB5303B3FBF0F3C86C013BE1
S214004620072B28BF072320F0EE6040EA036343F41D
S2140046308013CB64174BB3F90030002B10DB283304
S214004640500800EB420203EB5303B3FBF2F30A6D90
S214004650072B28BF072322F0700242EA03130B65DC
S2140046607047D96C01F00101114304D1092809D91A
S2140046700A380928B8E7DB6C13F00103B7D01AB97B
S2140046802728B1E70423B2E70023B0E700300E4046
S214004690840B0020820B0020002070B5D0F828384C
S2140046A0A3F50062B2F5605FE0B001D21B6B23B9E0
S2140046B04FF40174204660B070BD5B6A4FF4C07260
S2140046C06946984704460028F4D1064640F201257C
S2140046D0D6F82838A3F50062B2F5605FE8D21B6B07
S2140046E0A3F50062B2F5605FE2D29B6A00216846DD
S2140046F09847A842ECD040F20323984218BF0446DD
S214004700D8E7000030B4044600200B46D0F828282E
S214004710A2F50061B1F5605F0BD2126BA2F50061E5
S214004720B1F5605F05D21569044A2146AC4630BC37
S21400473060474FF4817030BC704700BFF806002019
S2140047400A4B0B4998424A680BD90A4B98420AD939
S21400475002F040724B6823F0407343EA02634B60FA
S21400476070470022F6E70122F4E700BF40787D019B
S21400477000000E40005A620238B5064C0648256C0A
S21400478041F671332364ADB2FFF7DAFF0DB10023B3
S214004790236438BD00000E4000F0490238B5064CD0
S2140047A0256C41F671332364ADB2FFF7C9FF0DB136
S2140047B00023236438BD00BF00000E4037B5044612
S2140047C0684680E8060003C8251D85E805002373B3
S2140047D0069B0B4A2361BDF81C30A382002323608E
S2140047E0136853B119461B68002BFBD10C609088E8
S2140047F0013080B2908003B030BD1460F7E700BF90
S2140048007813002037B50D461446FFF7F3FC70B159
S214004810036973B1818A4FF6FE72914209D1009501
S214004820ADF8044069460120984703B030BD01202A
S214004830FBE70E20F9E7036937B514460D46828A72
S21400484063B14FF6FE718A4208D100200090ADF8A1
S21400485004006946984728B103B030BD2B6000209D
S2140048602280F9E7009B2B60BDF804302380F3E735
S21400487038B50D461446FFF7BDFC40B12246294622
S214004880FFF7D9FF10B92B6803B9208038BD012087
S214004890FCE7000007B503790193054A0368009317
S2140048A006CA02230830FFF789FF03B05DF804FB51
S2140048B094CC0000034B5A6D12B95865A3F85810F3
S2140048C0704700BF000B0020002310B5D3F828382F
S2140048D0A3F50062B2F5605F0CD21968064A9142F1
S2140048E008D1064C2278012A04D11B6A984708B9D9
S2140048F00223237010BD00BF07B0CD5E0C01002060
S214004900002310B5D3F82838A3F50062B2F5605F2F
S2140049100DD21968064A914209D1064C227812F047
S214004920FD0F04D1DB69984708B90123237010BD39
S21400493007B0CD5E0C01002008B50F4B0F4C1B785E
S2140049404FF000556BB1FFF7DBFF0D4B2B600123DB
S214004950A360236823F4E06343F480632360FFF7D7
S21400496037FC2B600123A360236823F4E06343F441
S21400497080632360FFF72CFCE506002000500E4005
S21400498002020FF0054A08B5937E43F04003937683
S214004990034B00221A70FFF7CFFF00BF000B00206A
S2140049A0801300202DE9F04105460E461146FFF71C
S2140049B0C9FD884228BF084687B2B846B8F1000F3E
S2140049C009D12FB1AB7DDA0744BF23F00103AB75E5
S2140049D03846BDE8F081AA8A2B6869689C18641A74
S2140049E0A4B2444528BF44462246304607F0E6FFB8
S2140049F06B682968AA8A23440A442644934228BF3F
S214004A000B46A8EB04041FFA84F86B60D6E7F8B5EB
S214004A101F46038A04461646EBB9C57DDDB1012361
S214004A20013D0B700222C57500F11001FFF7BAFFB9
S214004A30E37D9BB1228ABA4228BF3A4631462046D9
S214004A40FFF7B0FF238A1B1A2382E37D13B9638A1C
S214004A501B1A6382F8BD00230B70EBE7638A238280
S214004A60E8E72DE9F041868A04460F461146FFF72F
S214004A7069FD361AB6B28E4228BF0E46B046B8F169
S214004A80000F0BD13EB1D4E901329A4202BFA37D9A
S214004A9043F00103A3753046BDE8F081A28A23687F
S214004AA0A0689D182D1AADB2454528BF45462A4632
S214004AB0394607F083FFA3682168A28A2B440A447C
S214004AC02F44934228BF0B46A8EB05051FFA85F82E
S214004AD0A360D4E7F8B5044616461F4611B3858A88
S214004AE0FFF730FD2D1AADB2012D29D9E37D63B154
S214004AF0658AE06805702D0A07D02268A38A01300F
S214004B001344984228BF1046057000236382A368AA
S214004B10E360022204F112012046FFF7A2FFE37DC4
S214004B200133E3753A4631462046FFF79AFF638A1B
S214004B3003446382E37D13B9238A03442382F8BDCA
S214004B400020FCE713B50379124A033304460193A9
S214004B5000F14403009306CA02231430FFF72EFE2A
S214004B60238A0193E368009394E80600237A04F10D
S214004B702C00FFF723FE237A22792168A4F845004B
S214004B8004F1470084F8443002B0BDE8104007F056
S214004B9015BF00BFA0CC000070B50C4C0C4B0646F1
S214004BA00D4694E8030083E803001846FFF772FEFC
S214004BB0084BD4E9020102221A7283E80300DE6081
S214004BC01D821846BDE87040FFF7BCBF54CD0000FC
S214004BD068010020100100202DE9F347DDF8288049
S214004BE0BDF82C9004460E4617461D46FFF702FBFE
S214004BF08246BAF1000F01D0B44205D94FF6FF74D1
S214004C00204602B0BDE8F0879AF80830DAF80400CB
S214004C109D421AD12A46394607F0A6FFA8B9B8F130
S214004C20000FEDD00DF1020201A95046FFF703FE7A
S214004C3058B9019949B1BDF802304B4505D14A46ED
S214004C40404607F091FF0028DAD00134DAF800A0D9
S214004C50A4B2CEE738B50C4611462568AD1A2A46EA
S214004C60014407F091FF256038BD000001282DE9BA
S214004C70F34704D00024204602B0BDE8F0878B88B6
S214004C80012B40F035810B681B78FBB99A4A9B4C88
S214004C9013609B4A13709B4A13609B4A13609B4A9F
S214004CA013609B4A13609B4A13709B4A13609B4A8F
S214004CB013609B4A13702378022B01D1FFF704FE82
S214004CC001232370974B00221A70D3E7032B40F082
S214004CD0FC808B4B894E1C78002C4DD13378002BF2
S214004CE000F0EB808B4B1B78082B02D0402B40F05B
S214004CF08480DFF80482D8F800304BB90023D3F85C
S214004D002838A3F50063B3F5605F55D3802433E0FD
S214004D1013F003071CBFC7F10407FFB203EB070A33
S214004D20BAF5806F00F2CD807F48DFF8EC913A4606
S214004D301844FF2107F050FE7C4BD9F800501B6842
S214004D40C8F800A00AEB05029A4200F28F806D4B6D
S214004D501B681D445544DFF8B8A125F4FF65DAF852
S214004D60000025F00705854210D9291A00F50060D5
S214004D70FFF7C0FA40B185243378022B01D1FFF744
S214004D80A3FD0023337076E7CAF80050D8F8001069
S214004D90D9F80000FFF7B6FCD9F80030D8F80020A4
S214004DA0554913440546DB1B5F48C9F80030FFF73A
S214004DB051FF002DA2D0DEE7FFF76EFCB8B9D0F8A1
S214004DC028380190A3F50062B2F5605FD3D21B6B62
S214004DD0A3F50062B2F5605FCDD29B69012101A800
S214004DE098470028C7D14E4B01221A70C4E741F2FB
S214004DF0080398428AD18624BEE7002B5FD0494B31
S214004E001B78002B82D0454F3B6843B93F4B48493F
S214004E1018681022FFF756FA0028ADD0ABE713F05B
S214004E2003021CBFC2F10402D2B29D18B5F5806F12
S214004E3047D84048DFF8D080FF21184407F0CCFD63
S214004E403D4A3E4BD8F800103D609B1A3C4A13443E
S214004E503C4A13408B4236D83B4BD3F8F8309BB2D3
S214004E609B020D44A3F58053AB4201D2832483E713
S214004E70DFF89C90D9F800001540854209D9291A18
S214004E8000F50060FFF736FA00287FF474AFC9F823
S214004E9000503A682749D8F80000FFF713FAD8F808
S214004EA000303A681D49054613442248C8F80030C9
S214004EB0FFF7D0FE002DA9D05DE781245CE78424AF
S214004EC05AE7822458E7872456E7042B12D11F4856
S214004ED01323022143700170FFF7ECFC1C4A1D4BA4
S214004EE0128905329A801C4A1A6042789A71C1E685
S214004EF00D24C0E60624BEE6F80A0020FD0A0020BF
S214004F00FE0A0020EC060020DC020020D80200206A
S214004F10E8060020FC0A0020F4060020E006002038
S214004F20E5060020E4060020F8060020F006002033
S214004F30C8020020E002002010000020F000002040
S214004F40A3EA000000F8FFFF0081E00F5C0B0020E2
S214004F50000B0020680B0020854900002DE9F84F63
S214004F60DFF85091494BD9F80050DFF84C81471BC9
S214004F7082464748C8F800701B1A4648034423F484
S214004F80FF6323F007039F42144678D3424BD3F8BF
S214004F90F8309BB29B020AEB0206A3F580539E42B2
S214004FA070D82C44B4F5806F03D93C4B82221A701B
S214004FB063E0DFF8FCB00BEB050007F0FFFC384BB6
S214004FC0C9F800401A6822B9332C56D9DBF83420C9
S214004FD01A601B689F421FD89E421DD903F110021B
S214004FE096424AD31D44A5EB0A055D442D4A2B463E
S214004FF005F1100153F8040B42F8040B8B42F9D16B
S2140050002848FFF78BF910B9244B8422CFE71022EB
S214005010FF21284607F0E0FC234D244B286804F0C7
S2140050200304361B1E4058B907EA0300C0F50061AA
S2140050303144FFF75FF92E6040B1184B8522B6E782
S214005040864203D9311A00F50060F2E7D9F800204D
S2140050501749D8F80000121BFFF734F9D9F80020DA
S214005060D8F800301349121B054613441048C8F8F8
S2140050700030FFF7EFFD002DDFD1BDE8F88F074BBE
S214005080872294E7054B832291E700BFF0000020BB
S21400509010000020A3EA00000081E00FFE0A0020B6
S2140050A0D8020020C8020020E806002000F8FFFF13
S2140050B0E0020020E0060020DC02002037B5124C9B
S2140050C0002360600093437AD0E90021206802F054
S2140050D070FC238CDB050CD563680C4D1B7A2A7894
S2140050E09A4206D0012B06D0022B08D063681B7AA2
S2140050F02B7003B030BD206802F036FCF6E720685F
S21400510002F038FCF2E700BFC4100020880200203E
S21400511013B50D4B0D4C1B8AADF804300128ADF8C5
S214005120003004BF02238DF8043001A908BF042311
S214005130206808BF8DF8003002F03FFB2068694603
S21400514002F051FB02B010BD54CD0000C410002088
S214005150034B00221A6118680122032102F0C8B826
S214005160C410002010B5164CA37E5B0626D4FFF7AD
S214005170EFFFA28C236840F2E24101FB023323607A
S21400518094F84F10A37A0B442521B3FBF1F001FBF2
S2140051901033A37223890133238163680A2101FB3C
S2140051A002336360238B5A1E22833BB9A27E42F0F1
S2140051B04002A276034A1370FFF7BEFB10BD00BF85
S2140051C0000B0020801300207FB502238DF80630E8
S2140051D0064B5A8B596918680332ADF804206A46A4
S2140051E002F080FB009807B05DF804FBC4100020B6
S2140051F010B51E4C1946236986B023B3A2F10800E9
S214005200084322D101AA0321206802F067FB6368E5
S21400521060615B7A23769DF80430DA1F534253416F
S214005220627E63F30002039BE361BDF8063062769C
S214005230638304F11801022023699847206801223D
S214005240002102F051FB06B010BD02F17F4008437A
S21400525005D10021012006B0BDE81040184712F421
S214005260A0411ABF00210320FF20F4E7C41000204D
S2140052702DE9FF41194C1A4D637A0133DBB2282B16
S21400528028BF252320466372FFF718FF627D154965
S2140052902868D4F80C80667C4FF40073023202F063
S2140052A0FFFA6B68104A5B7A06F001063046D75C58
S2140052B0FFF72EFF00220123009203932868CDF803
S2140052C0088002AB394602F017F810B1FFF740FF2E
S2140052D0D2E7064B2B6104B0BDE8F081E810002051
S2140052E0C4100020FC100020CDCC0000A553000008
S2140052F02DE9FF41254CA37E5A0640D4244A218935
S21400530023F0070343F00103A37613681BB19288CA
S2140053108A4200D19847A37A1E48234493F82A303D
S2140053206375FFF7CBFED4E900561B4C1B4A636837
S2140053305B7A4FEA5608D75CA5EB56060120FFF7C6
S214005340E7FE643500964FF4807300264544ADF8BA
S2140053500C306A4639462068029533468DF804605C
S2140053608DF80E6001F0D4FF012205463146206814
S21400537002F0BAFA35B1FFF7F5FEFFF7B9FF04B051
S214005380BDE8F081064B2361F9E700BF000B002063
S214005390680B00200C0B0020C4100020CDCC0000B1
S2140053A00D55000002282DE9F0411DD002D8012835
S2140053B007D0FEE7032800F09E80FF2800F09B80C1
S2140053C0F7E74E4C637C990707D5FFF7C1FEFFF75A
S2140053D04FFF637C6FF341036374637CDA0768D422
S2140053E0BDE8F041FFF744BF4B78DB0740F1838010
S2140053F04C68227802F00F08B8F1030F5BD0B8F1C2
S214005400050F78D13E498B7B03F00103B3EBD21F27
S2140054104FD10622083104F1080007F0A5FB064626
S214005420002846D1FFF794FEFFF7CEFE354D3146F5
S21400543007465C22284607F0CFFAAB7EA5F8188010
S21400544043F02003AB76627E237E43EA0223AB84DE
S214005450627F237F43EA0223EB8494F82330C3F36E
S214005460040385F84F3094F82330C3F3421385F8CD
S214005470503004F11E001B232B85FEF7DDFFD4F809
S2140054800E30E27CEB60A37C2F6043EA0223227D91
S214005490607D43EA02432B61012695F84F30AB72DC
S2140054A02E75E18A3144FFF703F8FFF721FF164B0C
S2140054B01E70BDE8F081124DAB7B03F00103B3EB29
S2140054C0D21FF6D1062205F1080104F1080007F004
S2140054D04BFB0028EDD1094C286894F83D204FF48A
S2140054E00073023204F13C0102F0DAF9637C43F007
S2140054F002036374DDE7FFF72BFE71E7E810002078
S214005500C4100020000B00208013002002282DE984
S214005510F74F0F460BD003D8012800F0D781FEE7DF
S214005520032800F0DB81FF2800F0D881F7E74E78EB
S2140055304A68B34D16F0010661D10026AB7EB14C29
S21400554013F0200F12D0696D6FF34513AB76002968
S21400555000F0C580237895F85820627043F0030366
S214005560A01C237007F02AFA00236B65A648A549FD
S214005570FEF7E8FFAB7E003818BF012060F341035A
S214005580C3F3C002AB76C3F300139B0043EAC20327
S214005590227843EA001322F01C0213436278237039
S2140055A09A4C02324FF400732068D2B202F078F9B7
S2140055B0AB7E7F68D90709D56FF30003AB7600236F
S2140055C06B60FFF701FE2860FEF786FF002E00F0F6
S2140055D0F9803B7803F00303022B00F05F81032B76
S2140055E000F09480012B40F0ED8089487D78818A18
S2140055F0FEF7A8FF081ABC1C80B200265BE11378F1
S214005600AC7EC3F3001363F382041378AC76C4F362
S2140056100011C3F3C00C8C45E0B2C3F3800AC4F398
S214005620C0040CD0544588D0AB7E84F00104E4005E
S21400563044F0200423F028031C43AC767DE703F0F7
S2140056400303022B18D0032B04D0012BEAD14FF012
S214005650000B12E0544508D084F00104E40044F046
S214005660200420F028031C43AC76AB7E81F00101B9
S21400567061F30413AB7661E7B34692F80180B8F1A4
S214005680000F0ED1544501D10026EEE7AB7E84F024
S2140056900104E40044F0200423F028031C43AC7605
S2140056A0F2E75B48B0F81490FEF74CFFA9EB000059
S2140056B080B2BBF1000F03D00228B3D9023880B203
S2140056C0544509D0AB7E84F00104E40044F0200485
S2140056D023F028031C43AC768045C6D92DE795F801
S2140056E028304948A21C0DF10701FFF790F910F089
S2140056F0FF0018BF9DF80730227860701ABF01338C
S214005700DBB2012363F3010222702FE7BB780C2B78
S2140057100AD80C2B0AD8DFE803F03F2B58090909F2
S2140057200909600909091800142B7FD0394A127834
S2140057302AB1162B00F09680182B00F0A28036486F
S21400574007220270437002210DE033480C234FF00D
S214005750FF3203700123437082700371022200231C
S214005760C2704371062103B0BDE8F04FFFF7A2B840
S214005770797A3B7A294A43EA0123938013462849DB
S21400578043F8061BD7F80310C2F80610B7F8072030
S2140057909A807A7A9A7115E07A7B3B7B1F4943EAB6
S2140057A002238B800B461F4A43F8062BD7F80320AC
S2140057B0C1F80620D7F807205A60B7F80B201A81E0
S2140057C07A7B9A7203B0BDE8F08F2A89134B0532B4
S2140057D09A80154A1A60FA78DCE7D7F80330228CEC
S2140057E00D48134003F0FF0322F0FF021343024666
S2140057F0092102F8011BC0F8013000235360B2E70C
S214005800000B002088010020CC0D0020C4100020D2
S21400581060130020880B00205C0B0020680B002023
S2140058209D4400001545000085490000B7F8053086
S214005830B7F803202D48DB08934228BF13462B8574
S214005840152300216FF004046FF02702037007236E
S214005850817081714470C27003714471C2710372A9
S214005860092180E73A79FB782048134003F00303C8
S214005870022B18BF01231722027043708370032186
S21400588071E77A79B9791A4B42EA01229A80194A65
S2140058901A60D7F80320C3F8062093E716487D78E9
S2140058A0818AFEF74FFE081A80B2022838BF02200F
S2140058B00238BC1C80B2854284D80F482B4622464C
S2140058C0314603B0BDE8F04FFFF704B90B4B9B7EA3
S2140058D09A073FF577AF5B073FF574AFFFF742FCDB
S2140058E003B0BDE8F04FFFF703BD00BF5C0B002020
S2140058F0680B00202144000060130020000B0020ED
S214005900EFF3108072B670470048704700F0490207
S2140059100B4AD2F8943003F00703022B0DD0033B5A
S214005920012B084898BF4FF40040D2F80031C3F36B
S21400593004230133B0FBF3F070470348F5E700BFDC
S21400594000400E40C0EA210100F0490208B5FFF70A
S214005950DFFF044BD3F80831C3F308230133B0FB51
S214005960F3F008BD00400E400D4B0E4A9A60D3F887
S214005970882042F47002C3F888200B4B5A6D42F41C
S21400598000525A651A6C22F003021A645A6F22F00B
S21400599001025A671A6E22F080521A66704700BFDC
S2140059A000ED00E00040000000300E4008B5FEF7B5
S2140059B00FFC704747F6FF739A42F0B56CD0062985
S2140059C06CD8374B5B5C022B68D8364D05EBC304AE
S2140059D0DE00A17815F83330012938BF0121012BEC
S2140059E013D1E0780025401A854202D30844C0B29D
S2140059F0F0BD431BA0EB5303666836F9136096426E
S214005A00CCBF03F1FF301D46EEE760680028EFD0FC
S214005A10B0F90040A24204DCB0F902409442B8BF9C
S214005A2014468388FF2B04BFB0F90630B0F908701F
S214005A3035440FBF01220022C82328276E781B1B7F
S214005A4093FBF7F313441BB29E4201DD002B01DAF1
S214005A50731E1BB24FF47A7C00EBC3055F1CEA880A
S214005A60AD6814FB02521D463BB222EAE2729E4229
S214005A7002F15C02B2FBFCF204DD00EBC307BF8858
S214005A80BA42E9D900EBC5039888904228BF104671
S214005A90884238BF0846AAE7FF20A9E70020A7E704
S214005AA0C6CC00008C0B002038B5C0F30323013BA6
S214005AB004460D46092B11D8DFE803F00536111011
S214005AC03A312C101D191C4BC0F3043403F1424329
S214005AD003F5801304EBC304A400256038BDFFF76C
S214005AE035FFFEF751FDC4F30434144BEEE7144BB8
S214005AF0C0F30434EAE7134BC0F304344FF48032A7
S214005B000D49D1F84401C007E0D4D1F84001104255
S214005B10FBD1DBE70C4BC0F304341022F0E70B4B51
S214005B20C0F304340122EBE7094BC0F30434CDE79D
S214005B30084BC0F30434C9E700400E40B8400E409E
S214005B4050410E40F0400E40E8400E40E0400E400F
S214005B50C0400E40B0400E402DE9F74FDFF82C91C4
S214005B60464E99F80040019107461546002C41D153
S214005B70434ADFF814A1D2F8F83042489BB29B02A1
S214005B80A3F58053CAF80030D2F8F8309BB29B02D7
S214005B90A3F500630121CAF80430FFF785FFDAF8A1
S214005BA0000008210430FEF727FCDAF800301B68F6
S214005BB0984208BFDAF80030DAF8040008BFD3F8D5
S214005BC004B04FF0080100F104000CBF0124A34606
S214005BD0FEF712FCDAF804301B6898423CD1DAF87B
S214005BE004305C685C4594BF0024012401233470B3
S214005BF089F8003096F900305A1C29D0224A52F80B
S214005C00233003F10C094C464FF6FF7AC4F30A031F
S214005C100833B3F5006F1BD2A688564518D094F803
S214005C2006B0201D0BF10401FEF7E6FB2268904249
S214005C30D84601D1B74212D008F1030808F4FE781E
S214005C4008F10808444489EA0403B3F5006FDDD37D
S214005C504FF0000B58460CE0013C64B2C6E72B78C8
S214005C605B45F5D301985A4604F1080106F0A6FEF6
S214005C70012085F800B003B0BDE8F08F10000020CA
S214005C800081E00F00550A008C02002094020020DC
S214005C902DE9F04F012891B004D00024204611B021
S214005CA0BDE8F08F8A88002A00F0FE819E4F97F8A4
S214005CB000A0BAF1000F00F0F9819C4D2C78002C62
S214005CC0ECD19B4B09681C78002CE6D1994E3068C5
S214005CD002EB0008B8F5806F02D982242C70DDE74D
S214005CE0DFF86492484406F069FEBAF1020FC6F87F
S214005CF0008034D0B8F1030FCFD98F48FEF7A2FA50
S214005D000178D9F800204368012940D1190E0129ED
S214005D1003D1C3F307430A2B41D9884B9A4240F07C
S214005D20D1808368DA0338D502233B70FEF7E8FD9E
S214005D300020D0F82838A3F50062B2F5605F08D2DC
S214005D401B6BA3F50062B2F5605F02D29B6809A9DF
S214005D5098477B4B099A1A607A4B0A9A1A60DFF8C2
S214005D60F891336899F80020082A01D0402A4ED1CD
S214005D70DFF8D8817348D8F80010006803F0030AEB
S214005D80CA18A2EB0A0282420BD98324A6E76B4C00
S214005D90A2420CBF86248424A0E786249EE788249B
S214005DA09CE7674ADFF8B4B11768DBF800001F44C9
S214005DB00F44A7EB0A0727F4FF6727F00707874279
S214005DC009D9391A00F50060FEF794FA08B185245F
S214005DD084E7CBF800703168D8F80000A1EB0A0120
S214005DE0FEF790FC3268D8F800305249A2EB0A025F
S214005DF0074613445448C8F80030FEF72BFF002F20
S214005E00E5D199F80030002B7FF447AF01E0002A77
S214005E105AD133687F2B7FF640AFDFF83481DFF846
S214005E2040B1D8F80000D8B9D0F82878A7F50063B4
S214005E30B3F5605F0ED20A9009A8FEF703FA0A9B34
S214005E401A0E6ED0012A03D1C3F307430A2B68D972
S214005E50BB6B9847CBF8000006F07EFEC8F8000043
S214005E600023D8F80000D3F82838DBF80010A3F594
S214005E700062B2F5605FAAD29B6A98470028A6D156
S214005E80D0F828783268D8F800A00392A7F5006307
S214005E90B3F5605F16D2079006A8FEF7D3F9079B06
S214005EA0190E0FD00129039A03D1C3F307430A2B17
S214005EB008D905AB00937F6B234909AB5046B8471A
S214005EC000284FD0842409E720490A681A440A604B
S214005ED01F4A10680022D2F82828A2F50061B1F502
S214005EE0605F05D3134918481A46FEF7B3FE16E05E
S214005EF0D76A1849144AB84732680E490746124806
S214005F00FEF7A8FE40F203239F4203D1084A01236E
S214005F101370C2E640F201239F423FF472AF802422
S214005F20DCE64FF4C07095E7FD0A0020FE0A00206C
S214005F30E4060020F80A0020A4020020EB17A603BF
S214005F40EC060020F0060020F8060020F4060020EC
S214005F50C4020020B4020020FC0A0020E80600204C
S214005F60B00200209DF8243089F8003023B9059B44
S214005F7013B1402389F80030FEF7F0F9074658B30E
S214005F80D0F834A099F80030002B3FF486AE0022FB
S214005F90069204228DF8132006A90DF1130235206F
S214005FA00393FFF7D9FD069AD30719D5039B082B51
S214005FB014D0BAF1000F13D0534610220CA903F1E7
S214005FC02800039306F0D0FD20B9039B0A9A1B6AAB
S214005FD09A4205D8892481E68246D3E7344BECE71B
S214005FE097B14FF400613846FEF784F900287FF435
S214005FF0EEAE2AF4FF604FF4006120F00700FEF7D3
S21400600079F900287FF4E3AE99F80030082B01D028
S214006010402B0FD1274B284A186820F4FF6323F043
S21400602007034FF400611360FEF764F900283FF49D
S21400603034AECCE6214F224B7B600023D8F800001C
S214006040D3F82838DBF80010A3F50062B2F5605FDD
S214006050BFF4BDAE9B6A9847014600287FF4B7AEF2
S214006060D1F82828D8F800003368A2F50061B1F509
S214006070605FBFF437AF3946D2F82C80114AC0476C
S2140060803268114907460F48FEF7E4FD40F2032345
S2140060909F4203D10D4A01231370FFE540F201230E
S2140060A09F423FF4FAAD3AE70D24F7E58124F5E583
S2140060B0F8CC0000EC060020E8060020B402002021
S2140060C05D4F0000F8060020F80A0020E4060020D5
S2140060D000F00F00013807284BD8DFE800F0041264
S2140060E0214A31354A3D294BD3F8940000F0070089
S2140060F0032849D004283ED002280CBF04200520DF
S2140061007047224BD3F8800000F0070002283BD0EF
S214006110042834D0012808BF032018BF0120704788
S2140061201A4BD3F8843003F00703013B032B03D844
S214006130DFE803F004212325012070470320704781
S214006140124BD3F88800DFE7104B1B6F13F0010FDC
S2140061500CBF0720092070470C4BD3F85C3103F0C6
S2140061603003202B0DD0302B0DD0102B08BF07206E
S214006170D3E70020704702207047062070470A20A9
S2140061807047042070470820704700BF00400E404C
S2140061900428F8B56DD8464B13F800C0454B1D5C77
S2140061A0454B33F81060454B33F81040444B0029FC
S2140061B06BD002285ED15C6A14F0300F5AD15C6A4C
S2140061C0E40705D55F6A27F0300747F010075F62DF
S2140061D03C4C3B4B25441E66AD002B68002BFCD088
S2140061E0002A46D06444A4002368002BFCD0022872
S2140061F03FD100293DD0324B5A6AD1073CD54FF4E7
S2140062008062C3F8A82020225A665A6A12F0300F1D
S2140062100CBF4FF440024FF40002D3F8901032EA5D
S2140062200101FAD1520201D5D3F8A030244D012243
S21400623000210220D5F89C70FFF7AAFFD5F8903011
S2140062406B6A23F0300343F010036B62C7F30A0750
S214006250296B1D4BFA0903320F2A03EA010328BFF4
S2140062600F223B4343EA02732B632E662368002B00
S214006270FCD0F8BD0021ABE75A6AD3F8902002F4B0
S2140062804002B2F5400FF8D1CEE701211C66A940C6
S214006290D3F890000842FBD1002AEAD0012308492F
S2140062A003FA0CF3D1F890201A42FBD1E1E700BFC5
S2140062B0C1CC0000BCCC0000B2CC0000A8CC0000D2
S2140062C000400E408004F21000F8FF0F08B50B489F
S2140062D0FEF75AF9012211460220FFF759FFFEF792
S2140062E04BFA074B02225A67FFF712FBFEF74CF9F0
S2140062F0FFF72CFBBDE80840FEF750BA0148E8015E
S21400630000400E4000B962B6704700002DE9F0412B
S2140063100D4F06460D4614460CB9BDE8F081EFF366
S214006320108872B623462A4631463846FEF7D2FB18
S21400633003464046FFF7E6FF002BEDD0E41AA4B272
S2140063401D440026E8E700BFCC0D002013B500234F
S21400635001F10804ADF80430ADF8060021461A46EF
S21400636051F8080C083170B90BB1ADF804200422BE
S2140063700DEB020101200834FFF7C8FF54F8101C8B
S21400638039B902B010BD51F80C3C1A4492B2012340
S214006390E6E734F80C2C0020EDE700007FB501306E
S2140063A0002380B2CDE90101CDE904336946044BF0
S2140063B0009304200392FFF7C9FF07B05DF804FBC3
S2140063C04C110020EFF3108072B67047FFF79ABFAB
S2140063D0064A074BD3F88039136F23F007030343AD
S2140063E01367044B1888FEF7F1B800BF00300E4064
S2140063F00000C643860B00200D4AD2F8E430D2F8DF
S214006400E0109B0003F03C03C1F381110B43837043
S214006410D2F8E03003F03F034370D2F8E830D2F809
S214006420EC2003F0F003C2F303121343037070472B
S21400643000FF0FE0000000002DE98048824B5B68FB
S2140064405E05A3B024D44FF0005300221A601AA8A9
S214006450FDF7F8FEFDF782FF08B3446BFEF750FA2F
S2140064601C9B5D0740F1CB80FDF778FFFDF71EFF14
S2140064700446FEF729FA94B1FDF770FF0446FDF7CF
S2140064806DFF724B986023689D466368984706E0E8
S2140064904FF000531A68022AD5D100221A60BFF3C3
S2140064A05F8F6A4B5A6A22F480325A62D3F894207D
S2140064B022F00102C3F89420BFF34F8FBFF36F8F13
S2140064C06349644F0A68644DC3F898204FF0005043
S2140064D0C3F89C006148C3F8A000AF4202F1010077
S2140064E008604FD07E1E731B43EA530343EA9303B0
S2140064F043EA131343EA132343EA13430133B3F582
S214006500807F38BF4FF480735C422C4003EB040C52
S214006510674500F29680072BACEB07074FF0010C9F
S2140065208CBF4FEAD30E4FF0200EB7FBFEF70CFAE7
S21400653007F7013FFFB2361B2D1BB3FA83F3B5FBFB
S214006540FEF5B6FBFEF666440CFA05FC07FA06F600
S2140065500CF1FF3CC3F11E034CEA060C5B000CF08A
S214006560FF0C03F03E0343EA0C23384D43F0407320
S21400657043F001130232C5F89800C5F89C40C5F8F0
S214006580A0300A60BFF35F8F304B0522C3F894201B
S2140065905A6A42F480325A62BFF34F8FBFF36F8F4E
S2140065A0BFF34F8FBFF36F8F2D4B01225A642D4BD5
S2140065B0D3F8FC400DF16808240E4046FFF71CFF98
S2140065C08E2C55D82849D1F8B00040F00403C1F805
S2140065D0B030264B4FF050121A601A631A66C3F892
S2140065E09020C3F8C020C3F8F020C1F8B0001E4ABF
S2140065F0D36A23F07F0343F02003D3623AE014B952
S214006600FEF762F94BE7174AD2F8F8309BB2B4EBC4
S214006610832FF5D2D2F8F82004F1500392B2B3EBF0
S214006620822FEDD82046FDF779FE0028E8D0636972
S21400663013B9FEF749F91FE79DF86830012BF8D12A
S21400664012E75B0060E700BF00500E4000ED00E080
S2140066507C0B0020E8000020E80000203900011331
S21400666000000E400081E00F00400E4000A00040F9
S2140066708F2CBCD09DF86930012B814B02BFD3F81C
S214006680642142F00402C3F864217E4A0021C2F865
S214006690B41A02229A639B6B03F00F03934240F0F6
S2140066A00781794BD3F81C32013312D0774BD96B64
S2140066B09A6B1160596C1A6C1160D96C9A6C1160E7
S2140066C0596D1A6D1160D96D9A6D11605A6E1B6EF8
S2140066D01A606B4CE36C23F0405323F0010343F045
S2140066E00103E3646A4B0F221A80E36E43F0807363
S2140066F0E366644BD3F8800900B10420FFF768FE18
S214006700236E23F0C0432366E36C43F00603404643
S214006710E364FFF771FE9DF86900012811D19DF82A
S2140067206830022B0DD85B490B7853B9636C5A4A14
S21400673043F001036364236E1A40584B13432366E9
S2140067400870574BC8221A80564BA0220F201A807A
S214006750FDF73CFF4A4A544B93654B4BD3F818124F
S214006760D06CC0F301700202B2F5817F69D2B2F537
S214006770807F6CD0D3F81C32C3F30724DBB2C1F39E
S2140067800726C9B24FF41675721A6A43B2FBF5F2C1
S2140067900A449642C0F08C80E11A6943B1FBF5F1D9
S2140067A01944A14200F28480354CE36D23F4FE4385
S2140067B023F0020343EA0223E365334BD3F80021B8
S2140067C0D2B2032A4CD8D3F82C32DBB21B0313F414
S2140067D0702F6DD12A4AD06E20F470400343D366E2
S2140067E0536EE72923F4FF7328BFE72123F0010344
S2140067F043EA41035366234B0121C3F894174AF634
S214006800E853516B5363936FDC07FCD4136C1D4A3B
S21400681013F003034AD00123C2F8B43A184B9A6F18
S214006820D007FCD41A6C22F003021A649A6F12F096
S2140068300102FBD113480129C0F8B42A08BF5A63E5
S21400684036E0B2F5407F08D0D3F8203294E7D3F88C
S2140068501C321C0EC3F3074391E7D3F82032F8E747
S2140068600228D3F8303206D0032807D00128ACD14E
S214006870C3F30723AAE7C3F30743A7E71B0EA5E75F
S21400688000300E400000C6430081E00F0080E00F9D
S214006890860B0020800B0020000F0EF0B4C0400BCB
S2140068A0840B0020820B002077402057C2F8B43AB1
S2140068B0C74CC84E1120FFF70BFC00210220012216
S2140068C0FFF766FC636A23F001036362C24B002590
S2140068D0C3F8A054A36A23F0070343F00603A36299
S2140068E0BE4BE362226BBE4B02F07F621343236310
S2140068F0BC4B6363FFF7EAFCBB48FDF74FFFD4F8D9
S2140069000031C3F304230133B0FBF3F0FDF73CFE84
S214006910012211460220FFF73BFC636A43F0405316
S2140069206362D4F8C83043F00103C4F8C830AF4BF4
S214006930D3F8D830B365042404AA06A935208DF808
S21400694010400695FFF708F906238DF80F30069BD2
S2140069508DF80E4013F4803F07AC00F04F820523FD
S2140069602246B16D02F8011B013BFAD29DF8213098
S21400697063F03F038DF821309DF8223043F0010389
S2140069808DF822309A4B5C609A4B9B4A9A6000279F
S2140069904FF480715961C3E900221F82974A984BD1
S2140069A09848994D1F82C3E900229A60596100F009
S2140069B0D1FC9548954C964E00F03DFF0FCD0FC488
S2140069C095E80F0084E80F009248934B0360394621
S2140069D0924B436000F066FC7BA3D3E90023306053
S2140069E0CDE900234FF0FF334FF0FF3200F0FDFEFD
S2140069F002224FF0FF3130687D4C00F0F8FE942202
S214006A003C23CDE91A321C934146962330681D93E9
S214006A10CDE91E77209700F021FD37468049306883
S214006A2000F0F8FE306800F09CFFB4F9001057F84C
S214006A30080B00F004FF6468002C40F0F88138462C
S214006A40FDF78EFDB37B64F30003B373754BDFF87D
S214006A5014A2754D4FF02009A6F8209083F80193F4
S214006A6083F8039383F8059383F8069383F80493D7
S214006A7083F8079383F81C936C4B5A220021184620
S214006A8005F0AAFFA0F10A04694B636042F20153C5
S214006A9042F2107223810023E260CAF80030654A91
S214006AA040F80A2C1B232B8003AA01230DF10D01AD
S214006AB03E208DF80C30FFF74FF811230DF10B0236
S214006AC00DA936208DF80B30FFF746F80DF10A02B7
S214006AD0414639208DF80A90FFF73EF8002837D156
S214006AE0554B9DF80B2018681B791A9088F80430CF
S214006AF0002A00F0A3811B2A28BF1B22531D8DF8F5
S214006B000A300DA9531C0DF16D008DF86B3005F0A1
S214006B1055FF12A8FDF724FD484A9DF80A30128852
S214006B2028F8032022A99A1C51FA82F21298BDF87E
S214006B304C1042F8200C22F81C1C03F1080222A973
S214006B4051FA82F20933002102F8201C8DF80A302F
S214006B5020230DF1090212A93A208DF80930FEF71C
S214006B60FBFF48B9364B5A8A1B7D8DF84A30032303
S214006B70ADF848208DF80930324B334800224FF0EC
S214006B800209C3E90022314B036080F80490FDF748
S214006B9081FE2F482F4B03601023037280F8049069
S214006BA0FDF7D0FF2C482D4B03602D4B80F804904A
S214006BB0C36080F80890A0F81090CDE900394B46E5
S214006BC052E000BFAFF300800855005100000000FF
S214006BD000400E40005008400000C843200005005A
S214006BE007AD0AD047A0020000F049020081E00F7E
S214006BF084130020CC0D0020CC0C0020CC0B0020F1
S214006C0060130020690345EC78CD00008C0B002053
S214006C10C4100020BC0B0020F1510000AC0B00207B
S214006C201200002000E100E054110020F2100020C5
S214006C3055555500D6BE898E05CC00000FCC0000F9
S214006C4054CD000078130020680E002012CC0000FF
S214006C50100E002015CC0000E40D002018CC00001B
S214006C606ACD00005C13002090E806001430FDF7A3
S214006C70A5FD9DF80B10002900F0EB800DA8FDF790
S214006C808BFFB248B24B03604FF0100980F80490B7
S214006C90FDF700FEAF48B04BB04A03604FF6FE7BF0
S214006CA008230372C260A0F810B080F80490FDF7C5
S214006CB049FFAB48AB4A02600C220272AA4AC26085
S214006CC0A0F810B080F80490FDF73CFFA748A84A4B
S214006CD002604FF0020BA74AC2600823038280F8C6
S214006CE0049080F808B0FDF72DFFA348A34B03607F
S214006CF0A34BC3600123038280F8049080F808B099
S214006D00FDF720FF9F48A04B0360A04BC3604FF6E3
S214006D10FE73038280F8049080F808B0FDF712FF37
S214006D209B489C4B03609C4BC3604FF6FE730382EC
S214006D3080F8049080F808B0FDF704FF974B984A57
S214006D401A604FF6FF729A809DF80A20202A05D80E
S214006D50931D94486375414605F030FE9DF8092062
S214006D60202A06D8931D904884F83D3012A905F0D5
S214006D7025FEFEF7EDF9227C617CB2FA82F35B0910
S214006D8063F30001237D617462F30303B27B02F0B8
S214006D90010262F386132375637D0BB906236375C0
S214006DA0824BB988B068C4F81600998094F83C30D5
S214006DB0042161F3030362F3861384F83C3094F8ED
S214006DC03D3013B9062384F83D30794BB068BA8855
S214006DD0C4F83E009A80FEF74BFA764E764B1B7848
S214006DE02BB1DFF8E4814046FDF7ACFBA0BB734A4D
S214006DF0136923F00403136130BFEFE70DF10F02B0
S214006E0021462C20FEF7A8FE00283FF4BDAD0DF16C
S214006E100E0205A93C20FEF79FFE18B19DF814004F
S214006E2000F001009DF8223060F30003A8E520681A
S214006E30B060A288A379BB71BA8007E608238DF8F4
S214006E400A305F4B1A889B78ADF86D208DF86F304E
S214006E505FE65B48032112E7EFF3108472B6002367
S214006E601A460DF111014046FDF7D1FD2046FFF709
S214006E7049FA9DF8113013B10023CAF80030DAF849
S214006E800020EFF3108472B6C2F501739BB2324451
S214006E900DF111014046FDF7BAFD03462046FFF707
S214006EA031FADAF800201A44032ACAF800209AD9E0
S214006EB03488231D9A4296D307D8708804284FF04A
S214006EC0000306D0062800F0A6810023CAF800308A
S214006ED089E732796B8004F1FF39122A1FFA89F9A3
S214006EE018D8012A19D9931E364F102B15D8DFE86B
S214006EF013F0160014006D001400860014001D0127
S214006F001400BA00140014001400140014004A01FF
S214006F101400EA00522A00F0F6800622CAE0B9F110
S214006F20020F40F07681B6F805400022B4F5007FE7
S214006F3028BF4FF400740323114648463B70A7F859
S214006F400140FFF72BFA2C80BFE700BF9810002007
S214006F501BCC0000401000202CCC00006D4C000024
S214006F60E80F00203DCC0000915C0000900F002050
S214006F704ECC000049CD0000380F00205FCC00004A
S214006F8048CD0000E00E002070CC000089420000D2
S214006F90880E002081CC0000D5430000B8100020E9
S214006FA078130020041100202C110020FE10002071
S214006FB026110020581100208013002000ED00E06C
S214006FC00BCC00004C11002060130020B9F1040F18
S214006FD070D1B6F80540A0B2FDF70CF960B1027AA0
S214006FE07C80022A4FF005010CBF01230223397072
S214006FF041687B70032057E06C800A225AE0073C09
S214007000DFF838B2CDF800B0A4B20194B6F8071095
S214007010B6F805000223ABF10202FDF7DDFD4FF6E0
S214007020FF794845044604D17368C3F30F236B8089
S214007030E3E700230130CDE90033ABF1020202237F
S214007040494680B2FDF7C8FD48451CBF00F1FF3039
S21400705080B207233B70A7F80140A7F80300002280
S2140070601146042020E0B9F1020F40F0D280B6F8B5
S21400707005B01FFA8BF42046FDF7BCF8002839D07F
S214007080037B990713D52B880DF11202013B09A942
S2140070902046ADF81230FDF7EBFB024670BB0B2323
S2140070A0BDF8122009993B70FFF778F90DE74A46BC
S2140070B0A5F802B05D4B30796988587001241C70C1
S2140070C059801A71CBE7B6F805B01FFA8BF9484617
S2140070D0FDF790F870B1037B1A070DD5E21E92B249
S2140070E053494846FDF78EFB024638B913233B70DA
S2140070F00146D9E70122DBE70322D9E77368C3F329
S2140071000F236B80D6E7B6F805703846FDF772F8A1
S21400711000283FF4DAAE037B5B077FF5D6AEE21EAF
S214007120434992B23846FDF76DFBCEE6631F9BB22D
S214007130022B01D0102B6CD10022CDE90022DBB24D
S2140071403C4AB6F80710B6F80500FDF745FD4FF6C1
S214007150FF73984204463FF467AF2B880DF1120286
S214007160043B09A9ADF81230FDF782FB024608B1D0
S2140071706C809FE7BDF8122009997C8009233B703C
S214007180931C7B7036E7053CA4B2022C01D0102C71
S2140071903FD14FF0000BCDE900BBE4B2B6F80710C4
S2140071A0244AB6F805002346FDF716FD4FF6FF7194
S2140071B0884281463FF438AF013023461D4ACDE968
S2140071C000BB80B2FDF708FD2B884FF6FF718842A2
S2140071D00446A3F1060318BF00F1FF340DF11202B6
S2140071E009A9484618BFA4B2ADF81230FDF740FB17
S2140071F0024610B1A5F802905CE7BDF81220099986
S214007200A7F8029011233B70131D7B70BC800520ED
S2140072104AE704224EE7CDE90B33074B099309A949
S21400722002230A93FFF792F84FE600BF4C110020A6
S2140072305F1100206111002018000020631100205B
S214007240FEE7000008B5FEF78FFB124B12498B4293
S21400725012D3124B124900208B4218D3FCF77EFF44
S214007260186850F82240586840F822400132986862
S2140072708242F5D30C33EAE70022F8E71C6844F8AC
S214007280220001325C68A242F8D30833E4E7002209
S214007290F8E700BF58E2000064E2000064E2000085
S2140072A064E20000F8B50D4610B900242046F8BD8B
S2140072B00E4F3E68002EF8D100F04EF80446002827
S2140072C0F3D0386000F0A4F8204600F070F838B12B
S2140072D030463E6000F09CF8204600F063F8E4E795
S2140072E0002DE3D02046A847E0E700BF8C1300201F
S2140072F00846114600F09EB810B504F075FC20B99B
S214007300024BBDE810401B68184710BD280000203F
S21400731010B500F06EFA20B9024BBDE810401B68AD
S214007320184710BD280000207047431E033307D8B7
S21400733043F2C823984228BF1846642838BF642002
S2140073407047431E012B03D9031F5842584170470C
S2140073500120704700F06EBEF8B50546FEF7D0FA7D
S2140073600F4B1E68074626B93846FEF7CBFF344655
S21400737011E0B4688CB194F810C01CF0010F0CD169
S21400738095E80F004CF0010C84E80F0084F810C05C
S2140073903846FEF7B7FF2046F8BD3668E3E700BF7D
S2140073A0200000204FF4A072002105F015BB10B598
S2140073B00021044600F02CFA2046BDE8104004F0F8
S2140073C06FBA000038B505460C4641B10B6833B1BC
S2140073D01B68013303D0CB680BB18B684BB900F048
S2140073E027FEBDE838404FF492724121002000F09D
S2140073F093BA084600F021FE0023044A85F8D830E8
S214007400C5E92243C2E9003338BD00BF901300200F
S21400741010B5044618B9054B054A136010BD03F0B5
S21400742009FDD4F89430002BF6D1F4E72973000058
S2140074301C00002010B50C4603F03EFD054B002155
S2140074405B68032098471CB104F0FAFB0128FBD1C7
S21400745010BD00BF2800002003F074BE08B5024629
S2140074600868FFF762FF08604868FFF75EFF48603D
S2140074708868FFF75AFF8860C868FFF756FF0B69F1
S214007480C860581C04D043F2C820834228BF034675
S2140074900B614B69581C04D043F2C820834228BFB6
S2140074A0034688694B61FFF740FFBDE808408861E6
S2140074B0104604F04DBA00002DE9F84FD0F88C3095
S2140074C006460F4613B1038B8B4246D0D6F888B0DB
S2140074D0BBF1000F44D0DBF80830002B40D0DBF8BF
S2140074E00C1000293CD0D6F89CA0BAF1000F3AD078
S2140074F04FF000094D46C84601E0DBF8083005EBC2
S214007500C50203EB82040135E389BB4216D8238A01
S214007510BB42304612D3B4F91230B6F92410994261
S214007520A04603EAE37255DD96F8CC10FEF742FA61
S214007530337D834281464DD9DBF80C108D42DCD377
S214007540B8F1000F40D00023424619463046D047D7
S2140075503783C6F88C8086F8D5900020BDE8F88F73
S2140075600320BDE8F88FD1465446524647F6FF75CD
S21400757004EBC40803EB8808B8F80E30BB421DD8ED
S214007580B8F81030BB4219D3B8F91220AA4202EA62
S214007590E27207D14FF0FF093783C6F88C8086F871
S2140075A0D590DAE796F8CC103046FEF703FA337D2E
S2140075B0834281464246EFD9DBF80C100134A142E3
S2140075C004D9DBF80830D3E70120C7E7002AFBD050
S2140075D09046E1E7A046B6E72DE9F04782B00446BC
S2140075E08946164604F00EFB3B4D08B100236B603F
S2140075F02B68D4F888A0D4F88C700BB153454BD0C8
S2140076004FF00008C5F8089004F01AFB012836D1A0
S2140076102B68DAF800103A6813B11868884246D02A
S214007620204604F0A7F8C5E900A7D4F89C508DF8CA
S2140076300760002D42D000220DF1070311462046B8
S214007640A847204603F0CEFE0546B8F1000F00D04E
S2140076508EB1B5FA85F040F2DE324009332100F0F3
S2140076605BF93146204604F091F81C4B05461B6832
S214007670394620469847284602B0BDE8F0870120E4
S21400768003F01AFC164B00215B680320984704F0B1
S214007690D7FA0128FBD1BBE76B68002BB0D0BB4202
S2140076A0AED1AB68994514D04FF00108AAE76968D7
S2140076B011B109689142B6D05968B1E7217D94F8B6
S2140076C0D530994228BF19463246204603F020FEA0
S2140076D0B7E70025CFE700BF901300201C0000206E
S2140076E028000020F8B505460E46FEF709F9314693
S2140076F007462846FFF7E0FE044620B13846FEF768
S21400770001FE2046F8BD04F07CFA224631462846A3
S214007710FFF762FF04463846FEF7F4FD2046F8BD44
S214007720F8B505460E46FFF74DFED5F888307BB116
S2140077305B696BB101F062FBD5F888305B691B1A98
S214007740584240F26B124FF04201584100F0E4F804
S214007750F76800224FF6FF734FF0240CD0B2B84201
S21400776008D31C4621462846FFF7BCFF00F06AFCFB
S2140077702046F8BDB1680CFB0011CC899C4202D2B1
S214007780002CEFD023460132E8E7008B70470A78DA
S21400779038B505461046FFF7D4FD60B14C78204654
S2140077A0FFF7CFFD38B12243530704D42846BDE87F
S2140077B0384003F0E5BC012038BDFFF7E8BF10B540
S2140077C004460878FFF7BDFD58B14A781046FFF723
S2140077D0B8FD30B1042A04D02046BDE8104003F0BE
S2140077E007BD012010BDFFF7EABF03F0E1BA03F0C2
S2140077F03FBC70B504460D461646FFF773FF30B91A
S214007800324629462046BDE8704002F07DBB70BD7A
S21400781004F006BA38B5044648880D4600F00BFC5E
S214007820D4F89C302BB929462046BDE8384003F0F2
S21400783015BD022038BD00F0FFBB03F0C9BD73B50F
S214007840044600200D4600F0F6FBD4F89C6069461E
S2140078502046FFF7F2FF5EB99DF800102A46204644
S214007860FEF7A8F80146204603F07EFD02B070BD84
S21400787000231A4629462046B047F7E738B505469E
S2140078800C46FEF73DF82B6B1C40EB6A2343EB627D
S214007890FEF738FD211E18BF01210020490238BD21
S2140078A003F0FFBE03F01EBF07B54FF400730A498E
S2140078B0ADF806300DF10602FFF7F4FFBDF806300E
S2140078C0B3F5007F05D1022808BF002003B05DF89D
S2140078D004FB0120FAE700BFE0140020084611462A
S2140078E000F0CEBA03F0CABE38B50446154609B154
S2140078F003F016FF25B12046BDE8384003F012BF5E
S21400790038BD0000024B1960024B1860FEE700BF4E
S21400791024000020E016002008B550B90548064BA4
S21400792001601A60054B1A68054B1A601868FFF765
S214007930E9FF08BD24000020E41600208C13002078
S214007940E0160020437C03B108470220704710B5BC
S214007950044604F017FA20460321BDE8104003F061
S21400796081BAFFF7F4BF00000149FFF7EBBF00BF85
S21400797081BD00000149FFF7E5BF00BF35BD00002F
S21400798010B5437C0C4693B14968002204F004FA13
S214007990206890FAA0F0000A01F080FBA17A208906
S2140079A0002281F0010104F02BFA002010BD022015
S2140079B0FCE71FB5CDE90012ADF8083069469DF822
S2140079C018308DF80A30FFF7DBFF05B05DF804FBD2
S2140079D000207047002070472DE9F74F1C469DF8A1
S2140079E030300193036803F00703063301259D40FA
S2140079F00646174605F1FF380B46A1B1416804EA72
S214007A00080BA5EB0B0A41F00059524509EB0B0198
S214007A1014D95246184604F0D1FF7A1B5A444946F8
S214007A20504404F0CBFF019B2BB13C4448EA0508C8
S214007A3004EA0804F46003B0BDE8F08F1846F0E7E7
S214007A400B4BD3F8E020D20310D50A494FF480320E
S214007A50C3F8E820C1F8EC209A6BD1B2C2F3072233
S214007A6099679A6704229A6700229A67704700BF50
S214007A700010084000100846F8B50C4C0D46174696
S214007A800646FDF73DFF0123A362042327606660D8
S214007A90A560C4F8E830064B8022C3F88021FEF7C4
S214007AA031FC0DB10223A362F8BD00BF00100840F0
S214007AB000E100E0054B1860054B01229A6540F690
S214007AC0FF72196358635A65704700BF301700206D
S214007AD0001008402DE9F04F042A83B0054639D936
S214007AE00B7883614B7883618B788361CB78836175
S214007AF00068D5F808B06E6800F00700012306306D
S214007B0003FA00F808F1FF3909EA0B07A2F1040AA4
S214007B10A8EB0702924501F1040446F000560DD882
S214007B20F0192146524604F049FF0AEB0B0248EAD8
S214007B3009031A40AA6003B0BDE8F08F2146F01989
S214007B40019204F03BFF019AA118AAEB0802304606
S214007B503A44E8E7013A032AEDD8DFE802F00B08DA
S214007B60050211F8013B836111F8013BAB6111F886
S214007B70013BAB610B78AB6103B0BDE8F08F00BF93
S214007B8037B5002500951446FFF726FF204603B0BC
S214007B9030BD000038B50C46104B1546014668B19E
S214007BA00122C3F8B8200E482246FFF793FF1DB106
S214007BB00A4B0422C3F8B820002038BD64B1D3F8BD
S214007BC09C20A24284BF0122C3F8B820C3F8984084
S214007BD00222C3F8B820EAE70122FAE700100840BC
S214007BE09010084010B5FDF78BFE184B184901227F
S214007BF09A650446C3F88820164800221A66596615
S214007C000321C3F88410018013490A804FF4A02191
S214007C10C3F8E81003F1C063C3F8EC100F4B1A600A
S214007C200F4BD3F888305B020AD50E4B18680E4B04
S214007C304FF48002C3F88820416BA03001F04AFA66
S214007C402046BDE81040FEF75DBB00BF00100840B0
S214007C50F0160020EE160020EC160020E816002095
S214007C60004008408C130020004008440D4B0322BF
S214007C701A800D4B00221A800C4B0121C3F8B81055
S214007C80C3F890204FF40052C3F89400C3F8B42011
S214007C90074BF0221A6403F10073A0221A64FFF760
S214007CA0A1BF00BFEE160020EC1600200010084012
S214007CB0000008442DE9F041044688B1394E3A4F99
S214007CC0FDF71EFE3388394A03F03C01032C0546B7
S214007CD003F03F0C114453D13C6824B9FEF712FB65
S214007CE00320BDE8F08124F00104386820F001008C
S214007CF0A0424AD100223A6022886FEA42426FEAE6
S214007D0052428C42228036D1294CDFF8B8C02788F0
S214007D10ACF140083A46043A92B2081D604528BFC6
S214007D204046042A04D9B0F900E0BEF1000F37DB64
S214007D3022803B440C8888781E499B1A03F07F03F8
S214007D40C4F30C04CC6300F007003380CB66C1F8A4
S214007D508420FFF775FE04280DD1174BD3F8883022
S214007D60164B1868164B4FF48002C3F88820416BF8
S214007D70A03001F0AFF92846FEF7C4FA0020B0E7BD
S214007D80601E012898BF0C46AFE709486244008889
S214007D90A21A48BF403204389042ADDC28469DE720
S214007DA00146B8E7EC160020E8160020F016002082
S214007DB0EE16002000100840004008408C130020FB
S214007DC000400844301700201549164B0A881B88C7
S214007DD015481344033B043292B203F03C030344B9
S214007DE00A801249C1F884209A7812F0070011D14F
S214007DF0D97811F0810F08D042F004029A700C492D
S214007E004A681203FCD4042006E00A488908405C4D
S214007E1002439A700428F2D0074A1360704700BFE6
S214007E20EE160020EC160020F01600200010084089
S214007E30004008403CCE0000E816002010B5054C77
S214007E40206828B1C30701D4FFF734FF002323605E
S214007E5010BD00BFE8160020084B4FF48032C3F870
S214007E60EC2003F17C43C3F8E420D3F88030C3F35E
S214007E700C033C2B01D8FFF7E3BD70470010084405
S214007E802DE9F84304460E46FDF73AFD4F4B504D9C
S214007E901A882D8881464F4802F03C01032C02F0D8
S214007EA03F03014417D14C4C24688CB92A44033A4A
S214007EB002F03C0284180344E31A48BF4033AB4246
S214007EC010DB4846FEF71EFA00242046BDE8F8837D
S214007ED024F00104EFE7012C02D0022CEBD1043D84
S214007EE00C46E8E7002E41D08C423C4942D1D1F8FE
S214007EF03C800A6B02F00702063201279740D1F851
S214007F008020C2F30C029A4246DDB4F90030258880
S214007F10002BD6DBA378C5F30C0503F007037A1E07
S214007F20A5EB08053A43052B337005EA02052BD866
S214007F302DB2E84340F236420421C00FFFF7ECFCB6
S214007F4075800023264A337412687B1E03EA0803F2
S214007F50D118B160A9B213FA85F5BD4289BFFF1AE0
S214007F600023B780F2609CBFB180F3604846FEF7FE
S214007F70C9F9AAE7221F824238BF04F13C02B2F8D0
S214007F800080C8F30C08B4E7164BDB6C002B14BF5C
S214007F9006230023ED1ACBE78B6B7A1EA3EB0803B0
S214007FA03A431A40104B15B25B686AB9C3F30363D1
S214007FB0D91E4B424B41DB0033700B4B7280D3F81B
S214007FC09030C3F30723BDE70823F5E7EC1600203F
S214007FD0EE160020F0160020E816002000100840DC
S214007FE0301700200000084000400840431C08D01E
S214007FF0044AD2F83C311B0C1B0480B20343C2F87F
S2140080003C3170470040084038B50D6804462846A5
S214008010FFF7ECFFD4F88C3043B15B6933B1013520
S21400802004BF6FF001020A600A681A60002038BDBB
S21400803003F0E7BD704770477047A6223121012044
S214008040FFF76ABC704738B50D46044600F0D6FE0A
S214008050AC4042F2107364095C436423B0FBF3F057
S214008060B4FBF0F038BD0000034B1A689B88026032
S21400807083800020704700BF3A0000200F4B062880
S214008080D3F8883104D183F40013C3F3405070470B
S214008090022805D113F4400F0CBF012000207047C2
S2140080A050B9074AD2F8D40010F0010005D083F486
S2140080B08003C3F3805070470020704700400E4096
S2140080C00081E00F0C4A5288B2F5E16F94BFC822D7
S2140080D05A2210B594BF7824502490428CBF1722A1
S2140080E010220A70054A0346107818B19C422CBF2D
S2140080F00020012010BD00BF3A0000203300002001
S21400810013B5204B1B780E2B044628D00DF1070123
S214008110FFF7D8FF9DF807301B4A1B021E2C43F4BE
S21400812040434FF001011CD9184CC4F8081188B11F
S2140081304DF60170C2F80401C4F80431C4F82011E9
S214008140114A4DF60171C2F81C1102F10072C2F814
S2140081501C3101E0C4F820110823C2F8943002B0A4
S21400816010BDC2F8081148B14DF60170C2F80401FE
S2140081700648C0F80431C2F82011E1E7C2F8201121
S214008180EAE700BF3A0000200040084400400846E6
S214008190084B094AD3F88831DB4303F4FE1343F453
S2140081A00053B3FA83F30E33A3EB4313013B137070
S2140081B0704700BF00400E403200002002280CD05E
S2140081C0062802D020B100207047054B187870476B
S2140081D0034B18780430C0B270470720704700BFC2
S2140081E032000020022807D0062807D0003818BF23
S2140081F001204042C0B270470120704700207047FF
S21400820030B51F23B0FBF3F35D1CEDB24FF0FF3427
S214008210C3EB4313AC40C01AE4430130E4B2C0B22F
S2140082201460086030BD00002DE9F7433A4E3B4F1E
S21400823096F8009015463A4AD2F8E020B9F1020FB7
S2140082400446884607EA02071AD147EA006788F814
S2140082500000002372882B60B2F5E16F94BFC8223D
S2140082605A2227F47F57944227F008079ABF380A05
S21400827000F47F5043F6C870384303B0BDE8F0837F
S214008280284A1278904228BF144604EB83030B70EA
S214008290F4B1013CE4B24FF030632B606A4601A9AA
S2140082A02046FFF7ADFFDDE9002347EA03671E4BD4
S2140082B098F800101B7847EA823747F47F5747F054
S2140082C008073BB90029194B18BF4FF07F43C1E799
S2140082D0164BE2E7164B1748B9F1060F08BF0346E0
S2140082E02AB90029114B18BF4FF07F43B2E7B2FA04
S2140082F082F2C2F11F02D2B29B5CDBB239B15A1EC7
S214008300D2B2FD2A05D81B0643F00403A2E7074BAA
S214008310A0E74FF07F439DE73A0000203F00C0E013
S214008320000F002132000020361700200400000B4A
S214008330B883E00FB083E00F73B50446C820FFF79C
S214008340DFFE224B224D18780E2801D0FF2C04D1D8
S214008350FF242C70204602B070BD02281BD1072CCB
S214008360204628BF072001284FF0000301AA0DF180
S214008370030138BF0120FFF757FF164B019AC3F8D9
S2140083805821154BC3F8E0009DF803402C7020469A
S214008390FFF7B6FEDEE798B9052C32BF00260126A9
S2140083A00420201A334601AA0DF10301C0B2FFF7DC
S2140083B03BFF4FF4800336B1084AC2F80831DCE7C9
S2140083C000263046EDE7064AF7E700BF3A000020F1
S2140083D03800002000400840000F002100400846FA
S2140083E00040084408B500F0D7FF094B094A0028AA
S2140083F018BF1A46136823F47F115B0803F4FE13B4
S2140084000B431360044B4FF00072DA6108BD00BFE7
S21400841000410840184108400040084008B500F0F8
S214008420BBFF064B4FF4001228B1C3F800214FF0F3
S21400843000621A6208BDC3F81821F8E70040084435
S214008440014B1868704700BF3C17002070B5054602
S2140084500E46C0B201F00F01FFF7F5FDC6F303119B
S2140084600446C5F30720FFF7EEFDC6F303210444D8
S214008470C5F30740FFF7E7FD204470BD036C012BF2
S21400848038BF01232DE9F0479A46454B454F9B6977
S214008490454E464D03F4E073A3F5C072804644484B
S2140084A05142514102685245424A0FD114788C42DB
S2140084B00CD198F8CCC03C78A44507D198F815C0E4
S2140084C03478A44502D1A888BDE8F087B3F5C07F0C
S2140084D0C0F800A0117047D1D8F8904024B12368A6
S2140084E0082B55D994F838400F212046FFF7ABFDEE
S2140084F0BAFA8AF300284FD0B0FA80F29B1A002B03
S214008500C6BFD840C3F10F094FF00F09504501D937
S21400851009F1FF39224B2004D86603F1806340F648
S214008520FF729A6603F100734FEA09219966FFF716
S2140085308DFFA88000F062FC09F01F094FF4FA7363
S21400854004FA09F45C4341F66A03B0FBF3F00A232D
S214008550B4FBF0F45C43184B1C6098F8CC303B70CE
S21400856098F815303370AEE798F8CC30062B06D165
S214008570124B1B78002B0CBF9624C824B4E7022BA2
S21400858008D00E4B1B78002B0CBFB424F024ABE7AE
S2140085900024A9E73224A7E74FF00F09BAE700BF87
S2140085A00060084031000020300000203A00002023
S2140085B034000020381700203C1700203617002013
S2140085C0FF2908D00B0103F4F87301F007010B43F1
S2140085D00749C1F8E830FF2A08D0130103F4F873FE
S2140085E002F007021343024AC2F8E4300020704744
S2140085F0000F0021F8B5134B134E1F68134D384675
S21400860000F09CFE3378C4B2A34201D12B78A3B10C
S214008610092C14D80E4B012C195D05D10D4B1B7877
S214008620022B01D141F0400101F00F023846090942
S214008630FFF7C6FF002334702B700020F8BD00241F
S214008640FA21F1E78C13002035170020341700209C
S2140086505CCE00003A00002070B50446364E00F0AE
S214008660C5FB364A36490023C6F8E030C2E9013376
S214008670344B25781A78521B18BF01220A702268DC
S2140086801A60C820A2889A80FFF73AFD2E4BD6F8CB
S214008690E020FF2119702D4B2D49062D03EA020319
S2140086A02C4A1CD14FF4EE40C2F824014FF48A4203
S2140086B0C1F8242143F08043012243F02003C1F88F
S2140086C020211D4AC2F8E030224B0322C3F858216D
S2140086D0FFF790FF204B01221A70002070BD022D7C
S2140086E04FF0070013D10324C2F80001C1F800417F
S2140086F0C2F80C010620C1F80C011849C2F808118E
S2140087004FF4404143F00303C2F80411D9E70424B0
S214008710C2F80001C1F80041C2F80C010520C1F8FA
S2140087200C01C020C2F8080143F08043812243F0C8
S2140087301403C1F80821C4E7000F0021E00F002150
S214008740341700203A000020380000202800C0A07F
S214008750004008460040084437170020C10040008B
S2140087602DE9F8432A4D2B4B2B6000F047FB4FF4C6
S214008770FA6307464FF47A76B0FBF6F62648274AA1
S2140087807343190E1B02181841F10001002303F071
S21400879079FBA0F580730446AB6220B966222B21D4
S2140087A0FFF7BAF801244FF47A7262434FF00009DB
S2140087B04B465008310203F065FB194B1960194B04
S2140087C0B7F57A7F4FEA0465804618604FEA1424AE
S2140087D005D276222B214846FFF79EF801264FF455
S2140087E07A72A5FB023102FB04117208981841F157
S2140087F000013246002303F045FB0B4B044A196088
S2140088000A4B186008F1FF331363BDE8F88300BF16
S214008810005008400211010020A1070040420F004E
S214008820501700204C17002048170020441700203F
S214008830044B4FF08052C3F880211A60024B01228D
S2140088405A60704700E100E00050084038B5020169
S2140088500A4B01259D500A4A4FF4807383405366A5
S2140088600446FDF74DF8074A1378A54023EA0503AA
S2140088701370BDE83840FDF745BD00BF745008448E
S21400888000500840401700202DE9F84316460546DC
S21400889088461C46FDF734F8022E00F083804E4AC8
S2140088A04E4B11684E4A9B6907464FF0000C106805
S2140088B04FF00042E1FB032CD8F80020012E08BF41
S2140088C0013200FB03CC08BF6244ACEB020C08BFCD
S2140088D0C8F80020BCF1804F78D34249DFF82491D5
S2140088E0D1F800C04049D1F800803C494FF0004024
S2140088F0D1F830E00021ECFB020108FB0211374AF8
S214008900714588BFA1EB0E0102EB051C05F10700BF
S21400891088BF01F1FF3102EB0010CCF880104FF059
S214008920110CC0F804C09069D2F85CE04FF0010C5E
S214008930C91A0CFA05F8C31A99F800005FFA88F805
S21400894048EA0000994289F800002AD84FF480735C
S214008950AB401EEA030F24D1002E28D0E007136692
S21400896008D5224B224941F61F7240F20110DA6602
S214008970C866DA66A10706D51C4B1D491D4A1E4867
S214008980DA66C866DA66620742BF1C4B01229A6046
S214008990230706D5212000F067F9104B4FF48032EC
S2140089A05A603846FDF7AEFC0120BDE8F88314494E
S2140089B02D0141F805C05366FCF7A2FF99F8003078
S2140089C023EA080389F80030FDF79CFC3846FDF7DB
S2140089D099FC0020BDE8F8834417002000500840AA
S2140089E0481700204C17002050170020005008445D
S2140089F00050084600001F1F00000101004008400C
S214008A007450084440170020024B0001185800F02C
S214008A100100704774500840034B01F460010001E8
S214008A2041F00301195070477450084008B52220E1
S214008A3000F01AF9024B4FF480225A6008BD00BFBE
S214008A4000500840064B10B51C68064B19684FF0DE
S214008A5000420023E1FB002304FB003010BD00BFF2
S214008A604817002044170020014B9869FFF7EABF1B
S214008A7000500840FFF7E6BF38B50446FFF7F4FF9E
S214008A800546FFF7F1FF431BA342FAD338BD0000AB
S214008A9038B50446FDF796FC14F4C00F05464BD0D7
S214008AA0284B99680804C1F38912274948689B69CE
S214008AB044BF6FEA82526FEA925213F0800FD9B227
S214008AC0224B33D1DB6D12F5007F03F4801333D0D5
S214008AD0B2EB810F30DC10F0506F04D000F0706005
S214008AE0B0F1806F28D13BBBFFF7A0FF174BDA6DC4
S214008AF0D10221D41A6F12B1134A01219160144A8F
S214008B00DA664FF4E0025A66A20207D55A6D12F0F2
S214008B10706F1EBF5A6D02F17F425A6524F4C0047E
S214008B202C2044F4801400F09FF805E061F0FF016B
S214008B3011F1460FDB6DC6DA2846FDF747FC2046E6
S214008B4038BD00BF00700840004008400050084094
S214008B50000001013B4B082270B501210546C3F811
S214008B60C8203948394CFCF79FFF394B1D702378D5
S214008B70013B012B0CD8237CE07B01229A400C2180
S214008B80302313FB001303F1884303F520431A60D8
S214008B90304B00225A677DB92F4A4FF6FF71D167D6
S214008BA002F10072F821D1675D672C4B4FF08042CE
S214008BB0C3F89420002070BD636853B300F01EF91C
S214008BC0626800EB5203B3FBF2F3013B1B0243F077
S214008BD0F80326782049224A022E1CD0032E1D4870
S214008BE04FF6FF7521D0012E27D143F00203CD6743
S214008BF0D36707234367237CE07B01229A400C213E
S214008C00302313FB001303F18C4303F520431A6053
S214008C1011E0F823DDE743F001034FF6FF70C86765
S214008C20D3670C4B05225A67E5E743F00503CD678B
S214008C30D367012343670B4BB8E7CD67D3670023A1
S214008C40F8E700BF00400E4600250A00581700202F
S214008C505417002000000840000008440040084464
S214008C600000084600400846044BD3F89430002B1A
S214008C70BCBF034BC3F88000704700BF00400840ED
S214008C80000008404FF0006318B1034AC2F8943061
S214008C907047024AFAE700BF004008460040084412
S214008CA00020704708B5064B06491A684FF0045076
S214008CB0920003F083FEBDE8084000F0D1BD00BF7F
S214008CC08CCE000090CE000007B501A8FDF794FBFF
S214008CD0194B1A4AC3F8442148F2E672C3F8382101
S214008CE04FF40862C3F83421154AC3F8A0209DF853
S214008CF00530012B134B05D19DF80420012A9CBF9B
S214008D0028221A654AF63F429A600F4B4FF0C0720F
S214008D109A62A3F540530022C3F8FC200B4AC3F81E
S214008D209C200B4B7F225A6203F1007323225A6267
S214008D3003B05DF804FB00BF00400840C0E6535196
S214008D407A27000F0030084000700840806D6303EB
S214008D500030084408B50D4B40F2FD12C3F8C82099
S214008D600B4B0C4AC3F8942000F0B4FBFFF7ACFFA3
S214008D70094B0322C3F89820A3F500530122C3F839
S214008D8094204FF46072DA6008BD00BF00400E46C3
S214008D90004008400048F000006008460F4B0022E4
S214008DA010B5C3F88820C3F88C20C3F890200C4A6E
S214008DB00121D1605A6812F0706FFBD14FF0045257
S214008DC0DA67012402F6B872C3F880401A66054BCB
S214008DD01B689847044BDC6010BD00BF004008408D
S214008DE0004008464000002000400844024B40F285
S214008DF0FD12C3F8C820704700400E4608B5FCF7C1
S214008E0087FD044BD3F81031C3F308230133B0FBBE
S214008E10F3F008BD00400E4070B5044618B1284D6A
S214008E202268531C00D170BDC2F30063110C35F8E4
S214008E30130011F0FE0F93B243EA0043606818D0A7
S214008E400434CAB2022A216808D9D4E90160033A78
S214008E50C3E9001698600C340C33F3E704D162685B
S214008E60C3E900120834DBE7012AD9D104341960BB
S214008E70D6E7120F072AF5D8DFE802F00704090D37
S214008E801013181DC04303F180631860EAE71A68E0
S214008E9042401A60E6E703F1C063F6E7FFF7ECFD31
S214008EA0E0E70122824003F1C063F2E7012282403C
S214008EB003F18063EDE71A6830EA0202FBD1D1E7DE
S214008EC066CE0000024B0122C3F89420704700BF14
S214008ED000400846024B0122C3F89420704700BFAA
S214008EE000400844024B4022C3F89420704700BF5D
S214008EF000400844024B4022C3F89420704700BF4D
S214008F000040084608B50C4B1B68D3F8903023B1D8
S214008F101A68022A01D9186A08BDFFF76FFF074BC7
S214008F201B6B024698B20028F6D0C3F30743D2085C
S214008F305343B3FBF0F0EFE78C13002000600840CB
S214008F40074B5B68C3F30363984208D1054AD2F81F
S214008F50803023F0F00343EA0111C2F88010704716
S214008F6000400840000F002110B50446FFF7CAFF76
S214008F70C4F30113012B02D0022B02D010BD40080F
S214008F80FCE7C4F3C4240134B0FBF4F0F6E700F0C9
S214008F903003202B10B513D110F4E02FC0F3024499
S214008FA00AD010F4C01FC0F3C423B3FBF4F418BFF8
S214008FB06400052C0ED86408FFF7D6FF604310BD8A
S214008FC0C0F382136FF012041C4104F00104C4F1D4
S214008FD00204F1E70424EFE72DE9F0470E46FFF719
S214008FE043FDDFF8B090DFF8B0A080460025FCF720
S214008FF087FCD9F80430C3F30363012B07460BD173
S214009000711C1AD0FFF730FDA0EB08053846FDF7B7
S21400901079F9AE42EBD80DE0052BF1D00B2BEFD053
S214009020023B012B0CD9013602D0FFF71DFD384656
S214009030FDF768F91648BDE8F087FDF763F9D6E74F
S214009040DAF808301A04C3F389140FD4013602D0B4
S214009050FFF70AFD3846FDF755F924B2A4F1C8001B
S2140090606FF4FF739842B8BF1846E4E7731C03D04A
S214009070FFF7FAFCA0EB08056FEA84546FEA9454F5
S2140090803846FDF73FF914F5007FC2D0E6E700BF8B
S21400909000FEFFFF0040084000700840024B01221F
S2140090A018619A60704700BF00200840074BD96FD0
S2140090B0074B5B680246C3F3036301F00F0002B17F
S2140090C01370984208BFC1F303107047000F0021C9
S2140090D000400840064BD3F8883001F0800103F4C6
S2140090E080030B4302BF034B4FF400129A61704794
S2140090F0004008400060084410B5FCF701FC084B2F
S2140091001B6804463BB1984728B1002200204FF464
S214009110806100F0D3FC2046BDE81040FDF7F2B8B1
S2140091206C1700202DE9F0411F4CDFF89080069F59
S2140091300646A2FB03502C1960F1000E9C46A04583
S2140091404FF0000373EB0E0E07D24FF4B4720E21ED
S2140091501846FEF7E1FB02201BE00029FBD0C6F311
S214009160130601EB5C04B4FBFCF4A4FB0646E40C1B
S21400917044EA46340D4E34600D4C22600D4A91424E
S21400918009D10D4AA5FB025302FB00339B093B6045
S2140091900020BDE8F081C4040A46E80444EA5531DC
S2140091A002F070FE3860F3E700C9E8767417002016
S2140091B07817002000F049020A3BB2DF0046C323BE
S2140091C038B5164D2B780C4623B9154B1B6D03F09E
S2140091D03F032B70134BD3F894305B051CD5124B12
S2140091E0B0FBF3F040F24D534343A3F546430C3B2C
S2140091F0584300F5C91000F5556028B940F21B32F7
S2140092002B21FEF789FB01202B78084A5343B3FB3A
S214009210F0F30020236038BD0220FCE7731700201F
S214009220003008400040084000366E0180969800E6
S21400923070B5374C374B256B374C1B682468ED02EE
S2140092404CBF1B191B1BB3F1804F04D8002B3AD11F
S214009250324E1C460AE0B3FA83F4314EC4F10204DF
S214009260E340304DAB4201D901345B0803EB5605B1
S214009270B5FBF6F52C4EB34234BF00260126240378
S214009280013D44EA86242C430C60D8B1B3FBF0F1D0
S214009290642400FB11336343984288BF01F1FF3119
S2140092A04808013801390728204D214C4FEA510360
S2140092B011D9002129700621C4F894101B0243EA34
S2140092C00013136070BDB3FA83F4D4F10204134E96
S2140092D0C6D50024C5E71029EBD068B10121297056
S2140092E00621C4F89410134909780029E6D01249DB
S2140092F00224C1F89440E1E7012914BF01210021AE
S21400930029704FF00601C4F89410ECD1D6E700BFE0
S214009310003008407817002074170020E0673500FA
S214009320C0CF6A003FBE4025401B5F137017002069
S214009330004008447117002000400846084B5B6B4D
S21400934003F00700C3F3C20213F0380F18BF5043F0
S214009350C3F3821213F4E07F18BF5043704700BF78
S2140093600030084010B5044651B10B6843B15B6845
S21400937033B11A68032A03D99C6A640E204610BDCE
S214009380FCF7BEFA01462046FFF7D8FF044608461B
S214009390FCF7B8FFF2E70000034BD3F8380180F083
S2140093A01000C0F30010704700400840174B4FF401
S2140093B0002210B5C3F89420154C164BB0F1804F20
S2140093C088BF1C46144BDA6CD2071DD51B6F134A98
S2140093D004F5F42404F59074B4FBF2F4033CE4B210
S2140093E003F00703A34202D02046FCF7F1FF0C4B24
S2140093F01B784BB10B4B4FF47022C3F8942003F14B
S21400940000732404C3F8944010BD00BF0040084613
S214009410E0673500C0CF6A0000300E4040420F00C3
S21400942072170020004008447FB50446FCF76CFA2B
S2140094301C4B06462C3358680093A37922683146A5
S214009440FFF770FE054648BBA379012B14BF1649EB
S21400945016491022C1F83821206815495843FFF7ED
S214009460AFFE03AA02A93046FFF7E2FE0F4A43F614
S214009470FF53C2F8A4300C4B0299C3F8A4104FF463
S214009480EE611163039A1A632068FFF78FFF094B9A
S214009490A2881A6203F5405300229A63284604B055
S2140094A070BD00BF00300840004008460040084439
S2140094B0503008400000084008B5044B01221A70DE
S2140094C0034B1868FFF772FF002008BD72170020D4
S2140094D078170020024B4FF48062C3F89420704740
S2140094E0004008460D4BD3F80421D3F8B030D2B272
S2140094F0FF2A03D043F30743591C01D190221923B6
S214009500074903EBD37302EB6302022381F88E3024
S214009510232381F88F2081F88D3070470081E00F7B
S214009520000F002140B10368012B05D90069034BE9
S214009530002808BF18467047004870476CCE0000E9
S214009540084B1A68C117A2FB000310F1807002FBDB
S214009550013343F10003400E40EAC310803820EA8E
S214009560E07070478017002008B50E4B0722C3F83E
S2140095708420FFF743FCC308010B0B480B4ADB05AE
S214009580181841F10001002302F07CFC084B18601B
S2140095904EF66020FFF7D4FF064B4042C3F8B400F7
S2140095A008BD00BF00400840B2E60E0065CD1D00B5
S2140095B080170020000F002138B14FF47A7358430B
S2140095C0A0F6AC50401AFFF7BBBF4CF25030FAE79B
S2140095D02DE9F843064608469846FFF7A3FF1546CA
S2140095E00746002E00F0988018F0050F5CD034690E
S2140095F0002C00F09380FEF723FF4FF47A735C4351
S214009600201ABB68A0F6AC50C01AFFF799FFB48BBF
S2140096106861002C00F08580FEF712FF4FF47A7325
S2140096205C43201ABB68A0F6AC50C01AFFF788FF50
S214009630A860424BF468D3F80090002C74D0FEF774
S214009640FFFE4FF47A735C43241ABB68A4F6AC544E
S214009650E41A7B68E41A3A4B1A68E117A2FB044343
S21400966014F1807402FB013343F10003640E44EAF4
S214009670C314803C334BEC60334CD3F89C302B61E6
S21400968023684BB1484602F033FB28B12368D9F86B
S21400969044002A4639469847B469FEF7D1FE01468B
S2140096A02046FFF789FF286218F0020F19D073686A
S2140096B04FF47A70584323B13B6803F51C531033BC
S2140096C01844FFF73DFFE861736983B3B8684FF449
S2140096D07A7202FB0300A0F503501038FFF730FF44
S2140096E0A86118F0040F17D0B06818B34FF47A7357
S2140096F05843A0F503501038FFF722FF2860336860
S2140097004FF47A70584323B13B6803F51C5310336B
S2140097101844FFF715FF6860BDE8F8834CF2503038
S21400972073E74CF2503081E74CF2503493E747F23F
S2140097303050D3E747F23050DEE700BF8C130020EE
S21400974080170020000F00217C170020064BD86BE6
S214009750DB69C0F3011203F01F03000C02FB0000DC
S21400976001331844704700BF0060084038B505460E
S2140097700C4621B38B7913B3052B0FD0062B0FD0D5
S214009780032B01D10223A371A379013B062B0ED82C
S214009790DFE803F00F08080F0F2323000423F2E787
S2140097A00723F0E729460020FFF7D0FF45B900233E
S2140097B0A3710020A37913B123680344236038BD46
S2140097C0B0F5803FF3D86B094FF2244202FB00301D
S2140097D02D09B0FBF5F04042ECE7A288002DE6D05C
S2140097E0B2F5005FE3D804496B0901FB02332D098B
S2140097F0B3FBF5F0DEE700BF20A1070010B5084672
S2140098001C46FFF737F9094B0246D3F8F000FFF77E
S21400981089FE0368A018002B054AA8BF4FF4FA7209
S2140098201A44044B92FBF3F2104410BD000F0021C3
S2140098300CFEFFFF18FCFFFF074BD3F8D8304FF69F
S21400984004014FF605029BB28B4208BF1346034A3B
S21400985001209365704700BF0081E00F005008406C
S214009860F0B5294B294D93E8070085B001AC84E894
S214009870070084222648002103F0AEF8254BDFF8C7
S214009880A0C01A684FF0045392001A44043A4FF6E8
S214009890CE264FF6CF274BF6D02E93420BD3FFF7AC
S2140098A021FE1D4B1B7823B194E80700164B83E876
S2140098B0070005B0F0BD9988B14214D1B3F9021083
