:020000040801F1
:10200000C00A00203142010817F5020817F502083E
:102010000708030817F5020817F5020817F5020864
:1020200017F5020817F5020817F5020817F5020858
:1020300017F50208408C030875EC020817F5020832
:1020400017F5020817F5020817F5020817F5020838
:1020500017F5020817F5020817F5020817F5020828
:1020600017F502083130010877ED020817F502086C
:1020700017F5020817F5020817F5020817F5020808
:1020800017F5020817F5020817F5020817F50208F8
:1020900017F50208054C010817F5020817F50208A4
:1020A00017F50208054E0108E14D010817F5020871
:1020B00017F50208BDBD020849C802085374030899
:1020C0004F740308F1BF02085F74030857740308D4
:1020D00021C802085B74030889C80208F5C8020811
:1020E00017F5020817F5020817F5020817F5020898
:1020F000FD03030817F5020817F5020817F5020893
:1021000017F5020817F5020817F5020817F5020877
:1021100017F5020817F5020817F5020817F5020867
:1021200017F5020817F5020817F5020817F5020857
:1021300017F5020817F5020817F5020817F5020847
:1021400017F5020817F5020817F502089D0903089C
:1021500055A6020817F50208E5700308EB7003089E
:1021600017F5020817F5020817F5020817F5020817
:10217000013800D0FCE77047D0B51BA7D7E900674E
:102180002DED028B04469FED1A8AD4ED007AF4EE11
:10219000C87AF1EE10FA0EDA13A7D7E900679FEDBF
:1021A000158AD4ED007AF4EEC87AF1EE10FA0ED466
:1021B000BDEC028BD0BD17EE900A1AF075FD3246C9
:1021C0003B461AF011FC1AF0C7FD2060DDE717EE60
:1021D000900A1AF069FD32463B461AF007FC1AF0E5
:1021E000BBFD2060DDE700BF182D4454FB211940E2
:1021F000DB0F4940DB0F49C0002370B5404C05465A
:102200008AB0E36318B1008823600DF07BFB3D4882
:1022100024F096FC3C4E3D4B304633603C4B7360A3
:1022200021F0C2FD0021304613F070FD32A3D3E946
:102230000023A062C4E9062321F0C1FDD4E90623EE
:1022400019431043C4E90601CDE900014FF0FF3303
:102250004FF0FF32A06A24F0C0FC02224FF0FF31A1
:10226000A06A24F0BFFC01200DF0CEF84FF40073FB
:1022700000222849A06A24F006FDB0F5007F38D17D
:1022800000239422CDE9073309933C23CDE903329F
:1022900005939623A06A03A9069313F055FE35B360
:1022A000287C0DF0ADFC0546F0B9A06A24F0CCFD09
:1022B0000DF054FC0DF08AF820B14FF4807000212D
:1022C0000BF0FCF80DF092F820B14FF40060002103
:1022D0000BF0F4F821F036FE012013F06BFD0E4AEE
:1022E0000E49A06A21F05EFD28460AB070BDFF20AD
:1022F000D7E70725F8E700BF0DD5015520000000FE
:10230000C00F0020690345EC842300208DF20108F2
:1023100094230020842100204D3D03088D3D0308B7
:102320000348044B834202D0034B03B11847704764
:10233000500F0020500F002000000000064B0749FE
:10234000C91A891048BF0131491003D0044B0BB1A1
:1023500001481847704700BF500F0020500F002061
:102360000000000010B5064C237843B9FFF7D8FFF2
:10237000044B13B10448AFF300800123237010BD58
:10238000482B002000000000C4E3030808B5054BFB
:102390001BB105490548AFF30080BDE80840FFF7D1
:1023A000CDBF00BF0000000030120020C4E30308CE
:1023B000A3F5803A704700BF174B002B08BF134BA3
:1023C0009D46FFF7F5FF00218B460F461348144A40
:1023D000121A25F017F90E4B002B00D098470D4B21
:1023E000002B00D098470020002104000D000D486C
:1023F000002802D00C48AFF300801BF0F1F8200059
:1024000029001CF02BFC1AF08FFE00BF0000080012
:102410000000000000000000C00A0020500F002053
:10242000642C0020000000000000000037B50B887D
:102430000622ADF800304B880546ADF802308B8897
:102440000021ADF804306B460FF09AFE044630B917
:102450006A46062128460FF0EDFE0446C8B1032067
:1024600001F0BEF8A8B10C4D0C4928681EF013F815
:102470001CF0D4FC1CF0D3FC09492346094A286807
:102480001EF009F8204601F0F1F8074928681EF00F
:1024900002F803B030BD00BF0413002040830308DE
:1024A0004883030845830308298403082DE9F04382
:1024B0007C4BA7B018681DF057F81CF0ACFC01F07D
:1024C000FBFCB2EE040A01F029FD01F0CBFD032074
:1024D00001F086F860B1744C744920681DF0DBFF90
:1024E0001CF09CFC1CF09BFC714920681DF0D3FF84
:1024F0000023042202210320042504F0EDF9002327
:1025000001246C4E2A461946C6F8D050012004F02A
:10251000E3F92A46002303212046346704F0DCF95E
:102520004FF0080900232A4619461846C6F870904D
:1025300004F0D2F900232A4629461846346404F0F0
:10254000CBF910232A46336402210023032004F030
:10255000C3F92A46C6F8D05000230221204604F0D1
:10256000BBF93567544E08AD0FCE0FC50FCE00270F
:102570000FC596E803004FF440334F2285E803006F
:1025800039460DF149004D4D0393CDE90577079785
:10259000ADF810708DF8127025F034F821462A201D
:1025A0008DF848408DF84D408DF852408DF85740D9
:1025B0008DF85C408DF861408DF866408DF86B4079
:1025C0008DF870408DF875408DF87A408DF87F4019
:1025D0008DF884408DF889408DF88E408DF89340B9
:1025E00002F0E8FE21463A2002F0E4FE284604F01C
:1025F00069FA02214FF4B06003F09AFB3A4628468C
:102600002F498DF8177004F0DDFA4FF496730B9391
:1026100005233A462B498DF819008DF82330009098
:102620003B4628468DF8247004F0E6FA40F2011388
:10263000ADF80E3049F29303DFF890800A9008AAB3
:10264000284605A9ADF848308DF811408DF84C406A
:1026500004F00EFB284612AA03A904F0D1F9D8F819
:10266000243303202343C8F82433D8F8243343F415
:102670008033C8F82433C5F80C906D6900F0B0FFC2
:1026800068B1094C094920681DF005FF1CF0C6FB24
:102690001CF0C5FB2A460C4920681DF0FCFE27B043
:1026A000BDE8F083CC0A0020041300204083030817
:1026B0005D83030800E00350B48403080040005920
:1026C000002D3101809698007683030800C00350E6
:1026D00070B5604B88B01A785AB100221A705E4B00
:1026E00018681CF038FF05A98DF814001D20FFF7AD
:1026F0009DFE1EF023F9594D2B68C41A0A2007F0DD
:102700005BFF8442C0F08F801EF018F9286001F052
:10271000BDFC05A801F048FC0DF11A0001F07EFC9B
:10272000032000F05DFFE0B14D4C4E4920681DF0E4
:10273000B2FE1CF073FB1CF072FBBDF91E30BDF93C
:1027400014200393BDF91C3047490293BDF91A3098
:102750000193BDF9183000932068BDF916301DF0C3
:102760009AFE322005A9FFF761FE0DF11A0135200E
:10277000FFF75CFE3D494B699B0556D505A81DF04A
:102780005AF80320BDF81460059D00F029FF68B1D8
:10279000334C344920681DF07EFE1CF03FFB1CF0DA
:1027A0003EFB2A46324920681DF075FE0320ADF835
:1027B000106000F015FF68B1294C2A4920681DF00F
:1027C0006AFE1CF02BFB1CF02AFB2A4629492068D4
:1027D0001DF061FE02220021252004AB0FF0D0FC89
:1027E000044630B90221252004AA0FF023FD044637
:1027F000C8B1032000F0F4FEA8B1194D19492868AA
:102800001DF049FE1CF00AFB1CF009FB1A49234687
:102810001A4A28681DF03FFE204600F027FF18499D
:1028200028681DF038FE08B070BD022000F0D8FE08
:102830000028F8D00A4C134920681DF02CFE1CF02B
:10284000EDFA1CF0ECFA1049206808B0BDE87040C1
:102850001DF021BE492B0020CC0A00204812002088
:1028600004130020408303088A83030800400059B2
:10287000C5830308D28303084883030845830308FC
:1028800029840308E1830308E68303087FB503680E
:102890009A4A23F47F4323F00703934200F04E81CA
:1028A00002F57C02934200F0C380954A934240F0C7
:1028B0008E81032000F094FE60B1924C9249206812
:1028C0001DF0E9FD1CF0AAFA1CF0A9FA8F49206856
:1028D0001DF0E1FD8E4E30460FF0ACFB054610B307
:1028E000884C8C4920681DF0D6FD8B4920681DF06E
:1028F000D2FD1CF093FA1CF092FA884B884A0093A0
:102900008849972320681DF0C6FD87492B46874AD2
:1029100020681DF0C0FD284600F0A8FE844920680C
:102920001DF0B9FDFEE7022130780FF0BDFB044633
:1029300010B3744D774928681DF0ADFD76492868BD
:102940001DF0A9FD1CF06AFA1CF069FA734B744A79
:10295000009374499B2328681DF09DFD724923460E
:10296000724A28681DF097FD204600F07FFE7049EE
:1029700028681DF090FDFEE7A02200900346114656
:1029800030780FF06FFB054610B35E4C614920684C
:102990001DF081FD604920681DF07DFD1CF03EFAB0
:1029A0001CF03DFA5D4B5E4A00935E49A22320680D
:1029B0001DF071FD5C492B465C4A20681DF06BFDE3
:1029C000284600F053FE5A4920681DF064FDFEE7DA
:1029D000022130780FF07CFB054610B3494C4D497D
:1029E00020681DF058FD4C4920681DF054FD1CF076
:1029F00015FA1CF014FA494B494A00934949A72398
:102A000020681DF048FD48492B46484A20681DF0C3
:102A100042FD284600F02AFE454920681DF03BFD96
:102A2000FEE7444B186804B0BDE870401CF098BD48
:102A3000032000F0D5FD60B1324C334920681DF011
:102A40002AFD1CF0EBF91CF0EAF93B4920681DF067
:102A500022FD2F4C022120780FF026FB054610B3F3
:102A6000284C2C4920681DF016FD2B4920681DF0CC
:102A700012FD1CF0D3F91CF0D2F9284B284A009320
:102A80002849B42320681DF006FD27492B46274A14
:102A900020681DF000FD284600F0E8FD244920686C
:102AA0001DF0F9FCFEE7022120780FF011FB05462E
:102AB000002800F08C80134C164920681DF0EBFCB8
:102AC000154920681DF0E7FC1CF0A8F91CF0A7F9D7
:102AD000124B134A00931349B92320681DF0DBFC05
:102AE00011492B46114A20681DF0D5FC284600F0FC
:102AF000BDFD0F4920681DF0CEFCFEE7A0000A00D6
:102B0000A00001000413002040830308FD83030894
:102B1000760D0020288403082A840308A284030871
:102B20002F84030838840308488303084583030877
:102B300044840308CC0A002055840308B0F805003B
:102B40001B2844D10DF10B0300930122002103AB9C
:102B50000FF0E4FA054610B3274C284920681DF011
:102B60009AFC274920681DF096FC1CF057F91CF0D0
:102B700056F9244B244A00932449C32320681DF0AE
:102B80008AFC23492B46234A20681DF084FC2846F2
:102B900000F06CFD204920681DF07DFCFEE71F4B16
:102BA00018689DF80B30A3B11CF020FD032000F045
:102BB00017FD60B1104C1A4920681DF06CFC1CF028
:102BC0002DF91CF02CF9174920681DF064FC04B0A5
:102BD00070BD1CF00EFD032000F002FD0028F6D0B1
:102BE000054C0F4920681DF056FC1CF017F91CF02D
:102BF00016F90D49E8E700BF0413002028840308F4
:102C00002A840308A28403082F8403083884030855
:102C1000488303084583030844840308D00A00203E
:102C2000408303088484030894840308034B1B68CF
:102C3000834202BF0122024B1A707047CC0A002067
:102C4000492B002030B503687C4A23F47F4323F0EE
:102C50000703934289B040F0EE8008220021122041
:102C6000774B0FF08DFA044610B3764D76492868FD
:102C70001DF011FC754928681DF00DFC1CF0CEF804
:102C80001CF0CDF8724B734A009373493D232868BA
:102C90001DF001FC71492346714A28681DF0FBFBB9
:102CA000204600F0E3FC6F4928681DF0F4FBFEE7C6
:102CB0000146032214206C4B0FF062FA044610B355
:102CC000604D614928681DF0E6FB604928681DF0E9
:102CD000E2FB1CF0A3F81CF0A2F85D4B5D4A0093E8
:102CE0005D494B2328681DF0D6FB5C4923465C4AAE
:102CF00028681DF0D0FB204600F0B8FC5949286830
:102D00001DF0C9FBFEE7014605221620574B0FF0C8
:102D100037FA054610B34B4C4B4920681DF0BBFBFE
:102D20004A4920681DF0B7FB1CF078F81CF077F8D2
:102D3000474B484A00934849592320681DF0ABFB94
:102D400046492B46464A20681DF0A5FB284600F060
:102D50008DFC444920681DF09EFBFEE70DF10F013C
:102D600004A80FF07DFA044610B3364D36492868A2
:102D70001DF091FB354928681DF08DFB1CF04EF8C5
:102D80001CF04DF8324B334A0093334964232868D2
:102D90001DF081FB31492346314A28681DF07BFB39
:102DA000204600F063FC2F4928681DF074FBFEE705
:102DB000BDF8143001465BBAADF818309DF81330F9
:102DC00008228DF81A30FF238DF81B30FE238DF872
:102DD0001C309DF8123018208DF81D30BDF81030D1
:102DE0005BBAADF81E3006AB0FF0CAF9054610B35A
:102DF000144C154920681DF04EFB144920681DF045
:102E00004AFB1CF00BF81CF00AF8114B114A009316
:102E10001149742320681DF03EFB10492B46104ACF
:102E200020681DF038FB284600F020FC0D49206882
:102E30001DF031FBFEE709B030BD00BFA00001006E
:102E4000DC84030804130020288403082A84030870
:102E500017850308E58403083884030848830308BA
:102E600045830308448403080D850308118503087E
:102E700010B5274C02F0E0FC02F038FF236F23F07E
:102E8000070343F0030323671CF038FC214B0020A9
:102E90009B6ADB015EBF4FF480321F4B9A62D4F80D
:102EA000203123F0070343F00203C4F82031D4F8A3
:102EB000283123F0070343F00203C4F82831D4F883
:102EC000403123F0030343F00203C4F84031D4F847
:102ED000603123F0030343F00203C4F86031D4F8F7
:102EE000403223F0030343F00203C4F84032D4F825
:102EF000003223F0070343F00203C4F80032D4F891
:102F0000083223F0070343F00203C4F8083210BD6F
:102F1000008000500040005A0060005A30B5204D3B
:102F200095B00DAC0FCD0FC495E80700292384E8B8
:102F300007001C4A0024CDE902230523CDE90444FF
:102F40008DF81130062321460E220DF126008DF852
:102F50001330069424F056FB4FF48021124B0DAA37
:102F6000CDE9071309238DF824300A238DF8253085
:102F70000E4B07A90A9320230B9301238DF83130C0
:102F80000B4B0C48009302AB06F0F8FA05462146BD
:102F90004FF4E1301BF091FF284615B030BD00BF63
:102FA000DC89030800C0055024C005504A2B0020CE
:102FB0004C120020A0120020831E012B10B512D845
:102FC000012922D8114B04221B6C05210020C3F3D8
:102FD000401303F081FC0E4B1B681868A8B1BDE8D4
:102FE0001040436A18478B1E012B0CD801280CD8BF
:102FF000BDE810400022054B05211B6C1046C3F3B1
:10300000401303F069BC0129E5D910BD00C003508D
:10301000C00A002008B50449044806F0B9FDBDE81F
:103020000840FFF77BBF00BFC40A0020C412002085
:1030300001481DF09EBB00BFA0120020014B1A6A80
:1030400018681047A012002001481CF07FBA00BF8A
:10305000F889030801481CF0C6BA00BF108A0308AB
:10306000102337B58DF80430214B224D1B788DF895
:103070000530214B1B788DF806302B78012B22D0A0
:10308000022B22D0D3B91D4803223821007801AB8E
:103090000FF0BAF8044698B1012000F0A1FA68B127
:1030A000174D184928681DF0F6F91BF0B7FE1BF004
:1030B000B6FE2246144928681DF0EDF903B030BD74
:1030C00001232B70FAE70223FBE7012000F088FAC6
:1030D0000028F3D00A4C0B4920681DF0DCF91BF0E6
:1030E0009DFE1BF09CFE094920681DF0D4F9E5E720
:1030F0006C2B00206A2B00206B2B0020712B0020F2
:1031000004130020288A03082D8A0308638A030811
:1031100038B52A4B1B78002B4ED0294C294D21461F
:1031200028461BF06CFE48B1112845D147F6FF73C5
:103130002B8023806B806380AB80A380224B1B7825
:10314000D3B12248062232211D4B00780FF046F8F9
:10315000044688B1012000F043FA68B11C4D1D49B6
:1031600028681DF098F91BF059FE1BF058FE224606
:10317000194928681DF08FF9184B1B78E3B11348E3
:10318000062235210F4B00780FF028F8044698B13D
:10319000012000F025FA78B10D4D0E4928681DF088
:1031A0007AF91BF03BFE1BF03AFE224628680A49DA
:1031B000BDE838401DF06FB938BD00BF702B00204E
:1031C000EE2A0020E82A00206F2B0020712B00201F
:1031D00004130020288A03088E8A03086E2B00201F
:1031E000084908B50978084B1A7849B90749087899
:1031F00000F001009042187001D01BF004FE08BDE1
:103200000120F5E76F2B0020702B00206E2B002093
:103210000368564A23F47F4323F00703934273B5B0
:1032200004464DD002F18072934211D0A2F1017296
:10323000934243D100234E4A13704E4A13704E4AB4
:1032400013704E4A137002B0BDE87040FFF7C8BF5C
:10325000C379012B22D1B0F80530322B08D1038974
:10326000474A0179003B117018BF0123404AE9E742
:10327000352B0AD0382B21D10389414A0179003BF3
:10328000117018BF01233C4ADCE703893C4A0179ED
:10329000003B117018BF0123364AD3E7022B0DD132
:1032A000B0F80530382B09D1344C2378022B03D1E8
:1032B00000232370FFF7D4FE0023237002B070BDFB
:1032C000B0F80530382BF9D1837A012B43D12A4B42
:1032D0001B78002B41D0C57A2A4B2B4E1D70022340
:1032E0009D42337034D0642D32D0012D02D11BF0B9
:1032F00088FD58B300263246B4F8051020790EF048
:1033000055FF054658B3214C214920681DF0C3F8EC
:10331000204920681DF0BFF81BF080FD1BF07FFDE9
:103320001D4B1E4A00931E49D42320681DF0B3F89C
:103330001C492B461C4A20681DF0ADF8284600F0B9
:1033400095F91A4920681DF0A6F8FEE73570D1E717
:1033500001233370CEE70D26CDE78126CBE7002E83
:10336000ACD102B0BDE87040FFF77ABEA0000A02FF
:103370006F2B00206E2B00206D2B00206A2B00206D
:10338000712B00206C2B00206B2B002004130020DD
:10339000288403082A840308358B0308C68A030897
:1033A00038840308488303084583030844840308DA
:1033B000184B37B583422AD1174B1B783BB3C8B2A1
:1033C0000EF09AFE054610B3144C154920681DF006
:1033D00062F8144920681DF05EF81BF01FFD1BF019
:1033E0001EFD114B114A00931149852320681DF0E1
:1033F00052F810492B46104A20681DF04CF8284618
:1034000000F034F90D4920681DF045F8FEE703B0DF
:1034100030BD00BFCC120020722B0020041300200E
:10342000288403082A840308B98B0308478B030800
:103430003884030848830308458303084484030849
:1034400030B500250368584A23F47F4323F007036F
:1034500085B0934204460295ADF80C507ED002F53B
:10346000802293420ED0A2F18272934240F09A8061
:103470004E4B1B78002B00F0958005B0BDE8304026
:103480001DF0D9BAB0F805302F2B40F08B80FF2308
:1034900004A91A4611E903001BF0B6FC012814BF69
:1034A00041F2FC15414B05F0FC0208BF18702F21BA
:1034B00020790EF07BFE054610B33D4C3D49206857
:1034C0001CF0E9FF3C4920681CF0E5FF1BF0A6FC5E
:1034D0001BF0A5FC394B3A4A00933A49592320681E
:1034E0001CF0D9FF38492B46384A20681CF0D3FF1E
:1034F000284600F0BBF8364920681CF0CCFFFEE7F8
:10350000344900902379344A0968344800F008F9B6
:103510000546002846D0264C264920681CF0BBFFF3
:10352000254920681CF0B7FF1BF078FC1BF077FCE6
:10353000224B234A00932349622320681CF0ABFFEF
:1035400021492B46214A20681CF0A5FF284600F09F
:103550008DF81F4920681CF09EFFFEE7B0F805308B
:10356000B7EE047A07EE903AF8EE677AB0F80730D3
:1035700067EE877A013307EE103AB8EEC77A67EE46
:10358000877AB1EE047A67EE877AFAFE677AFCEE04
:10359000E77A17EE903AB3F57A7F38BF4FF47A7333
:1035A0000C4A136005B030BDA0000602722B00204B
:1035B00004130020288403082A840308C88B030806
:1035C000478B0308388403084883030845830308AE
:1035D00044840308D40A0020B1330108CC1200202F
:1035E0000B4B02461B7883B10A4B1B78834234BFD6
:1035F00000200120084B1B7833B1084B1B78134186
:1036000013F0010F08BF002070470120F2E700BF50
:103610007C0D00207B0D0020732B00207A0D0020F4
:10362000012208B5074B1A700022074B1A700422BA
:10363000064B1A701F22064B1A7005F09BFD054BB6
:10364000186008BD7C0D0020732B00207B0D00202E
:103650007A0D002004130020024B034918681CF067
:103660001ABF00BF04130020E88B030870B50C4C90
:103670000C49064620681CF00EFF05F07BFD054650
:10368000206805F06BFD3046FFF7E6FF284605F0A1
:1036900065FD20680449BDE870401CF0FCBE00BF19
:1036A00004130020EA8B0308EC8B030838B50546A9
:1036B0001CF040F800230B4A14685CB1AC4206D100
:1036C000A96A6BB199621CF03BF8012007E0234620
:1036D000A46AF2E7002DF3D01CF032F8204638BD82
:1036E0001160F0E70813002010B5044698B106F009
:1036F000C9FE2046FFF7DAFF10B194F82C300BB961
:10370000002010BD1CF016F8044A1368013B13603A
:103710001CF016F8F4E72220F3E700BF0C1300209A
:103720002DE9F04385B00546914698460E469DF832
:10373000307009B9002F5CD12846FFF7D5FF044649
:10374000002836D185F82C00686306F0BDFF86425C
:1037500033D906F02BFF2146844640F2E7304FF480
:103760007A720023E6FB0C0119F046FB4FF0FF32A2
:10377000002319F041FB2B46E88611462846CDE987
:1037800000441D4A1DF0B5F8044690B9C5E90898F3
:1037900085F82D702E631BF0CDFF184A136833B3E4
:1037A0001A469B6A002BFBD195620023AB621BF08B
:1037B000C7FF204605B0BDE8F08347B12B46314630
:1037C0002846CDE900440C4A06F042FFDCE73046CB
:1037D00003A906F01FFF04460028EAD12B4628461D
:1037E000CDE90077044A03991DF05FF8CCE7156036
:1037F000DBE72124DDE700BF0138010808130020C2
:1038000091F82C3013B50C4683B98B8ECA8E934237
:103810000ED243B9CDE9003320460B46104A4FF093
:10382000FF311DF026F8A38E0133A38602B010BD30
:1038300052B191F82D307BB101230093D1E90823D7
:103840002046096BFFF76CFF0123064A84F82C30F1
:10385000136801331360E9E7084606F013FEF3E747
:10386000013801080C1300202DE9F041144E336893
:1038700023B34FF00008134F1BF05CFF05463C6874
:1038800024B92846BDE8F0411BF05ABF94F82C300B
:1038900093B1336884F82C80013B336094F82D3069
:1038A00013B92046FFF702FF28461BF049FFD4E971
:1038B000083120469847DFE7A46AE1E7BDE8F081D8
:1038C0000C13002008130020034B1B68002B14BFAF
:1038D00004200120704700BF0C130020024B186821
:1038E000B0FA80F0400970470C130020202808B57A
:1038F00013DC032804DC0138012806D90E200BE074
:10390000094B0438C340DB07F8D501230422092101
:10391000022002F0E1FF002008BD4028EED1012383
:1039200004220821F4E700BF1100001007B50820A9
:103930001BF042FE02238DF80030054B68460193D0
:103940001BF07FFA082003B05DF804EB1BF03FBECC
:10395000006A181070B5144680220C4B0D461A648C
:1039600040EA02010A481BF033FF094E2544AC42ED
:1039700004D18022074B00201A6470BD002130461C
:103980001BF026FF04F8010BF1E700BF00E0035035
:1039900000000A5000D00350F8B580260D46094CAF
:1039A000094F04F500531E6400F07F0138461BF0F8
:1039B0000FFF04F58054294638461BF009FF00200C
:1039C0002664F8BD00C0035000000A5070B5264CB4
:1039D0008EB0264601AD0FCE14340FC50FCC06AD08
:1039E0000FC594E80F0085E80F00204B01210393D9
:1039F00006AB05934FF480735720ADF81C3001F0EF
:103A0000D9FC01213A2001F0D5FC00230422032136
:103A1000022002F061FF022100230846012202F089
:103A20005BFF002304220121022002F055FF012345
:103A300004220721002002F04FFF0D4801A902F0E7
:103A400029FE0C4B0C4A0020C3F8CC244FF0021284
:103A5000C3F8C424A2F58032C3F8C8241C22C3F8DA
:103A6000B4240EB070BD00BFF08B0308A05A320022
:103A700000000A5000C003500200030010B52DEDF5
:103A8000028B9FED188AB7EE007AC8EE007A77EEC7
:103A9000C77A9FED157AF4EEC77AF1EE10FA82B08C
:103AA00019DCF5EEC07AF1EE10FA17D4FCEEE77AE5
:103AB000CDED017A9DF8044019202146FFF76CFFF7
:103AC000631C00EE103AB8EEC00A88EE000A02B09D
:103AD000BDEC028B10BDF0EE477AE7E7DFED037A2D
:103AE000E4E700BF00007A4400007F4300000000CC
:103AF00013B5044601211B200DF10702FFF72AFF31
:103B00009DF8073003F01803102B0CD004D863B1D4
:103B1000082B0CD0012004E0182BFBD1054B002012
:103B2000236002B010BD044BF9E7044BF7E7044BE8
:103B3000F5E700BF00007A3D0000FA3C0000FA3BC8
:103B400000007A3C01212DE9F043002285B0804637
:103B500008461BF0C9FA9FED6D0AFFF78FFF05209D
:103B60001BF002FA00201BF0ACFA6846FFF7C0FF1A
:103B7000322006F033FD40211A20FFF70DFF4421CB
:103B80006A20FFF709FF78212320FFF705FF0520B2
:103B900006F024FD0221722001AAFFF7DBFEBDF82A
:103BA00004305BBA9BB2B3F5FC7FF0D378220021DE
:103BB00023201BF09DF90221722001AAFFF7CAFE03
:103BC0004FF000090C23BDF804704C467FBABFB219
:103BD000B7FBF3F74D464E461FFA89F3BB4278D345
:103BE00096FBF7F607EE906A9DED007AF8EEE77A1D
:103BF00095FBF7F567EE877AC8ED007A07EE905AE5
:103C0000F8EEE77A94FBF7F467EE877AC8ED017A6D
:103C100007EE904AF8EEE77A67EE877A01AAC8EDD8
:103C2000027A02211320FFF795FE9DF904309DF8DA
:103C3000058001AA0221152048EA0328FFF78AFE21
:103C40009DF904309DF8057001AA0221172047EA6A
:103C50000327FFF77FFE002E9DF904209DF8053015
:103C6000B8BF0336002DA8EBA606B8BF0335002C5D
:103C700043EA0223B8BF0334C6F307211320A3EBA2
:103C8000A404A7EBA505FFF787FEF1B21420FFF708
:103C900083FEC5F307211520FFF77EFEE9B216204B
:103CA000FFF77AFEC4F307211720FFF775FEE1B294
:103CB0001820FFF771FE402200216A201BF018F93E
:103CC0000022114610461BF00FFA002005B0BDE897
:103CD000F08301AA0C217420FFF73CFE9DF90A2015
:103CE0009DF80B3009F1010943EA02231E449DF9B6
:103CF0000C209DF80D3043EA02231D449DF90E204F
:103D00009DF80F3043EA02231C4465E700007A4423
:103D1000B7EE007AC7EE007A9FED057AC0ED157A0E
:103D2000C7EE007A80ED140AC0ED167A704700BF26
:103D300035FA8E3CF0B52DED048B0F4600F15C0595
:103D40000446D0ED098A90ED0A9AD0ED0B9A85B021
:103D500028461646B0EE408A1BF06DFB002F48D077
:103D600094ED097ADFED386AB4EEE67AF1EE10FAF6
:103D70003FDBDFED367AB4EEE77AF1EE10FA38D8B1
:103D800094ED0A7AB4EEE67AF1EE10FA31DBB4EE95
:103D9000E77AF1EE10FA2CD8F5EEC09AF1EE10FAAF
:103DA000F1EE688AB1EE490A04F1680725DB19F0E3
:103DB00065FF8DED010AB0EE680A19F05FFFB1EE04
:103DC000400A28463A4601A98DED020A8DED038A84
:103DD0001BF069FB28461BF021FB0EB9002363662C
:103DE000D4ED147AB6EE000A284680EE270A1BF0BE
:103DF0003AFB05B0BDEC048BF0BD19F03FFF9FED21
:103E0000149A39EE400A8DED010AB0EE680A19F0F5
:103E100035FF38EE098AB1EE400A01A88DED020A9D
:103E20008DED038A1BF0FAFA3A46284601A91BF0E9
:103E30003AFB28461BF0F2FAD4ED187AF1EE677AD5
:103E4000C4ED187AC9E700BFDA1B7CBFDA1B7C3FE0
:103E5000DB0F494070B5044600F05AF801280546CA
:103E600026D104F12406304600F016F931462046EA
:103E700004F144061BF05BFA304600F01BF9D4ED68
:103E8000117AF1EE677AC4ED117AD4ED127AF1EE7F
:103E9000677A31462046C4ED127A1BF064FA29464F
:103EA0002046BDE870409FED030A0022FFF742BFA5
:103EB00070BD00BF000000007FB502250E4E0F4808
:103EC00035701BF012FA1BF02BF8044660B90DF1A7
:103ED00003001BF03CF9044630B9032301A83370FA
:103EE000FFF730FE044610B11AF0F6FF0025204619
:103EF000357004B070BD00BF742B0020101300207B
:103F00000022024B1A701AF0E7BF00BF742B00208A
:103F1000014B1878704700BF742B002070B5012149
:103F20002DED028B0223B0EE408A1C4E82B000229F
:103F3000084633701BF0D8F8B0EE480AFFF79EFD34
:103F4000174D082085ED000A1BF01EF803201BF01A
:103F50000BF800201BF0A2F800201BF0B2F8322072
:103F600006F03CFB0F4C002101201BF0D6F801A805
:103F70001BF0E1F895ED000A20461BF0D5F995ED10
:103F8000000A2046FFF7C4FE20461BF008FA012372
:103F9000337002B0BDEC028B70BD00BF742B0020EB
:103FA00084130020101300201A4AD36B6BB392EDD8
:103FB0000C6A9FED197A07EE903A26EE076AF8EE42
:103FC000677AC6EE276A92ED0D6AFDEEE66A26EE86
:103FD000076A16EE903AC6EE276AFDEEE66A03809F
:103FE00016EE903AD2ED0E6A66EE876A86EEA77AF2
:103FF000BDEEC77A438017EE103A83800023136327
:10400000536393630023D3637047038043808380AB
:10401000704700BF1013002000007A440F4B9FED43
:10402000107AD3ED1A7A67EE877AFDEEE77A17EE0B
:10403000902AD3ED1B7A67EE877AFDEEE77A02804D
:1040400017EE902AD3ED1C7A67EE877AFDEEE77AB9
:1040500017EE903A42808380704700BF1013002013
:10406000A00CB345002110B508461BF056F8FFF729
:1040700047FFFFF721FF0446034B93ED000AFFF7CC
:104080004DFF204610BD00BF841300200148FFF7FC
:10409000E1BE00BF10130020054A1278012A04D0A7
:1040A000002202604260826070471AF097BF00BF32
:1040B000742B0020054A1278012A04D000220260E5
:1040C0004260826070471AF0B9BF00BF742B0020B5
:1040D0009FED060A00F10C03B0EC017AF1EC017AD5
:1040E000984207EE270AF7D1704700BF0000000092
:1040F0002DE9F041424D88B001AC0FCD0FC495E8D9
:10410000070084E80700012401213A2001F052F958
:104110003C4E0121292001F04DF93B4B304601A9CD
:1041200003938DF8124003F011FA23460422032171
:10413000022002F0D1FB022122460846002302F0B1
:10414000CBFB234621460422022002F0C5FB0422B9
:1041500000212346022002F0BFFB2C4D2C4B05F51D
:104160000058C5F834374FF00213C5F8303703F55F
:104170008033C5F838371C234FF44870C5F8203712
:1041800006F090FC05F580571420C8F8A04006F012
:1041900089FC2320C7F8A04006F084FCB9213046F2
:1041A000C8F8A0401BF0C7FB002303211A460220D9
:1041B000C7F8A04002F090FB002302211A460846EF
:1041C00002F08AFB234621460022022002F084FBF3
:1041D000002223461146022002F07EFB304603F007
:1041E00033F900212920C5F83417C5F83017C5F870
:1041F0003817C5F8201701F0DDF808B0BDE8F081E8
:10420000248C030800C0055000127A0000C003503F
:10421000020001000348044A0449121A92101BF0DC
:104220007BB900BF68E8030868E80308642C002035
:1042300008B500F02FF8FFF7EDFF124B12498B4243
:1042400012D30020114B12498B4218D3FEF7B4F859
:10425000186850F82240586840F8224001329868A7
:104260008242F5D30C33EAE70022F8E71C6844F8F1
:10427000220001325C68A242F8D30833E4E700224E
:10428000F8E700BFCCE30308D8E30308D8E303084A
:10429000D8E303084FF480414FF0FF30114B124A2E
:1042A00010B59A60D3F8882042F47002C3F88820D1
:1042B0000E4A91660E4901F5005210660D4850668F
:1042C0000220C3F8D000BFF34F8FBFF36F8F0124DC
:1042D0004FF440330848C0F88041D36004600B615C
:1042E00010BD00BF00ED00E000200108009000506C
:1042F00000800044F7FF370000E100E0014B186840
:10430000704700BFDC0A0020084B1B6F03F0070357
:10431000022B04D0032B05D0012B05D0FEE7044B64
:1043200018687047034BFBE7034870470080005054
:10433000DC0A0020E40A0020002D310108B5FFF757
:10434000E3FF054B1B6FC3F303330133B0FBF3F003
:10435000024B186008BD00BF00800050D80A002042
:104360000048704700B4C404014B1868704700BF90
:10437000E40A0020054B1860054B1B6F03F0070390
:10438000032B01D1FFF7DABF704700BFE40A00201A
:104390000080005000487047002D31014FF0B443B9
:1043A0009868C0F304400C280AD8DFE800F00B0935
:1043B00009090909072119091B1D1F000F4870472A
:1043C000002070479B6803F04073B3F1807F11D0E9
:1043D000B3F1007F10D00A4A002B08BF1046704787
:1043E00008487047084870470848704708487047B1
:1043F000084870470848704708487047405DC60045
:1044000000093D00C0EA210180BA8C010048E801A2
:10441000005A62020024F40080841E0040420F0013
:10442000014B1868704700BFE00A00204FF000639E
:104430009B6A10B503F17842B2F5903F11D219682A
:10444000094A91420DD1094C227812F0FD0F01D09A
:10445000002010BDDB6998470028FAD101232370A2
:10446000F6E74FF48170F4E707B0CD5E752B0020BE
:104470004FF00053074A1A60BFF34F8F0649074BAE
:10448000CA6802F4E0621343CB60BFF34F8F00BFF2
:10449000FDE700BF02020FF000ED00E00400FA05A6
:1044A0000346054A0549106803448B428CBF4FF010
:1044B000FF301360704700BFE80A002000000420AE
:1044C00010B40A6808461378022B10D01421302348
:1044D000147913FB041307495B585179CB40DB4334
:1044E00003F0010313705DF8044BFEF79FBB5DF80A
:1044F000044B704730C00350F7B5046801210546EE
:104500003A2000F057FF002301226179207902F060
:10451000E3F914223023217913FB01231D4A995812
:104520006379D940C943A37901F00101022B2170BD
:1045300017D100F0BDFB184A2B466179207900F0B5
:10454000E1FBFF28024660790ED12A46124900F0AD
:1045500015FC0123024661792079CDE9003302F090
:1045600061F9002003B0F0BD012627790023014640
:104570000096384602F018FA2A460749607900F09A
:10458000FDFB0023617902462079009301963346B2
:10459000E5E700BF30C00350C1440108026813784A
:1045A000022B24D014213023107913FB001310495F
:1045B0005B585179CB40917903F00103012912D165
:1045C000508843EA40034FF6E07063F03F039BB22C
:1045D000834202D11170538070474FF6DF718B42D6
:1045E000F9D10021F6E711B983F001031370704788
:1045F00030C0035008B501213A2000F0DBFE012352
:1046000004220321002002F067F900201BF0F9F8D2
:104610000122354B3549C3F844244FF40022A3F559
:1046200050335A66324BD3F8FC20D20146D4D1F82D
:10463000803023F0030343F00203C1F880304FF4CD
:10464000607000F0D1FE2A4B00F5D520D3F8F020A1
:1046500000F2FC4042F00102C3F8F020D3F8FC2045
:1046600042F08072C3F8FC20224AA3F55D431A6031
:10467000214B0222B0FBF3F0204B01381861C3F844
:10468000F0204FF48072C3F804234FF060431C4ABB
:104690000020C3F8B02F1B4AC3F8802ED3F8002E99
:1046A00042F48072C3F8002EFF2283F82020D3F852
:1046B000002E22F48072C3F8002E08BDD3F8FC202F
:1046C00022F08072C3F8FC20D1F8802022F003028F
:1046D00042F00202C1F88020D3F8FC2042F0807240
:1046E000C3F8FC20ABE700BF00D0035000800050AF
:1046F00000ED00E0FF030040F8590D00000004E069
:1047000055CEACC5090001004FF06043D3F8802EB0
:1047100030B5D20715D501240B4D8440D5F8FC20C7
:1047200042F08072C5F8FC20D3F8002E2243C3F873
:10473000002E53F82020002AF0D003F8201000208B
:1047400030BD1120FCE700BF00ED00E010B50122F4
:1047500043780178847830209A40054B00FB013380
:104760001CB903F501531A6010BD03F58253FAE733
:1047700000C0035010B501224378017884783020BE
:104780009A40054B00FB01331CB903F582531A60B4
:1047900010BD03F50153FAE700C00350012243782E
:1047A00001789A4030235943014B5A50704700BF5B
:1047B00040F00350102130230246007813FB001311
:1047C00005495B585178CB4003F0010093780BB951
:1047D00080F00100704700BF30C003502DE9F04F5A
:1047E0009A46564B85B01B7806460F461546DDF8AF
:1047F0003C909DF844B0DDF85080002B00F097808D
:10480000072A00F296800E9B002B00F09280B9F1EF
:10481000000F00F08E80129BB3F5006F00F38980CB
:10482000012803D1109B002B00F08380444B03EB45
:1048300005131B7B002B7ED0424C102200216846C2
:1048400022F0E0FE04EB45141022A7BB39462046B7
:1048500022F0D8FE43F210036380BBF1000F03D1B6
:10486000E37843F00303E370364A0E9B02EB451CEA
:10487000CCE90193129B6901581E9DF84C30C0F39E
:104880000A0003F003039B0643EA001E53582E4818
:10489000012E00EA03004EEA0003CDF800A05350B9
:1048A00017D0B8F1000F2ED19CF8023068F3041332
:1048B0008CF8023027E00021204622F0A3FE4FF4BE
:1048C00044736380BBF1000FCED1E37843F0300333
:1048D000C9E713230CF1100ECCF80C309CE80F0044
:1048E0008EE80F006FF00301DCF81C20109B61F3D1
:1048F0009F02012FCCF81C20CCF8143003D1CCF847
:104900001890CCF8043000270D4A290102EB05135A
:1049100042F80180159A28465A60694622469F60EF
:104920005E7302F07FFC384605B0BDE8F08F0748A3
:10493000FAE70748F8E70748F6E700BF762B0020BC
:1049400088140020881300200F80FFF3028000F0FD
:10495000018000F0078000F038B5124B05461B7847
:10496000DBB1E0B11AF0E6FE0F4A00231146147BDA
:1049700054B92B6001251A0101EB03131D738C50F0
:104980001AF0DEFE204638BD0133082B02F110027A
:10499000EDD11AF0D5FE0548F5E70548F3E70548DF
:1049A000F1E700BF762B002088140020048000F07F
:1049B000028000F0018000F038B51AF0BBFE002341
:1049C00005460B4A147B6CB90133082B02F1100227
:1049D000F8D102F0C9FB074B28461C701AF0B0FE54
:1049E000204603E028461AF0ABFE034838BD00BF5E
:1049F00088140020762B0020058000F00D4B10B5A8
:104A00001B78044693B1072812D81AF093FE0A4B7C
:104A100003EB04131A7B2AB100241C731AF090FED6
:104A2000204610BD1AF08CFE0448FAE70448F8E767
:104A30000448F6E7762B002088140020068000F05A
:104A4000028000F0018000F0154B13B518680023B8
:104A500001908DF804301AF06DFE124B1C7824B1D1
:104A60001AF06EFE104802B010BD01221A701AF042
:104A700067FE0E4B01A81C731C7783F82C4083F84B
:104A80003C4083F84C4083F85C4083F86C4083F8EA
:104A90007C4008238DF8073002F092FB2046E2E7C5
:104AA000908C0308762B0020038000F088140020EF
:104AB0000A4A08B512785AB107280BD8084A02EBFF
:104AC00000131B7B43B1002102F06CFB002008BDEA
:104AD0000448FCE70448FAE70448F8E7762B00208E
:104AE00088140020028000F0018000F0078000F0B0
:104AF0000A4A08B512785AB107280BD8084A02EBBF
:104B000000131B7B43B1012102F04CFB002008BDC8
:104B10000448FCE70448FAE70448F8E7762B00204D
:104B200088140020028000F0018000F0078000F06F
:104B30000A4A08B5127852B107280AD8084A02EB87
:104B400000131B7B3BB102F0B9FB002008BD0548F8
:104B5000FCE70548FAE70548F8E700BF762B002098
:104B600088140020028000F0018000F0078000F02F
:104B70000D4B1B7893B1072812D889B10B4B03EB6F
:104B800000131B7B73B10A4B1A6D01238340134240
:104B900014BF0123002300200B70704705487047A5
:104BA0000548704705487047762B00208814002080
:104BB00000000450028000F0018000F0078000F047
:104BC0000B4A10B512780C4662B107280CD859B1BF
:104BD000084A02EB00131B7B43B102F081FB2070FB
:104BE000002010BD0448FCE70448FAE70448F8E751
:104BF000762B002088140020028000F0018000F055
:104C0000078000F0184B2DE9F0411F6D5B6D1F40D0
:104C100000D5FEE701260025144CDFF85880374206
:104C200018D02368C8F85060A3B1A16828460131A4
:104C30006268A1609847637B012B0BD150B90C4B84
:104C400003EB45131A7B60F341021A731A7F60F37A
:104C500041021A770135082D4FEA460604F1100487
:104C6000DDD1BDE8F08100BF0000045088140020B1
:104C7000881300200020045070B5044601250B4E17
:104C800004B970BD94FAA4F0B0FA80F005FA00F30C
:104C900006EB001224EA03045368002BF0D0117BCA
:104CA00011B191689847EBE79847E9E708150020AC
:104CB00008B5192001F09AFA28B14FF00072074B9D
:104CC000C3F880211A601A2001F090FA28B14FF041
:104CD0008062024BC3F880211A6008BD00E100E049
:104CE00038B505460C461AF025FD0022044B03EBAF
:104CF00005135C601A73BDE838401AF021BD00BF8F
:104D000008150020F8B504460D4617461E461AF051
:104D100011FD1CB9052D1AD0FF2421E0012C05D16D
:104D2000012D21D0032DF7D1042410E0022C07D14E
:104D3000052D1BD0072D1BD0002DEDD1062406E03C
:104D4000032CE9D1022D15D0052DE5D10A240A49FD
:104D500004F1100301EB03110123C1E901760B7388
:104D60001AF0EEFC2046F8BD0324F0E70724EEE736
:104D70000824ECE70924EAE708150020F8B5054601
:104D80000E4617461AF0D6FC134B2C46D3F82424B3
:104D900005F0FC0122FA05F3DB0712D500230133ED
:104DA000DBB2042B04D1FF241AF0CAFC2046F8BD64
:104DB000EC1804F003040C4422FA04FC1CF0010F6C
:104DC000EDD1FF2CF0D00122044B03EB0413C3E917
:104DD00001671A73E8E700BF00C003500815002000
:104DE000074BD3F82404D3F8202403F500531040D4
:104DF00000F0553020F05020C3F82004FFF73CBFEE
:104E000000C00350074BD3F82404D3F8202403F543
:104E10000053104000F0AA3020F0A020C3F8200476
:104E2000FFF72ABF00C00350024B1968024B1868F5
:104E300010F07EBBEC0A00200C0B002070B5940033
:104E4000224605460E4623F057FA431C0AD058B9AD
:104E500022463146284622F0ABFB0028034808BF13
:104E6000002070BD0248FCE70248FAE710E000F0BD
:104E700021E000F024E000F010B5044623F040FAF1
:104E8000431C10D088B902F0A5FA234620F0030095
:104E90002044984201D1002010BD53F8042B013268
:104EA000F7D00348F8E70348F6E70348F4E700BF04
:104EB0000EE000F021E000F024E000F008B51AF068
:104EC00032FC014B186008BDF81D0020014B18682A
:104ED0001AF02DBCF81D0020044BD3F88420D20614
:104EE000FBD4D3F88400C0F3811070470040005019
:104EF00038B5104B0546D3F880300C4603F0030359
:104F0000022B0BD0032B0DD0012B0FD1FFF7FCF997
:104F10000E2305B1286004B1236038BDFFF73EFAC7
:104F20000723F6E7FFF7EAF90623F2E7002318461E
:104F3000EFE700BF0080005038B5184B0546D3F8A6
:104F400020010C4600F00700062823D8DFE800F017
:104F5000040A0E16121A1E00012305B1286004B1BE
:104F6000236038BDFFF7CAF90523F6E7FFF7FCF920
:104F70000323F2E7FFF712FA0723EEE7FFF70AFA37
:104F80000223EAE7FFF7BAF90623E6E7FFF7ECF9B1
:104F90000423E2E700231846DFE700BF008000504B
:104FA00038B5174B0546D3F828310C4603F00703F4
:104FB000013B052B20D8DFE803F003131B0F0B1771
:104FC000FFF79CF9052305B1286004B1236038BDC3
:104FD000FFF794F90623F6E7FFF7E0F90723F2E776
:104FE000FFF7C2F90323EEE7FFF7BEF90423EAE770
:104FF000FFF7D0F90223E6E700231846E3E700BFF6
:105000000080005073B50D460021114B0191D3F87B
:105010008041064604F00304022C13D0032C0CD06C
:10502000012C13D101A8FFF787FF10240EB1019BBB
:10503000336005B12C6002B070BDFFF7AFF90724F3
:105040000190F3E7FFF7A6F90190EFE70C46EDE7D3
:1050500000800050002337B50193164B0546D3F866
:1050600020320C4603F00703042B21D8DFE803F0BD
:10507000030B11161B0001230DB1019A2A6004B124
:10508000236003B030BD002101A8FFF789FF122380
:10509000F2E7FFF783F907230190EDE71AF049FAE9
:1050A0000A230190E8E7FFF7BBF909230190E3E742
:1050B0000023E1E70080005038B5104B0546D3F8D7
:1050C00040310C4603F00303022B0BD0032B0DD011
:1050D000012B0FD11AF02DFA0A2305B1286004B173
:1050E000236038BDFFF79CF90923F6E71AF024FA8C
:1050F0000C23F2E701230020EFE700BF00800050FF
:10510000002337B50193164B0546D3F860320C46A1
:1051100003F00703013B032B1FD8DFE803F0020E67
:105120001914002101A8FFF707FF10230DB1019A00
:105130002A6004B1236003B030BD002101A8FFF74D
:10514000BBFF1123F2E7FFF729F907230190EDE7F1
:10515000FFF720F902230190E8E70023E6E700BF0C
:1051600000800050002337B50193164B0546D3F855
:1051700094320C4603F00703013B032B1FD8DFE8F2
:1051800003F0020E1914002101A8FFF7D5FE102329
:105190000DB1019A2A6004B1236003B030BD002133
:1051A00001A8FFF789FF1123F2E7FFF7F7F80723BC
:1051B0000190EDE7FFF7EEF802230190E8E7002306
:1051C000E6E700BF0080005038B5144B0546D3F821
:1051D00000020C4600F0070004281BD8DFE800F0AE
:1051E00003090D111500012305B1286004B12360E6
:1051F00038BD1AF09EF90A23F6E7FFF711F90923E3
:10520000F2E71AF099F90C23EEE7FFF797F80F236E
:10521000800AE9E700231846E6E700BF0080005057
:1052200038B5144B0546D3F808020C4600F00700C9
:1052300004281BD8DFE800F003090D111500012335
:1052400005B1286004B1236038BD1AF072F90A2351
:10525000F6E7FFF7E5F80923F2E71AF06DF90C23FA
:10526000EEE7FFF76BF80F23800AE9E70023184603
:10527000E6E700BF0080005038B5104B0546D3F874
:1052800040320C4603F00303022B0BD0032B0DD04E
:10529000012B0FD11AF04DF90A2305B1286004B192
:1052A000236038BDFFF7BCF80923F6E71AF044F98C
:1052B0000C23F2E701230020EFE700BF008000503D
:1052C00038B5104B0546D3F860310C4603F00303A4
:1052D000022B0BD0032B0DD0012B0FD11AF029F983
:1052E0000A2305B1286004B1236038BDFFF798F8A0
:1052F0000923F6E71AF020F90C23F2E70123002036
:10530000EFE700BF00800050B0F5207F1FD009D824
:10531000B0F5007F15D003D868B1B0F5C07F0AD0D2
:1053200000200CE0B0F5607FFAD10B4BD3F8800081
:10533000C0F3011003E0084B186FC0F303300130D5
:105340007047054BD3F89000C0F30460F7E7024BB9
:10535000186FC0F38020F2E70080005002464FF43F
:105360008030104B10B598660020FFF7CDFF5043FA
:1053700041F671320C4BDC69DA635A6804F480340C
:1053800022F4401259B90949884294BF00200120F3
:10539000000502435A600CB10022DA6310BD0449D3
:1053A000F2E700BF0090005000000350005A620274
:1053B000002D3101430905D0012B0CD0022B084BE5
:1053C00018BF002300F01F0039B103F580530122FC
:1053D00082401A607047034BF4E703F50053F6E789
:1053E00068800050648000501FB50021802804466A
:1053F000CDE9001100F0A58035D85E2846D85E289A
:1054000044D8DFE800F0A2434343434343434343CC
:10541000434343434343434343434343434343435C
:10542000434343434343A2AAA2AABABABABABAAA06
:10543000C44DDA714DAAAAAA4343434343434343AD
:10544000AAAAAA79E4AA43434343434343434343B9
:10545000434343BAA2A2A2DF4D4DE9885EBF434356
:1054600043434399A200B0F5B06F00F090802DD86F
:10547000B0F5207F71D00CD8B0F5C07F65D0B0F505
:10548000007F65D0B0F5807F00F08680009804B082
:1054900010BDB0F5607F6BD00DD8B0F5407FF5D171
:1054A000FEF74CFF02464FF42070FFF72DFFB2FBD2
:1054B000F0F252085AE0B0F5806F5ED0B0F5A06F00
:1054C000E4D100216846FFF7C5FDDFE7B0F5106FB6
:1054D00078D016D8B0F5E06F79D00AD8B0F5C06FA3
:1054E0006BD0B0F5D06FD1D100216846FFF76CFECC
:1054F000CCE7B0F5F06FC9D100216846FFF7E0FEB8
:10550000C4E7B0F5406F3DD013D8B0F5206F63D03D
:10551000B0F5286FBAD10021324B0391D3F8703225
:1055200003F00303012B02D103A8FFF7C5FD039B82
:105530003CE0B0F5486FA9D100216846FFF712FEA4
:10554000A4E7FEF7E1FE0090A0E7FEF7F7FEFAE71A
:10555000FEF7DAFE0246204604E0FEF7EFFE0246C2
:105560004FF42070FFF7D0FEB2FBF0F200928DE70F
:1055700001A8FFF7BDFC019AEDE700216846FFF79F
:10558000DBFC83E700216846FFF70AFD7EE7002188
:105590006846FFF737FD79E74FF0E02302911B697A
:1055A0005B0705D5FEF7CAFE0290029B00936DE7EC
:1055B00003A902A8FFF780FDF7E700216846FFF77F
:1055C0007BFD63E700216846FFF72AFE5EE70021C6
:1055D0006846FFF751FE59E700216846FFF790FD46
:1055E00054E700BF0080005008B58020FFF7FCFEA4
:1055F000034B98429EBF4FF48032024B1A6708BD9E
:10560000005A620200A000501FB503460020B3F507
:10561000807F019000F0C18064D85D2B55D84C2B61
:1056200007D82D2B48D8232B2CD8019805B05DF82E
:1056300004FB4D3B102BF8D801A252F823F000BF19
:10564000915701082B5601082B5601082B560108CB
:10565000475701082B5601082B5601081558010819
:10566000655701080B5701080B5801082B56010814
:105670002B5601082B5601082B5601082B56010802
:105680001F580108243B092BCFD801A252F823F060
:105690009157010891570108915701089157010846
:1056A000915701082B560108875701082B5601080E
:1056B00027570108C75701083D2B7FD03E2BB4D197
:1056C000002001A9FFF7D8FDAFE7802BADD1594BE2
:1056D0001B6F03F00703013B032BA6D8DFE803F0A1
:1056E000514E858DB3F5F06F68D021D8B3F5B06F0A
:1056F00049D00FD8B3F5607F00F0838095D3B3F520
:10570000806F45D0B3F5A06F8FD1002001A9FFF7BE
:10571000A1FC8AE7B3F5D06F55D0B3F5E06FCFD0D9
:10572000B3F5C06F81D1002001A9FFF7C5FC7CE76C
:10573000B3F5206F6ED00BD8B3F5086F48D0B3F532
:10574000106F7FF472AF002001A9FFF769FD6CE7CD
:10575000B3F5406F59D0B3F5486F60D0B3F5286FFB
:105760007FF463AF334BD3F8703203F00303012BA4
:105770005AD0022B0CBF1523002300E00523019310
:1057800053E70223FBE7002001A9FFF73BFC4CE7AE
:10579000002001A9FFF7D0FB47E74FF0E02302907C
:1057A0001B695B0705D5FEF7C9FD0D230393039B1A
:1057B000E5E703A902A8FFF77FFCF8E7002001A9AD
:1057C000FFF77EFD31E7002001A9FFF7FDFC2CE784
:1057D000184BD3F8003103F00303022B07D0032B3F
:1057E00009D0012B0BD1FEF7BFFD0323C7E7FEF75E
:1057F00017FE0923C3E719F09AFE0823BFE7012328
:10580000BDE701A9FFF774FB0FE7002001A9FFF72F
:10581000C7FB0AE7002001A9FFF772FC05E700209B
:1058200001A9FFF79FFC00E7002103A8FFF744FC54
:105830001123A4E7008000504FF48012034B5A66F6
:105840004FF48032024B9A62704700BF00900050C4
:105850000050005A08B5FFF7D7FE092811D00A38C2
:10586000012802D94FF6FF7008BD4FF48002064BA5
:105870005A6603F5D8335B6ADB07F3D54FF4FA7049
:10588000F2E7024B1888EFE700900050640D00200B
:1058900038B504468020FFF7B7FE032800F0838068
:1058A0004FF48012524B4FF0A0615A6645F60E023B
:1058B000504BC3F88020504A91624FF4803102F57A
:1058C000805291629A6DD203FCD4996D11F080419F
:1058D000FBD1D4E90002120542EA0062E07B0243F8
:1058E000207B42EA0042607B42EA0032A07B42EA2F
:1058F00080121A619869D4E90452120642EA85625C
:1059000000F000400243A07EE57E0243207E42EA92
:105910000042607E42EA00229A611A6AE06922F03F
:105920000F0242EA8502354D00283DD11A6294F8F3
:105930002420996A94F82000D200294042EA4012BB
:105940000A4394F8211042EA011242F480329A622A
:105950002B49284A936D31EA0303FBD14FF0807144
:10596000254881621369A56823F4700343EA05534F
:1059700013614FF00043836194F822300BB9214B3F
:10598000996294F823303BB94FF480321D4B9A62F0
:10599000184A936D5B00FCD494F825301BB1154B6D
:1059A000194AC3F8802038BD024342F00802022899
:1059B0001A6208D119614FF40852996113484FF4E3
:1059C0007F4119F079FE0B4994F822308A6A94F8E5
:1059D00020001B062A4043EA4013134394F8242076
:1059E00043EAC20394F8232043EA02438B62D3E7DD
:1059F000009000500040005A0050005AC7FFFEFEC1
:105A0000030001000060005AF1A7FFFF3440005A74
:105A100070B5194CFF28A66A2BD8A36D4FF0807182
:105A200013F4803F18BF4FF48032144B18BF9A62B2
:105A30009962134AA36992F9005023F47F03054445
:105A400023F47F4343EA002385F3080543EA054333
:105A5000A36132460B4819F02FFEA36DDB0301D47E
:105A6000002070BD32464FF48031064819F024FE04
:105A7000F6E72120F5E700BF0040005A0050005A29
:105A80007D0D00202840005A014B93F9000070471B
:105A90007D0D00204FF4803311481249826A8B62D9
:105AA000836D03F00303032BFAD14FF080730E488C
:105AB0008B620B4B996D30EA0101FBD10120094942
:105AC0000865996D8907FCD4054B996D8807FCD54D
:105AD000996D8907FCD50549054819F0EDBD00BF52
:105AE0000040005A0050005A03000100000001016C
:105AF0002840005AF0B5D0E901434FF400061A4A95
:105B00004178057856664FF4D156022702F5B8322F
:105B10005662164E4F2977604FF0010728BF4F217C
:105B200006F5805677601669F603FCD441EA052134
:105B300051611B01417B43EA04230B43017B43EA90
:105B400041039360C37B817B1B0143EA4113417C8A
:105B50000B43017C43EA41035360837C13B16FF430
:105B6000D1535362F0BD00BF0090005000100250AE
:105B7000014B1880704700BF640D0020014B188056
:105B8000704700BF620D00204FF4800208B5184B2B
:105B90005A660223174A5360936813F48033FBD18B
:105BA000012822D1FEF7E0FB134B984215D003F5F4
:105BB000122303F5F863984213D0104B00EB8002D8
:105BC000400AB3FBF0F3520A0A49CA620B6301238D
:105BD0004B620022074B5A6008BD45F67A13084A0B
:105BE000F2E745F61A03074AEEE75362F1E700BF12
:105BF000009000500040025000F049026466666662
:105C0000D8B80500BBCF0500B0F5207F10B50C4615
:105C10005DD008D8B0F5007F4ED003D8C0B1B0F544
:105C2000C07F15D010BDB0F5607FFBD12C4B4C1E52
:105C3000D3F8FC202B4912F0807F4FEA041427D1BF
:105C4000D1F8803023F030032343C1F88030E9E7F6
:105C500019F041FD19F04DFD4FF48031224B214ADE
:105C60001967136F013C23F4704343EA043313674D
:105C7000FEF764FB0446FFF72FF9C0F1020120464E
:105C800019F031FD00F042F8BDE81040FFF7ACBC60
:105C9000D3F8FC2022F08072C3F8FC20D1F88020D9
:105CA00022F030022243C1F88020D3F8FC2042F0D9
:105CB0008072C3F8FC20B5E70A4A4C1ED2F8903037
:105CC00023F0F85343EA0463C2F89030AAE7054A88
:105CD0004C1E136F23F4806343EA84231367A1E708
:105CE00000ED00E0008000500090005008B5012158
:105CF000022000F0E3FA19F0EEFC19F0FAFC4FF480
:105D00008032014B1A6708BD0090005008B54FF46F
:105D1000C070FFF769FBBDE808400449884294BFA2
:105D2000012102214FF42070FFF76EBF80F0FA02CC
:105D3000B0F5807FF8B50C4600F053816BD85D2834
:105D40005DD84C2804D82D2844D8232828D8F8BD5D
:105D50004D381028FBD801A353F820F0C35F010889
:105D60004F5D01084F5D01084F5D0108B35E0108FA
:105D70004F5D01084F5D010879610108EB5E010884
:105D8000435E0108596101084F5D01084F5D01083C
:105D90004F5D01084F5D01084F5D010899610108E1
:105DA00024380928D3D801A353F820F0C35F010891
:105DB000C35F0108C35F0108C35F0108C35F010837
:105DC0004F5D0108A35F01084F5D0108795E01087E
:105DD000936001083D2800F04C813E28B7D1093C72
:105DE000032C8CBF0021B34BB34A98BF195DD2F886
:105DF000403223F003030B43C2F84032A7E7802868
:105E0000A5D18B1E062B00F2C980DFE803F0C4B2D7
:105E1000C77FC7C7C100B0F5F06F00F02A813BD83B
:105E2000B0F5B06F00F0BD801BD8B0F5607F00F01A
:105E30006D818CD3B0F5806F00F0C380B0F5A06F9A
:105E400085D1073C0B2C8CBF00219C4B9A4A98BFF4
:105E5000195DD2F8203223F007030B43C2F8203239
:105E600075E7B0F5D06F00F01481B0F5E06FB6D0F3
:105E7000B0F5C06F7FF46BAF093C032C8CBF0021E1
:105E80008F4B8D4A98BF195DD2F8403123F0030340
:105E90000B43C2F840315AE7B0F5206F00F06C8137
:105EA00017D8B0F5086F00F02181B0F5106F7FF4BE
:105EB0004EAF093C062C8CBF0021824B7E4A98BF16
:105EC000195DD2F8083223F007030B43C2F80832F9
:105ED0003DE7B0F5406F00F03F81B0F5486F00F04E
:105EE0005B81B0F5286F7FF432AF112C00F0648134
:105EF000A4F115035C425C4164006F4AD2F8703231
:105F000023F003032343C2F8703220E70025022662
:105F10004FF480370121022000F0D0F919F0DBFBAB
:105F200019F0E7FB684B644A1F67136F23F0070300
:105F300033431367FEF702FA0646FEF7CDFFC0F1C2
:105F40000201304619F0CFFB0121002000F0F6F9E4
:105F5000FFF7DCFEFFF748FB002D7FF4F8AE032CC3
:105F60007FF4F5AE594B5A4A9F62936D5C00FCD4A6
:105F7000EDE64FF48012544B0E465A664FF48032D1
:105F8000534B9D6A03F58053C5F300659A62BFE7E2
:105F900000250426BCE700250126B9E700252E468A
:105FA000B6E7023C0E2C8CBF00214A4B424A98BFF8
:105FB000195DD2F8803123F003030B43C2F880311E
:105FC000C5E6023C052C8CBF0021434B3A4A98BFE2
:105FD000195DD2F8203123F007030B43C2F82031BA
:105FE000B5E6A1F10904082C3FF6B1AE01A353F8C0
:105FF00024F000BF19600108196001084F5D010815
:1060000019600108476001084F5D01084F5D0108F4
:106010004F5D0108196001084FF48032264B2F496B
:10602000586E03F580535A664B6AC00343F0010370
:106030004B625CBF2A4B5A664FF0E022136923F093
:106040000403136183E64FF480321B4B2349586EDF
:1060500003F580535A664B6A23F001034B62C10378
:106060005CBF1F4B5A664FF0E022136943F00403F4
:10607000E7E7093C032C8CBF00211A4B0E4A98BF5E
:10608000195DD2F8603123F003030B43C2F860318D
:106090005DE6093C062C8CBF0021134B064A98BFD5
:1060A000195DD2F8003223F007030B43C2F8003227
:1060B0004DE600BFE88C030800800050C58C030843
:1060C000E88C0308E18C0308009000500060005A3F
:1060D0000040005AF28C0308EC8C030800C0075003
:1060E00000A00050E88C0308E18C0308CC1E062CAD
:1060F0008CBF0021314B324A98BF195DD2F8003174
:1061000023F003030B43C2F8003120E62D49063C7F
:10611000D1F8FC2012F080721EBFD1F8FC3023F0C1
:106120008073C1F8FC30082C8CBF0020264B24491A
:1061300098BF185DD1F8803023F003030343C1F802
:106140008030002A3FF403AE1E4AD2F8FC3043F000
:106150008073C2F8FC30FAE5023C052C8CBF0021AC
:106160001A4B174A98BF195DD2F8283123F007035C
:106170000B43C2F82831EAE5023C0F2C8CBF00210A
:10618000134B0F4A98BF195DD2F8603223F0070312
:106190000B43C2F86032DAE5023C0F2C8CBF0021C1
:1061A0000C4B074A98BF195DD2F8943223F00703CD
:1061B0000B43C2F89432CAE501249EE6DA8C030848
:1061C0000080005000ED00E0D18C0308EC8C030847
:1061D000B58C0308B58C0308034B5868C0F308005E
:1061E000003818BF0120704700ED00E0054B420960
:1061F00053F8223000F01F0023FA00F0C04300F0F3
:106200000100704700E100E0024A536B0342FCD1F9
:10621000704700BF00400950044A4178536F23F48F
:10622000407343EA01235367704700BF00400050AA
:106230000C4A10B51369044643F00403136103F0DC
:10624000F3FE19F080FA084B084AC3F8202430BF47
:1062500019F07AFA03F022FF1CB9BDE81040FEF7EE
:106260006DB810BD00ED00E000E003500000FF0F2E
:106270000A4A10B51369044643F004031361084B3E
:10628000084AC3F8202403F0CFFE30BF03F006FF16
:106290001CB9BDE81040FEF751B810BD00ED00E09C
:1062A00000E003500000FF0F034A0179D36E23F092
:1062B00030030B43D366704700400050F8B50446E6
:1062C0001C4BD3F88420D106FBD4D3F88430C3F31D
:1062D00081139C422CD0FEF717F8012C064602D100
:1062E000214619F000FA19F01EFA4FF00072124B15
:1062F00007465A66204619F02AFA4FF480630D4D7E
:10630000621E93402B676B6E9A0103D4D5F88430DC
:106310009B060AD5384619F00AFA022C08D13046F5
:10632000BDE8F840002119F0DEB9D5F88430EAE77D
:10633000F8BD00BF004000500060005010B50C4692
:1063400008B9FDF7E1FF074B21461B783BB1064B2F
:10635000984204D80120BDE81040FFF7AFBF0220EB
:10636000F9E700BF772B0020005A62020278034B46
:10637000012100201A70FFF7E1BF00BF772B00203A
:106380004FF0004238B5244B244C5A664AF6CD33C0
:10639000656C014605F00105236428BB0120FFF769
:1063A00033FF6368DB0715D51D4B586008461D4B4E
:1063B000226BD2070CD4984208D1072415B1174B91
:1063C000194A1A6420F021FC204638BD0130EFE75D
:1063D0009842F2D00024F1E70132236B13F0080356
:1063E00005D08A42F8D1E8E700220E49F5E78A4253
:1063F000E3D020210A4A91620121A2F58052516026
:106400000649084A886A800603D49342D5D00133EE
:10641000F8E79342DDE700BF0090005000400950CC
:106420000060095040420F003254FFFF4FF000421D
:1064300038B5164B01465A664AF6CD33144C154A08
:10644000656C236443780B205B0043F00103D36346
:10645000FFF7DAFE63688A7823F4F87343EA0213DD
:106460006360CA784B7943EA0223A3600A798B7987
:1064700043EA022323610878FFF782FFEB0744BF5A
:10648000054B236420F0C1FB012038BD0090005073
:1064900000400950004000503254FFFF4FF00042CE
:1064A000124B70B55D6E03F580535A664AF6CD33D4
:1064B00004460F4980204E6C0B64FFF7A5FE0B6A63
:1064C00023F00F030F2C94BF234343F00F030B6201
:1064D000F30744BF074B0B64002DA2BF4FF00042EF
:1064E000054B5A6620F091FB70BD00BF0080005044
:1064F000004009503254FFFF00A000504FF000420E
:10650000104B70B55D6E03F580535A664AF6CD3375
:1065100004460D4980204E6C0B64FFF775FE0B6A34
:1065200023F4F85343EA04230B62F30744BF074BF9
:106530000B64002DA2BF4FF00042054B5A6620F0BD
:1065400064FB70BD00800050004009503254FFFFD2
:1065500000A0005010B519F0FFF8042300F5805199
:1065600000F500520B6113610B6113610B61136144
:106570000B611361202341F2020103610023C36018
:10658000836041614FF4A0218361836541620549C5
:10659000C36103628362C36243630365D1640363BF
:1065A00010BD00BFFF3F0D0370B5054614460846F9
:1065B00041B9354B9D4218D0344B9D4208BF5720FE
:1065C000FEF712FFAB6813F0010F6B6830D0B0FB21
:1065D000F4F4D80704F1FF344FEA046407D42B69BC
:1065E00023F07F4323432B6170BD5620E8E7282129
:1065F000284619F0ADF8AB6C990715D1AB6CDA07EA
:1066000014D4AB6C13F0020F14BF062600262846E4
:1066100019F0A2F82B69314623F07F4323432B6105
:10662000BDE8704019F0CFB80526F0E70926EEE77F
:10663000AB6DDB07AB6848BF640003F0E003402BA1
:106640001BD004D8DBB1202BCED1082304E0602B73
:1066500017D0802BC8D1012363434101B1FBF3F272
:106660000B4B203A284603EAC202012119F070F8C8
:106670002A63BDE8704019F06BB80623ECE71023DD
:10668000EAE70423E8E700BF0000015B00000A50CE
:10669000F8FF7F00F8B5436804460E460D691BB14C
:1066A00040F6FF7119F054F82046FFF753FF2269B6
:1066B000737BB17B22F087020B43134343F08003CB
:1066C00023611DBBA368F27B23F00303134343F054
:1066D0000103A3606369327B23F00F0313436361FB
:1066E000D6E901122046FFF75FFF0521204619F089
:1066F0004DF8282119F02CF83378A36319F028F805
:10670000A36CDB4313F4405FFAD1F8BD2369297F02
:1067100023F0F80343EAC1132978EA7B0B43297974
:1067200043EA4113697A43EA011343EA821323617E
:10673000E068D5E9053720F0F0403B4320F47020B5
:106740000343287B697B43EA802343EAC133E36048
:10675000A368F07B23F00303034343F00103A3602A
:106760006B88A06803F4C0430343A360A3686879FF
:1067700043EA8023A360AB79EF79606A1B013F0293
:1067800003F0700307F4E06720F4772020F4EE6054
:106790003B430343287A000300F4E0400343687F4F
:1067A000000400F47020034363626369307B23F0CC
:1067B0000F03034363616B89A36111B3164B9C42C2
:1067C0000CD1AB7B154903F00F034B67002A87D030
:1067D0002B7C124A03F00F03136781E7104B9C4296
:1067E0007FF47EAFAB7B0D4903F00F03C1F880301F
:1067F000002A3FF475AF2B7C084A03F00F03D367E0
:106800006EE7002A3FF46CAF034B9C42E0D0044B90
:106810009C42F0D064E700BF0000015B0090035091
:1068200000000A50072A2DE9F041154698464FF01E
:10683000030401F003072DD89600B44000FA06F2D5
:1068400021461C4818F0CEFF21461B4807FA06F2E5
:1068500018F0C8FF194B1A499DF81800B8F1000F3D
:1068600018BF1946012303FA05F50D60154B1649AB
:10687000002818BF0B461D60144B9DF81C00C3F880
:106880002054103103F22443002818BF0B461D602A
:10689000BDE8F081A2F10806B600B44000FA06F2A5
:1068A00021460B4818F09EFF21460A4807FA06F2D7
:1068B000CEE700BF00C4035008C4035010D40350F7
:1068C00010E4035014E4035014D4035000E00350C8
:1068D00004C403500CC403502DE9F04105460F4693
:1068E0001E4690464AB101233022194C8B4002FBD0
:1068F000004436B304F5825423600F21072F05EBC3
:10690000450388BFA7F108044FEA0313114895BF58
:10691000BC00A40004330C3308FA04F2A14018446C
:1069200018F060FFB8F1000F09D101233021084AA7
:10693000BB4001FB05223EB102F582521360BDE867
:10694000F08104F50154D7E702F50152F6E700BFE4
:1069500000C0035030C00350104B0140D3F8302426
:1069600022EA0002C3F83024D3F830241143C3F8DC
:106970003014D3F82C240243C3F82C24084AD36ED5
:1069800003F03003202B1FBFD36E23F0300343F0FE
:106990001003D366034BC3F82004704700C00350B4
:1069A0000040005000E0035038B514461D46032255
:1069B00083F00103FFF790FF012004F110018840EC
:1069C00005FA01F1FFF7C8FF9DF81010034B044AC8
:1069D000002918BF1346186038BD00BF24E40350D7
:1069E00024D403504369DA01FCD4012300F500509C
:1069F000024A436053689B07FCD47047004000592B
:106A000070B504461546FFF7EDFF0B784A7803F0A2
:106A1000070343EAC203CA7843EA02238A781201D1
:106A200002F070021343C4F88030E26A0B7922F05E
:106A3000170203F0070313434A79120102F0100210
:106A40001343E3621E4B2A469C4225D0012004F5E5
:106A5000805358601A4B00229C422AD08B79A26145
:106A600053BB70BD12F8023C12F8040C5B0443EAFD
:106A7000002312F8050C034312F8030C000400F481
:106A80008030034306F1280044F820300136102EF0
:106A900002F10502E6D1D9E70026F8E703EB830609
:106AA000AE5D16B100FA03F632430133102BF5D177
:106AB000D4E713460435F9E70823E360D1E700BFC4
:106AC000004000590122014600F5805310B55A607C
:106AD000244B254AC3604B691340FCD18B61C1F83C
:106AE00098304B6913F4401FFBD14B69DA052DD464
:106AF0008B6F5BBB4B699B052AD4D1F888403CBBAC
:106B00000846CB6FD1F88C30FFF76CFF30238C60D8
:106B10000C61CC620C620B67C1F88030134B994258
:106B200008D142F26002124B8A640B654C658A659B
:106B30000B664C660D4B994202D10022102C0AD1F3
:106B40000C4B01F500514B628B6210BD4B6FCCE7D3
:106B5000D1F88430CEE704F1280043F82020013436
:106B6000ECE700BF12000200520001000040005993
:106B700000C002808F330F80084608B569B92A200B
:106B8000FEF732FCB0B10C4B984206D90B4B9B6818
:106B9000C3F302730133B0FBF3F0094B00F574202B
:106BA00000F23F20B0FBF3F001387F2828BF7F20A0
:106BB000C0B208BD0120F0E7005A6202004000594F
:106BC00040420F000B4B10B5994228BF19460C46A6
:106BD0001AB92A20FEF708FC0246631E1344B3FBD1
:106BE000F4F0A34228BF00F1FF30032828BF0320A0
:106BF000C0B210BD005A620210B50C46FBB111497B
:106C00001148012B08BF01468C4228BF0C461AB917
:106C10002A20FEF7E9FB02469DF8083040F2FF30DB
:106C20000133B2FBF3F2631E1A44B2FBF4F3A24247
:106C300028BF03F1FF33984228BF184610BD03490F
:106C4000E2E700BF404B4C00002D310180969800D8
:106C500013B5044601A800F0A5FB042C8EBF00204C
:106C6000024B33F8140002B010BD00BF028D0308C0
:106C70002DE9F04F2DED048B06468DB0DFF85CC397
:106C800006AF0C461546BCE80F000FC79CE8030092
:106C900087E80300C74F002239463046FFF792FFCE
:106CA00094F80580804538BF80463046FFF79AFE4D
:106CB00020795FFA88F850B92A20FEF795FBB84290
:106CC000014628BFB0FBF8F13046FFF755FFE378E7
:106CD0004FEA08721B0102F0E04203F03003134355
:106CE0000004227800F4FE0003430AB143F00203DB
:106CF00062780AB143F00403A2780AB143F00803B2
:106D0000B360E38822893361638943EA02433362D3
:106D1000A94B9E4200F01D82012306F58056736048
:106D20000DB0BDEC048BBDE8F08FA44920E0D1F894
:106D30008041012B4FEA144440F29680022B00F070
:106D400071813F0107F1B247C9F3090307F5804795
:106D50007B600AF1010A1435BAF1020FDCD02B78FE
:106D6000AF68002BE1D09649964A012B18BF114617
:106D7000914C00222046CDF800800393FFF73CFFA2
:106D800004EB0A14A16C039B21F0435121F41D1163
:106D900021F443511FFA87F921F03F0103F0030763
:106DA0000F43697881454FEA810101F01C0147EAF0
:106DB0000107A97838BF81464901C9B20F43E97874
:106DC0002879090301F4E0413943070407F4E02777
:106DD00039432F7C4FEA0A1B7F0507F460073943CC
:106DE0006F793F0707F040573943A164A46C764997
:106DF000C4F30234013C0AF10507042C2BD80FF22E
:106E0000080C5CF824F000BF576E0108576E0108AB
:106E10002F6D01081D6E0108376E0108D1F88441FD
:106E2000012BA4B28AD8002B40F09880D1F88C11A5
:106E3000091449001DE0D1F88441012B4FEA1444A4
:106E40003FF67CAF002B40F08C80D1F88C110914F8
:106E500001EB41010DE0D1F88041012BA4B23FF6D6
:106E60006DAFDFED637A08E0002B74D1D1F88C119F
:106E7000091407EE901AF8EEE77A22040BF1B242F9
:106E800002F58042926C24F4C041C2F3820C4FF0B0
:106E900001020CF1010E02FA0EF209EE102A4FEA7D
:106EA0008141B8EEC99AF6EE008A474A48BF41F0E0
:106EB0000041BCF1000F5AD1002B55D1D2F88C31D2
:106EC0001BB207EE103AB8EEC77A37EE878A002871
:106ED00040F0908005A8039100F064FADFED3B7A62
:106EE00068EE277A0399DFED3A6A86EE897ADFED5C
:106EF000396A27EE267AF1EE006AB1F1004F07EE0B
:106F0000A67A0BD0DFED347A06EE104A77EE276AC8
:106F1000BAEEE86A56EE267AB0EE677AB5EEC07A37
:106F2000F1EE10FACBBFB1EE477A78EEC78A37EEB2
:106F3000687AFDEEE87AC8BFFDEEC77A17EE903AA0
:106F4000B3F5003F65DB6FEA51416FEA41411A4AF0
:106F50003B01D150F5E6D1F8941189E7D1F89411AD
:106F600066E7D1F8941172E7D2F89431A8E7ABB98B
:106F7000D2F890311BB207EE103AB8EEC77A77EE2E
:106F8000677A69EE286A104B87EEA67AD3F88831C3
:106F90001BB207EE903AF8EEE77A96E7D2F898310E
:106FA0001BB207EE103AB8EEC77A37EE677A77EE83
:106FB000877AE6E7005A62020040005980969800FE
:106FC000002D3101404B4C000080E00F3D3B843FE1
:106FD0000000804300002044000000490C8D03089D
:106FE00000007A4400000038E71B753F00000047AE
:106FF00000000000D5ED037A5FED076AF8EE677ACE
:1070000087EEA67AF7EE046AC6EE877A67EE887A8C
:1070100069E713F5003FAABFC3F3110341F4003140
:10702000194394E7FFF714FE07EE900A1FED147A58
:10703000F8EE677A0BF1B24303F580439B6C0CAA20
:10704000C3F3421302EB830387EE875A13ED067AEC
:10705000FCEEC77A17EE903AF7EE006A5C2B1CBF85
:1070600077EE267A87EE276A07EE904A5FED235A7D
:10707000F8EE677A08BF1FED246A67EEA57A67EE1F
:10708000867A1FED266A67EE867AF5EEC07AB6EE4E
:10709000006AF1EE10FA4CBF77EEC67A77EE867A88
:1070A0000BF1B24202F58042136DFDEEE77A002348
:1070B000136517EE903A17EE900A13F4004F136D14
:1070C0005FED354A18BF43F000431365224B116D45
:1070D00003EA80430B431365204B9FED214AD3F80D
:1070E0008811D3F88831116D1BB207EE903AF8EE93
:1070F000E77A77EEA47AC4EE074A37EE267AC4EE32
:10710000876AF7EE044A84EE857A67EE277AB1EE55
:10711000007A47EE876A07EE104ADFED127AB8EE82
:10712000C77A76EEA76A65EEC75A46EEA57AF5EEFF
:10713000C07AF1EE10FA4CBF77EEC67A77EE867A17
:10714000FDEEE77A17EE903AC3F311030B43136594
:10715000F7E54FF0000AFFE50000FC7F0080E00F3C
:1071600000008048000000494FF400120B4B10B59E
:10717000C3F88020BFF34F8FBFF36F8F0024FF222F
:10718000074B21465C6520209A625C60FEF712F98D
:107190002146BDE810402120FEF70CB900E100E0D7
:1071A00000000450044A054B002908BF1346012281
:1071B00082401A60704700BF4010045040200450C5
:1071C00010B5012104462020FEF7F4F8012121200A
:1071D000FEF7F0F80122114B5A60227812069A60ED
:1071E0006178A27842EA01429A61FF229A62002203
:1071F0009A631A644FF000425A654FF0FF324FF421
:10720000001103F500531A65054AC2F88011E378AE
:107210001B01DBB282F81533116010BD0000045071
:1072200000E100E0F8B50125C3B2D1F800E091F823
:107230000AC00F7B0C469D40CB7A1D491D4E0D6543
:10724000810001F1A04101F58821C1F804E04FF06F
:10725000300E0EFB00601B05617B43EA0C4343EAE2
:10726000475322F003020166C365026718F062FA11
:10727000736D2B437365237A13B1336C2B433364E3
:10728000637A13B1B36B2B43B3632279A37943EAD7
:107290000243074A93616179E37943EA014306496E
:1072A0008B61044B55639D64BDE8F84018F048BA03
:1072B00000200450000004500010045010B50124B8
:1072C000C0B2844018F036FA044B5A6D22EA040228
:1072D0005A659C62BDE8104018F032BA00000450B4
:1072E00010B50124C0B2844018F024FA074BDA6AC2
:1072F000224208D15B6B9C430CBF0124002418F090
:107300001FFA204610BD0024F9E700BF000004501A
:107310004FF48032054B9A6641F6713203F51C3307
:10732000DA63012203F50053DA60704700900050E1
:1073300041F671320121064BDA6303F50052D16048
:107340000022DA634FF48032A3F518339A6670474F
:1073500000000350013831289ABF024B185C00200E
:10736000704700BF248D030838B5C2F306250446D4
:1073700002F0070241B942EA052242F440220634F3
:10738000074B43F8242038BD1146284618F05DFA13
:1073900002462846FFF7DEFF163442EA0022EFE7F6
:1073A000008003504FF48032064B5A6603F5E62303
:1073B0009B69C3F38512827003F03F021B0B42707E
:1073C0000370704700900050014B986CD96C704767
:1073D0000080E00F0120034B9B680A3303F01F037A
:1073E000984070470080E00F70B5054616461C4671
:1073F00021B94FF42070FDF7F7FF0146402C1BD058
:1074000003D8DCB1202C1BD070BD602CFCD1042330
:1074100003FB06F2530803EB4113B3FBF2F3094AF3
:10742000203B02EAC303AA6822F06002AA60AA68AD
:107430001443AC60EB61E7E70623E9E71023E7E7D5
:107440000823E5E7F8FF7F00012100F5805310B520
:10745000596040F6AA6341F2050243610023094CDA
:107460008360C365C26000F500520361C361C364F9
:107470009464054C8365A04204BF03654365516075
:1074800010BD00BFFFFF010000C0055070B50D46E4
:10749000FFF7DAFF012300F580567360AB7C0446EA
:1074A0001BB1836843F080438360EB7C5BB1244B6A
:1074B0009C4202BF2A7DA3F51033C3F8C821E36DB7
:1074C00043F08003E3652A8A6B7B20461343EA89F5
:1074D0001343E3602B7BD5E90112FFF785FF6B7D3A
:1074E0001BB1A36843F48033A360AB7D1BB1A368D9
:1074F00043F40043A360EB7D2A7E1B07120502F4D0
:10750000E00203F0E0431343A3656B7E9A1E012A59
:107510004FF0020209D80B49032BC1F8202709D1EB
:107520000423F3652B78636170BD0749012BC1F813
:107530002027F4E7042204F50053DA65F2E700BFE0
:1075400000C0055000D0035000E0035038B50D4690
:10755000FFF77AFF012200F580535A602B8AA97B3E
:10756000826843F0010343EA812313438360836805
:107570002A7D044643EA42738360AB7C5BB1194BBE
:10758000984202BFEA7CA3F51033C3F8C821C36D4B
:1075900043F08003C3652B7B2046D5E9011243F4F9
:1075A0008053E36018F0A8F96B7B0BB11023636183
:1075B0006B7D1BB1A36843F48033A360AB7D1BB12B
:1075C000A36843F40043A360EB7D2A7E1B071205EA
:1075D00003F0E04302F4E0021343A3652B786361F8
:1075E00038BD00BF00C00550034B5A68D20702D512
:1075F000DA69002AF9D1704700800A50054B9A6871
:107600009107FCD45A689207F9D4DA69002AF6D1B6
:10761000704700BF00800A5008B5FFF7E5FF02225F
:10762000014B1A6108BD00BF00800A5008B5FFF782
:10763000E5FF0122024B03F580514A601A6108BD43
:1076400000800A5008B5044B5968012903D1FFF79F
:10765000E3FF024B596008BD00800A5000A00A50A9
:1076600010B5064CFFF7CAFF6368012B03D1FFF783
:10767000E9FFFFF7C3FF0378E36010BD00800A5005
:10768000B8B94A680B7812B1127843EAC2034A7853
:1076900043EA42038A6812B1127843EA82138A7875
:1076A00043EA8203CA6812B1127843EA4223014ACC
:1076B0009364704700800A5008B9014B59647047C1
:1076C00000900A5008B9014B5964704700A00A5055
:1076D00008B9014B1964704700A00A5010B9024B59
:1076E000186C70470020704700800A5048B911B1EB
:1076F000012903D07047044BD86C7047024B186DBA
:1077000070470020704700BF00800A5040B911B197
:10771000012903D07047034BDA647047014B1A65A7
:10772000704700BF00800A5010B9024B586D704777
:107730000020704700800A5038B50446054D1FF000
:1077400088FA0FCC0FC594E8030085E803000020F9
:1077500038BD00BFFC1D002047F6FF739A42F0B50C
:107760006FD002296FD8394B5B5C012B6BD8384D39
:10777000DF0005EBC30415F83330A178012B13D1DA
:107780000025E078401AA84202D80844C0B2F0BDF3
:10779000431B6668A0EB530336F913609642D4BFCF
:1077A0001D4603F1FF30EEE760680028EFD0B0F926
:1077B0000040944204DBB0F902409442B8BF144642
:1077C00083883D44FF2B19BFC8224FF0280CB0F925
:1077D0000620B0F908C0A2EB04030CBF0126002666
:1077E00093FBFCF333446E781BB29E4201DD002B09
:1077F00001DA731E1BB24FF47A7C01339BB2071D72
:107800005D1E2DB24FEAC50E00EBC505EA88AD68D6
:107810009E4214FB025222EAE27202F15C02B2FBC7
:10782000FCF204DD37F8335001339542E8D200EB27
:107830000E039888904228BF1046884238BF0846F9
:10784000A4E7FF20A3E70020A1E700BF568D0308AF
:10785000FC1D00200229F0B555D82C4B585C01289E
:1078600051D82B4C04EBC00114F830004B680128B0
:107870000FD1C8788C78904294BFC4EB0001C4EB60
:107880000201001BCAB28242C8BF002233F91200B3
:10789000F0BD002B37D08878904202D3B3F90200B4
:1078A000F6E7CC78B3F900009442F1D94C78998886
:1078B000013CA1F1FF06714203F10405E4B27141FC
:1078C00003F10C07CEB2B44216D805EBC1014FF458
:1078D0007A756A43B1F902404968521A04EBD471CF
:1078E00002EB610292FBF4F29042D1DBB3F90200A9
:1078F0009042CDDC10B2CBE737F831C04E1C944536
:10790000E3D33146DEE70348C2E700BF568D0308E4
:10791000FC1D00200080FFFF0148FFF70DBF00BFE6
:107920005C8D030800487047660D00207FB5022279
:10793000084B0949CDE901234FF00073CDE903134A
:10794000072301A94FF0FF3005931FF0B9F907B0E5
:107950005DF804FB006A18000002060008B5B0B12B
:107960004FF480620B4B9A6617F0A9FF4FF09843D3
:107970005A6CD202FCD54FF48062586D064B10F45D
:1079800070209A6604D0BDE8084017F0EBBF2120B4
:1079900008BD00BF0090005000A000502DE9F0414C
:1079A0008CB08846DDE912761D460446002847D093
:1079B000002945D0002F43D0002E41D013F00F03F3
:1079C0003ED120482049A360002A08BF0146E36158
:1079D000C4E90013404609A918F0C0F868BB204666
:1079E000099917F063FF2946204617F05FFF6946A3
:1079F000404600F081FA00BB6946204617F042FF7E
:107A0000404603A918F0A9F9B8B9204603A917F010
:107A100039FF06970127204645F0005506A907972C
:107A2000089517F02FFF204609A909960A970B958C
:107A300017F032FF2046FFF791FF0CB0BDE8F08150
:107A40002120FAE70001000400010104F0B50C4612
:107A500017461E46054695B0002874D0002972D0FE
:107A6000002A70D0002B6ED0036B0F2B5BD8002345
:107A7000364A3846C4E90023A360E36111A918F02F
:107A80006DF800285BD12046119917F00FFF296B84
:107A900020460F2984BF01F00F01103117F006FFB7
:107AA000384602A900F028FA002848D1204602A949
:107AB00017F0E8FE384605A918F04FF900283ED126
:107AC000204605A917F0DEFE0122214B08950992F8
:107AD0000A932B6B05F1100003F00F0141F00051E8
