S023000062745F7263702D486F73742D536C6176652D436F6E6E656374696F6E2E73333727
S3150800600000100020D965000851C0010851C00108D8
S3150800601051C0010851C0010851C0010851C001080A
S3150800602051C0010851C0010851C0010851C00108FA
S3150800603051C001089C2302081598000851C00108A0
S3150800604051C0010851C0010851C0010851C00108DA
S3150800605051C0010851C0010851C0010851C00108CA
S3150800606051C00108599B000851C0010851C00108D8
S3150800607051C0010851C0010851C0010851C00108AA
S3150800608051C0010851C0010851C0010851C001089A
S3150800609051C00108B16D000851C0010851C001087E
S315080060A051C00108D56E0008B16E000851C001083C
S315080060B051C001089DA7010829B201087B1C0208E6
S315080060C0771C0208D1A90108871C02087F1C020850
S315080060D001B20108831C020869B20108D5B2010899
S315080060E051C0010851C0010851C0010851C001083A
S315080060F051C0010851C0010851C0010851C001082A
S3150800610051C0010851C0010851C0010851C0010819
S3150800611051C0010851C0010851C0010851C0010809
S3150800612051C0010851C0010851C0010851C00108F9
S3150800613051C0010851C0010851C0010851C00108E9
S3150800614051C0010851C0010851C00108A7C601087D
S315080061503196010851C001085B1902086119020845
S3150800616051C0010851C0010851C0010851C00108B9
S31508006170013800D0FCE77047002370B5404C05464F
S315080061808AB0E36318B1008823600DF0EFFF3D483D
S315080061901BF0FCF83C4E3D4B304633603C4B73607D
S315080061A01AF0FBFE002130460FF032F832A3D3E98D
S315080061B00023A062C4E906231AF0FAFED4E90623EE
S315080061C019431043C4E90601CDE900014FF0FF3336
S315080061D04FF0FF32A06A1BF026F902224FF0FF317A
S315080061E0A06A1BF022F901200DF084FC4FF400731D
S315080061F000222849A06A1BF067F9B0F5007F38D15C
S3150800620000239422CDE9073309933C23CDE90332D1
S3150800621005939623A06A03A906930FF0F9F835B3F8
S31508006220287C0EF0C3F90546F0B9A06A1BF036FAC9
S315080062300EF06AF90DF040FC20B14FF48070002191
S3150800624007F0D0FA0DF048FC20B14FF400600021A9
S3150800625007F0C8FA1BF06AF801200FF00FF80E4A8B
S315080062600E49A06A1AF097FE28460AB070BDFF20AC
S31508006270D7E70725F8E700BF0DD501552000000030
S3150800628048120020690345EC0425002085390108D9
S3150800629014250020EC2200203F0F02087F0F020879
S315080062A00348044B834202D0034B03B11847704797
S315080062B0281200202812002000000000064B07497B
S315080062C0C91A891048BF0131491003D0044B0BB1D4
S315080062D001481847704700BF2812002028120020DE
S315080062E00000000010B5064C237843B9FFF7D8FF25
S315080062F0044B13B10448AFF300800123237010BD8B
S31508006300442A002000000000E477020808B5054B7F
S315080063101BB105490548AFF30080BDE80840FFF703
S31508006320CDBF00BF00000000B8140020E4770208C3
S31508006330A3F5803A704700BF174B002B08BF134BD5
S315080063409D46FFF7F5FF00218B460F461348144A72
S31508006350121A1BF0D8FC0E4B002B00D098470D4B99
S31508006360002B00D098470020002104000D000D489E
S31508006370002802D00C48AFF3008015F0C5FA2000BB
S31508006380290015F0C5FD15F0E7F900BF0000080063
S315080063900000000000000000001000202812002065
S315080063A0642C0020000000000000000010B5274CF7
S315080063B001F0FEFD01F08CFF236F23F0070343F085
S315080063C00303236715F073FF214B00209B6ADB014B
S315080063D05EBF4FF480321F4B9A62D4F8203123F007
S315080063E0070343F00203C4F82031D4F8283123F018
S315080063F0070343F00203C4F82831D4F8403123F0E8
S31508006400030343F00203C4F84031D4F8603123F0A3
S31508006410030343F00203C4F86031D4F8403223F092
S31508006420030343F00203C4F84032D4F8003223F0E1
S31508006430070343F00203C4F80032D4F8083223F005
S31508006440070343F00203C4F8083210BD0080005069
S315080064500040005A0060005A18B1034B186000202B
S3150800646070472520704700BFD014002010B5054C92
S315080064700549206800F0C2FF2068BDE81040FFF714
S31508006480EBBF00BF2411002000100020014B186844
S31508006490704700BFD01400202DE9F041424D88B066
S315080064A001AC0FCD0FC495E8070084E80700012466
S315080064B001213A2001F03AFB3C4E0121292001F046
S315080064C035FB3B4B304601A903938DF8124002F089
S315080064D0D3FA234604220321022002F013F90221EB
S315080064E022460846002302F00DF9234621460422D7
S315080064F0022002F007F9042200212346022002F0B6
S3150800650001F92C4D2C4B05F50058C5F834374FF0DA
S315080065100213C5F8303703F58033C5F838371C231E
S315080065204FF44870C5F8203703F052F905F580573F
S315080065301420C8F8A04003F04BF92320C7F8A04060
S3150800654003F046F9B9213046C8F8A04015F07EFF99
S31508006550002303211A460220C7F8A04002F0D2F809
S31508006560002302211A46084602F0CCF823462146A3
S315080065700022022002F0C6F8002223461146022015
S3150800658002F0C0F8304602F0F5F900212920C5F8D6
S315080065903417C5F83017C5F83817C5F8201701F0AD
S315080065A0C5FA08B0BDE8F0818023020800C005508E
S315080065B000127A0000C00350020001000348044A92
S315080065C00449121A921015F044BD00BF207A020839
S315080065D0207A0208642C002008B500F02FF8FFF78F
S315080065E0EDFF124B12498B4212D30020114B124970
S315080065F08B4218D3FFF7A0FE186850F82240586857
S3150800660040F82240013298688242F5D30C33EAE713
S315080066100022F8E71C6844F8220001325C68A242AE
S31508006620F8D30833E4E70022F8E700BFEC7702085E
S31508006630F8770208F8770208F87702084FF48041DD
S315080066404FF0FF30114B124A10B59A60D3F88820E4
S3150800665042F47002C3F888200E4A91660E4901F585
S31508006660005210660D4850660220C3F8D000BFF3EA
S315080066704F8FBFF36F8F01244FF440330848C0F89B
S315080066808041D36004600B6110BD00BF00ED00E0DF
S31508006690006000080090005000800044F7FF3700B3
S315080066A000E100E0014B1868704700BF2C1100207C
S315080066B0084B1B6F03F00703022B04D0032B05D0EE
S315080066C0012B05D0FEE7044B18687047034BFBE720
S315080066D003487047008000502C1100203411002018
S315080066E0002D310108B5FFF7E3FF054B1B6FC3F318
S315080066F003330133B0FBF3F0024B186008BD00BF4B
S3150800670000800050281100200048704700B4C404D7
S31508006710014B1868704700BF34110020054B1860FC
S31508006720054B1B6F03F00703032B01D1FFF7DABFF5
S31508006730704700BF341100200080005000487047A1
S31508006740002D31014FF0B4439868C0F304400C287B
S315080067500AD8DFE800F00B09090909090721190910
S315080067601B1D1F000F487047002070479B6803F0E9
S315080067704073B3F1807F11D0B3F1007F10D00A4A7D
S31508006780002B08BF104670470848704708487047EE
S3150800679008487047084870470848704708487047CF
S315080067A008487047405DC60000093D00C0EA21015F
S315080067B080BA8C010048E801005A62020024F400FD
S315080067C080841E0040420F00014B1868704700BFC6
S315080067D0301100204FF000639B6A03F17842B2F54E
S315080067E0C04F03D21968064A914203D000230370AA
S315080067F083607047012202709A689B694260F7E7D6
S3150800680007B0CD5E4FF00053074A1A60BFF34F8FAB
S315080068100649074BCA6802F4E0621343CB60BFF32C
S315080068204F8F00BFFDE700BF02020FF000ED00E04A
S315080068300400FA0537B5434B04461A781AB1022202
S315080068401A7003B030BDCDE900220028F9D0012521
S315080068501D7015F048FD3C4B186011F0F3FF3B4BDB
S315080068605A6E62619B6E3A4AA3614FF480439366FF
S31508006870384B5968E16138499960196E2160596E3B
S315080068806160D3F87011A160196CE160596C2161DF
S315080068903249086C1864496C596455661B6E9C0429
S315080068A039D52F4AD368D807FCD42E4B1A68531CFF
S315080068B036D04FF4801393402B4A13664FF4007377
S315080068C00425294C2566236615F0F2FB01300DD008
S315080068D015F0EEFB40F20113984207D04FF400532F
S315080068E023664FF480432366C4F8705108231E4C70
S315080068F0684623664FF4805323664FF00063236689
S315080069004FF4002301A9636615F0B6FB009B2366C6
S31508006910019B636695E7154AD368D907FCD4C4E793
S31508006920134B1B78002BC9D14FF40072084B5A66DB
S3150800693003F5A6235B68002BC0D14FF480120A4BDF
S315080069401A66BBE7462A002054150020008000502E
S31508006950009000500080004455CEAC0000C00054A2
S315080069600000044038110020009000440000045044
S31508006970452A002070B5224D04462E78012E02D0F5
S3150800698001232B7070BD0028FCD015F091FB013057
S315080069900BD015F08DFB40F20113984205D0194B28
S315080069A0194A5E66D368DE07FCD42268174B1A6656
S315080069B062685A66A268C3F87021E2681A64226996
S315080069C05A64E269D00744BF00229A60104B1A68DD
S315080069D0013207D10F4A127822B90F494968C90707
S315080069E048BF1A6062690D4B5A66A2699A6611F029
S315080069F031FF0B4B186815F07CFC0023C1E700BF7C
S31508006A00462A002000900040000004400080004410
S31508006A1038110020452A002000C00550008000508B
S31508006A205415002038B54FF00064A36A03F1784284
S31508006A30B2F5C04F1AD21A680E4B9A4216D10E4DAD
S31508006A402B7813F0FD0F02D00024204638BD0B48E2
S31508006A50FFF7F0FEA36ADB69984704460748FFF785
S31508006A6089FF002CF1D101232B70EDE74FF48174D7
S31508006A70EBE700BF07B0CD5E452A0020341500209D
S31508006A800346054A0549106803448B428CBF4FF0FC
S31508006A90FF301360704700BF3C110020000004203F
S31508006AA02DE9F04F9A46564B85B01B7806460F4699
S31508006AB01546DDF83C909DF844B0DDF85080002B73
S31508006AC000F09780072A00F296800E9B002B00F0B4
S31508006AD09280B9F1000F00F08E80129BB3F5006F1B
S31508006AE000F38980012803D1109B002B00F08380D6
S31508006AF0444B03EB05131B7B002B7ED0424C102224
S31508006B00002168461BF0FFF804EB45141022A7BBCA
S31508006B10394620461BF0F7F843F210036380BBF1B1
S31508006B20000F03D1E37843F00303E370364A0E9B64
S31508006B3002EB451CCCE90193129B6901581E9DF88E
S31508006B404C30C0F30A0003F003039B0643EA001E19
S31508006B5053582E48012E00EA03004EEA0003CDF8EA
S31508006B6000A0535017D0B8F1000F2ED19CF8023070
S31508006B7068F304138CF8023027E0002120461BF046
S31508006B80C2F84FF444736380BBF1000FCED1E378AB
S31508006B9043F03003C9E713230CF1100ECCF80C3080
S31508006BA09CE80F008EE80F006FF00301DCF81C204C
S31508006BB0109B61F39F02012FCCF81C20CCF81430EF
S31508006BC003D1CCF81890CCF8043000270D4A2901D7
S31508006BD002EB051342F80180159A28465A60694661
S31508006BE022469F605E7301F00DFE384605B0BDE88B
S31508006BF0F08F0748FAE70748F8E70748F6E700BFBF
S31508006C00472A002058160020581500200F80FFF349
S31508006C10028000F0018000F0078000F038B5124BC2
S31508006C2005461B78DBB1E0B115F05DFB0F4A002382
S31508006C301146147B54B92B6001251A0101EB031385
S31508006C401D738C5015F055FB204638BD0133082BB3
S31508006C5002F11002EDD115F04CFB0548F5E70548A1
S31508006C60F3E70548F1E700BF472A00205816002039
S31508006C70048000F0028000F0018000F0154B13B587
S31508006C801868002301908DF8043015F02CFB124B80
S31508006C901C7824B115F02DFB104802B010BD012256
S31508006CA01A7015F026FB0E4B01A81C731C7783F887
S31508006CB02C4083F83C4083F84C4083F85C4083F8CA
S31508006CC06C4083F87C4008238DF8073001F068FD96
S31508006CD02046E2E7EC230208472A0020038000F05A
S31508006CE0581600200A4A08B512785AB107280BD850
S31508006CF0084A02EB00131B7B43B1002101F042FD59
S31508006D00002008BD0448FCE70448FAE70448F8E709
S31508006D10472A002058160020028000F0018000F063
S31508006D20078000F00A4A08B512785AB107280BD826
S31508006D30084A02EB00131B7B43B1012101F022FD37
S31508006D40002008BD0448FCE70448FAE70448F8E7C9
S31508006D50472A002058160020028000F0018000F023
S31508006D60078000F00C4B1B787BB107280FD871B150
S31508006D700A4B03EB00131B7B5BB1094BDB6AC34071
S31508006D8003F0010300200B70704706487047064859
S31508006D9070470648704700BF472A0020581600204B
S31508006DA000000450028000F0018000F0078000F027
S31508006DB0184B2DE9F0411F6D5B6D1F4000D5FEE7AE
S31508006DC001260025144CDFF85880374218D023686E
S31508006DD0C8F85060A3B1A168284601316268A1606D
S31508006DE09847637B012B0BD150B90C4B03EB45132A
S31508006DF01A7B60F341021A731A7F60F341021A770D
S31508006E000135082D4FEA460604F11004DDD1BDE828
S31508006E10F08100BF000004505816002058150020C5
S31508006E200020045070B5044601250B4E04B970BD08
S31508006E3094FAA4F0B0FA80F005FA00F306EB001213
S31508006E4024EA03045368002BF0D0117B11B1916832
S31508006E509847EBE79847E9E7D816002008B51920C0
S31508006E6001F06AFA28B14FF00072074BC3F8802187
S31508006E701A601A2001F060FA28B14FF08062024BBE
S31508006E80C3F880211A6008BD00E100E038B5054660
S31508006E900C4615F028FA0022044B03EB05135C6038
S31508006EA01A73BDE8384015F024BA00BFD81600207A
S31508006EB0074BD3F82404D3F8202403F500531040D5
S31508006EC000F0553020F05020C3F82004FFF7AABF81
S31508006ED000C00350074BD3F82404D3F8202403F545
S31508006EE00053104000F0AA3020F0A020C3F8200478
S31508006EF0FFF798BF00C0035038B141B1013AB2F567
S31508006F00006F044838BF002070470348704701489F
S31508006F10704700BF037000F0027000F0104930B5EA
S31508006F200A78104B2AB9C3E90022C3E902220122D2
S31508006F300A700C4900220C4654F8045B854208D0B6
S31508006F400132042AF8D1002251F8044B1CB943F83F
S31508006F502200002030BD0132042AF5D10248F9E7A3
S31508006F60482A0020D8180020027000F038B50446D8
S31508006F700D4615F0B8F9A3889BB223B92B6015F016
S31508006F80B8F9064838BD142263889BB202FB03444D
S31508006F9008342C6015F0ADF90020F3E70B7000F00B
S31508006FA010B50446FFF76AFE002104F10800FFF752
S31508006FB035FE014608B1044810BD04F10C00FFF780
S31508006FC02DFE0028F8D0F6E70E7000F0F8B5044656
S31508006FD016460F4615F087F9A388E2889BB29A42AF
S31508006FE0054605D80023336015F083F91748F8BD20
S31508006FF01422238807F1100C9BB202FB03433A467E
S315080070000833174603CF6745186059603A4603F1B7
S315080070100803F6D1142238681860238828469BB2DC
S3150800702002FB0343083333602388E2889BB20133AB
S31508007030B3FBF2F102FB11339BB22380A388013321
S315080070409BB2A38015F055F90020D0E70A7000F02E
S315080070507FB5012380F8313090F836309BB9026845
S315080070603C32836B013383630C4B049003930023F8
S3150800707002934B680193012300930B6801698068AA
S3150800708015F047F807E0022B02D102684432E8E718
S31508007090002380F8313007B05DF804FB9D710008C5
S315080070A090F83530022B0DD114223023417F13FB83
S315080070B00123054A9B5890F8212023FA02F000F094
S315080070C0010070470020704730C00350002313B5F5
S315080070D01D4A52F8044B94F8211081420ED0013310
S315080070E0042BF6D102B010BD0028FBD19DF807305D
S315080070F0002BF7D0A068FFF7F5FDF3E794F83530D5
S31508007100022BEFD12046FFF7CBFF637E2076022BBA
S31508007110E8D194F8323003F0FF02002BE2D1A068E0
S315080071200DF107018DF80720FFF71CFE237E1BB122
S3150800713094F83330002BD7D00023A06884F8333076
S31508007140FFF7F0FDCEE700BFD818002010B590F87D
S315080071503630044663B9042203685A619A6992076D
S31508007160FCD523790C4AB9335B011021995010BD1F
S31508007170022BFCD10068836CDB074CBF0521062176
S3150800718015F0F6F8237941F294425B0103F1A04326
S3150800719003F57033E9E700BF00C003502DE9F3415A
S315080071A01446D06A01A9FFF7E1FEA36BA36B013B66
S315080071B0A363164B984222D00027019D2F61AF602A
S315080071C015F091F8D5F80C800646B8F1000F04D0F2
S315080071D0D5E9002339462046C047E06A01A915F0DB
S315080071E021F8E06A83889BB26BB101A9FFF7BEFE5E
S315080071F020460199FFF72CFF304615F07AF8012052
S3150800720002B0BDE8F08184F83130F5E70B7000F084
S315080072102DE9F04104461746FFF76EFE88460646F6
S31508007220E8B9152001F096F80546E26A93889BB2FC
S3150800723013B194F83230ABB194F83630BBB9236841
S315080072409D6915F0020527D0012384F83430474498
S31508007250B845206844D183699B06FCD545B33046BA
S31508007260BDE8F081002DE1D0FFF7A2FDDDE7022B96
S3150800727012D123689D6C15F002050DD0012384F800
S31508007280343047444745206831D142F22002836CA6
S3150800729032EA0303FBD1E1E72046FFF757FF012354
S315080072A094F8365084F83430002DD0D0022D1CD0F6
S315080072B094F8363003B3022BD1D12068816C11F0D3
S315080072C0010118BF092115F053F842F29442102122
S315080072D023795B0103F1A04303F570339950BEE7A8
S315080072E018F8011B15F0BCF8B2E70025C9E718F82D
S315080072F0011B15F042F8C5E710212379044A03F269
S3150800730039135B01D150082223685A61A7E700BFE9
S3150800731000C0035010B5044680B190F832302BB93E
S31508007320FFF7BEFE10B9A068FFF7DCFC002094F852
S3150800733032300133DBB284F8323010BD0048FCE746
S31508007340027000F010B50446A0B190F832309BB137
S3150800735090F83230012B05D1FFF7A2FE10B9A068CC
S31508007360FFF7E0FC002094F83230013BDBB284F8EA
S31508007370323010BD0148FCE70148FAE7027000F018
S31508007380057000F037B590F835500446022D1DD12A
S31508007390012290F82230457E817F9A403020164B94
S315080073A03DB900FB013303F501531A60002003B011
S315080073B030BD012D04D100FB013303F58253F4E7F8
S315080073C0247E00FB0133002CF7D1ECE7012DEDD12B
S315080073D0037E73B911238DF80730FFF79BFF2A4602
S315080073E020460DF10701FFF713FF2046FFF7AAFF16
S315080073F0DCE71323EFE700BF00C003502DE9F04395
S3150800740005466D4F89B001AE0C460FCF0FC697E8FB
S31508007410070086E80700002D00F0CB8024B9674EE8
S31508007420304609B0BDE8F0836022002128461AF0EC
S315080074306AFC2846FFF772FD06460028F0D1237D30
S3150800744085F83530236885F836002B60227B2A714B
S315080074505B4A9342E3D129236B624FF4802359494F
S315080074608046C5E90413D4E90723AA621080508030
S31508007470908085F83000EB621880588098806368A1
S3150800748085F831000393E38985F83300ADF81430A5
S31508007490238A0121ADF81230A37C3A208DF81030EA
S315080074A0E37C494F8DF8163005238DF8113000F02E
S315080074B03DFB0121686A00F039FB206801A98DF8B7
S315080074C0046001F079FA1421237B03F13902520191
S315080074D0B950267AA07A07EB431346EA0042C3F866
S315080074E03827617AE27A41EA024CC3F830C7EE7669
S315080074F0E877297785F82020637D01216B77A37DBE
S31508007500284685F82130E37DAB77237E85F822303F
S3150800751014F019FE0646002882D114F0E4FE237DF5
S315080075208146032B33D10221227B02F1B9035B0189
S31508007530F950042107EB421741F22C72236803F530
S315080075408053D965217EE37D43EA0143BB50A27D82
S31508007550637D43EA024341F22872BB504FF0FF3283
S31508007560206800F500539A64237D032B0CBF052180
S31508007570042114F05CFF4FF44062236828465A61E0
S31508007580FFF70EFD0646484614F0B3FE48E7022B01
S31508007590E4D195F821000D49FFF778FCFFF75EFC6A
S315080075A04FF4007328462B8385F81A80FFF7EAFE06
S315080075B0D4E7074E34E700BFF0230208037000F053
S315080075C000C005500200040000C00350CD7000083A
S315080075D0027000F0F0B587B004461646FFF78CFC3B
S315080075E0054658BB0493194BCDE90116059394F843
S315080075F0363003962BBB23689B6903F0020313B945
S315080076002046FFF7A3FD6A46E06A01A9FFF7DEFCFC
S31508007610054698B994F8313083B914F064FEE36AE4
S3150800762006469B889BB233B120460099FFF710FDAA
S31508007630012384F83430304614F05BFE284607B040
S31508007640F0BD022BDCD123689B6CD6E7017000F0F5
S31508007650044BD3F88420D206FBD4D3F88400C0F3B5
S31508007660811070470040005038B5104B0546D3F8D6
S3150800767080300C4603F00303022B0BD0032B0DD0EE
S31508007680012B0FD1FFF714F80E2305B1286004B1BA
S31508007690236038BDFFF756F80723F6E7FFF702F829
S315080076A00623F2E700231846EFE700BF00800050E4
S315080076B038B5184B0546D3F820010C4600F00700EC
S315080076C0062823D8DFE800F0040A0E16121A1E0050
S315080076D0012305B1286004B1236038BDFEF7E2FF37
S315080076E00523F6E7FFF714F80323F2E7FFF72AF86E
S315080076F00723EEE7FFF722F80223EAE7FEF7D2FFB1
S315080077000623E6E7FFF704F80423E2E70023184612
S31508007710DFE700BF0080005038B5174B0546D3F8A1
S3150800772028310C4603F00703013B052B20D8DFE878
S3150800773003F003131B0F0B17FEF7B4FF052305B160
S31508007740286004B1236038BDFEF7ACFF0623F6E7D0
S31508007750FEF7F8FF0723F2E7FEF7DAFF0323EEE763
S31508007760FEF7D6FF0423EAE7FEF7E8FF0223E6E77B
S3150800777000231846E3E700BF0080005073B50D46A6
S315080077800021114B0191D3F88041064604F0030409
S31508007790022C13D0032C0CD0012C13D101A8FFF70F
S315080077A087FF10240EB1019B336005B12C6002B02F
S315080077B070BDFEF7C7FF07240190F3E7FEF7BEFF8B
S315080077C00190EFE70C46EDE700800050002337B53F
S315080077D00193164B0546D3F820320C4603F00703EF
S315080077E0042B21D8DFE803F0030B11161B00012335
S315080077F00DB1019A2A6004B1236003B030BD00219F
S3150800780001A8FFF789FF1223F2E7FEF79BFF07237C
S315080078100190EDE714F02AFC0A230190E8E7FEF749
S31508007820D3FF09230190E3E70023E1E70080005036
S3150800783038B5104B0546D3F840310C4603F0030320
S31508007840022B0BD0032B0DD0012B0FD114F00EFCFD
S315080078500A2305B1286004B1236038BDFEF7B4FFDA
S315080078600923F6E714F005FC0C23F2E701230020B0
S31508007870EFE700BF00800050002337B50193164B91
S315080078800546D3F860320C4603F00703013B032B89
S315080078901FD8DFE803F0020E1914002101A8FFF72C
S315080078A007FF10230DB1019A2A6004B1236003B0C3
S315080078B030BD002101A8FFF7BBFF1123F2E7FEF751
S315080078C041FF07230190EDE7FEF738FF02230190F9
S315080078D0E8E70023E6E700BF00800050002337B53D
S315080078E00193164B0546D3F894320C4603F007036A
S315080078F0013B032B1FD8DFE803F0020E1914002101
S3150800790001A8FFF7D5FE10230DB1019A2A6004B12C
S31508007910236003B030BD002101A8FFF789FF1123BA
S31508007920F2E7FEF70FFF07230190EDE7FEF706FFE4
S3150800793002230190E8E70023E6E700BF0080005035
S3150800794038B5144B0546D3F800020C4600F007007C
S3150800795004281BD8DFE800F003090D1115000123E0
S3150800796005B1286004B1236038BD14F07FFB0A23F3
S31508007970F6E7FEF729FF0923F2E714F07AFB0C2352
S31508007980EEE7FEF7AFFE0F23800AE9E70023184665
S31508007990E6E700BF0080005038B5144B0546D3F81B
S315080079A008020C4600F0070004281BD8DFE800F0A0
S315080079B003090D111500012305B1286004B12360E0
S315080079C038BD14F053FB0A23F6E7FEF7FDFE09233C
S315080079D0F2E714F04EFB0C23EEE7FEF783FE0F23C7
S315080079E0800AE9E700231846E6E700BF0080005052
S315080079F038B5104B0546D3F840320C4603F003035E
S31508007A00022B0BD0032B0DD0012B0FD114F02EFB1C
S31508007A100A2305B1286004B1236038BDFEF7D4FEF9
S31508007A200923F6E714F025FB0C23F2E701230020CF
S31508007A30EFE700BF0080005038B5104B0546D3F875
S31508007A4060310C4603F00303022B0BD0032B0DD039
S31508007A50012B0FD114F00AFB0A2305B1286004B1E3
S31508007A60236038BDFEF7B0FE0923F6E714F001FBE4
S31508007A700C23F2E701230020EFE700BF0080005047
S31508007A80B0F5207F1FD009D8B0F5007F15D003D8F0
S31508007A9068B1B0F5C07F0AD000200CE0B0F5607F71
S31508007AA0FAD10B4BD3F88000C0F3011003E0084B62
S31508007AB0186FC0F3033001307047054BD3F89000B8
S31508007AC0C0F30460F7E7024B186FC0F38020F2E7B3
S31508007AD00080005002464FF48030104B10B598666F
S31508007AE00020FFF7CDFF504341F671320C4BDC699D
S31508007AF0DA635A6804F4803422F4401259B9094901
S31508007B00884294BF00200120000502435A600CB148
S31508007B100022DA6310BD0449F2E700BF0090005066
S31508007B2000000350005A6202002D3101430905D0B6
S31508007B30012B0CD0022B084B18BF002300F01F00A6
S31508007B4039B103F58053012282401A607047034B0E
S31508007B50F4E703F50053F6E76880005064800050A8
S31508007B601FB5002180280446CDE9001100F0A58044
S31508007B7035D85E2846D85E2844D8DFE800F0A24308
S31508007B8043434343434343434343434343434343B7
S31508007B904343434343434343434343434343A2AAE1
S31508007BA0A2AABABABABABAAAC44DDA714DAAAAAA88
S31508007BB04343434343434343AAAAAA79E4AA434314
S31508007BC04343434343434343434343BAA2A2A2DF47
S31508007BD04D4DE9885EBF434343434399A200B0F540
S31508007BE0B06F00F090802DD8B0F5207F71D00CD8FA
S31508007BF0B0F5C07F65D0B0F5007F65D0B0F5807F61
S31508007C0000F08680009804B010BDB0F5607F6BD098
S31508007C100DD8B0F5407FF5D1FEF764FD02464FF466
S31508007C202070FFF72DFFB2FBF0F252085AE0B0F5CC
S31508007C30806F5ED0B0F5A06FE4D100216846FFF7EB
S31508007C40C5FDDFE7B0F5106F78D016D8B0F5E06F50
S31508007C5079D00AD8B0F5C06F6BD0B0F5D06FD1D156
S31508007C6000216846FFF76CFECCE7B0F5F06FC9D186
S31508007C7000216846FFF7E0FEC4E7B0F5406F3DD047
S31508007C8013D8B0F5206F63D0B0F5286FBAD10021AC
S31508007C90324B0391D3F8703203F00303012B02D160
S31508007CA003A8FFF7C5FD039B3CE0B0F5486FA9D1D3
S31508007CB000216846FFF712FEA4E7FEF7F9FC0090DC
S31508007CC0A0E7FEF70FFDFAE7FEF7F2FC02462046AC
S31508007CD004E0FEF707FD02464FF42070FFF7D0FEDA
S31508007CE0B2FBF0F200928DE701A8FFF7BDFC019AFE
S31508007CF0EDE700216846FFF7DBFC83E700216846CD
S31508007D00FFF70AFD7EE700216846FFF737FD79E7AA
S31508007D104FF0E02302911B695B0705D5FEF7E2FCED
S31508007D200290029B00936DE703A902A8FFF780FD66
S31508007D30F7E700216846FFF77BFD63E70021684601
S31508007D40FFF72AFE5EE700216846FFF751FE59E76E
S31508007D5000216846FFF790FD54E700BF00800050F9
S31508007D6008B58020FFF7FCFE034B98429EBF4FF4F0
S31508007D708032024B1A6708BD005A620200A0005002
S31508007D801FB503460020B3F5807F019000F0C1803F
S31508007D9064D85D2B55D84C2B07D82D2B48D8232BC8
S31508007DA02CD8019805B05DF804FB4D3B102BF8D88C
S31508007DB001A252F823F000BF097F0008A37D00083E
S31508007DC0A37D0008A37D0008BF7E0008A37D0008E8
S31508007DD0A37D00088D7F0008DD7E0008837E0008ED
S31508007DE0837F0008A37D0008A37D0008A37D000803
S31508007DF0A37D0008A37D0008977F0008243B092B74
S31508007E00CFD801A252F823F0097F0008097F00089D
S31508007E10097F0008097F0008097F0008A37D00087C
S31508007E20FF7E0008A37D00089F7E00083F7F0008AC
S31508007E303D2B7FD03E2BB4D1002001A9FFF7D8FDFA
S31508007E40AFE7802BADD1594B1B6F03F00703013BFE
S31508007E50032BA6D8DFE803F0514E858DB3F5F06FF6
S31508007E6068D021D8B3F5B06F49D00FD8B3F5607F85
S31508007E7000F0838095D3B3F5806F45D0B3F5A06F36
S31508007E808FD1002001A9FFF7A1FC8AE7B3F5D06FCF
S31508007E9055D0B3F5E06FCFD0B3F5C06F81D10020D0
S31508007EA001A9FFF7C5FC7CE7B3F5206F6ED00BD8A8
S31508007EB0B3F5086F48D0B3F5106F7FF472AF0020A2
S31508007EC001A9FFF769FD6CE7B3F5406F59D0B3F523
S31508007ED0486F60D0B3F5286F7FF463AF334BD3F8A0
S31508007EE0703203F00303012B5AD0022B0CBF152363
S31508007EF0002300E00523019353E70223FBE7002054
S31508007F0001A9FFF73BFC4CE7002001A9FFF7D0FBCE
S31508007F1047E74FF0E02302901B695B0705D5FEF79C
S31508007F20E1FB0D230393039BE5E703A902A8FFF7EB
S31508007F307FFCF8E7002001A9FFF77EFD31E7002066
S31508007F4001A9FFF7FDFC2CE7184BD3F8003103F025
S31508007F500303022B07D0032B09D0012B0BD1FEF705
S31508007F60D7FB0323C7E7FEF72FFC0923C3E714F063
S31508007F707BF80823BFE70123BDE701A9FFF774FBD8
S31508007F800FE7002001A9FFF7C7FB0AE7002001A9B0
S31508007F90FFF772FC05E7002001A9FFF79FFC00E741
S31508007FA0002103A8FFF744FC1123A4E70080005032
S31508007FB04FF48012034B5A664FF48032024B9A6292
S31508007FC0704700BF009000500050005A38B504466C
S31508007FD08020FFF7D5FE032800F083804FF4801237
S31508007FE0524B4FF0A0615A6645F60E02504BC3F845
S31508007FF08020504A91624FF4803102F58052916296
S315080080009A6DD203FCD4996D11F08041FBD1D4E965
S315080080100002120542EA0062E07B0243207B42EA44
S315080080200042607B42EA0032A07B42EA80121A6173
S315080080309869D4E90452120642EA856200F00040C3
S315080080400243A07EE57E0243207E42EA0042607E2D
S3150800805042EA00229A611A6AE06922F00F0242EAAD
S315080080608502354D00283DD11A6294F82420996A74
S3150800807094F82000D200294042EA40120A4394F8B4
S31508008080211042EA011242F480329A622B49284AA8
S31508008090936D31EA0303FBD14FF080712548816265
S315080080A01369A56823F4700343EA055313614FF077
S315080080B00043836194F822300BB9214B996294F8F6
S315080080C023303BB94FF480321D4B9A62184A936DA0
S315080080D05B00FCD494F825301BB1154B194AC3F83C
S315080080E0802038BD024342F0080202281A6208D1ED
S315080080F019614FF40852996113484FF47F4114F0FF
S31508008100B4F80B4994F822308A6A94F820001B06C2
S315080081102A4043EA4013134394F8242043EAC2034F
S3150800812094F8232043EA02438B62D3E70090005079
S315080081300040005A0050005AC7FFFEFE0300010027
S315080081400060005AF1A7FFFF3440005A014B93F92B
S3150800815000007047FE110020F0B5D0E901434FF446
S3150800816000061A4A4178057856664FF4D156022712
S3150800817002F5B8325662164E4F2977604FF001075E
S3150800818028BF4F2106F5805677601669F603FCD49A
S3150800819041EA052151611B01417B43EA04230B4354
S315080081A0017B43EA41039360C37B817B1B0143EA5E
S315080081B04113417C0B43017C43EA41035360837CB2
S315080081C013B16FF4D1535362F0BD00BF0090005055
S315080081D000100250014B1880704700BFEE110020B6
S315080081E0014B1880704700BFEC110020B0F5207FC6
S315080081F010B50C465DD008D8B0F5007F4ED003D830
S31508008200C0B1B0F5C07F15D010BDB0F5607FFBD109
S315080082102C4B4C1ED3F8FC202B4912F0807F4FEADA
S31508008220041427D1D1F8803023F030032343C1F852
S315080082308030E9E714F028F814F034F84FF4803168
S31508008240224B214A1967136F013C23F4704343EA12
S3150800825004331367FEF746FA0446FFF7F9F9C0F147
S315080082600201204614F018F800F042F8BDE8104064
S31508008270FFF776BDD3F8FC2022F08072C3F8FC2005
S31508008280D1F8802022F030022243C1F88020D3F8AA
S31508008290FC2042F08072C3F8FC20B5E70A4A4C1E5F
S315080082A0D2F8903023F0F85343EA0463C2F89030CA
S315080082B0AAE7054A4C1E136F23F4806343EA842316
S315080082C01367A1E700ED00E0008000500090005021
S315080082D008B50121022000F079F813F0D5FF13F054
S315080082E0E1FF4FF48032014B1A6708BD0090005039
S315080082F008B54FF4C070FFF733FCBDE808400449E1
S31508008300884294BF012102214FF42070FFF76EBF07
S3150800831080F0FA020028ABBF00F16040054B00F57B
S31508008320614000F00F00ACBF90F80003185C00092C
S31508008330704700BF14ED00E0054B420953F82230A0
S3150800834000F01F0023FA00F0C04300F00100704758
S3150800835000E100E0014608B5EFF31083DB0702D51C
S315080083600122104608BDFFF7E7FF02460028F7D1AD
S315080083700846FFF7CFFF0146EFF3118313B1B0EBC1
S31508008380131FEDD2074B5B68C3F30803002BE8D035
S31508008390103B58B2FFF7BEFF88428CBF002201226D
S315080083A0DFE700BF00ED00E0024A536B0342FCD151
S315080083B0704700BF00400950034A0179D36E23F085
S315080083C030030B43D366704700400050F8B50446A7
S315080083D01C4BD3F88420D106FBD4D3F88430C3F3DE
S315080083E081139C422CD0FEF763F9012C064602D174
S315080083F0214613F051FF13F06FFF4FF00072124B36
S3150800840007465A66204613F077FF4FF480630D4DF2
S31508008410621E93402B676B6E9A0103D4D5F884309D
S315080084209B060AD5384613F05BFF022C08D1304666
S31508008430BDE8F840002113F02FBFD5F88430EAE7ED
S31508008440F8BD00BF004000500060005010B50C4653
S3150800845008B9FEF72DF9074B21461B783BB1064BA9
S31508008460984204D80120BDE81040FFF7AFBF0220AC
S31508008470F9E700BF492A0020005A62024FF000427D
S3150800848038B5244B244C5A664AF6CD33656C0146FA
S3150800849005F00105236428BB0120FFF785FF636803
S315080084A0DB0715D51D4B586008461D4B226BD207B6
S315080084B00CD4984208D1072415B1174B194A1A64E7
S315080084C018F0C6FF204638BD0130EFE79842F2D0D3
S315080084D00024F1E70132236B13F0080305D08A4222
S315080084E0F8D1E8E700220E49F5E78A42E3D02021D1
S315080084F00A4A91620121A2F5805251600649084A4A
S31508008500886A800603D49342D5D00133F8E79342AC
S31508008510DDE700BF00900050004009500060095098
S3150800852040420F003254FFFF4FF0004238B5164B59
S3150800853001465A664AF6CD33144C154A656C2364CF
S3150800854043780B205B0043F00103D363FFF72CFF4E
S3150800855063688A7823F4F87343EA02136360CA7877
S315080085604B7943EA0223A3600A798B7943EA02230B
S3150800857023610878FFF782FFEB0744BF054B2364A6
S3150800858018F066FF012038BD0090005000400950E1
S31508008590004000503254FFFF4FF00042124B70B5B6
S315080085A05D6E03F580535A664AF6CD3304460F4985
S315080085B080204E6C0B64FFF7F7FE0B6A23F00F035F
S315080085C00F2C94BF234343F00F030B62F30744BFFA
S315080085D0074B0B64002DA2BF4FF00042054B5A66AD
S315080085E018F036FF70BD00BF0080005000400950EB
S315080085F03254FFFF00A000504FF00042104B70B5F8
S315080086005D6E03F580535A664AF6CD3304460D4926
S3150800861080204E6C0B64FFF7C7FE0B6A23F4F853F1
S3150800862043EA04230B62F30744BF074B0B64002D90
S31508008630A2BF4FF00042054B5A6618F009FF70BDFD
S3150800864000800050004009503254FFFF00A000503F
S31508008650072A2DE9F041154698464FF0030401F024
S3150800866003072DD89600B44000FA06F221461C48A6
S3150800867013F088FE21461B4807FA06F213F082FE1D
S31508008680194B1A499DF81800B8F1000F18BF19467A
S31508008690012303FA05F50D60154B1649002818BF86
S315080086A00B461D60144B9DF81C00C3F8205410316E
S315080086B003F22443002818BF0B461D60BDE8F0816D
S315080086C0A2F10806B600B44000FA06F221460B48A5
S315080086D013F058FE21460A4807FA06F2CEE700BF0D
S315080086E000C4035008C4035010D4035010E40350C8
S315080086F014E4035014D4035000E0035004C4035098
S315080087000CC403502DE9F04105460F461E46904617
S315080087104AB101233022194C8B4002FB004436B380
S3150800872004F5825423600F21072F05EB450388BF04
S31508008730A7F108044FEA0313114895BFBC00A4002B
S3150800874004330C3308FA04F2A140184413F01AFE55
S31508008750B8F1000F09D101233021084ABB4001FBBB
S3150800876005223EB102F582521360BDE8F08104F598
S315080087700154D7E702F50152F6E700BF00C00350DF
S3150800878030C00350044A054B002908BF134601228E
S3150800879082401A60704700BF4010045040200450C1
S315080087A010B5012104462020FFF7C0F90121212038
S315080087B0FFF7BCF90122114B5A60227812069A601B
S315080087C06178A27842EA01429A61FF229A620022FF
S315080087D09A631A644FF000425A654FF0FF324FF41D
S315080087E0001103F500531A65054AC2F88011E378AB
S315080087F01B01DBB282F81533116010BD000004506E
S3150800880000E100E0F8B50125C3B2D1F800E091F81F
S315080088100AC00F7B0C469D40CB7A1D491D4E0D653F
S31508008820810001F1A04101F58821C1F804E04FF06B
S31508008830300E0EFB00601B05617B43EA0C4343EADE
S31508008840475322F003020166C365026713F04BFD26
S31508008850736D2B437365237A13B1336C2B433364DF
S31508008860637A13B1B36B2B43B3632279A37943EAD3
S315080088700243074A93616179E37943EA014306496A
S315080088808B61044B55639D64BDE8F84013F031BD18
S31508008890002004500000045000100450F8B50125CB
S315080088A0C3B204469D4013F01EFD3022094B1E6DCF
S315080088B05F6B02FB04335C6E13F01BFD3D4206D171
S315080088C0C4F30A1008B9354200D10130F8BD0020BA
S315080088D0FCE700BF00000450014BD3F89400704732
S315080088E0004000504FF48032064B5A6603F5E623E3
S315080088F09B69C3F38512827003F03F021B0B42701B
S315080089000370704700900050014B986CD96C704703
S315080089100080E00F70B5054616461C4621B94FF48F
S315080089202070FFF71DF90146402C1BD003D8DCB197
S31508008930202C1BD070BD602CFCD1042303FB06F24F
S31508008940530803EB4113B3FBF2F3094A203B02EA4F
S31508008950C303AA6822F06002AA60AA681443AC603E
S31508008960EB61E7E70623E9E71023E7E70823E5E7EE
S31508008970F8FF7F00012100F5805310B5596040F6D5
S31508008980AA6341F2050243610023094C8360C3656B
S31508008990C26000F500520361C361C3649464054C68
S315080089A08365A04204BF03654365516010BD00BFDF
S315080089B0FFFF010000C0055070B50D46FFF7DAFF4E
S315080089C0012300F580567360AB7C04461BB18368AF
S315080089D043F080438360EB7C5BB1244B9C4202BF2F
S315080089E02A7DA3F51033C3F8C821E36D43F080034D
S315080089F0E3652A8A6B7B20461343EA891343E360BF
S31508008A002B7BD5E90112FFF785FF6B7D1BB1A368A8
S31508008A1043F48033A360AB7D1BB1A36843F40043E2
S31508008A20A360EB7D2A7E1B07120502F4E00203F021
S31508008A30E0431343A3656B7E9A1E012A4FF0020298
S31508008A4009D80B49032BC1F8202709D10423F3655C
S31508008A502B78636170BD0749012BC1F82027F4E71D
S31508008A60042204F50053DA65F2E700BF00C005509A
S31508008A7000D0035000E0035038B50D46FFF77AFFE3
S31508008A80012200F580535A602B8AA97B826843F03D
S31508008A90010343EA81231343836083682A7D0446DE
S31508008AA043EA42738360AB7C5BB1194B984202BFC1
S31508008AB0EA7CA3F51033C3F8C821C36D43F08003DD
S31508008AC0C3652B7B2046D5E9011243F48053E36046
S31508008AD013F09DFC6B7B0BB1102363616B7D1BB19F
S31508008AE0A36843F48033A360AB7D1BB1A36843F44A
S31508008AF00043A360EB7D2A7E1B07120503F0E043C3
S31508008B0002F4E0021343A3652B78636138BD00BF06
S31508008B1000C00550034B5A68D20702D5DA69002A05
S31508008B20F9D1704700800A50054B9A689107FCD422
S31508008B305A689207F9D4DA69002AF6D1704700BF55
S31508008B4000800A5008B5FFF7E5FF0222014B1A61BB
S31508008B5008BD00BF00800A5008B5FFF7E5FF0122EF
S31508008B60024B03F580514A601A6108BD00800A501D
S31508008B7008B5044B5968012903D1FFF7E3FF024BF7
S31508008B80596008BD00800A5000A00A5010B5064C6E
S31508008B90FFF7CAFF6368012B03D1FFF7E9FFFFF769
S31508008BA0C3FF0378E36010BD00800A50B8B94A686D
S31508008BB00B7812B1127843EAC2034A7843EA4203B1
S31508008BC08A6812B1127843EA82138A7843EA8203E2
S31508008BD0CA6812B1127843EA4223014A936470477D
S31508008BE000800A5008B9014B5964704700900A5032
S31508008BF008B9014B5964704700A00A5008B9014BDF
S31508008C001964704700A00A5010B9024B186C7047D7
S31508008C100020704700800A5048B911B1012903D0D5
S31508008C207047044BD86C7047024B186D704700208C
S31508008C30704700BF00800A5040B911B1012903D01E
S31508008C407047034BDA647047014B1A65704700BFDB
S31508008C5000800A5038B50446054D18F01DFC0FCCA7
S31508008C600FC594E8030085E80300002038BD00BF5F
S31508008C70E818002047F6FF739A42F0B56FD002292C
S31508008C806FD8394B5B5C012B6BD8384DDF0005EB91
S31508008C90C30415F83330A178012B13D10025E078E9
S31508008CA0401AA84202D80844C0B2F0BD431B666801
S31508008CB0A0EB530336F913609642D4BF1D4603F161
S31508008CC0FF30EEE760680028EFD0B0F90040944224
S31508008CD004DBB0F902409442B8BF144683883D4489
S31508008CE0FF2B19BFC8224FF0280CB0F90620B0F99F
S31508008CF008C0A2EB04030CBF0126002693FBFCF375
S31508008D0033446E781BB29E4201DD002B01DA731ED6
S31508008D101BB24FF47A7C01339BB2071D5D1E2DB240
S31508008D204FEAC50E00EBC505EA88AD689E4214FBFE
S31508008D30025222EAE27202F15C02B2FBFCF204DDA4
S31508008D4037F8335001339542E8D200EB0E03988882
S31508008D50904228BF1046884238BF0846A4E7FF203D
S31508008D60A3E70020A1E700BF2C240208E81800208A
S31508008D700229F0B555D82C4B585C012851D82B4CF4
S31508008D8004EBC00114F830004B6801280FD1C878ED
S31508008D908C78904294BFC4EB0001C4EB0201001B1F
S31508008DA0CAB28242C8BF002233F91200F0BD002BB6
S31508008DB037D08878904202D3B3F90200F6E7CC7828
S31508008DC0B3F900009442F1D94C789988013CA1F195
S31508008DD0FF06714203F10405E4B2714103F10C0781
S31508008DE0CEB2B44216D805EBC1014FF47A756A4380
S31508008DF0B1F902404968521A04EBD47102EB6102D8
S31508008E0092FBF4F29042D1DBB3F902009042CDDC3A
S31508008E1010B2CBE737F831C04E1C9445E3D3314640
S31508008E20DEE70348C2E700BF2C240208E818002042
S31508008E300080FFFF0148FFF70DBF00BF302402087E
S31508008E4000487047F011002008B5B0B14FF48062B1
S31508008E500B4B9A6613F0BEFA4FF098435A6CD2023F
S31508008E60FCD54FF48062586D064B10F470209A6654
S31508008E7004D0BDE8084013F0FEBA212008BD00BFA3
S31508008E800090005000A000502DE9FF474FF0000861
S31508008E900E4617460446CDF80080002859D022B958
S31508008EA00025284604B0BDE8F087002951D032F0E5
S31508008EB0030902F0030A1FD04FF0E063C0E9003847
S31508008EC001230191C0F808800293C0F81C8049F07C
S31508008ED0005301A9039313F06AFA4946204613F092
S31508008EE070FA2046FFF7B0FF054628B14A464146C4
S31508008EF0304618F008FFD4E7BAF1000FD0D04FF08B
S31508008F0000084FF0E063C4E900380123CDF804D027
S31508008F100293114B204601A9C4F80880C4F81C80A6
S31508008F20039313F044FA0421204613F04AFA204624
S31508008F30FFF78AFF054608B13A46D8E7009A4E4435
S31508008F40EB00013522FA03F3AA4506F8013BF7D1EF
S31508008F50A6E72125A5E700BF0400002030B5154B7C
S31508008F6087B00293144B0390049346F611030D46FB
S31508008F70059300F077F91428044616D1684613F0CD
S31508008F8042FB4FF0A843032202A95A6319601D61E8
S31508008F909A63DA6B9207FCD1142C02D1684613F057
S31508008FA040FB00F093F9044601E00028E9D020468A
S31508008FB007B030BD00190020040000202DE9F04F4D
S31508008FC0B1B005468C469E46E8466F4EDDF8EC90F5
S31508008FD0409C06F1100A474630687168083603C790
S31508008FE05645B846F7D13E9B03EB0208C8F1000A7E
S31508008FF00AF00F0AB9F1000F00F09D80C9F10007C9
S3150800900007F00F070121DDF8FCB044F00050C4F169
S315080090101006CDF810B005910690300200F4F8500D
S3150800902040F021000790B9F1000F40F08680CDF896
S3150800903020D047F00050002D00F0848009912121AE
S315080090400A9041EA07210B9142F00050CDF830C052
S315080090503D9B08A94FEA0A2C0D910E904CF0410051
S315080090600F901093002A75D13E9B119143F000533F
S3150800907012933C9B1390149310AB1593434B444A9D
S31508009080169340F611031793424B0021002D08BF93
S315080090901346189314AB19933F4B10221A931123B6
S315080090A01B931CAB184618F02EFE01221D920022B7
S315080090B046F0804603461E96239205B9EB46102CC9
S315080090C0CDF880B024AE4BD101232246002130468C
S315080090D02193229418F017FE20AB002125938F4286
S315080090E018BF334647F0804226923A9A2CA828920F
S315080090F02993B2FA82F35B0949EA837310222B910A
S315080091002A9318F000FEB9F1000F00D028AED0441B
S3150800911048F080432CA918A82D962E93FFF71EFF1A
S3150800912030B92DB90346A34225D1002818BF2C20F3
S3150800913031B0BDE8F08F102764E7CDF820E049F09C
S31508009140005078E7002C3FF479AF04A90991012172
S315080091500A9076E73E9B0CAA11924120129388E763
S315080091601022002130462193229418F0CCFD002CC1
S31508009170B2D10123B1E703F1C0026A4412F8C02C48
S3150800918001331043CFE700BFE43502081000002082
S31508009190FC3502080036020804000020F0B5C02994
S315080091A09FB0DDE9244557D0B1F5807F04D08029EA
S315080091B048D029201FB0F0BD01265CB140F23447E3
S315080091C00294102403960494212401970594069585
S315080091D002AC0AE040F21447029410240396049461
S315080091E02124059401240197069507940125102446
S315080091F0089409950A9221220B950C940D92174A08
S315080092000AAD0E92164A0F95109242F61102119265
S31508009210129313951494159201AA1692D3B112AB10
S315080092201793042318931123199316AB1A901B93BB
S3150800923040F61103C9081C911AA806A91D93FFF741
S315080092408DFEB7E7012614B94FF48267C4E74FF4D9
S315080092508667B5E70EABE3E70F20ABE7F8350208FC
S315080092601000001038B5164B5A6E42F004025A66C2
S31508009270D3F8802242F00102C3F88022114B5B68C2
S31508009280C3F3080343B14FF0A842D36B13F0430F5F
S31508009290FBD11424204638BD4FF0A843DC6B14F0EC
S315080092A04304FBD1084D2B681BB90421284600F05E
S315080092B00FFD2B68013343F000432B60EAE700BF3C
S315080092C00080005000ED00E000190020014B00204E
S315080092D05B68704700ED00E007B5094B18689A8887
S315080092E09B7900906846ADF804208DF80630FFF7A4
S315080092F01BF90C20FFF750F9002003B05DF804FBBA
S315080093000436020813B50024064A6846536F43F02C
S315080093100103536700948DF80440FFF74DF8204683
S3150800932002B010BD0040005030B58BB06C46174DEA
S315080093300FCD0FC40FCD0FC495E8030084E80300D2
S31508009340134BD3F84C2112031CD5A3F5FE431C88F6
S315080093504FF6FF739C4208BF8C248DF81940FEF720
S31508009360F5FE204480F308008DF818000948FDF73B
S31508009370D5F96846FEF72AFE3220FEF731FF0020AF
S315080093800BB030BDD3F85041E4B2E6E70C3602081C
S315080093900080E00FC017530230B5094D87B001AC05
S315080093A00FCD0FC42B6801A823603F238DF8053025
S315080093B0FEF7D2FE3220FEF70DFF002007B030BDC3
S315080093C0343602086FF00403502110B50A480B4CD6
S315080093D013F0800F03F1010207D123444C2A83F8C6
S315080093E000131346F4D1002010BD03F00F03043B0D
S315080093F0034419761346EBE700ED00E000E100E0D0
S3150800940030B50E4C416123688BB9206083600DE04E
S31508009410891A9A681D4641616AB113465A698A4291
S31508009420F6D935B1A860521A83605A6130BD002555
S31508009430F4E72060F7E798608260F7E70C190020E8
S3150800944038B500F067F90025084B094C1A682368F7
S31508009450C31A2AB123B15169994203D3C91A516172
S31508009460206038BD55615B1A9268F2E70C19002036
S315080094700819002038B5134D2B685B6993B1124A59
S31508009480022014681C4413F005F9204600F04AF936
S3150800949000230E492A680B70D088800709D5012356
S315080094A00B7038BD022013F0F5F8022000F088F999
S315080094B0EEE79268002AF4D050690344012BEBD9F1
S315080094C0EFE700BF0C190020081900204B2A0020DE
S315080094D000220C490B687BB183420AD183687AB1B2
S315080094E0936083681BB15A6941690A445A6100202E
S315080094F070471A469B68EEE70028EFD002207047AF
S315080095000B60EEE70C19002070B512F0ECFE144E55
S3150800951005463478FCB9134B1C60134B1C60134B7F
S315080095201C8000F0C5F8012013F0B4F813F0D5F844
S315080095300F4B0246186020B9284612F0DAFE23209F
S3150800954070BD234640F2E7310A4811F075FF0A4B11
S31508009550186001233370284612F0CBFE0020EFE78F
S315080095604C2A00200C19002008190020F029002098
S315080095701019002018FCFFFF04190020C2072DE966
S31508009580F04704460BD5474A138801339BB213802C
S31508009590FFF756FF444B1B680BB1FFF76BFFA3079A
S315080095A07ED512F0A0FE4FF0000905464E46FFF79D
S315080095B047FFC8463C4F3C680CB163698BB1002233
S315080095C03A4B012E1A7003D119F0020F18BF1E70FC
S315080095D0002C61D0FFF74EFF2846BDE8F04712F091
S315080095E088BE23465A693AB91A792179914288BFC1
S315080095F01C469B68002BF5D1284612F07AFE256991
S31508009600DDB100F087F8A269A0EB02094FEAE97319
S315080096104D4578EB030311DA23691344A361E36824
S31508009620B4F80690013613B120462168984712F01F
S315080096305AFE0546FFF704FFBDE7A94612F053FE9A
S3150800964082462046FFF744FF504612F052FE236931
S31508009650002BE4D0A38BB5EB090533B1E28B134499
S315080096609BB2B3F57A7F0FD2E38312F03CFE8146B4
S3150800967029462046FFF7C4FEA369226948461344D3
S31508009680A36112F036FECAE7A3F57A73E383A369EA
S31508009690013D013BA361E8E7022000F07BF89BE768
S315080096A0BDE8F087F02900200C1900204A2A00207E
S315080096B010B50121002486B03E20ADF80810CDE98A
S315080096C003448DF804408DF80A400594FEF72EFAF7
S315080096D001A8FFF75BFA204602A98DF80840FFF7B4
S315080096E065FA20460F21FFF783FA0F212046FFF778
S315080096F085FAFFF731FAFFF70DFA0822034B9C614A
S31508009700034BC3F888219A6006B010BD00800A5042
S3150800971000E100E008B5FFF7FDF9014B986908BDBF
S3150800972000800A50F8B5044612F0D6FD0746FFF742
S31508009730F1F9164B9D6912F0A9FF06460020FFF7BE
S3150800974063FA830704D4731B032B01D8AE420FD1E7
S315080097500021631B022B98BFEC1C0846B4F1FF3F9F
S315080097602CBF2246621EFFF767FA022012F092FF0C
S31508009770384612F0B5FD064A137833B103498B6CA7
S3150800978043F001038B6400231370F8BD00800A5070
S31508009790FF110020830700F0010109D50122064BBD
S315080097A041F002011A70054A936C23F00103936491
S315080097B00020FFF71DBA00BFFF11002000800A50E5
S315080097C0830742BF0222014B1A64704700900A5071
S315080097D010B50446FCF786FF0C4BA0F57A729A4240
S315080097E012D84FF47A73B0FBF3F05C43084BB3FB23
S315080097F0F0F3B4FBF3F0022806D9BDE810400323C2
S31508009800B0FBF3F0FCF7B4BC10BD00BFFFC99A3B30
S3150800981040420F0010B512F066FD0022044B1C688A
S315080098201A6012F066FD2046BDE8104003F042BFFC
S315080098301419002038B5094D04462B6830EA03038D
S315080098400AD012F050FD2B6823432B6012F051FD0D
S315080098504FF08052024B5A6038BD00BF14190020E1
S3150800986000ED00E038B54024094D2246002128467F
S3150800987018F049FA00230121064A1370064A1560B2
S31508009880064A1180064A1380064B1C8038BD00BF65
S315080098901C1900204D2A002018190020F62900203E
S315080098A0F4290020F22900202DE9F04100F0CCF936
S315080098B000284FDD3E4D3F4C298823883E4E99426D
S315080098C028BF1946306800F059F933683B4F13FA38
S315080098D080F333603B8882B213FA80F03880288898
S315080098E02388801A80B29B1A01282880238005D1F4
S315080098F0334B1B78022B11D112F01EFF288868B94A
S315080099002F4B1B78012B29D0022B12D112F014FFF2
S3150800991021880122C1F1400109B22FE0B4F8008084
S31508009920B8F1000F16D1264B1B78012B16D0022B47
S315080099302ED0CBB9234B1B78012B06D0022B0BD08C
S3150800994093B9BDE8F041FFF78DBF032301222B80B1
S315080099501B4B1A70BDE8F0810423F7E7194B1A78F8
S31508009960012A05D0022A0DD0BDE8F04112F0D3BE77
S31508009970DB782B804BB90122B7F90010114806F0A5
S3150800998011FEDEE7B3F80330F3E702220C4BE0E7FB
S315080099900C4D42464021284606F004FE18B94023DD
S315080099A035602380D6E7404612F0C6FEC9E700BFF9
S315080099B0F6290020F229002018190020F429002091
S315080099C04D2A00201C190020014A89B200F058B916
S315080099D013C70108024B1B680BB1002018477047D4
S315080099E05C190020F8B505463027124EE86807FBD3
S315080099F000631C6FFEF752FFEB6807FB03631B6FE0
S31508009A009C42F3D10C4BE41A0623C4F30F14053415
S31508009A10B4FBF3F203FB1244C4F34E03E2074DBF53
S31508009A20DB010133C0EBC31098B2044B58BF80B2B8
S31508009A301880F8BD0000045060190020FA2900209B
S31508009A402DE9F04F0026DFF80CB18DB04FF4C07247
S31508009A500021584618F057F9374B1E80374B1E80A1
S31508009A60FCF714FD364B18604FF40071354A116047
S31508009A704FF00D0A4FF01309D3F8008004ADD8F85B
S31508009A801430524631462846D8F80070CDE90166AA
S31508009A900396009318F037F92B4B2C4C049307F1D7
S31508009AA024030593CDF81C9004F1200C95E80F00CB
S31508009AB08CE80F0084E80F000BF1800304F1400CDA
S31508009AC0A36295E80F0008AD8CE80F000BF58073CC
S31508009AD0524631462846A364C4F808B018F013F96C
S31508009AE00A238DF82030082307F582571C37CDE95D
S31508009AF00A79099304F1100695E80F0086E80F0025
S31508009B0004F1300686E80F0004F1500686E80F00D7
S31508009B106FF01302E36D694662F39F03D8F80C00F1
S31508009B202246E365FEF76EFE052109480DB0BDE83D
S31508009B30F04F12F07CBC00BFFA290020F82900205B
S31508009B40C019002000E100E0F007000360190020BA
S31508009B5000C005504E2A0020064B9B6C5A0703D5B9
S31508009B600422054B9A6470471B07FCD50822024B52
S31508009B70F8E700BF00C0055000E005502DE9F74F93
S31508009B800C46824612F0AFFB0546DFF8B480DFF8D4
S31508009B90B4B0D8F80000FFF725FF284612F0A9FB55
S31508009BA0254BBBF800701E88F51B48BF05F5C07528
S31508009BB0ADB2A54228BF2546A946C7F3C7171F4B0E
S31508009BC0BBF80040B9F1000F1BD1C4F3C714A74274
S31508009BD013D0C6F3C716A64208D003230134B4FB34
S31508009BE0F3F303EB4303E41AB44206D10822D8F888
S31508009BF000301B6803F50053DA65284603B0BDE854
S31508009C00F08FC4F5C0729145B4BF4A4692B2504629
S31508009C101919019218F081F8019A1444A4B2B4F5FE
S31508009C20C07F28BF00249244A9EB0202ABF800408B
S31508009C301FFA82F9C3E700BFFA2900204E2A00203E
S31508009C40C0190020F829002010B512F04CFB044674
S31508009C50084B1868FFF7C6FE204612F04AFB064B6B
S31508009C601888064B1B88C01A48BF00F5C07080B21A
S31508009C7010BD00BFC0190020FA290020F8290020CD
S31508009C80F8B50E461746044612F02DFB074B054657
S31508009C900748214632461F600068064BFDF79AFCC6
S31508009CA00446284612F025FB2046F8BD5C1900201C
S31508009CB0C0190020D599000810B50A46044619B1FE
S31508009CC0024B00211B68984710BD00BF50110020A9
S31508009CD037B50B4D0C462B787BB100230A4601930A
S31508009CE0014601AB281D12F0B5FC20B9019BA34221
S31508009CF018BF6FF0930003B030BD6FF08800FAE725
S31508009D00C419002008B500F037F8064B5A7812B186
S31508009D100022C3E90122BDE808400C210148FFF7EB
S31508009D20CBBF00BFC419002070B50E4D2B7893B970
S31508009D3012F085FC044688B912F08AFC044668B914
S31508009D4002230126C5E90100AE706B7000F00CF81D
S31508009D50044618B92E700024204670BDFFF7D2FFBE
S31508009D60FAE700BFC41900200122024B002083F83D
S31508009D7084207047D019002070B5094C0025264666
S31508009D800421204612F023FD0135204612F005FD78
S31508009D90032D04F12C04F3D1002386F8843070BD1A
S31508009DA0D019002001220A4B10B51A70542309490C
S31508009DB0B0FBF3F4112017F0D0FF00235121184609
S31508009DC0A2B211F00FFE00280CBF2046002010BDDD
S31508009DD0CE2B002055BE0108002008B5034B18708D
S31508009DE011F04EFEBDE8084011F066BECE2B0020ED
S31508009DF0014B1878704700BFCE2B002030220B4B42
S31508009E0083F81523402283F8202383F8212383F837
S31508009E10252383F8242383F8222383F81F2383F832
S31508009E202323502283F8222C704700BF00E100E06C
S31508009E30F7B505466B461646164A0C46106851682D
S31508009E4003C395F82A3008336B4413F8087CAB8DA6
S31508009E50DA0609D4334622463946284613F0F6F878
S31508009E6000F5FA7003B0F0BD204618F072F8AB8D15
S31508009E7000F10A049B074FEAC40405D0304618F0DF
S31508009E8068F804F50C740444E823781E584304FB68
S31508009E900700E5E7683602089022174B10B51C68DC
S31508009EA0002102FB0044204617F02DFF134B04F156
S31508009EB008001B680021DB78637614F0ACFB4FF4CE
S31508009EC00063E3842385072384F82A301323FF22BB
S31508009ED0A385236A84F8242043F01303236284F8B5
S31508009EE05420074B074A2046C4E91C32C4E92032ED
S31508009EF0BDE8104012F033BD681B0020441D002049
S31508009F00D6BE898E55555500014B9868704700BFD7
S31508009F10681B0020F0B5104B02461E6893F804C073
S31508009F2035464FF0FF3400239C4508DC91B1631C8D
S31508009F3010D0902303FB046080F82420F0BD95F828
S31508009F40247028469742F9D0FF2F08BF1C46903543
S31508009F500133E9E70020F1E7681B002070B50446E5
S31508009F60234D002842D0083002F078FC0026FF2353
S31508009F7004F1400084F82430E66117F092FF04F1FA
S31508009F80440017F08EFF04F1480017F08AFF04F129
S31508009F904C0017F086FF04F1500017F082FF28687E
S31508009FA0144B201A00115843C0B212F093FC014614
S31508009FB0304612F088FCE06E10B101F047FDE66607
S31508009FC0606E18B113F093FB00236366A06E12F05F
S31508009FD0A0FC0023A36670BD286806FB0400FFF7F3
S31508009FE0BDFF01342B79A342F6DCF4E79026F9E7A6
S31508009FF0681B0020398EE338F7B5044616F09FFF34
S3150800A000C0F30F23542B3ED9AA2B34BF01230223B6
S3150800A010C0B27E288CBF0222012203218DF80430AB
S3150800A0201344B3FBF1F000EB40001B1A8DF8053022
S3150800A0301344B3FBF1F202EB42029B1A8DF8063089
S3150800A040002318461D461A46104901AF4B7517F8E6
S3150800A050016B44FA06FC1CF0010F06D053009E4023
S3150800A060012330430132C0B2D2B20135EDB2032D1D
S3150800A070EDD103B148754B7D43EA82134B75FF2337
S3150800A0800B7503B0F0BD0023C2E700BF681B0020B4
S3150800A090064B1B68D97ADA78437E5B1A9342A8BFC7
S3150800A0A0DAB20021427612F096BC00BF441D0020A9
S3150800A0B0B0F862302BB9836813F4601F08BFA0F8A4
S3150800A0C0623011B1012911D070474369417E23F0EE
S3150800A0D010034361064B1A68D37A92780B4493426D
S3150800A0E0D8BFDAB20121427612F075BCFFF7D0BFAD
S3150800A0F0441D0020014B1879704700BF681B0020DB
S3150800A1002DE9F0410025344E8AB03379AB4203DCA1
S3150800A11001200AB0BDE8F0819023346803FB0544AA
S3150800A12094F82430FF2B0DD0236A980106D504F144
S3150800A1305008404617F005FF074628B9226A12F06C
S3150800A140A06F1ED10135E0E7BB7908A90C333B4463
S3150800A150D8689A7A1B8AC2F38012ADF82430002395
S3150800A1608DF81F2008901A460DF11F0012F0D8FB33
S3150800A17038469DF81F2094F8241008AB14F0F3FA1B
S3150800A180D7E7A38D1D2B18D13C23FF210020CDE94D
S3150800A1900431CDE902000121CDE9000004F12E03C6
S3150800A1A0C2F3802215F059F90028B2D04FF0A06109
S3150800A1B004F1200012F060FBC4E712F0807F08BFAC
S3150800A1C03C214FF0000218BF432194F8393094F827
S3150800A1D0240014F061FDE7E7681B00202DE9F04133
S3150800A1E01F46C36904460D4616468BB169B912F077
S3150800A1F07AF806462946A06E12F07AFB20462946CA
S3150800A20012F0D2FB304612F074F80020BDE8F08157
S3150800A2100029FAD0036A03F01203022B00F0BA8071
S3150800A220236ADD0700F1BE8094F82430FE2B0CD19A
S3150800A23004F1550003F028FA03F01EFA28B14FF48A
S3150800A240800104F1200012F00FFB256A614B2B40B8
S3150800A250B3F5807F00F0B980A8052FD5C5F3802512
S3150800A26004F12E0800224146284612F061FB00211F
S3150800A27084F8540012F070FB41460022284612F07A
S3150800A2805CFBA18D20B194F95400002880F29680D9
S3150800A2904FF4007104F1200012F0EEFAA28D02F0DC
S3150800A2A00302012A0AD14146284612F046FB28B184
S3150800A2B04FF4006104F1200012F0D6FA236AD90699
S3150800A2C000F18180D4E910122046FFF7B1FD012F75
S3150800A2D00ED040F27123E28C5A43904208D9228D5F
S3150800A2E05A43904273D800F51C70B0FBF3F0E08433
S3150800A2F0394BE361002384F83930236AE168B4F8FE
S3150800A300625023F4803284F83870226221613DB9A4
S3150800A31013F0100F0CBFC8253C25257605F2B3159A
S3150800A3204EB140F27121238D42F48032C3EB0613FD
S3150800A3304B432262E363236A43F400232362274BD9
S3150800A3401B68DB78637611F0CEFF6369074643F036
S3150800A350100304F108002946636114F05CF9012032
S3150800A36007F0D8FF28B963691A075CBF43F00403EE
S3150800A370636126B116F01FFEE36B0344E3632046D0
S3150800A38007F0D2FF384611F0B4FF0121A06E12F093
S3150800A390AFFA3AE7406C17F0DCFD00287FF440AFCF
S3150800A3A00C2033E7E36E002B7FF43EAF01F0F8FA9A
S3150800A3B0E06600287FF438AF092027E701F001019D
S3150800A3C012F0CAFA6AE7064B93E712201EE7452001
S3150800A3D01CE700BF000140008BD10108441D002086
S3150800A3E019A5000870B500249026094D2B79A342BB
S3150800A3F000DC70BD286806FB040090F82430FF2BAB
S3150800A40004D000231A461946FFF7E8FE0134EDE7A3
S3150800A410681B00202DE9F04F91F806B08DB00BF1BE
S3150800A4200C0B04460E46012201EB0B050DF1270025
S3150800A4300AA912F08AFA824668B19DF827100AAF6F
S3150800A440384601F04BFB60B1304611F0CDFB0020D9
S3150800A4500DB0BDE8F08FA97A05F10C07C1F380119C
S3150800A460EEE7E36EE06695F807900793236A484699
S3150800A470298956F80BB003F0100809F0D5F983447A
S3150800A480B8F1000F39D1A9F10303012B94BF0323B7
S3150800A490022340F271225B0002FB03B21D4B1B68CC
S3150800A4A05B79637605F11803BAF1000F27D09DF89A
S3150800A4B0271094F824E0B8F1000F24D04FF0010CCF
S3150800A4C0A87AC0F3401095F90550CDE902E0CDE928
S3150800A4D00071CDE904C50121079801F079FBB8F1AF
S3150800A4E0000F05D016F00BFD0121204612F05CFA8C
S3150800A4F0304611F079FB0120AAE70123C9E7A97ABA
S3150800A500C1F38011D5E794F88FC001200CF00F0C29
S3150800A510D9E700BF441D0020012810B50C461CD001
S3150800A520022822D030BB084612F072FC40F2712194
S3150800A530E38C228D94F82A00D21AE36803F59C531B
S3150800A540083301FB02332361FFF756FD0A4B204609
S3150800A550BDE81040996808F059B908F067F88442D0
S3150800A56008D1BDE8104016F0CABC0846BDE8104040
S3150800A570FFF78EBD10BD00BF681B002038B50A4D19
S3150800A5800020FFF7EBFCAB6813B100221A60DA80F3
S3150800A59014F077F900242B79A34200DC38BD204655
S3150800A5A0FFF77AFC0134F6E7681B002070B52A4CE1
S3150800A5B00546A06818B111F017FB0023A360FFF742
S3150800A5C0DDFF002012F08EF955B9032025712560AC
S3150800A5D0E58211F055FA207912F084F928B970BD90
S3150800A5E0022017F086FDA06048B90025A0682571ED
S3150800A5F0256060BB002012F075F90720EFE70026FA
S3150800A600032025712660E68211F03AFAB542E2DDAA
S3150800A61005EBC501090133460122032089B211F071
S3150800A620E1F906460028E0D1032011F061FA20601E
S3150800A6300028DAD0902231466A4317F064FB237962
S3150800A640B342C8DD3046FFF727FC0136F7E711F0BD
S3150800A650CBFAA560CEE700BF681B0020034B1B683A
S3150800A660C01A034B00115843C0B27047681B00203C
S3150800A670398EE33830B5094B1C791A680023D9B2EC
S3150800A6808C4201D8C82008E011464D6E0133854238
S3150800A69002F19002F3D1B1F9340030BD681B0020F5
S3150800A6A070B505460C4CB0F85C60237DE16806F58C
S3150800A6B0FA7606FB1311A06800F04AFB217D6B6849
S3150800A6C0002006FB01316A7E16F07BFCA068BDE817
S3150800A6D0704009F09DBC00BF681B002038B50446D1
S3150800A6E0104B0D461B68627ED87AA9B19B78104438
S3150800A6F0984200DCC3B22046216C637612F0F4FB64
S3150800A70020B1002194F88E0013F0B9F829462046A6
S3150800A710BDE8384012F05FB9DB78121A9A42A8BF32
S3150800A720D3B2E8E7441D002070B5002490260C4DEE
S3150800A7302B79A34200DC70BD2B6806FB043393F823
S3150800A7402420FF2A03D0986E18B112F0E3F80134DA
S3150800A750EEE7586E0028FAD012F08BFFF7E700BF35
S3150800A760681B00202DE9F84F164688469B46044686
S3150800A770FFF7CAFB0546304698F8007017F0E9FB64
S3150800A780DFF860A10021BAF91030C61A384600F081
S3150800A790C1FA7B0748BF073026EAE6763318FF2B4F
S3150800A7A0C4BF47F01007C0F1FC0617F010090CD01B
S3150800A7B016F0C5FB2523B0FBF3F202FB13010020BC
S3150800A7C0C9B200F001FE84F88E00BBF1000F01D07B
S3150800A7D094F82CB000235A463946284612F032FD22
S3150800A7E02146284612F08DFE2146284612F054FDD1
S3150800A7F02046FFF733FF12F06DF80146284612F09F
S3150800A80073FD2146284612F0B4FDB9F1000F4DD06C
S3150800A81094F88F20284694F88E1002F00F0200F064
S3150800A8204FFA2146284612F0B4FD70BBB4F98810D9
S3150800A830284612F0B1FD2046FFF710FF12F04AF83D
S3150800A8400146284612F07CFD2146284612F0A1FD55
S3150800A85020B1A06E10B1294612F04DF831462846AF
S3150800A86012F0AEFDB9F1000F0AD094F88F00FF215F
S3150800A87000F00F0012F0E0FD0146284600F068FAE5
S3150800A88088F800703046BDE8F88F6368DAF80C106F
S3150800A890EA791944AB79A06ED21A0C3353FA82F2CC
S3150800A8A02A44A8B9606E00F0F7FA13E094F87F20FE
S3150800A8B0284694F87E1002F00F0200F001FA2146AD
S3150800A8C0284612F066FD0028DFD1B4F97810AFE704
S3150800A8D012F00FF8C1B2284617F0BAFAB9F1000F0C
S3150800A8E0A4D1F2E7681B00202DE9F347984690F8B3
S3150800A8F08F3004468DF8071003F00F030021164623
S3150800A90090F88E20B0F9340012F0BAFF08F0D2FFA2
S3150800A910B4F9882004F18005824204D0A4F888009E
S3150800A92009F0C0FD6881284609F006FB0022114699
S3150800A930104611F0B7FF9DF807506B0709D520465A
S3150800A940FFF78CFE11F0C6FF00210246042011F025
S3150800A950A9FFFFF7D9FA25F01005814632462046A9
S3150800A9609DF828300DF107018DF80750FFF7FAFE1C
S3150800A970DFF854A00746AAF81200B8F1000F17D15D
S3150800A9809DF8075015F0100015D10C4B6168E3616E
S3150800A990DAF80C30627E194416F013FB3B46314652
S3150800A9A04846BAF9102009F05FFB02B0BDE8F08707
S3150800A9B00220034BEAE74046024BE7E779D1010854
S3150800A9C099D1010829AB0008681B002073B5044615
S3150800A9D090F85E50406E05F0EF0548BBA06E002863
S3150800A9E030D1204645F00806FFF738FE11F072FF11
S3150800A9F048B1C3799B0606D5636E23B9838845F0AB
S3150800AA000C060133838000220121114B20461A824D
S3150800AA10236A226C13F0020F18BF002213F00303F7
S3150800AA2018BF0B4600913146FFF75EFF02B070BDB6
S3150800AA3012F07CFE0028D1D0236A9A07D1D145F0BE
S3150800AA402005CEE711F050FF0028F5D1C9E700BF71
S3150800AA50681B0020436910B523F010034361B0F862
S3150800AA60623004462BB9836813F4601F08BFA0F848
S3150800AA7062300D4B2046E36107F072FE20B1204696
S3150800AA80BDE81040FFF70CBE2046216C12F02CFAE8
S3150800AA9020B12046BDE81040FFF798BF2046BDE824
S3150800AAA010400121FFF71ABE8BD1010837B50446BD
S3150800AAB012F0AEF928B12046216C12F036FA84F865
S3150800AAC05E00174D94F82A00FFF796FAB4F85C3042
S3150800AAD06A7D03F5FA7392095343204603F5967384
S3150800AAE0EB6007F03DFE0F4B94F85E10E361636977
S3150800AAF0204643F00103636112F02DFA01238DF815
S3150800AB000700002220460DF10701FFF72BFE002261
S3150800AB102046AB681A6003B0BDE83040FFF7C0BDF9
S3150800AB20681B00208BD10108032837B50C4621D1B4
S3150800AB30134D91F88F002B8A6A8AFF21134400F07F
S3150800AB400F002B8212F078FCEB6894F85E10034431
S3150800AB50EB60A38DD4E9100213F0020F4FF0000347
S3150800AB6008BF02460093204601F04801FFF7BCFEE5
S3150800AB7003B030BD03B0BDE8304012F0DABA00BF0A
S3150800AB80681B0020F0B5002585B04FF0FF3104465C
S3150800AB9003A8039508F0EEFF039949B1204607F08C
S3150800ABA0EBFE032806D0052854D003A817F079F938
S3150800ABB0012049E0FFF7A8F909230646626C8DF8DB
S3150800ABC00B300DF10B0101232046FFF7CBFD07469D
S3150800ABD0B37928461E44B37B65F38713B373344EA3
S3150800ABE0617E09F0A9FA2A46616C3B46B06835824F
S3150800ABF0778209F039FA9DF80B302E4A13F0100FB8
S3150800AC002D4B18BF13460398E36109F069F8039AB8
S3150800AC1093790C33D0180189C079D55808F004FE09
S3150800AC206368C3F196032B440344F360236ADB0489
S3150800AC300CD5039904F1500017F096F94FF00071FE
S3150800AC40204611F0A7FE002005B0F0BD03A817F0B6
S3150800AC5028F9F8E7039E2846B379617E0C331E442B
S3150800AC60134F09F069FA226A144BB868E361C2F314
S3150800AC704023B17A01938379C2F3C02203441B7B34
S3150800AC80C1F38011C3F38013009306F10C0312F08D
S3150800AC9055FCB868056009F0BBF9039809F020F877
S3150800ACA020460399FFF7B6FB80F00100C0B2CBE758
S3150800ACB0681B002029AB000879D10108D5CE010808
S3150800ACC07FB50E4610210546144612F0AEFAE0B1DD
S3150800ACD00F4B18681B7902908DF80C300023ADF8DD
S3150800ACE0043066F305038DF8043063180DEB03048E
S3150800ACF04FF0000314F8082C284662F3471301A9FD
S3150800AD0003228DF8063017F0AFF804B070BD00BF07
S3150800AD107836020803460D4A82B01068009090887B
S3150800AD209279ADF804008DF8062013B9481C02B0D4
S3150800AD3070476A460220D90748BF117802F1010216
S3150800AD4048BF40185B08F6D1F1E700BF7036020825
S3150800AD5038B583790C460C33C518C35C03F00F036A
S3150800AD60072B25D1AB789A0622D0E878C3061FD5DB
S3150800AD70012100F00F00FFF7CDFF0E4B02359C4274
S3150800AD8095BF1E234FF496730021012194BFB4FB8F
S3150800AD90F3F4B4FBF3F42B5C2A1861F3C7132B54B2
S3150800ADA09378547023F01F03C4F304242343937049
S3150800ADB038BD00BFC3BF0300F8B51646BDF8182056
S3150800ADC05B0802820022438002704270D1F801308B
S3150800ADD0044643604B79079D03F01F0303729DF8F1
S3150800ADE0207009F0BDF9237A43EA401323723346EB
S3150800ADF053F8042BC4F80920B288A4F80D209B78D0
S3150800AE00E373D7B9164B9D4216D8164B9D4203D904
S3150800AE10637843F020036370637813F0200F14BF40
S3150800AE204FF496721E22B5FBF2F523F01F03257028
S3150800AE30C5F304252B436370F8BD0B4B9D42FBD825
S3150800AE40084B9D42E8D96378B5F5161F43F02003F1
S3150800AE506370E1D3DBB2A5F5161543F04003DAE7D4
S3150800AE60D47E2500C3BF0300D4FE4A00002230B5B5
S3150800AE70084B1C791B68944201DC002005E05D6ED6
S3150800AE8003F19001854201D1184630BD0B460132C7
S3150800AE90F1E700BF681B002073B50D461646044649
S3150800AEA0002843D0036A13F0010341D0C3693BBBB2
S3150800AEB012F0ABFB1F4B2046E36147F6FF7323876F
S3150800AEC0FFF7D8FB08F0F6FCB4F93820824203D025
S3150800AED0208709F0E7FA608716F06DF800F5BB5091
S3150800AEE01030606004F1200252E8003F43F004038A
S3150800AEF042E800310029F7D14FF48000FEF79AFCAA
S3150800AF006168A28D4B1B05F6B8356D1A002D06DB58
S3150800AF1040F27120616A013200FB013392B20021CE
S3150800AF2020460091314612F0CEFB122002B070BDC9
S3150800AF301846FBE72DB2000873B50D46044618B946
S3150800AF4049B9002002B070BD036A03F001038B42C1
S3150800AF50F7D000296AD0236A590640F18180636ACE
S3150800AF6094F83F100B2B98BF0C2301F00F0198BFE4
S3150800AF706362002009F094FB0546684600F0CCF9A8
S3150800AF806A4604F14001012000F0D2F914F046FDAA
S3150800AF90002320632046A385032140F8343F09F0A7
S3150800AFA081FC47F6FF732846238708F083FCB4F92B
S3150800AFB03820824203D0208709F074FA608709F0A6
S3150800AFC0CFF8002384F82E00E36104F1200252E84A
S3150800AFD0003F43F0010342E800310029F7D152E867
S3150800AFE0003F43F0400342E800310029F7D141F21F
S3150800AFF088330125C4E903331A4B65611B6804F1DC
S3150800B00008005B796376184BD98A002908BFE621C0
S3150800B01013F001FB284607F07DF9002891D16369F2
S3150800B0201A078ED443F0040363618AE711F05BF9CB
S3150800B030064604F1080001F011FC2046294607F0EF
S3150800B040C1F9203444F8045C54E8003F23F00103B6
S3150800B05044E80032002AF7D1304611F04AF970E781
S3150800B0600C206FE7441D0020681B00202DE9F843DB
S3150800B07014460E4699460746FEF746FF05462046FD
S3150800B08016F067FFDFF888800021B8F80430C41A84
S3150800B0903078FFF73FFE24EAE4742318FF2B08DD17
S3150800B0A0317801B90130033041F010013170C0F137
S3150800B0B0FF04089BC9F800001C603378DB060DD531
S3150800B0C015F03DFF2523B0FBF3F202FB130107F150
S3150800B0D04000C9B200F078F988F80600002328462F
S3150800B0E01A46317812F0AEF82846099912F0FCF89B
S3150800B0F097F83F20284698F8061002F00F02FFF747
S3150800B100DFFD2846214612F05BF92846BDE8F8839C
S3150800B110801B00202DE9F04186B0074612F06DFA33
S3150800B1200546002407F1300008F006FF2A460021EC
S3150800B130032011F0B7FB2A4E8DF80F40002D48D09A
S3150800B140EB7913F0200246D0F27903F01F039B1A1D
S3150800B150A34209DD012B14BF14230423AC798DF80F
S3150800B1600F3004F01F04E40005AB01950093FA6E56
S3150800B17004AB0DF10F013846FFF778FF059D0499DA
S3150800B180804697F83F00294400F00F0012F054F962
S3150800B1909DF80F300444DB061FD521464046FFF7CD
S3150800B1A0D7FD104B7968FB6133687A7E1944002015
S3150800B1B015F007FF2B464046B288F96E08F054FF93
S3150800B1C0B3882B44B38033682344336006B0BDE8A4
S3150800B1D0F0812C46C8E71446C6E7034BE2E700BFF2
S3150800B1E0801B0020F5B200082DB200080E4B10B5E2
S3150800B1F0DA8A044622B9826812F4601F08BFDA8226
S3150800B200A38D20460133A385012107F0DBF840F220
S3150800B21071216368626A204601FB02336360BDE8F8
S3150800B220104007F081B800BF681B002070B50C46B7
S3150800B23006285AD8DFE800F004242C3659592C0081
S3150800B24000260B6A294D1A07AE802E6009D523F011
S3150800B25008030B6201F16C0016F023FE236FC4E9A4
S3150800B2601B360023226BA18D04F14000EB7100F020
S3150800B270B5F884F83E002046BDE87040FFF74ABF9F
S3150800B28007F0D4F9844230D1BDE8704009F03AB8E5
S3150800B290174B1B68D97A5A79637E5B1A93421EDB71
S3150800B2A0DAB21CE0114DEB790133EB710B6ADB0660
S3150800B2B00DD5C86E16F04DFEAB88984207D1236AA5
S3150800B2C04FF4800043F020032362FEF7B3FA084BDD
S3150800B2D0617E1A68D37A12790B449342E0DD62766E
S3150800B2E02046BDE87040FFF781BF70BD801B002077
S3150800B2F0441D002003280B4609D1064A1846D17971
S3150800B3000131D171927983F83E20FFF703BFFFF729
S3150800B3108DBF00BF801B0020044BD3F801200260BC
S3150800B3205B7903F01F030371704700BFCF2B002022
S3150800B330244BF0B5002918BF0B46144600210125F9
S3150800B34012688BB0C3F80120227919705A71C1F3BB
S3150800B350C402A65C01F0070205FA02F21642CFB251
S3150800B36007D01A7802F128066E44013206F8287CBE
S3150800B3701A7001312529EAD11A7828B16946981D2B
S3150800B38016F0CBFC0BB0F0BD002AFBD00126053326
S3150800B390C0F3C405675D00F0070506FA05F52F42F8
S3150800B3A0C1B208D1B1FBF2F502FB15110AAD55FA87
S3150800B3B081F111F8281C0130252803F8011FE7D16F
S3150800B3C0E0E700BFCF2B0020034B002818BF034639
S3150800B3D00B449879704700BFCF2B0020224B10B53D
S3150800B3E0002814BF84469C464FF0010E82EA12429A
S3150800B3F090B280EA010393FAA3F31BBA9BB203EB5C
S3150800B400031303449BB293FAA3F31BBA9BB203EB51
S3150800B410031303449BB293FAA3F31BBA9BB203EB41
S3150800B420031303445840114C82B2A4FB0234131B85
S3150800B43004EB5304630903EBC30103EB8103D31A3B
S3150800B440C3F3C401D8B2614403F007030EFA03FE3E
S3150800B4504B7813EA0E0F01BF9CF8003053430CEBF0
S3150800B460134C9CF8060010BDCF2B00204D91CFBA87
S3150800B47030B5174B826A1B681206597926D5028F92
S3150800B4801C79436B1203B2FBF3F2631AB2FBF3F2B5
S3150800B490B0F89C3003B1013BD0F8A05005B15B1061
S3150800B4A01B02B3FBF2F35B180CD090F895200F2A19
S3150800B4B008D91209B3EB820FB8BF00234FEA8201FD
S3150800B4C0A8BF5B1A9C42A8BF1C46E1B2417630BDB4
S3150800B4D0441D0020084B9A7E82420AD94FF4A47272
S3150800B4E01B6802FB0030836A13F0100F08BF0020A8
S3150800B4F070470020704700BF881B0020084A09498A
