S01600006D6C5F6D616769635F77616E645F332E7333370A
S3150800000000100020612400086B2501086B250108F3
S315080000106B2501086B2501086B2501086B2501086E
S315080000206B2501086B2501086B2501086B2501085E
S315080000306B2501086B2501086B2501086B2501084E
S315080000406B2501086B2501086B2501086B2501083E
S315080000506B2501086B2501086B2501086B2501082E
S315080000606B2501086B2501086B250108DD1A0008B8
S31508000070871E01086B2501086B250108452B00081A
S315080000806B2501086B2501086B2501086B250108FE
S315080000906B250108C94800086B2501086B2501086E
S315080000A06B2501082D4A0008094A00086B25010836
S315080000B06B2501086B2501086B2501086B250108CE
S315080000C06B2501086B2501086B2501086B250108BE
S315080000D06B2501086B2501086B2501086B250108AE
S315080000E06B2501086B2501086B2501086B2501089E
S315080000F06B2501086B2501086B2501086B2501088E
S315080001006B2501086B2501086B2501086B2501087D
S315080001106B2501086B2501086B2501086B2501086D
S315080001206B2501086B2501086B2501086B2501085D
S315080001306B2501086B2501086B2501086B2501084D
S315080001406B2501086B2501086B250108092E010896
S315080001506B2501086B2501086B2501086B2501082D
S315080001606B2501086B2501086B2501086B2501081D
S31508000170013800D0FCE77047D0B51BA7D7E9006760
S315080001802DED028B04469FED1A8AD4ED007AF4EE23
S31508000190C87AF1EE10FA0EDA13A7D7E900679FEDD1
S315080001A0158AD4ED007AF4EEC87AF1EE10FA0ED478
S315080001B0BDEC028BD0BD17EE900A0FF03DF8324623
S315080001C03B460EF0D9FE0FF051FB2060DDE717EE37
S315080001D0900A0FF031F832463B460EF0CFFE0FF08C
S315080001E045FB2060DDE700BF182D4454FB2119406C
S315080001F0DB0F4940DB0F49C038B50022164B51ECDE
S31508000200100B0FF071F810A3D3E9002304460D462E
S315080002100FF0FAFA70B90EA3D3E90023204629464F
S315080002200FF0D4FA58B9204629460FF055FE00EECD
S31508000230100A38BD47F6FF3300EE103AF9E74FF6D5
S31508000240FF33F9E7AFF300800000000000FCEF4041
S315080002500000000000FCEFC00000E04000000000C5
S315080002602DE9F74F0446DDE90C7B886816469A4661
S315080002700D460EF0E1FF8046B06889460EF0DCFFB9
S3150800028002460B46404649460FF02EF880468946F8
S31508000290BAF1000F1BD0DAF808000EF0CDFF0246BF
S315080002A00B46404649460EF067FE8046B86821F080
S315080002B000490EF0C1FF02460B46404649460FF07C
S315080002C03DF912A3D3E900230FF08AFA50B13B4651
S315080002D0324629462046CDF830B003B0BDE8F04F87
S315080002E00CF0ACBA064B20460093656940F24513FC
S315080002F0044A0549A847012003B0BDE8F08F00BFAE
S315080003000FA101085CA00108D99901087B14AE4722
S31508000310E17A943F000000002DE9F84F4FF00043C2
S315080003202DED028B23FA00F057EC106B59EC118B6C
S3150800033093468A460EF06EFF424604460D464B46E5
S31508000340304639460EF0D0FF02460B46204629466F
S315080003500EF0CAFF02460B4643EC182B0AA3D3E954
S3150800036000230FF051FA08B19FED078B5946504606
S31508000370B0EE480AF0EE680ABDEC028BBDE8F84F0D
S315080003800CF0A8BCAFF300800000C0FFFFFFDF4100
S315080003902DE9F0432DED028B99460B7F89B0072B8B
S315080003A004460F461546129E1AD140F20241836B47
S315080003B0984740B9AC4B0093272365692046AB4A5A
S315080003C0AB49A84799E0B06240F202412046A36BC8
S315080003D0984720B9A74B009365692B23EEE7F0628F
S315080003E02A7F3B7F072A08D1092B3DD0072B13D03C
S315080003F0A14B009365693123E0E79A4234D0CDE9F1
S3150800040002329E4B01939E4B009334236569204626
S31508000410964A9C49A84770E0D5F80C80B8F1000FB9
S3150800042009D00023CDE90283974B0193974B00939C
S3150800043065693923EBE74146DFED950A47F6FF7014
S315080004409FED940AB36A944A0DF06EFEF36A41462C
S31508000450DFED8F0A9FED910A914A92480DF064FEEE
S31508000460EB68F361AB68336297F81C80B8F1090F43
S3150800047045D0B8F1070F40F03781FB684BB1002231
S31508000480CDE90232804B0193874B009365695B2364
S31508000490BDE7EA6842B1CDE902237B4B01937B4B6A
S315080004A0009365695C23B2E7DFED807A95ED027A01
S315080004B0B4EEE77AF1EE10FADFED7D6ACCBF77EE9F
S315080004C0677A77EEC77AF4EEE67AF1EE10FA7EDD11
S315080004D04FF07C53002217EE100ACDE904230EF0E4
S315080004E0ABFE744BCDE902010193734B00935D2378
S315080004F0656920465D4A7149A847012086E0287F3C
S31508000500072832D1EB6813F5004F09D0654ACDE9C3
S3150800051002326B4B01935D4B00936569622376E764
S31508000520DFED687A95ED027AB4EEE77AF1EE10FA25
S31508000530DFED656ACCBF77EE677A77EEC77AF4EEB9
S31508000540E67AF1EE10FA66DD0022604B17EE100A25
S31508000550CDE904230EF070FE5D4BCDE9020101934F
S31508000560554B009365696323C3E7092812D066696A
S315080005700CF028F9054640460CF024F9554BCDE910
S31508000580025001933D4B009366232046374A524951
S31508000590B047B2E7EB6813F1800F0AD06FF07F021D
S315080005A0CDE902324D4B0193384B009365696723B9
S315080005B02DE795ED027ADFED4A7AB4EE677AF1EE29
S315080005C010FA28D0474B009365696823F6E6B868A1
S315080005D00EF032FE0446D9F800000D460EF02CFE49
S315080005E002460B46204629460EF07EFE1CA3D3E99A
S315080005F000230EF0A3FF06F1080841EC100B404655
S3150800060007A90CF01FFB079BF360002009B0BDEC9F
S31508000610028BBDE8F083B8680EF00EFE41EC180BAD
S31508000620D9F800000EF008FE06F1080441EC100B9C
S31508000630B0EE481AF0EE681A2146052007AAFFF719
S315080006406BFE07991F22F160052012F0C3FF0EF01A
S31508000650E1FD01F100410FF0E1F8B061D5E700BF17
S31508000660140014001400243F10B4010893B30108C1
S31508000670D999010827B40108B3A10108FFB20108F6
S315080006800CB30108469A01080DA101084AB40108ED
S3150800069080000038A00020396D39010880008037B5
S315080006A05F3901080080FFFF64B4010800000038C4
S315080006B06F1203339DB40108A9B401087DB401087B
S315080006C0BEB40108000080376F1283320000F03E86
S315080006D0C5B40108D1B40108E5B20108DDB40108C2
S315080006E00000803BE2B40108B8F1010F0FD0404684
S315080006F066690CF067F8054601200CF063F8104BA4
S31508000700CDE9025001930F4B009385233DE7287FDF
S3150800071001280ED066690CF055F8054640460CF0DF
S3150800072051F8074BCDE902500193074B00938623F6
S315080007302BE7D9F800000EF07FFDC6E9000164E753
S31508000740C0AF01080CB30108FFB2010800000000A1
S315080007502DE9F04FC76997B08346209E08910C9201
S31508000760129355EC104B8DED000B7FB910200FF04E
S315080007703DFE0246CBF81C0020B9A74BEF21A7483F
S315080007800FF0D0FBC0E901770760C760DBF81C30C3
S31508000790196859B15A680123584693404A608B60D4
S315080007A010F006FBDBF81C3000221A602B1EB7BFC0
S315080007B023F00043002301220193A8BF3360019F61
S315080007C0974BB8BF3260BB4319D142F20F73129AE6
S315080007D01360C7F31303234300F0DB85219B53B94A
S315080007E0904B21E0904B03930833219A13600398AA
S315080007F017B0BDE8F08F8B4B03930333F5E79DEDF8
S31508000800007B0022002351EC170B8DED0A7B0EF0BE
S31508000810D3FF804650B10123129A1360219B13B16E
S31508000820824B219A1360824B0393E0E7C7F30A567B
S3150800083014AA15A958469DED0A0B10F041FD029021
S31508000840002E76D00B9BA6F2FF36CDF84C80C3F36C
S31508000850130343F07F53DDE90A0143F440131946B5
S315080008600022744B0EF088FB65A3D3E900230EF033
S315080008703BFD65A3D3E900230EF080FB04460D4635
S3150800088030460EF0C7FC62A3D3E900230EF02CFD18
S3150800089002460B46204629460EF070FB04460D46D6
S315080008A00EF0BCFF002207460023204629460EF01C
S315080008B08DFF40B138460EF0ADFC22462B460EF0B1
S315080008C07BFF00B9013F162F52D85B4B03EBC703DA
S315080008D0DDE90A01D3E900230EF078FF002849D0A4
S315080008E0013F00231193149B9B1B5A1E4CBFC3F157
S315080008F001030023079245BF069300230693079337
S31508000900002F39DB079B10973B4407930023099375
S31508000910089B092B66D8052BC5BF043B0024012478
S315080009200893089B023B032B67D8DFE803F02D3AB0
S315080009303859DDE914631E4406F23243202BC9BF39
S31508000940C3F14003C3F120039F4006F21243D8BF08
S3150800095004FA03F006F1FF36C4BF24FA03F347EAA4
S3150800096003000EF047FC0122A1F1F873139276E713
S315080009700123B7E71190B6E7069BDB1B06937B427C
S31508000980099300231093C3E700230D930C9B002BB8
S3150800099056DC012399461A4604930C920CE001236F
S315080009A0F3E700230D930C9BFB1803F1010904934D
S315080009B04B46012BB8BF0123DBF81C00002104229B
S315080009C002F114059D423FD94160584610F0B0F92E
S315080009D0039000283BD1194B024640F2AF11CEE6F0
S315080009E00123DFE7012400230D9408934FF0FF331A
S315080009F00022994604931223CFE701230D93F5E7C6
S31508000A0061436F63A787D23FB3C8608B288AC63F06
S31508000A10FB799F501344D33FD0BE0108E7BE0108B7
S31508000A200000F07F87AE0108C7BE01080EA10108C5
S31508000A300DA101080000F83F00C0010848BF0108E1
S31508000A400C9B99460493B7E701315200B8E7DBF8E7
S31508000A501C30B9F10E0F039A1A606FD8002C6DD0AE
S31508000A60002F36DD07F00F02A04BF8054FEA2714D2
S31508000A7003EBC20393ED007B8DED0E7B17D59C4BE4
S31508000A8004F00F044FF00308D3E90823DDE90A014F
S31508000A900EF054FDCDE90001954D5CB9DDE90E2354
S31508000AA0DDE900010EF04AFDCDE900012BE04FF02B
S31508000AB00208F1E7E10709D508F10108DDE90E01A9
S31508000AC0D5E900230EF010FCCDE90E0164100835B7
S31508000AD0E3E700F007817C42844B854D4FF002081E
S31508000AE004F00F02241103EBC203DDE90A01D3E97E
S31508000AF000230EF0F9FB0023CDE90001002C40F09D
S31508000B00E580002BD0D1119BDDE90045002B00F0D4
S31508000B104C810022774B204629460EF057FE0028C6
S31508000B2000F04381B9F1000F00F03F81049B002BD0
S31508000B3000F3E480DDE90A34CDE90034159B002B87
S31508000B4002DB0E2F40F342820D9A002A40F067829C
S31508000B50099C0025DDF81880B8F1000F0DD0079B19
S31508000B60002B0ADD4345069AA8BF4346D21AA8EBCE
S31508000B7003080692079AD31A0793099B0BB30D9B92
S31508000B80002B00F0A682002C00F0A18229462246FE
S31508000B90584610F037FA029A01460546584610F0AC
S31508000BA087F902990646584610F002F9099B1B1B5D
S31508000BB0099300F09182099A3146584610F022FAB4
S31508000BC002900121584610F05DF9109B0446002B4F
S31508000BD000F084821A460146584610F013FA089B1C
S31508000BE00446012B03DC009B002B00F07C820026C8
S31508000BF0236904EB8303186914F084FAC0F1200012
S31508000C001096079B184410F01F0000F09182C0F15F
S31508000C102003042B40F38182C0F11C00069B034489
S31508000C2080440693079B03440793069B002B05DD28
S31508000C301A460299584610F03FFA0290079B002B75
S31508000C4005DD21461A46584610F036FA0446119B29
S31508000C50002B00F076822146029814F0A2FA0028AA
S31508000C6080F26F8200230A220299584610F0C2F8D1
S31508000C700D9B7E1E0290002B00F05C820023294605
S31508000C800A22584610F0B6F8049B0546002B03DCEA
S31508000C90089B022B00F35E82B8F1000F05DD29469A
S31508000CA04246584610F008FA0546109B002B00F0FD
S31508000CB0D0826968584610F03BF80746002840F08D
S31508000CC07F820D4B024640F2EF2158E5E20706D532
S31508000CD008F10108D5E900230EF006FB012364108C
S31508000CE008350BE74FF002080DE700BF00C0010802
S31508000CF0D8BF01080000F03F48BF0108204600227F
S31508000D00AC4B29460EF0F0FA7E1E08F10108049C49
S31508000D10CDE9000140460EF07DFADDE900230EF02C
S31508000D20E3FAA54B00220EF029F9A1F15073CDE99B
S31508000D300E010F93002C3BD10022A04BDDE90001E8
S31508000D400EF01AF902460B46CDE90023DDE90E231B
S31508000D500EF05AFD002840F05781DDE90E2101F119
S31508000D600043DDE900010EF031FD00283FF4E2AE54
S31508000D70002425460C9BDDF80CA0DE434FF0000846
S31508000D802146584610F014F8002D00F0A980B8F155
S31508000D90000F05D0A84503D04146584610F008F87C
S31508000DA02946584610F004F89AE03E464C46B1E704
S31508000DB0834B03EBC40353E90201039B1C440D9BBD
S31508000DC0002B4AD002460B4600207E490EF0B6FBA1
S31508000DD0DDE90E230EF0D0F8DDF80CA0CDE90E0102
S31508000DE0DDE900010EF01AFD05460EF013FA02467B
S31508000DF030350B46DDE900010EF0BEF80AF8015B56
S31508000E0002460B46CDE90001DDE90E010EF0FCFCB9
S31508000E10002865D100206C49DDE900230EF0ACF806
S31508000E2002460B46DDE90E010EF0EEFC002840F006
S31508000E300D81A24500F0EA8000225E4BDDE90E0135
S31508000E400EF052FA00225B4BCDE90E01DDE90001F6
S31508000E500EF04AFACDE90001C2E7DDE90E230EF0ED
S31508000E6043FAA046DDF80CA0CDE90E01DDE9000144
S31508000E700EF0D4FC05460EF0CDF9024630350B4689
S31508000E80DDE900010EF078F80AF8015B02460B4628
S31508000E90A245CDE900234FF0000223D1494BDDE9F5
S31508000EA00E010EF06BF802460B46DDE900010EF066
S31508000EB0ABFC002840F0CA8000204249DDE90E2339
S31508000EC00EF05AF802460B46DDE900010EF07EFCEC
S31508000ED070B1C24608F1FF381AF8013C302BF8D039
S31508000EE0374655E0334B0EF0FFF9CDE90001BDE773
S31508000EF0DDE90A34CDE90034159B002BFFF628AE50
S31508000F000E2F3FF725AE2E4B03EBC70393ED007B61
S31508000F100C9B002B8DED047B02DAB9F1000F64D02F
S31508000F20DDF80CA0DDE90045DDE904232046294665
S31508000F300EF004FB0EF072FC06460EF06BF9DDE9C6
S31508000F4004230EF0D1F90246204606F130040B467A
S31508000F5029460EF011F80AF8014B039C02460B4687
S31508000F60AAEB0404A14540F082800EF007F8044677
S31508000F700D46DDE904230EF047FC002865D120461E
S31508000F802946DDE904230EF017FC08B1F3075CD403
S31508000F90029958460FF00CFF002301378AF80030F3
S31508000FA0129B1F60219B002B3FF421ACC3F800A0C5
S31508000FB01DE400BF0000244000001C40000014404F
S31508000FC000C001080000E03F0000F03FA24B03EB21
S31508000FD0C70393ED007B0C9B002B8DED047B9FDAFA
S31508000FE0B9F1000F9CDC7FF4C3AE00229B4BDDE910
S31508000FF004010EF079F9DDE900230EF0FBFB044647
S3150800100000287FF4B5AE3E462546B4E0DDE90A344D
S31508001010CDE90034159B002B01DB0E2FD6DD089A8F
S31508001020012A36DC139A82B303F23343099CDDF8AE
S315080010301880069A012158461A440692079A1A44B5
S3150800104007920FF01FFF054686E53E4653469A4629
S3150800105013F8012D392A06D1039A9A42F7D130227C
S31508001060039901360A701A7801321A7038E7002295
S315080010707B4B0EF039F90022002304460D460EF08C
S315080010809BFB00283FF450AF82E7149BC3F136035D
S31508001090CCE709F1FF34099BA34208DBB9F1000F3D
S315080010A0A3EB04040EDBDDF818804B46C1E7099B69
S315080010B0109AE31A0994DDF8188000241A444B465E
S315080010C01092B6E7069BA3EB09080023B1E7029E38
S315080010D071E5099A029970E5029672E5089B012B5B
S315080010E017DC009BABB9019BC3F313039BB9019BA8
S315080010F023F00046360D360536B1069B0126013328
S315080011000693079B01330793109B002B7FF470AD62
S315080011101096012075E50026F6E73FF486AD1C33E8
S31508001120069A1A4498440692079A1A4407927CE546
S315080011300346F4E7049B002B2BDC089B022B09DCF7
S3150800114027E0B9F1000F1DDC089B022B1ADD3E468D
S31508001150CDF81090049B002B7FF40CAE2146052297
S3150800116058460FF047FE01460446029814F019F84F
S3150800117000287FF7FFADDDF80CA0312301360AF809
S31508001180013BFBE50D9B3E46CDF81090002B7FF406
S3150800119083AD039F2146029813F053FE039B00F18B
S315080011A03009049A07F8019BFB1A9A4240F3CB8050
S315080011B000230A22029958460FF01CFE0290E9E71E
S315080011C02A6905F10C010C300232920013F01AFE5E
S315080011D00122394658460FF06FFF039BA84605467D
S315080011E003F1010ADDE9032313440793009B03F087
S315080011F0010309930AF1FF3321460298049313F079
S3150800120020FE4146069000F13009029813F0C9FF06
S315080012102A462146074658460FF0BAFFC2680146D5
S3150800122002B358460FF0C4FD002F3ADA012202999C
S3150800123058460FF041FF2146029013F0B2FF0028EE
S3150800124003DC29D119F0010F26D0B9F1390F1DD1C8
S3150800125032E02846C1E700BF00C00108000014407C
S31508001260000024400A90029813F09BFF0A990C90FC
S3150800127058460FF09DFD0C9A5ABB089B53B9099B1B
S3150800128043B9B9F1390F17D0002F05DD069B03F1D5
S31508001290310901E0002F2ADADDF810A00AF8019BCF
S315080012A06EE5089B3B4304D1009B03F00103002B2A
S315080012B0BCD0B9F1390F36D1049F392307F8013B61
S315080012C0BA46013F1AF8013C392B5AD001333B7014
S315080012D056E5002F06DB089B3B4306D1009B03F02F
S315080012E0010313B9002AA1DCD6E7002AE1DC079B33
S315080012F057460AF8019C53452ED000230A22029924
S3150800130058460FF077FDA84502904FF000034FF0BE
S315080013100A02414658460BD10FF06CFD8046054639
S315080013200AF1010A66E7DDF810A009F10109B5E737
S315080013300FF060FD2946804600230A2258460FF022
S3150800134059FD0546ECE7049B4FF00008002BCCBF7F
S315080013501F460127039B1F440122029958460FF096
S31508001360ABFE2146029013F01CFF0028A8DC02D130
S3150800137019F0010FA4D1BA4617F8013D302BFAD05F
S31508001380FEE4039BBB429BD13123039A01361370BB
S31508001390F6E4219B002B7FF425AA014BFFF744BAFC
S315080013A0C7BE01080000000051EC100BC1F30A5338
S315080013B02DE9F041A3F2FF350C460646132D32DC23
S315080013C0002D20DB384B0F4643FA05F801EA0803DF
S315080013D003432DD032A3D3E900230DF0CFFD00221D
S315080013E000230EF011FA40B1002C03DA4FF48013F3
S315080013F02B411F4427EA080400262346324643ECBD
S31508001400102BBDE8F08126A3D3E900230DF0B6FD25
S31508001410002200230EF0F8F90028EED0002C2ADB73
S3150800142000263446E9E7332D06DDB5F5806F1BD077
S3150800143041EC100BBDE8F081A3F213434FF0FF37E0
S31508001440DF400742F4D016A3D3E900230DF096FD3A
S31508001450002200230EF0D8F90028CED0002C3346FF
S3150800146010DB23EA0706C8E702460B460DF086FDA1
S3150800147041EC100BDEE724F0004426430DD14FF073
S315080014800044BAE7142D06D0C5F134050122AA4056
S315080014901344B342E5D20134E3E70026034CACE734
S315080014A09C7500883CE4377EFFFF0F000000F0BF04
S315080014B00348044B834202D0034B03B118477047D5
S315080014C0041200200412002000000000064B074901
S315080014D0C91A891048BF0131491003D0044B0BB112
S315080014E001481847704700BF041200200412002064
S315080014F00000000010B5064C237843B9FFF7D8FF63
S31508001500044B13B10448AFF300800123237010BDC8
S31508001510DE4100200000000024C1010808B5054B83
S315080015201BB105490548AFF30080BDE80840FFF741
S31508001530CDBF00BF000000001032002024C1010802
S31508001540A3F5803A704700BF174B002B08BF134B13
S315080015509D46FFF7F5FF00218B460F461348144AB0
S31508001560121A13F00CFC0E4B002B00D098470D4BAB
S31508001570002B00D098470020002104000D000D48DC
S31508001580002802D00C48AFF300800FF007FA2000BD
S31508001590290010F03BFC0EF0E3FC00BF0000080039
S315080015A000000000000000000010002004120020C7
S315080015B018420020000000000000000037B500F0C7
S315080015C07BFE00B300F056FE684600F019FE0622C0
S315080015D00E490F4C0B68BDF800505A43A018A55287
S315080015E0BDF8022001334280BDF80420592B8280C1
S315080015F00B6008DDC72B4FF00100C8BF0023054A62
S31508001600C8BF0B60107003B030BD00BF2832002081
S315080016102C3D0020DF41002013B500F081FD044673
S31508001620C8B9B3EE090A00F0A5FD01222346114602
S31508001630104604F09BFF22460949012003F0B2F93F
S31508001640FF2802464FF0010108D023460846CDE997
S31508001650001104F01BFF204602B010BD0C46FAE745
S31508001660BD150008F8B51D4B04461B780E4693B306
S3150800167011F054FA4FF0060C194B1A491A6823460A
S31508001680951BB41A6219964203DC11F04BFA002036
S31508001690F8BD2A46002DB8BF05F1C8020CFB02F2B8
S315080016A08F18B7F902E08A5EB7F9047007EE10EAF8
S315080016B007EE907A06EE902AB8EEC77AF8EEE66A52
S315080016C0F8EEE77AC3ED006A83ED017AC3ED027A94
S315080016D001350C33D6E70120DAE700BFDF410020E9
S315080016E0283200202C3D00200122014B1A70704739
S315080016F0E041002008B5044811F099F9BDE8084012
S31508001700024811F094B900BFA85501089055010880
S315080017101FB54FF4FA6003A905F0D2FF034638B99E
S3150800172001220399CDE90002034A044811F02FFB70
S3150800173005B05DF804FB00BFF5160008343200203A
S3150800174013B525480FF0F4F824480FF0F1F807F020
S3150800175013FB234C206007F009FB224B2268186014
S315080017605369196804290BD15968012908D1996860
S315080017705A2905D1DB68032B02D1137F012B09D027
S3150800178019480FF0D5F84121184802B0BDE81040B5
S3150800179010F0FFBE9369164A9B081360FFF73CFFDB
S315080017A020B114480FF0C4F84B21EDE70021084694
S315080017B0FFF758FF03460028F8D10F4AC8211070D2
S315080017C0CDE900000D4A0E4805F098FF0D4802B015
S315080017D0BDE810400FF0ACB8605401086B5401081E
S315080017E0303200202C320020725401089E54010821
S315080017F074320020AF540108E0410020E9160008C1
S3150800180054320020D15401080322224B10B519681E
S31508001810214B91FBF2F11B681869FFF723FF01289A
S3150800182036D01E4B1A789AB300221D4C1A702068BF
S315080018300BF0CAFC014620B1BDE8104019480FF06C
S3150800184077B820680BF0B6FA006900F037F8044656
S3150800185011F0C1FA05F08EFF01464CB912480FF097
S3150800186055F8124811F0E0F8BDE81040FFF750BFF0
S31508001870012C07D10E480FF049F80C4811F0D4F89E
S315080018800C48EFE7022C03D10B480FF03FF8F7E7B7
S3150800189010BD00BF7432002030320020E041002025
S315080018A02C320020D7540108EF540108A855010826
S315080018B00955010890550108235501089FED2B7A13
S315080018C00FC8F0B52A4F2B4C3D68F0EE475A6E1CF0
S315080018D0052EA8BF002604EB051585E80F00B1EE16
S315080018E0046A234600224FF0FF303E60F3EC017A8B
S315080018F0D3ED036A77EEA57A77EEA67AD3ED076A73
S3150800190077EEA67AD3ED0B6A77EEA67AD3ED0F6A51
S3150800191077EEA67A411CC7EE866A04D0F4EEC76A4B
S31508001920F1EE10FA02DDB0EE667A10460132042AAC
S31508001930DCD1114B1A68002AC4BF02F1FF321A60C3
S31508001940032810D0DFED0D7AB4EEE77AF1EE10FA3F
S315080019500AD40B4A1168814202D11968002903DCAE
S31508001960122110601960F0BD0320FCE7000000009A
S315080019707C32002080320020783200206666663F7E
S315080019800410002010B5274C03F092FD03F0BAFFAF
S31508001990236F23F0070343F00303236711F0A9F825
S315080019A0214B00209B6ADB015EBF4FF480321F4B40
S315080019B09A62D4F8203123F0070343F00203C4F8EF
S315080019C02031D4F8283123F0070343F00203C4F882
S315080019D02831D4F8403123F0030343F00203C4F856
S315080019E04031D4F8603123F0030343F00203C4F80E
S315080019F06031D4F8403223F0030343F00203C4F8FD
S31508001A004032D4F8003223F0070343F00203C4F847
S31508001A100032D4F8083223F0070343F00203C4F86F
S31508001A20083210BD008000500040005A0060005A7D
S31508001A3030B5234D9DB008AC0FCD0FC495E80F0007
S31508001A4084E80F002C22002111A813F098F91D4BE9
S31508001A5001241093562312930523159306230E2269
S31508001A6000210DF112008DF84540179313F087F900
S31508001A704FF47020144B08AACDE902030B238DF806
S31508001A8010300C238DF81130104B11480593202384
S31508001A900693104B02A9009310AB8DF81D4005F074
S31508001AA021F9044618B17C210B4810F072FD00217B
S31508001AB04FF4E13010F042FA20461DB030BD00BFA9
S31508001AC0705501080000015B3C00015BE141002004
S31508001AD034330020D03200203E550108014811F069
S31508001AE0F5B800BF3433002008B5044810F099FF54
S31508001AF0BDE80840024810F094BF00BFA855010889
S31508001B0090550108082808B504D00FDC022809DC1E
S31508001B10002809DD012304220921022004F026FDFC
S31508001B20002008BD0428F5D0D82106E02028F1D0E9
S31508001B30402807D01028F7D1B921044810F029FD0C
S31508001B400E20EEE7012304220821E6E7A891010802
S31508001B508022014B1A64704700E0035070B51446A2
S31508001B600D4640F080010A48FFF7F2FF11F00BF826
S31508001B70074E2544AC4204D18022064B00201A6445
S31508001B8070BD0021304610F0FEFF04F8010BF1E7A6
S31508001B9000000A5000D0035038B50C46084D00F036
S31508001BA07F012846FFF7D4FF10F0EDFF21462846AF
S31508001BB010F0E9FF8022034B00201A6438BD00BFED
S31508001BC000000A5000D0035070B5264C8EB0264649
S31508001BD001AD0FCE14340FC50FCC06AD0FC594E872
S31508001BE00F0085E80F00204B0121039306AB0593F0
S31508001BF04FF480735720ADF81C3003F009FA012121
S31508001C003A2003F005FA002304220321022004F0F7
S31508001C10ADFC022100230846012204F0A7FC00239C
S31508001C2004220121022004F0A1FC01230422072139
S31508001C30002004F09BFC0D4801A904F0CFFA0C4BD8
S31508001C400C4A0020C3F8CC244FF00212C3F8C4246F
S31508001C50A2F58032C3F8C8241C22C3F8B4240EB0F7
S31508001C6070BD00BF64920108A05A320000000A50F5
S31508001C7000C003500200030010B52DED028B9FED46
S31508001C80188AB7EE007AC8EE007A77EEC77A9FED23
S31508001C90157AF4EEC77AF1EE10FA82B019DCF5EE91
S31508001CA0C07AF1EE10FA17D4FCEEE77ACDED017A98
S31508001CB09DF8044019202146FFF76EFF631C00EECD
S31508001CC0103AB8EEC00A88EE000A02B0BDEC028BE4
S31508001CD010BDF0EE477AE7E7DFED037AE4E700BFE9
S31508001CE000007A4400007F430000000013B5044654
S31508001CF001211C200DF10702FFF730FF9DF8073080
S31508001D0003F01803102B8DF8073012D009D89BB1B1
S31508001D10082B14D00B484FF4AA7110F03AFC012096
S31508001D2005E0182BF6D14FF068530020236002B067
S31508001D3010BD4FF06653F8E74FF06253F5E74FF0E2
S31508001D406453F2E70692010813B5044601211B20E5
S31508001D500DF10702FFF702FF9DF8073003F018039D
S31508001D60102B8DF8073011D009D88BB1082B11D05C
S31508001D70094840F2791110F00CFC012004E0182BF8
S31508001D80F6D1064B0020236002B010BD044BF9E7DC
S31508001D90044BF7E7044BF5E70692010800007A3D85
S31508001DA00000FA3C0000FA3B00007A3C01212DE9CC
S31508001DB0F043002285B08046084610F0B1F99FED41
S31508001DC06D0AFFF759FF052010F00FF9002010F0F3
S31508001DD094F96846FFF7B8FF322005F055FC402114
S31508001DE01A20FFF7D9FE44216A20FFF7D5FE78218D
S31508001DF02320FFF7D1FE052005F046FC02217220BC
S31508001E0001AAFFF7ABFEBDF804305BBA9BB2B3F587
S31508001E10FC7FF0D378220021232010F0AAF80221B3
S31508001E20722001AAFFF79AFE4FF000090C23BDF8AD
S31508001E3004704C467FBABFB2B7FBF3F74D464E4621
S31508001E401FFA89F3BB4278D396FBF7F607EE906A3A
S31508001E509DED007AF8EEE77A95FBF7F567EE877A57
S31508001E60C8ED007A07EE905AF8EEE77A94FBF7F495
S31508001E7067EE877AC8ED017A07EE904AF8EEE77AB8
S31508001E8067EE877A01AAC8ED027A02211320FFF7C6
S31508001E9065FE9DF904309DF8058001AA02211520EA
S31508001EA048EA0328FFF75AFE9DF904309DF80570A5
S31508001EB001AA0221172047EA0327FFF74FFE002E43
S31508001EC09DF904209DF80530B8BF0336002DA8EB10
S31508001ED0A606B8BF0335002C43EA0223B8BF03346D
S31508001EE0C6F307211320A3EBA404A7EBA505FFF768
S31508001EF053FEF1B21420FFF74FFEC5F30721152054
S31508001F00FFF74AFEE9B21620FFF746FEC4F307219B
S31508001F101720FFF741FEE1B21820FFF73DFE4022E9
S31508001F2000216A2010F025F800221146104610F00C
S31508001F30F7F8002005B0BDE8F08301AA0C2174204B
S31508001F40FFF70CFE9DF90A209DF80B3009F10109EF
S31508001F5043EA02231E449DF90C209DF80D3043EAFE
S31508001F6002231D449DF90E209DF80F3043EA0223F3
S31508001F701C4465E700007A44B7EE007AC7EE007A9B
S31508001F809FED057AC0ED157AC7EE007A80ED140A42
S31508001F90C0ED167A704700BF35FA8E3CF0B52DEDC8
S31508001FA0048B0F4600F15C050446D0ED098A90EDD6
S31508001FB00A9AD0ED0B9A85B028461646B0EE408AA6
S31508001FC010F063FA002F48D094ED097ADFED386AED
S31508001FD0B4EEE67AF1EE10FA3FDBDFED367AB4EED0
S31508001FE0E77AF1EE10FA38D894ED0A7AB4EEE67A82
S31508001FF0F1EE10FA31DBB4EEE77AF1EE10FA2CD8EE
S31508002000F5EEC09AF1EE10FAF1EE688AB1EE490AD9
S3150800201004F1680725DB0FF07FFA8DED010AB0EEB3
S31508002020680A0FF079FAB1EE400A28463A4601A93D
S315080020308DED020A8DED038A10F05FFA284610F03E
S3150800204017FA0EB900236366D4ED147AB6EE000AC1
S31508002050284680EE270A10F030FA05B0BDEC048B4E
S31508002060F0BD0FF059FA9FED149A39EE400A8DED3E
S31508002070010AB0EE680A0FF04FFA38EE098AB1EE97
S31508002080400A01A88DED020A8DED038A10F0F0F9D9
S315080020903A46284601A910F030FA284610F0E8F921
S315080020A0D4ED187AF1EE677AC4ED187AC9E700BF5D
S315080020B0DA1B7CBFDA1B7C3FDB0F494070B5044650
S315080020C000F052F80128054626D104F124063046C8
S315080020D000F0D6F83146204604F1440610F051F9CE
S315080020E0304600F0DBF8D4ED117AF1EE677AC4EDEC
S315080020F0117AD4ED127AF1EE677A31462046C4EDAC
S31508002100127A10F05AF929462046BDE870409FED2C
S31508002110030A0022FFF742BF70BD00BF000000009F
S315080021207FB502250E4E0F48357010F008F90FF0EE
S3150800213038FF044660B90DF1030010F032F8044682
S3150800214030B9032301A83370FFF730FE044610B1F7
S315080021500FF003FF00252046357004B070BD00BFA0
S31508002160014200204C330020014B1878704700BF0D
S315080021700142002070B501212DED028B0223B0EE3D
S31508002180408A1C4E82B00022084633700FF0C8FF02
S31508002190B0EE480AFFF770FD174D082085ED000AD6
S315080021A00FF033FF03200FF020FF00200FF092FFFF
S315080021B000200FF0A2FF322005F066FA0F4C00212E
S315080021C001200FF0C6FF01A80FF0D1FF95ED000A18
S315080021D0204610F0D3F895ED000A2046FFF7CCFE0E
S315080021E0204610F006F90123337002B0BDEC028BCD
S315080021F070BD00BF01420020C83300204C330020C8
S315080022001A4AD36B6BB392ED0C6A9FED197A07EEF7
S31508002210903A26EE076AF8EE677AC6EE276A92EDD6
S315080022200D6AFDEEE66A26EE076A16EE903AC6EEE7
S31508002230276AFDEEE66A038016EE903AD2ED0E6A3C
S3150800224066EE876A86EEA77ABDEEC77A438017EEF2
S31508002250103A838000231363536393630023D36385
S315080022607047038043808380704700BF4C3300204B
S3150800227000007A440148FFF721BF00BF4C33002015
S31508002280054A1278012A04D0002202604260826060
S3150800229070470FF0BFBE00BF01420020054A127802
S315080022A0012A04D0002202604260826070470FF063
S315080022B0E1BE00BF0142002008B5094B1B78012B7F
S315080022C001D0002008BD0FF05EFF064A13680133EF
S315080022D013600028F5D0044A136801331360F1E748
S315080022E001420020C4330020C03300209FED060AB7
S315080022F000F10C03B0EC017AF1EC017A984207EE92
S31508002300270AF7D1704700BF000000000122024BE0
S31508002310C3F8A020704700BF00D003500122024B2B
S31508002320C3F8A020704700BF00E0035070B5404DC9
S3150800233088B001AC0FCD0FC495E8070084E8070004
S31508002340012401213A2002F063FE3A4E0121292098
S3150800235002F05EFE384B304601A903938DF8124011
S3150800236004F0E6FA234604220321022004F0FEF8CC
S31508002370022122460846002304F0F8F8234621469F
S315080023800422022004F0F2F8042200212346022047
S3150800239004F0ECF8294D2A4B4FF44870C5F8343749
S315080023A04FF00213C5F8303703F58033C5F83837D0
S315080023B01C23C5F8203705F037FB1420FFF7AEFFBE
S315080023C005F032FB2320FFF7A1FF05F02DFBB9210D
S315080023D03046FFF7A3FF10F0F0FBFFF797FF002347
S315080023E003211A46022004F0C1F8002302211A46E6
S315080023F0084604F0BBF8234621460022022004F0D2
S31508002400B5F8002223461146022004F0AFF83046FC
S3150800241004F062FA00212920C5F83417C5F83017E8
S31508002420C5F83817C5F8201702F0F2FD08B070BDD8
S315080024309892010800C0055000127A0000C00350A7
S31508002440020001000348044A0449121A921010F0C7
S315080024508DB800BF3CC301083CC3010818420020E0
S3150800246008B500F02FF8FFF7EDFF124B12498B4223
S3150800247012D30020114B12498B4218D3FFF764F888
S31508002480186850F82240586840F822400132986887
S315080024908242F5D30C33EAE70022F8E71C6844F8D1
S315080024A0220001325C68A242F8D30833E4E700222E
S315080024B0F8E700BF2CC1010838C1010838C1010876
S315080024C038C101084FF480414FF0FF30114B124AD2
S315080024D010B59A60D3F8882042F47002C3F88820B1
S315080024E00E4A91660E4901F5005210660D4850666F
S315080024F00220C3F8D000BFF34F8FBFF36F8F0124BC
S315080025004FF440330848C0F88041D36004600B613B
S3150800251010BD00BF00ED00E000000008009000506C
S3150800252000800044F7FF370000E100E0014B18681F
S31508002530704700BF0C100020084B1B6F03F0070301
S31508002540022B04D0032B05D0012B05D0FEE7044B44
S3150800255018687047034BFBE7034870470080005034
S315080025600C10002014100020002D310108B5FFF7CB
S31508002570E3FF054B1B6FC3F303330133B0FBF3F0E3
S31508002580024B186008BD00BF0080005008100020EC
S315080025900048704700B4C404014B1868704700BF70
S315080025A014100020054B1860054B1B6F03F007033A
S315080025B0032B01D1FFF7DABF704700BF14100020C4
S315080025C00080005000487047002D31014FF0B44399
S315080025D09868C0F304400C280AD8DFE800F00B0915
S315080025E009090909072119091B1D1F000F4870470A
S315080025F0002070479B6803F04073B3F1807F11D0C9
S31508002600B3F1007F10D00A4A002B08BF1046704766
S315080026100848704708487047084870470848704790
S31508002620084870470848704708487047405DC60024
S3150800263000093D00C0EA210180BA8C010048E80182
S31508002640005A62020024F40080841E0040420F00F3
S31508002650014B1868704700BF101000200346054A52
S315080026600549106803448B428CBF4FF0FF30136056
S31508002670704700BF18100020000004204FF0BA422F
S315080026800123054802F580514B6008620349096831
S31508002690D160034A1370704701000C1F1C100020FC
S315080026A0024200204FF0BA41074BCA681A6001235C
S315080026B0064A53604B6813F00203FBD14FF0FF3113
S315080026C01162034A137070471C1000200020005D39
S315080026D0024200204FF0BA42D369126A10B513407D
S315080026E013F0F8501EBF0120114A1070DC070ED5F2
S315080026F04FF0BA410A695007FCD50E4A4C69106872
S3150800270020441060886951680144012051605903CA
S3150800271041BF08490A6802F180720A601A0341BF7C
S3150800272004494A6802F180724A60034AD36110BDBF
S3150800273003420020CC3300200020005D0023044A19
S3150800274004491370044A05481360054A00F096B90F
S3150800275003420020A5260008D83300207D2600085D
S31508002760D526000808B500F0DBF94FF0BA430A4A47
S31508002770D969136841F201500B4313604FF47D3257
S31508002780064BDA61064B1A78002A4FF0000208BF9A
S3150800279010461A7008BD00BFD83300200020005D1F
S315080027A00342002009230E4A70B5C0F81031136899
S315080027B0054601330E461360FFF7D4FF044660B999
S315080027C000F0A8F94FF48A722846064900F086F9FF
S315080027D01EB1BDE87040FFF7C5BF204670BD00BFFB
S315080027E0D43300206400005D0729F8B505460C4679
S315080027F010EE107A10EE906A04D940F207110448D8
S315080028000FF0C7FE05EB840325F824705E80F8BD3B
S31508002810B49201082DE9F84F042980460D469346DF
S315080028209946BDF82840BDF82C70BDF83060DDF833
S3150800283038A004D94FF4917134480FF0AAFEB4F5C4
S31508002840806F04D940F2231130480FF0A2FEB7F585
S31508002850806F04D94FF492712C480FF09AFEB6F5A2
S31508002860806F04D940F2251128480FF092FE0D9B7F
S3150800287003F50063B3F5805F04D34FF493712348DF
S315080028800FF087FE0AF50063B3F5805F04D340F2C4
S3150800289027111E480FF07DFE0F9B03F50063B3F565
S315080028A0805F04D34FF4947118480FF072FE184BEA
S315080028B00F9A013E03EA0242C6F3090616430D9A29
S315080028C0013C03EA0A4AC4F3090403EA02431C4327
S315080028D0013F4FEA093303F44053C7F309071C4382
S315080028E047EA0A0708EB051319F0040F05F1020574
S315080028F0C3E90A7618BF44F480442B0108EB051592
S315080029006C6048F803B0BDE8F88F00BFB4920108C0
S315080029100000FF0F2DE9F041072905460E4614462B
S315080029201F469DF8208004D94FF4B5710A480FF068
S3150800293030FEDDE9062324051A43B8F1000F01D05D
S3150800294044F000440C2303FB0651C1E92C72C1F87C
S31508002950B840BDE8F08100BFB49201082DE9F04106
S31508002960072906460C46154698469DF8187004D958
S3150800297040F27D1121480FF00CFE013DABB2B3F5D4
S31508002980806F04D34FF4BF711C480FF002FEB8F1F4
S31508002990070F04D940F27F1118480FF0FAFD072FE8
S315080029A004D94FF4C07115480FF0F3FD0C21079BAD
S315080029B006EBC40245EA0335089B15671B035367F4
S315080029C001FB0862B845D2F8B8004FEA440406D1BC
S315080029D00323A3400343C2F8B830BDE8F0810123BE
S315080029E0A3400343C2F8B830022201FB0766D6F8B3
S315080029F0B830A2401343C6F8B830EEE7B4920108DF
S31508002A00F8B500210C250446D0F8743200F509768D
S31508002A10DFF854C0D0F868028B4217DA05FB0303C7
S31508002A2093F8BB20002142F0800283F8BB20FFF711
S31508002A30B9FE4FF48A72D4F86C3283F00103C4F8F5
S31508002A406C3202FB0343C4F86832F8BD05FB010784
S31508002A50D7F8B82056F804EF02EA0C0242EA0E024A
S31508002A60C7F8B8200131D7E70000FFFF024B03C8BB
S31508002A7083E8030000207047DC33002038B50F4C8C
S31508002A802378CBB90E4B0F4D19600F4B28601A608F
S31508002A904FF080420D4B0E489A66FFF7E7FF4FF45A
S31508002AA000420C4B1A602B6803B19847012300209B
S31508002AB02370094B187038BD1220FCE70542002028
S31508002AC0E8330020EC330020E43300200090005067
S31508002AD0DC33002000E100E0044200200B4B10B577
S31508002AE01B7873B10A4B1B786BB1002392089A4284
S31508002AF001D1002010BD50F8234041F8234001338E
S31508002B00F5E71120F6E70E20F4E700BF054200209E
S31508002B10044200200122014B1A707047044200202B
S31508002B20064B1B7843B14FF0BA4213695B07FCD5D5
S31508002B30034A1378002BFCD1704700BF05420020DA
S31508002B400442002008B5044B1B6823B1984710B10E
S31508002B500022024B1A7008BDE4330020044200200C
S31508002B6000487047F033002000487047F0330020D3
S31508002B70F0B5044601258C4205D88D4203D80020BD
S31508002B8015601C60F0BD0020DFF828C01CF8017B2A
S31508002B90B4FBF7F607FB164EBEF1000F05D1B4429B
S31508002BA007FB05F504D03446E5E701300B28EDD1DF
S31508002BB00120E5E7109301082DE9F04F174687B085
S31508002BC004460D469846FFF7CBFF17F1800F0646D9
S31508002BD002D1B8F17F0F04D0A02D12D82544A54202
S31508002BE003D1002007B0BDE8F08F94F900309F426A
S31508002BF002DD27700134F2E79845B8BF84F80080F3
S31508002C00F8E74FF0000940F20A2A3B463A46002107
S31508002C1030460FF0BFFC43464246012130460FF0CE
S31508002C20B9FC4B464A4649463046CDE90199CDF8A6
S31508002C3000A0FFF76FFE40F20B232F4A0121CDE9D2
S31508002C400032304640F2D5122C4BCDF80890FFF7EB
S31508002C5061FE01212A4B40F2D512CDE901313046F9
S31508002C600221284BCDF800A0FFF754FEB5F5006FFA
S31508002C702B4628BF4FF4006323F0030B4FEA5B0A89
S31508002C801FFA8AFA2246002130460593CDF800A09D
S31508002C9005230FF0A5FC0523224601213046CDF871
S31508002CA000A00FF09DFC0223059A002130460093F0
S31508002CB0CDE901990123C2F38F02FFF74FFE0121E7
S31508002CC03046FFF76FFD00288CD1A5EB0B059F2D2D
S31508002CD05C44CBD8002D84D0254414F9013B9F428F
S31508002CE004DD04F8017CA542F7D17AE79845B8BF18
S31508002CF004F8018CF7E700BF0000A02100010220BC
S31508002D000000B021000103302DE9F04F036895B0AB
S31508002D100593436A066D0693836A42680793C36AF6
S31508002D20856B0893036ED0F814B00993C36DD0F879
S31508002D303C900A938369DFED576A0B9383680BFB14
S31508002D4001FA0C93036B0D93436C00694B43F41A19
S31508002D5024EAE474F71A9B1B234453430744AF42FF
S31508002D60A8BF2F46019302FB05F3002502FB00F1DD
S31508002D70119302FB04F30E9713911293059B9D4240
S31508002D8003DB002015B0BDE8F08F00200B9B129ED8
S31508002D9053440493584574DB0199139B0135194430
S31508002DA0DA440191EAE74FF000080C9B734402935A
S31508002DB00D9B63440393904547DB0137964494443F
S31508002DC00E9B9F42EFDBB9F1000F0BD039F810309C
S31508002DD0F2EE677A07EE103AB2EE477A77EE277A7E
S31508002DE0F3EE677A089BF2EE677A33F81030013013
S31508002DF007EE103AB2EE477A67EE277AF3EE677A6D
S31508002E00F2EE677AFDEEE77A17EE901AADF808301B
S31508002E10099B1944069B9942B8BF1946079B9942D4
S31508002E20A8BF194607EE901AF8EEE77AF3EE677A26
S31508002E30F2EE677AFDEEE77A17EE901A049B03F82E
S31508002E40011B0493119B1E44A4E7029BF2EE677ACA
S31508002E5013F9011B08F101080293039B0F9113F95B
S31508002E60011B109103930F990A9B1944109B594310
S31508002E7007EE101AB8EEC77A47EE267AF3EE677AA7
S31508002E8099E740F20003B446274607EE903ADDF884
S31508002E9004E095E7000000382DE9F04F2DED048B8E
S31508002EA0436CD3B02B93836D82463793436D90ED75
S31508002EB0178A3893036DD0F840901F93C36C90F827
S31508002EC0486014938368C56B3993036B1C913A93D6
S31508002ED0C36A3B9340F20003ADF8423183694693D7
S31508002EE000235193FFF740FE04462EB91F9B149A00
S31508002EF013431CBF21235193379B012B02D1389BC7
S31508002F00012B07D0212351931C9B002B40F099805D
S31508002F105198F9E31C9B002B40F09380519B002BA2
S31508002F20F6D1DAF8043020460F93DAF81430DAEDE1
S31508002F30188A0993DAF80C30BAEEE88A2C93DAF88C
S31508002F403430B3EE488A2093DAF81C302D93DAF839
S31508002F5000303C93DAF810301593DAF838301693C7
S31508002F60DAF8203017930FF01AFC209A2C9B002DC4
S31508002F70A3EB0203149A134493FBF9F30D93DDE9CB
S31508002F801532A3EB02031F9A13442B9A93FBF2F311
S31508002F90179A4993099B02FB03F30F9A1393169BFF
S31508002FA002FB03F32493249A209B02FB03F30F9A54
S31508002FB03293159B02FB03F323932B9B02FB03F32C
S31508002FC04A93239B159A03FB09F34B93BDF82430C8
S31508002FD01E9308BF012343930DF5A17318BF2B4613
S31508002FE047932C9B53430F9A53434C93179A2D9B05
S31508002FF05343099A5343409300230E9340F2002308
S3150800300009EE103A0E9B179A93422EDB1C9B002B57
S315080030103FF47EAFFFF7A6FB5190002840F074837B
S315080030203C9B2D9909985943179B9AF92420594393
S315080030309AF928304143DAF81800FFF7BDFD519098
S3150800304066E7DDE9393213433B9A2B431343DA0724
S3150800305007D52123519340F2031182480FF099FABC
S3150800306056E7519B002BF6D15BE70E9B2B9A1F99CF
S315080030705A431F9B1698D31A8A1A22EAE2721892A2
S31508003080159A1899D21A9042D4BFC1EB0001C1EB28
S315080030900201002B27DB0E98499D169E9642D8BF43
S315080030A028462690269A0E98121A01320A920F9AE4
S315080030B04A4318993192379A01FB02330A993F938A
S315080030C0DDE94A320129D8BF1346239A2A931343C6
S315080030D0459300230C930C9B2D9A934206DB269B63
S315080030E001330E938EE70E9A2692DBE70C9B149A11
S315080030F009FB03F3991AD31A2C9A209823EAE37347
S31508003100521A9042D4BFC3EB0000C3EB0200002959
S3150800311008907DDB209991427ADCDDE90C12521A7F
S31508003120571C002A79D00A9A012A7CDD814563D08A
S3150800313044DD012FA9EB000B65DC01260D9A0B92E5
S31508003140BE423246A8BF3A464892139A1699724327
S315080031502F92721E22922F9AB2F5006F229AB8BF4A
S3150800316000222E9201324E92189A03FB01220F99E1
S315080031704A43249911434D910A990129D8BF3946E2
S3150800318089B241913A998A1842920C9A149902FB8B
S3150800319009F2521A389903FB01232F9A2593139B98
S315080031A0B2F5006FB8BF1346339300231193119BF2
S315080031B0489A93423ADB0B9B01338BE7089A0899A6
S315080031C092FBF9F209FB121B1646BBF1000F0ED053
S315080031D0012F06F10106A9EB0B0B0ADD0A465A4434
S315080031E006FB09F191421CBF2822519201E0012FEA
S315080031F00CDC0D9A0B92A3E7012F14DD4A46012633
S315080032004FF0000BECE74A460126E9E7089AE7E79C
S3150800321001270C9A0B92012602E03E460D9A0B9264
S315080032204FF0000B8CE70D9A0B92F4E7119BBB420B
S31508003230C4BF28235193119BFB1A93FBF6F206FB96
S315080032401233002B18BF0132012A0A9B19920BD19F
S31508003250012B47DD00231093109A089B1344199AF3
S31508003260534309E01B930108012B38DCBBF1000F1F
S3150800327032D1089BCDF840B027934E9A199B1599E1
S3150800328053433D93199B259A73433093109B013BF7
S31508003290002B3E93CCBF4FF48773002344933F9B88
S315080032A001FB02330F9A17995343119A1D930C9BEE
S315080032B013440E9A01FB0323099A53431B930023D5
S315080032C02893289B3C9A934211DB119B0133119357
S315080032D0259B4B4425936AE728235193C9E7CDF8E4
S315080032E040B0B9E7089B279300231093C5E72F9BA7
S315080032F0B3F5006F14DB139BB3F5006F10DB1B9B54
S31508003300002B4FF02803519303DA099B002BC0F2D8
S31508003310AD81309BDDF888801A93139B129314E0D5
S315080033201B9BDDF8B880002BBCBF28235193099B53
S31508003330002B3D9B1A93339B129301DA2823519352
S31508003340129B002B01DA28235193DDE9313213430E
S31508003350459A13434D9A13431D9A1343DB0700F10D
S315080033608C81319B03EBD3735B1029932A9B03EB68
S31508003370D3735B103493239B03EBD372329B5210A7
S3150800338003EBD3735B103693249B03EBD3735B1069
S3150800339035930123204621934F920FF076F9219B0E
S315080033A00125002B14BF0523012351AAD4F868026E
S315080033B006924F9ABDF8A4100492349A0291039289
S315080033C0BDF89C2034910192419A1D990092399A30
S315080033D005950A4400214F930FF07FF951ABCDE9CB
S315080033E00553359BBDF820200493369B0192039321
S315080033F0349B294602931E9B429A0093D4F868028E
S315080034004F9B0FF06AF951AB0193439B479A009380
S315080034100223D4F8680219460FF098F951AB0193C4
S315080034201E9B032100933B9A0223D4F868020FF0EF
S315080034308DF951ABCDE90553099B1B990493129B52
S31508003440469A03931E9B0A440293BDF8283004212A
S315080034500193BDF868300093D4F868022B460FF044
S315080034603CF9B0EE490A0021D4F868020FF0ACF82E
S31508003470219B002B00F00C81F0EE480AB0EE480ABA
S315080034802946D4F86802FFF7AFF9B8EEE80A00252E
S31508003490B3EE400A0221D4F868020FF095F82046E8
S315080034A0099951AA0FF0BEF851AB41212046994A15
S315080034B0019300954EF62C430FF0F3F820460A992F
S315080034C051AA0FF0AFF82046199951AA0FF0AAF899
S315080034D02046089951AA0FF0A5F82046299951AA1D
S315080034E00FF0A0F851AB40F2CD112046CDE90053BC
S315080034F0894A8A4B0FF0D5F851AB40F2D711884A62
S315080035002046CDE900532B460FF0CBF820460FF0A6
S315080035102FF90222294620460FF045F902220121F9
S3150800352020460FF040F920460FF022F90A9B012B9E
S3150800353004DC0122294620460FF035F9109B002BA2
S3150800354004DD0222002120460FF02DF9219B002BD5
S3150800355000F0A680109B4A21023B129351AB0193BF
S315080035600023204600936F4A449B0FF09AF8129B5B
S3150800357051AD013B1A93129B40F2CD11002B4FF02F
S315080035804F6320460093684ACCBF4FF487730023E5
S3150800359001950FF086F8B8F1000F0FDD2A4641466F
S315080035A020460FF03FF800222046CF23114601950A
S315080035B000920FF076F820460FF0DAF84FF0000880
S315080035C051AD434641212046524A0195CDF8008027
S315080035D00FF067F81A9B012B65D119462A46204633
S315080035E00FF020F84346424641462046CDE900857D
S315080035F00FF057F820460FF0BBF802224146204646
S315080036000FF0D1F820460FF0B3F802220421204625
S315080036100FF0C9F80A9B012B04DD01220021204680
S315080036200FF0C1F820460FF0A3F8042220461146F1
S315080036300FF0B9F80122204611460FF0B4F804221B
S31508003640022120460FF0AFF80422032120460FF08E
S31508003650AAF820460FF08CF8519B002B40D01C9BF3
S31508003660002B3FF455AC40F26631F6E4309BDDF8AA
S3150800367088801A93139B129360E62A9B239A3493A5
S31508003680329B3693249B3593319B2993002381E6FD
S31508003690B0EE480A2946D4F868020EF095FFF4E61B
S315080036A03E9B129363E7ADDD129B2A46991E204680
S315080036B00EF0B8FF2A46204601210EF0B3FF424617
S315080036C0414643462046CDE900850EF0EAFF2046EE
S315080036D00FF04EF80222414620460FF064F889E7BB
S315080036E01C9B5BB9289B4C9A013328931D9B13445A
S315080036F01D93409A1B9B13441B93E2E52046FFF754
S315080037007FF951900028EDD053B0BDEC048BBDE88D
S31508003710F08F00BF00000450060001600E7E08000E
S315080037200607055000000550050302702DE9F04F05
S315080037302DED048B04468DB040B1D0F82CB0BBF10A
S31508003740000F05D03621CE480EF023FF21208DE14B
S31508003750036ADFEDCC8A13F0010F14BF4FF48062C1
S315080037604FF400629A42C0F2EB80FFF7F9F9D4ED04
S31508003770057AB8EEE78AE36C276A0793B4F85030FF
S3150800378017F0010609EE103AE36B05460593236C1C
S3150800379028EE288A0693BDF814A0BDF8189040F0C4
S315080037A0B88007EBD7784FEA6807C8F34F08CDE922
S315080037B000A80523314622680EF022FF05230121C1
S315080037C0CDE90098A26928460EF01AFF226B002A56
S315080037D000F0AE80A38E00930223194628460EF009
S315080037E0FFFECDE900A90123A26B032128460EF0AE
S315080037F007FFDFEDA40A0021B0EE600A28460EF0A6
S31508003800E9FEF0EE480AB0EE480A012128460EF015
S31508003810E1FEB0EE490A032128460EF0D5FE042142
S315080038202846079A0EF0C4FE4FF0000840F22D23F2
S315080038304246414628460093CDE901884346FFF7AC
S3150800384069F8914B40F2D712012128460093CDE939
S3150800385001888E4BFFF75EF840F2D7120221284600
S31508003860CDE901888A4BCDF80080FFF753F8002E82
S3150800387063D14A2203212846CDE90166854B009685
S31508003880FFF748F84FF0040800264FF0010B824B6B
S315080038905FFA88F840F2D71241462846CDE9013B3F
S315080038A000967E4BFFF736F8334652463146284691
S315080038B0CDE90166CDF80080FFF750F842F2020321
S315080038C04A4659462846CDE9008302963346FFF70D
S315080038D045F8022120232846CDE9001302965B46C7
S315080038E0BAB2FFF73BF859462846FEF75BFF0028B1
S315080038F040F0BC80DDE90510414394F9533094F952
S315080039005220A06B0DB0BDEC048BBDE8F04FFFF75D
S3150800391053B91FFA87F8CDE900A80123594622684A
S315080039200EF06EFE0123CDE900981946A2694AE712
S3150800393001235B4A009302234FE74FF00308A3E7EE
S31508003940FFF70EF9D4ED057AB8EEE78AB4F85030E9
S31508003950054628EE288A09EE103AE36BF0EE680A67
S315080039600793236CB0EE680A59460593E66C276AF6
S315080039700EF030FEF0EE480AB0EE480A012128465D
S315080039800EF028FE03212846B0EE490A0EF01CFE6A
S3150800399007F001083246042128460EF009FEB8F160
S315080039A0000F68D1052307EBD770401006934FF434
S315080039B080610BAB0AAAFFF7DBF8064600287FF4FE
S315080039C0C5AE314B014640F2D712CDE9010000934E
S315080039D028462E4BFEF79EFF40F2D71201212846B5
S315080039E0CDE901662A4B0096FEF794FFB8F1000F61
S315080039F044D102214A222846CDE90188254BCDF833
S31508003A000080FEF787FF032100264FF00108224BAE
S31508003A1040F2D7122846CDE9013800961F4BFEF72B
S31508003A2079FF334631462846BDF82820CDE9016698
S31508003A30CDF80080FEF792FF22234146CDE90083A8
S31508003A4028463346BDF82C200296FEF787FFB24675
S31508003A50B346079B5B456EDC0598079994F9533086
S31508003A60414394F95220A06BFFF7A6F80DB0BDECC0
S31508003A70048BBDE8F08F3846012397E70221C3E798
S31508003A807D930108000000380E7E080006000160DC
S31508003A9006070550000005500000D0230503045012
S31508003AA0E8930108A36922684B440893236B3244C0
S31508003AB0002B3DD033F81830A16B08EE103A08EB0E
S31508003AC00A03CB180993BDF82C3000210193BDF8E1
S31508003AD0283028460093069B0EF092FDBDF82C3040
S31508003AE001210193BDF828302846089A0093069BC1
S31508003AF00EF086FD0123099A0093032128460EF04D
S31508003B006FFDB0EE480A052128460EF05DFD01213D
S31508003B102846FEF747FEB9440028A7D108F1010850
S31508003B20059B4345BEDC0BF1010B9A443E4490E7E6
S31508003B3040F20003C0E74FF00009C846F0E700BFAF
S31508003B4058B1031F9FED137A0020DFED136A9FED2E
S31508003B50136A01EB4202914200D17047D3ED017A14
S31508003B60F8EEE77A67EE877AF4EEE67AF1EE10FA7F
S31508003B7003F104030CDCF4EE467AF1EE10FA48BFC2
S31508003B802120F3EE677A17EE90CA21F802CBE2E716
S31508003B902120F6E70000003800E07F4700E07FC7F5
S31508003BA02DE9F04F2DED048B0368C1B03293C3683D
S31508003BB090ED098A21930369D0ED088A11938369E8
S31508003BC0D0F804A02A93C36990F838502293036C5E
S31508003BD014911693C36B1293D0E90C832393C36A8B
S31508003BE02493836A259383682B9343692C93002334
S31508003BF03F93FEF7B9FF0446A5B9169B129A1343DD
S31508003C0010D021233F93149B8BB1DDE92B3213434C
S31508003C10DB070ED521233F934FF47B719D480EF0A9
S31508003C20B8FC04E0149B002BEFD13F9B23B13F98CF
S31508003C30F4E23F9B002BEFD120460EF0B0FD259A0B
S31508003C40219B9B1A129A134493FBF8F3249A0D931B
S31508003C50119B9B1A169A1344239A93FBF2F33493F7
S31508003C60229B03FB0AF31A93119B03FB0AF318938F
S31508003C700AFB02F33593189B189A08FB03F336934D
S31508003C80119B03FB08F30AFB03F33893219B534369
S31508003C901A9A39932A9B53432F9300230E934DF672
S31508003CA0000309EE103A0E9B229A934206DB149BF8
S31508003CB0002BBCD0FEF756FD3F90B8E7239A0E9B23
S31508003CC024995343169A9A1A2692169AD31A23EACD
S31508003CD0E373269A1793119B9B1A179A9942D4BF96
S31508003CE0C2EB0102C2EB03022D92269A002A1DDBC3
S31508003CF00E9A349924989842D8BF0A461D920E9A6D
S31508003D001D9B9B1A013309930999DDE9353201296F
S31508003D10D8BF1346189A299313433A9300232A9A2D
S31508003D20934206DB1D9B01330E93BCE70E9B1D9346
S31508003D30E5E708FB03F21299259D501A8A1A21997C
S31508003D4022EAE272091A8D42D4BFC2EB0505C2EB1C
S31508003D50010500280A9574DB2598884271DC0D99BF
S31508003D60C91A4F1C002970D00999012973DDA84585
S31508003D705BD03FDD012FA8EB05095DDC01250D9918
S31508003D800B91BD422946A8BF394633911A99681E38
S31508003D906943B1F5006FB8BF0020159001303B901C
S31508003DA00998129E0128D8BF384680B2309008FB81
S31508003DB003F0801B0244269E17983044119E06FB8A
S31508003DC002020AFB02F222981C920E9A00FB0323B7
S31508003DD00AFB03F328931A9BB1F5006FA8BF19468F
S31508003DE0002320911093109B339A934236DB0B9B4A
S31508003DF0013394E70A9991FBF8F508FB1519B9F10F
S31508003E00000F0DD0012F05F10105A8EB090909DD01
S31508003E10494405FB08F088421CBF28213F9101E070
S31508003E20012F0CDC0D990B91ABE7012F13DD4146F1
S31508003E3001254FF00009ECE741460125E9E70A9913
S31508003E40E7E701270B93012502E03D460D990B9103
S31508003E504FF0000995E70D990B91F4E7109BBB42CB
S31508003E60C4BF28233F93109BFB1A93FBF5F205FB6F
S31508003E701233002B18BF0132012A099B19920BD164
S31508003E80012B3DDD4FF0000B0A9B199A5B44534307
S31508003E9009E000BFEA930108012B2FDCB9F1000FF6
S31508003EA029D1CB460A9B1E93199B3B9ABBF1000F5F
S31508003EB002FB03F39BB23193ABF10203C8BF4FF089
S31508003EC0FF333793289B13931C9B1B9300231F9345
S31508003ED01F9B329A934280F2A681BAF1000F40F3F3
S31508003EE08B81139B002BBCBF28233F93139B2793DF
S31508003EF000230F9310E028233F93D2E7CB46C3E76E
S31508003F000A9B4FF0000B1E93CEE70F9B139A9B1844
S31508003F10279344BF28233F93209B0F9A002BBCBFAF
S31508003F2028233F931B9B9A180F9B0133534580F216
S31508003F3028813A9B27994AEA03030B43134313F054
S31508003F4001030C9340F02081209B13F001030C938E
S31508003F5040F01A81012602230C93189B3D920C9A75
S31508003F60204693FBF2F13C910EF08FFB0C9A3C999C
S31508003F709AFBF2F2D4F868022E9205920491299AD5
S31508003F800C99002E92FBF1F10CBF01230523039136
S31508003F90BDF8B410309A0291BDF8781000920191DC
S31508003FA03D9A2B993FAE0A44069600213C930EF0A3
S31508003FB094FB002305932E9B0C9A0493209B2C9923
S31508003FC093FBF2F201230392BDF824200293319B5E
S31508003FD00192279A009306960A443C9B0121D4F83D
S31508003FE068020EF07AFB4DF60003F0EE490A00EE81
S31508003FF0103A0021D4F86802FEF7F6FBF8EEE80A54
S31508004000F3EE600A0321B0EE600AD4F86802FEF700
S31508004010EBFBF8EEC80AF3EE600A0421B0EE600A7C
S31508004020D4F86802FEF7E0FB3246204609990EF0FE
S31508004030F9FA3246204619990EF0F4FA00234FF0A1
S31508004040805200934121204601960EF02AFB324603
S3150800405020460A990EF0E6FA324620462D990EF0C9
S31508004060E1FA002340F25311754A2046009301965F
S3150800407040F20A230EF015FB20460EF079FB0222C9
S31508004080002120460EF08FFB20460EF071FB099B9F
S31508004090012B04DC0122002120460EF084FBBBF133
S315080040A0000F73DD0222002120460EF07CFBBBF1D7
S315080040B0010F6BD03FAB01934FF01D6340F2D51152
S315080040C0009320464FF485735E4A0EF0EAFA159B74
S315080040D0ABF10206002B1DDD204615993FAA0EF00E
S315080040E0A1FA012120463FAA0EF09CFA00233FAA16
S315080040F019460093204601921A460EF0D2FA204637
S315080041000EF036FB0122204611460EF04CFB2046E7
S315080041100EF02EFB002E17DD012E3FAA47D13146A1
S3150800412020460EF07FFA3FAB0193002320461A463D
S31508004130194600930EF0B5FA20460EF019FB022236
S31508004140002120460EF02FFB20460EF011FB02221E
S31508004150012120460EF027FB099B012B04DD0122D5
S31508004160002120460EF01FFB20460EF001FB3F9B68
S31508004170002B38D0149B002B3FF459AD40F25C510C
S315080041804CE500260123E7E60026E6E63FAB019369
S315080041904FF01D6340F2D511009320460023294AAB
S315080041A00EF07FFA159B002BCEDD379E94E720464E
S315080041B0ABF103010EF036FA20463FAA01210EF0B4
S315080041C031FA3FAB0193002320461A46194600935D
S315080041D00EF067FA20460EF0CBFA0222002120469E
S315080041E00EF0E1FAA8E7149B93B90F9B0C9A1344B7
S315080041F09A450F933FF789AE1F9B399A01331F9350
S315080042001B9B13441B932F9A139B134413935FE62C
S315080042102046FEF7F5FB3F900028E6D041B0BDECFE
S31508004220048BBDE8F08F109B389A013310931C9BC2
S3150800423013441C931A9A289B13442893D3E500BF6A
S31508004240020001100304015008B501213A2000F0CC
S31508004250DFFE012304220321002002F087F9002053
S315080042600EF0AAFC0122354B3549C3F844244FF415
S315080042700022A3F550335A66324BD3F8FC20D201FC
S3150800428046D4D1F8803023F0030343F00203C1F883
S3150800429080304FF4607000F0E3FE2A4B00F5D5201D
S315080042A0D3F8F02000F2FC4042F00102C3F8F020F7
S315080042B0D3F8FC2042F08072C3F8FC20224AA3F50A
S315080042C05D431A60214B0222B0FBF3F0204B013804
S315080042D01861C3F8F0204FF48072C3F804234FF036
S315080042E060431C4A0020C3F8B02F1B4AC3F8802E2F
S315080042F0D3F8002E42F48072C3F8002EFF2283F80A
S315080043002020D3F8002E22F48072C3F8002E08BDB0
S31508004310D3F8FC2022F08072C3F8FC20D1F8802064
S3150800432022F0030242F00202C1F88020D3F8FC20F2
S3150800433042F08072C3F8FC20ABE700BF00D0035000
S315080043400080005000ED00E0FF030040F8590D0022
S31508004350000004E055CEACC5090001004FF06043EB
S31508004360D3F8802E30B5D20715D501240B4D8440DD
S31508004370D5F8FC2042F08072C5F8FC20D3F8002E50
S315080043802243C3F8002E53F82020002AF0D003F861
S315080043902010002030BD1120FCE700BF00ED00E032
S315080043A0032838B504460D4605D8094B33F81030AE
S315080043B0CB40DB0704D440F2FE3106480EF0E9F89C
S315080043C0302301225C43044BAA401A5138BD00BF72
S315080043D09E9401084D94010840E00350032838B51F
S315080043E004460D4605D8094B33F81030CB40DB0799
S315080043F004D440F22D4106480EF0CBF830230122B2
S315080044005C43044BAA401A5138BD00BF9E9401086C
S315080044104D94010840D0035038B504784578032CEC
S3150800442005D8094B33F81430EB40DB0704D44FF4B6
S31508004430896106480EF0ADF8302301225C43044B2F
S31508004440AA401A5138BD00BF9E9401084D94010830
S3150800445040F0035070B505780446032D467805D814
S315080044600C4B33F81530F340DB0704D44FF4836163
S3150800447009480EF08EF81022302313FB0523074A4D
S315080044809B58F34003F00100A3780BB980F00100B4
S3150800449070BD00BF9E9401084D94010830C00350BA
S315080044A02DE9F04F9A46564B85B01B7806460F46BF
S315080044B01546DDF83C909DF844B0DDF85080002B99
S315080044C000F09780072A00F296800E9B002B00F0DA
S315080044D09280B9F1000F00F08E80129BB3F5006F41
S315080044E000F38980012803D1109B002B00F08380FC
S315080044F0444B03EB05131B7B002B7ED0424C10224A
S315080045000021684610F03BFC04EB45141022A7BBBB
S315080045103946204610F033FC43F210036380BBF1A2
S31508004520000F03D1E37843F00303E370364A0E9B8A
S3150800453002EB451CCCE90193129B6901581E9DF8B4
S315080045404C30C0F30A0003F003039B0643EA001E3F
S3150800455053582E48012E00EA03004EEA0003CDF810
S3150800456000A0535017D0B8F1000F2ED19CF8023096
S3150800457068F304138CF8023027E00021204610F077
S31508004580FEFB4FF444736380BBF1000FCED1E37892
S3150800459043F03003C9E713230CF1100ECCF80C30A6
S315080045A09CE80F008EE80F006FF00301DCF81C2072
S315080045B0109B61F39F02012FCCF81C20CCF8143015
S315080045C003D1CCF81890CCF8043000270D4A2901FD
S315080045D002EB051342F80180159A28465A60694687
S315080045E022469F605E7302F093F8384605B0BDE830
S315080045F0F08F0748FAE70748F8E70748F6E700BFE5
S31508004600064200206C3700206C3600200F80FFF32E
S31508004610028000F0018000F0078000F038B5124BE8
S3150800462005461B78DBB1E0B10EF07FFA0F4A00238E
S315080046301146147B54B92B6001251A0101EB0313AB
S315080046401D738C500EF077FA204638BD0133082BBF
S3150800465002F11002EDD10EF06EFA0548F5E70548AD
S31508004660F3E70548F1E700BF064200206C37002053
S31508004670048000F0028000F0018000F038B50EF0EA
S3150800468054FA002305460B4A147B6CB90133082BF0
S3150800469002F11002F8D101F0B3FF074B28461C704F
S315080046A00EF049FA204603E028460EF044FA03487D
S315080046B038BD00BF6C37002006420020058000F098
S315080046C00D4B10B51B78044693B1072812D80EF087
S315080046D02CFA0A4B03EB04131A7B2AB100241C7329
S315080046E00EF029FA204610BD0EF025FA0448FAE71E
S315080046F00448F8E70448F6E7064200206C3700202D
S31508004700068000F0028000F0018000F0154B13B51A
S315080047101868002301908DF804300EF006FA124B43
S315080047201C7824B10EF007FA104802B010BD012219
S315080047301A700EF000FA0E4B01A81C731C7783F84A
S315080047402C4083F83C4083F84C4083F85C4083F85F
S315080047506C4083F87C4008238DF8073001F08EFF03
S315080047602046E2E7A694010806420020038000F0EE
S315080047706C3700200A4A08B512785AB107280BD8B0
S31508004780084A02EB00131B7B43B1002101F056FFD8
S31508004790002008BD0448FCE70448FAE70448F8E79F
S315080047A0064200206C370020028000F0018000F0ED
S315080047B0078000F00A4A08B512785AB107280BD8BC
S315080047C0084A02EB00131B7B43B1012101F036FFB7
S315080047D0002008BD0448FCE70448FAE70448F8E75F
S315080047E0064200206C370020028000F0018000F0AD
S315080047F0078000F00A4A08B5127852B107280AD885
S31508004800084A02EB00131B7B3BB102F003F80020B9
S3150800481008BD0548FCE70548FAE70548F8E700BF7C
S31508004820064200206C370020028000F0018000F06C
S31508004830078000F00D4B1B7893B1072812D889B171
S315080048400B4B03EB00131B7B73B10A4B1A6D012349
S315080048508340134214BF0123002300200B707047C6
S3150800486005487047054870470548704706420020C6
S315080048706C37002000000450028000F0018000F030
S31508004880078000F00B4A10B512780C4662B107286B
S315080048900CD859B1084A02EB00131B7B43B101F04F
S315080048A0D5FF2070002010BD0448FCE70448FAE74D
S315080048B00448F8E7064200206C370020028000F022
S315080048C0018000F0078000F0184B2DE9F0411F6DBC
S315080048D05B6D1F4000D5FEE701260025144CDFF866
S315080048E05880374218D02368C8F85060A3B1A16829
S315080048F0284601316268A1609847637B012B0BD17A
S3150800490050B90C4B03EB45131A7B60F341021A733B
S315080049101A7F60F341021A770135082D4FEA4606D9
S3150800492004F11004DDD1BDE8F08100BF0000045099
S315080049306C3700206C3600200020045070B5044601
S3150800494001250B4E04B970BD94FAA4F0B0FA80F0B4
S3150800495005FA00F306EB001224EA03045368002B59
S31508004960F0D0117B11B191689847EBE79847E9E7D2
S31508004970EC37002008B5192000F0E6FF28B14FF003
S315080049800072074BC3F880211A601A2000F0DCFF7A
S3150800499028B14FF08062024BC3F880211A6008BD27
S315080049A000E100E0F8B505460E4617460EF0BDF8DC
S315080049B0134B2C46D3F8242405F0FC0122FA05F300
S315080049C0DB0712D500230133DBB2042B04D1FF2405
S315080049D00EF0B1F82046F8BDEC1804F003040C44B8
S315080049E022FA04FC1CF0010FEDD1FF2CF0D00122B5
S315080049F0044B03EB0413C3E901671A73E8E700BF26
S31508004A0000C00350EC370020074BD3F82404D3F832
S31508004A10202403F50053104000F0553020F05020B4
S31508004A20C3F82004FFF78ABF00C00350074BD3F82A
S31508004A302404D3F8202403F50053104000F0AA30CC
S31508004A4020F0A020C3F82004FFF778BF00C0035069
S31508004A50044BD3F88420D206FBD4D3F88400C0F3E1
S31508004A60811070470040005038B5124B0546D3F800
S31508004A7080300C4603F00303022B0BD0032B0DD01A
S31508004A80012B0FD1FDF758FD0E2305B1286004B19F
S31508004A90236038BDFDF79AFD0723F6E7FDF746FDC7
S31508004AA00623F2E7044841F2DF110DF072FD0023F8
S31508004AB01846EAE700800050AA94010838B51A4B50
S31508004AC00546D3F820010C4600F00700062821D831
S31508004AD0DFE800F028040C1410181C00FDF726FD6A
S31508004AE0052305B1286004B1236038BDFDF754FDE0
S31508004AF00323F6E7FDF76AFD0723F2E7FDF762FDF4
S31508004B000223EEE7FDF712FD0623EAE7FDF744FD6B
S31508004B100423E6E7054841F25C210DF03AFD00233F
S31508004B201846DEE70123DCE700800050AA94010856
S31508004B3038B5194B0546D3F828310C4603F0070358
S31508004B40013B052B20D8DFE803F003131B0F0B17D7
S31508004B50FDF7ECFC052305B1286004B1236038BDD8
S31508004B60FDF7E4FC0623F6E7FDF730FD0723F2E739
S31508004B70FDF712FD0323EEE7FDF70EFD0423EAE732
S31508004B80FDF720FD0223E6E7044841F264010DF033
S31508004B9000FD00231846DEE700800050AA940108AD
S31508004BA0F7B50027144B0197D3F88041064604F061
S31508004BB00304022C0D4614D0032C0DD0012C14D15D
S31508004BC0394601A8FFF77AFF10240EB1019B33601E
S31508004BD005B12C6003B0F0BDFDF7F8FC0724019081
S31508004BE0F3E7FDF7EFFC0190EFE741F2B131034837
S31508004BF00DF0CFFC3C46E8E700800050AA94010877
S31508004C00002337B50193194B0546D3F820320C46D5
S31508004C1003F00703042B1FD8DFE803F025030F145E
S31508004C201900002101A8FFF783FF12230DB1019A8D
S31508004C302A6004B1236003B030BDFDF7C7FC072323
S31508004C400190F3E70DF09FFC0A230190EEE7FDF7CC
S31508004C50FFFC09230190E9E741F2230104480DF01E
S31508004C6098FC0023E2E70123E0E700BF008000503C
S31508004C70AA94010838B5104B0546D3F840310C46BE
S31508004C8003F00303022B0BD0032B0DD0012B0FD1FE
S31508004C900DF079FC0A2305B1286004B1236038BDFC
S31508004CA0FDF7D6FC0923F6E70DF070FC0C23F2E7B6
S31508004CB001230020EFE700BF00800050002337B52E
S31508004CC00193184B0546D3F860320C4603F00703E8
S31508004CD0013B032B1FD8DFE803F0020E191400214D
S31508004CE001A8FFF7EBFE10230DB1019A2A6004B163
S31508004CF0236003B030BD002101A8FFF7BBFF1123D5
S31508004D00F2E7FDF763FC07230190EDE7FDF75AFC90
S31508004D1002230190E8E741F2C80103480DF039FC87
S31508004D200023E1E700800050AA940108002337B564
S31508004D300193184B0546D3F894320C4603F0070343
S31508004D40013B032B1FD8DFE803F0020E19140021DC
S31508004D5001A8FFF7B3FE10230DB1019A2A6004B12A
S31508004D60236003B030BD002101A8FFF783FF11239C
S31508004D70F2E7FDF72BFC07230190EDE7FDF722FC90
S31508004D8002230190E8E741F2FB0103480DF001FC1C
S31508004D900023E1E700800050AA94010873B50024B7
S31508004DA00F4B0194D3F87032064603F00303012B28
S31508004DB00D4607D0022B11D041F2261109480DF0F5
S31508004DC0E8FB04E0214601A8FFF754FF11240EB1C1
S31508004DD0019B336005B12C6002B070BD1524F6E75F
S31508004DE000800050AA94010838B5164B0546D3F83A
S31508004DF000020C4600F00700042819D8DFE800F086
S31508004E0020030B0F13000DF0BEFB0A2305B1286023
S31508004E1004B1236038BDFDF71BFC0923F6E70DF046
S31508004E20B5FB0C23F2E7FDF7A1FB0F23800AEDE79C
S31508004E30054841F26F410DF0ACFB00231846E5E743
S31508004E400123E3E700800050AA94010838B5164B01
S31508004E500546D3F808020C4600F00700042819D8BE
S31508004E60DFE800F020030B0F13000DF08CFB0A237C
S31508004E7005B1286004B1236038BDFDF7E9FB0923B5
S31508004E80F6E70DF083FB0C23F2E7FDF76FFB0F2324
S31508004E90800AEDE7054841F2A7410DF07AFB0023A9
S31508004EA01846E5E70123E3E700800050AA940108C5
S31508004EB038B5104B0546D3F840320C4603F00303C9
S31508004EC0022B0BD0032B0DD0012B0FD10DF05BFB62
S31508004ED00A2305B1286004B1236038BDFDF7B8FB85
S31508004EE00923F6E70DF052FB0C23F2E70123002015
S31508004EF0EFE700BF0080005038B5104B0546D3F8E1
S31508004F0060310C4603F00303022B0BD0032B0DD0A4
S31508004F10012B0FD10DF037FB0A2305B1286004B128
S31508004F20236038BDFDF794FB0923F6E70DF02EFB49
S31508004F300C23F2E701230020EFE700BF00800050B2
S31508004F40B0F5207F10B52ED009D8B0F5007F24D053
S31508004F5003D868B1B0F5C07F0AD000241BE0B0F5CD
S31508004F60607FFAD1124BD3F88040C4F3011412E0E3
S31508004F700F4B1C6F230B13F00E0FC4F303340AD028
S31508004F80072C08D00F2C06D0032C04D040F285211C
S31508004F9008480DF0FEFA601C10BD054BD3F890408A
S31508004FA0C4F30464F7E7024B1C6FC4F38024F2E7EA
S31508004FB000800050AA9401084FF4803238B5104B8F
S31508004FC004469A6600200D46FFF7BAFF41F671328D
S31508004FD00C4B6043DC69DA635A6804F4803422F4C3
S31508004FE040125DB90849884294BF00200120000597
S31508004FF002435A600CB10022DA6338BD0349F2E76E
S315080050000090005000000350005A6202002D310142
S3150800501038B5430904460D460ED140F22F310D48E6
S315080050200DF0B7FA002304F01F0485B103F5805389
S315080050300122A2401A6038BD012B04D0022B04D0ED
S3150800504040F23D31EBE7044BEDE7044BEBE703F5A4
S315080050500053EDE7AA940108648000506880005068
S31508005060002130B5802885B00446CDE9001100F04E
S315080050709F8035D85E2846D85E2844D8DFE800F0F9
S315080050809E43434343434343434343434343434387
S3150800509043434343434343434343434343434343D2
S315080050A09EAB9EABBBBBBBBBBBABC550DB7450ABAF
S315080050B0ABAB4343434343434343ABABAB7CE5AB67
S315080050C043434343434343434343434343BB9E9E74
S315080050D09EE05050EA8B61C04343434343939E008E
S315080050E0B0F5B06F00F0918030D8B0F5207F72D05F
S315080050F00FD8B0F5C07F61D0B0F5007F61D0B0F5AC
S31508005100807F00F0878040F2944155480DF041FABF
S3150800511051E0B0F5607F69D00DD8B0F5407FF2D187
S31508005120FDF724FA04464FF42070FFF709FFB4FB95
S31508005130F0F4640858E0B0F5806F5CD0B0F5A06F65
S31508005140E1D100216846FFF75BFD34E0B0F5106F4A
S3150800515076D016D8B0F5E06F77D00AD8B0F5C06F1C
S3150800516069D0B0F5D06FCED100216846FFF73CFE76
S3150800517021E0B0F5F06FC6D100216846FFF7BCFE06
S3150800518019E0B0F5406F3BD00AD8B0F5206F61D072
S31508005190B0F5286FB7D100216846FFF7FFFD0AE092
S315080051A0B0F5486FAFD100216846FFF7BFFD02E0B2
S315080051B0FDF7C2F90090009805B030BDFDF7D6F9A5
S315080051C0F8E7FDF7B9F905462046FFF7B9FEB5FB3E
S315080051D0F0F50095EFE7FDF7C9F904464FF420709E
S315080051E0FFF7AEFEB4FBF0F40094E4E701A8FFF77E
S315080051F03BFC019DE8E700216846FFF75FFCDAE71C
S3150800520000216846FFF794FCD5E700216846FFF7BA
S31508005210C7FCD0E74FF0E02302911B695B0705D571
S31508005220FDF7A4F90290029B0093C4E703A902A81C
S31508005230FFF720FDF7E700216846FFF71BFDBAE7F1
S3150800524000216846FFF702FEB5E700216846FFF72A
S315080052502FFEB0E700216846FFF730FDABE700BF39
S31508005260AA94010808B58020FFF7FAFE034B984276
S315080052709EBF4FF48032024B1A6708BD005A62027D
S3150800528000A000501FB503460020B3F5807F0190AB
S3150800529000F0C28063D85D2B54D84C2B06D82D2B32
S315080052A046D8232B2AD840F27951A4E04D3B102B3F
S315080052B0F9D801A252F823F00F540008A7520008A3
S315080052C0A7520008A7520008C1530008A7520008B1
S315080052D0A752000893540008DF53000885530008B6
S315080052E089540008A7520008A7520008A7520008C8
S315080052F0A7520008A75200089D540008243B092B12
S31508005300D1D801A252F823F00F5400080F54000810
S315080053100F5400080F5400080F540008A75200083D
S31508005320FF530008A7520008A15300084554000877
S315080053303D2B00F082803E2BB5D1002001A9FFF756
S31508005340B7FD60E0802BAED1574B1B6F03F0070308
S31508005350013B032B4DD8DFE803F04A47878FB3F5A7
S31508005360F06F6AD021D8B3F5B06F48D00FD8B3F52F
S31508005370607F00F0858096D3B3F5806F47D0B3F58C
S31508005380A06F90D1002001A9FFF73AFC3BE0B3F5E6
S31508005390D06F57D0B3F5E06FCFD0B3F5C06F82D1D9
S315080053A0002001A9FFF766FC2DE0B3F5206F70D049
S315080053B00BD8B3F5086F4AD0B3F5106F7FF473AF07
S315080053C0002001A9FFF742FD1DE0B3F5406F5BD051
S315080053D0B3F5486F62D0B3F5286F7FF464AF002049
S315080053E001A9FFF7DBFC0EE0052301930BE002237E
S315080053F0FBE740F2C6412D480DF0CBF803E000204C
S3150800540001A9FFF7CDFB019805B05DF804FB002064
S3150800541001A9FFF753FBF6E74FF0E02302901B695B
S315080054205B0705D5FDF7A2F80D230393039BDCE77D
S3150800543003A902A8FFF71EFCF8E7002001A9FFF759
S315080054405BFDE0E7002001A9FFF7CEFCDBE7164B82
S31508005450D3F8003103F00303022B07D0032B09D03E
S31508005460012B0BD1FDF798F80323BEE7FDF7F0F8FB
S315080054700923BAE70DF085F80823B6E70123B4E750
S3150800548001A9FFF7F1FABEE7002001A9FFF750FBD3
S31508005490B9E7002001A9FFF711FCB4E7002001A92C
S315080054A0FFF744FCAFE700BF00800050AA9401084C
S315080054B04FF48012034B5A664FF48032024B9A62BD
S315080054C0704700BF009000500050005A38B5036876
S315080054D004460F2B04D940F66D317C480DF059F877
S315080054E063680F2B04D94FF4376178480DF051F8EB
S315080054F0A3680F2B04D940F6733174480DF049F8A8
